{
  "contractName": "BeltPromotionManagement",
  "abi": [
    {
      "inputs": [
        {
          "internalType": "address",
          "name": "_beltStorageAddress",
          "type": "address"
        }
      ],
      "stateMutability": "nonpayable",
      "type": "constructor"
    },
    {
      "anonymous": false,
      "inputs": [
        {
          "indexed": true,
          "internalType": "uint256",
          "name": "judokaId",
          "type": "uint256"
        },
        {
          "indexed": false,
          "internalType": "enum JudoBeltStorage.BeltLevel",
          "name": "newBeltLevel",
          "type": "uint8"
        }
      ],
      "name": "JudokaPromoted",
      "type": "event"
    },
    {
      "inputs": [
        {
          "internalType": "uint256",
          "name": "_judokaId",
          "type": "uint256"
        },
        {
          "internalType": "enum JudoBeltStorage.BeltLevel",
          "name": "_newBeltLevel",
          "type": "uint8"
        }
      ],
      "name": "promoteJudoka",
      "outputs": [],
      "stateMutability": "nonpayable",
      "type": "function"
    }
  ],
  "bytecode": "0x608060405234801561001057600080fd5b506040516109cb3803806109cb8339818101604052810190610032919061008d565b806000806101000a81548173ffffffffffffffffffffffffffffffffffffffff021916908373ffffffffffffffffffffffffffffffffffffffff160217905550506100ff565b600081519050610087816100e8565b92915050565b60006020828403121561009f57600080fd5b60006100ad84828501610078565b91505092915050565b60006100c1826100c8565b9050919050565b600073ffffffffffffffffffffffffffffffffffffffff82169050919050565b6100f1816100b6565b81146100fc57600080fd5b50565b6108bd8061010e6000396000f3fe608060405234801561001057600080fd5b506004361061002b5760003560e01c806322b9dd9014610030575b600080fd5b61004a60048036038101906100459190610532565b61004c565b005b6000821180156100f9575060008054906101000a900473ffffffffffffffffffffffffffffffffffffffff1673ffffffffffffffffffffffffffffffffffffffff1663cab96b706040518163ffffffff1660e01b815260040160206040518083038186803b1580156100bd57600080fd5b505afa1580156100d1573d6000803e3d6000fd5b505050506040513d601f19601f820116820180604052508101906100f59190610509565b8211155b610138576040517f08c379a000000000000000000000000000000000000000000000000000000000815260040161012f9061066d565b60405180910390fd5b60008060009054906101000a900473ffffffffffffffffffffffffffffffffffffffff1673ffffffffffffffffffffffffffffffffffffffff166393184239846040518263ffffffff1660e01b8152600401610194919061068d565b60006040518083038186803b1580156101ac57600080fd5b505afa1580156101c0573d6000803e3d6000fd5b505050506040513d6000823e3d601f19601f820116820180604052508101906101e991906104c8565b606001519050806006811115610228577f4e487b7100000000000000000000000000000000000000000000000000000000600052602160045260246000fd5b826006811115610261577f4e487b7100000000000000000000000000000000000000000000000000000000600052602160045260246000fd5b116102a1576040517f08c379a00000000000000000000000000000000000000000000000000000000081526004016102989061064d565b60405180910390fd5b60008054906101000a900473ffffffffffffffffffffffffffffffffffffffff1673ffffffffffffffffffffffffffffffffffffffff1663ad0c06ae84846040518363ffffffff1660e01b81526004016102fc9291906106a8565b600060405180830381600087803b15801561031657600080fd5b505af115801561032a573d6000803e3d6000fd5b50505050827ff7ba539ac00292a19724010be25c6d7f693ea2a84ea0894515a77f98e515a96a8360405161035e9190610632565b60405180910390a2505050565b600061037e61037984610702565b6106d1565b90508281526020810184848401111561039657600080fd5b6103a18482856107a4565b509392505050565b6000815190506103b881610849565b92915050565b6000813590506103cd81610860565b92915050565b6000815190506103e281610860565b92915050565b600082601f8301126103f957600080fd5b815161040984826020860161036b565b91505092915050565b60006080828403121561042457600080fd5b61042e60806106d1565b9050600061043e848285016104b3565b600083015250602082015167ffffffffffffffff81111561045e57600080fd5b61046a848285016103e8565b602083015250604061047e848285016103a9565b6040830152506060610492848285016103d3565b60608301525092915050565b6000813590506104ad81610870565b92915050565b6000815190506104c281610870565b92915050565b6000602082840312156104da57600080fd5b600082015167ffffffffffffffff8111156104f457600080fd5b61050084828501610412565b91505092915050565b60006020828403121561051b57600080fd5b6000610529848285016104b3565b91505092915050565b6000806040838503121561054557600080fd5b60006105538582860161049e565b9250506020610564858286016103be565b9150509250929050565b61057781610792565b82525050565b600061058a603183610732565b91507f4e65772062656c74206c6576656c206d7573742062652068696768657220746860008301527f616e2063757272656e74206c6576656c2e0000000000000000000000000000006020830152604082019050919050565b60006105f0601683610732565b91507f4a75646f6b6120646f6573206e6f742065786973742e000000000000000000006000830152602082019050919050565b61062c81610788565b82525050565b6000602082019050610647600083018461056e565b92915050565b600060208201905081810360008301526106668161057d565b9050919050565b60006020820190508181036000830152610686816105e3565b9050919050565b60006020820190506106a26000830184610623565b92915050565b60006040820190506106bd6000830185610623565b6106ca602083018461056e565b9392505050565b6000604051905081810181811067ffffffffffffffff821117156106f8576106f7610806565b5b8060405250919050565b600067ffffffffffffffff82111561071d5761071c610806565b5b601f19601f8301169050602081019050919050565b600082825260208201905092915050565b600061074e82610768565b9050919050565b600081905061076382610835565b919050565b600073ffffffffffffffffffffffffffffffffffffffff82169050919050565b6000819050919050565b600061079d82610755565b9050919050565b60005b838110156107c25780820151818401526020810190506107a7565b838111156107d1576000848401525b50505050565b7f4e487b7100000000000000000000000000000000000000000000000000000000600052602160045260246000fd5b7f4e487b7100000000000000000000000000000000000000000000000000000000600052604160045260246000fd5b60078110610846576108456107d7565b5b50565b61085281610743565b811461085d57600080fd5b50565b6007811061086d57600080fd5b50565b61087981610788565b811461088457600080fd5b5056fea2646970667358221220573064526dddaf56efc8037ee7a3c34999be3e3d84f52ba5e805df2d4a57410264736f6c63430008000033",
  "immutableReferences": {},
  "source": "// SPDX-License-Identifier: MIT\r\npragma solidity ^0.8.0;\r\n\r\nimport \"./JudoBeltStorage.sol\";\r\n\r\ncontract BeltPromotionManagement {\r\n    JudoBeltStorage private beltStorage;\r\n\r\n    // Event to be emitted when a judoka is promoted\r\n    event JudokaPromoted(uint256 indexed judokaId, JudoBeltStorage.BeltLevel newBeltLevel);\r\n\r\n    constructor(address _beltStorageAddress) {\r\n        beltStorage = JudoBeltStorage(_beltStorageAddress);\r\n    }\r\n\r\n    // Function to promote a judoka to a higher belt level\r\n    function promoteJudoka(uint256 _judokaId, JudoBeltStorage.BeltLevel _newBeltLevel) public {\r\n        require(_judokaId > 0 && _judokaId <= beltStorage.judokaCount(), \"Judoka does not exist.\");\r\n        JudoBeltStorage.BeltLevel currentBeltLevel = beltStorage.getJudoka(_judokaId).beltLevel;\r\n        require(uint(_newBeltLevel) > uint(currentBeltLevel), \"New belt level must be higher than current level.\");\r\n        \r\n        // Update the belt level in the JudoBeltStorage contract\r\n        beltStorage.setBeltLevel(_judokaId, _newBeltLevel);\r\n\r\n        // Emit an event for successful promotion\r\n        emit JudokaPromoted(_judokaId, _newBeltLevel);\r\n    }\r\n}\r\n",
  "sourcePath": "C:\\Users\\marti\\Documents\\projects\\judo-dapp\\contracts\\BeltPromotionManagement.sol",
  "compiler": {
    "name": "solc",
    "version": "0.8.0+commit.c7dfd78e.Emscripten.clang"
  },
  "schemaVersion": "3.4.16",
  "updatedAt": "2024-01-16T09:41:30.018Z",
  "networkType": "ethereum",
  "devdoc": {
    "kind": "dev",
    "methods": {},
    "version": 1
  },
  "userdoc": {
    "kind": "user",
    "methods": {},
    "version": 1
  }
}