{
  "contractName": "BeltPromotionManagement",
  "abi": [
    {
      "inputs": [
        {
          "internalType": "address",
          "name": "_beltStorageAddress",
          "type": "address"
        }
      ],
      "stateMutability": "nonpayable",
      "type": "constructor"
    },
    {
      "anonymous": false,
      "inputs": [
        {
          "indexed": true,
          "internalType": "uint256",
          "name": "judokaId",
          "type": "uint256"
        },
        {
          "indexed": false,
          "internalType": "enum JudoBeltStorage.BeltLevel",
          "name": "newBeltLevel",
          "type": "uint8"
        }
      ],
      "name": "JudokaPromoted",
      "type": "event"
    },
    {
      "inputs": [
        {
          "internalType": "uint256",
          "name": "_judokaId",
          "type": "uint256"
        },
        {
          "internalType": "enum JudoBeltStorage.BeltLevel",
          "name": "_newBeltLevel",
          "type": "uint8"
        }
      ],
      "name": "promoteJudoka",
      "outputs": [],
      "stateMutability": "nonpayable",
      "type": "function"
    }
  ],
  "bytecode": "0x608060405234801561001057600080fd5b506040516109a93803806109a98339818101604052810190610032919061008d565b806000806101000a81548173ffffffffffffffffffffffffffffffffffffffff021916908373ffffffffffffffffffffffffffffffffffffffff160217905550506100ff565b600081519050610087816100e8565b92915050565b60006020828403121561009f57600080fd5b60006100ad84828501610078565b91505092915050565b60006100c1826100c8565b9050919050565b600073ffffffffffffffffffffffffffffffffffffffff82169050919050565b6100f1816100b6565b81146100fc57600080fd5b50565b61089b8061010e6000396000f3fe608060405234801561001057600080fd5b506004361061002b5760003560e01c806322b9dd9014610030575b600080fd5b61004a60048036038101906100459190610510565b61004c565b005b8160008054906101000a900473ffffffffffffffffffffffffffffffffffffffff1673ffffffffffffffffffffffffffffffffffffffff166393184239846040518263ffffffff1660e01b81526004016100a6919061066b565b60006040518083038186803b1580156100be57600080fd5b505afa1580156100d2573d6000803e3d6000fd5b505050506040513d6000823e3d601f19601f820116820180604052508101906100fb91906104cf565b600001511461013f576040517f08c379a00000000000000000000000000000000000000000000000000000000081526004016101369061064b565b60405180910390fd5b60008060009054906101000a900473ffffffffffffffffffffffffffffffffffffffff1673ffffffffffffffffffffffffffffffffffffffff166393184239846040518263ffffffff1660e01b815260040161019b919061066b565b60006040518083038186803b1580156101b357600080fd5b505afa1580156101c7573d6000803e3d6000fd5b505050506040513d6000823e3d601f19601f820116820180604052508101906101f091906104cf565b60600151905080600681111561022f577f4e487b7100000000000000000000000000000000000000000000000000000000600052602160045260246000fd5b826006811115610268577f4e487b7100000000000000000000000000000000000000000000000000000000600052602160045260246000fd5b116102a8576040517f08c379a000000000000000000000000000000000000000000000000000000000815260040161029f9061062b565b60405180910390fd5b60008054906101000a900473ffffffffffffffffffffffffffffffffffffffff1673ffffffffffffffffffffffffffffffffffffffff1663ad0c06ae84846040518363ffffffff1660e01b8152600401610303929190610686565b600060405180830381600087803b15801561031d57600080fd5b505af1158015610331573d6000803e3d6000fd5b50505050827ff7ba539ac00292a19724010be25c6d7f693ea2a84ea0894515a77f98e515a96a836040516103659190610610565b60405180910390a2505050565b6000610385610380846106e0565b6106af565b90508281526020810184848401111561039d57600080fd5b6103a8848285610782565b509392505050565b6000815190506103bf81610827565b92915050565b6000813590506103d48161083e565b92915050565b6000815190506103e98161083e565b92915050565b600082601f83011261040057600080fd5b8151610410848260208601610372565b91505092915050565b60006080828403121561042b57600080fd5b61043560806106af565b90506000610445848285016104ba565b600083015250602082015167ffffffffffffffff81111561046557600080fd5b610471848285016103ef565b6020830152506040610485848285016103b0565b6040830152506060610499848285016103da565b60608301525092915050565b6000813590506104b48161084e565b92915050565b6000815190506104c98161084e565b92915050565b6000602082840312156104e157600080fd5b600082015167ffffffffffffffff8111156104fb57600080fd5b61050784828501610419565b91505092915050565b6000806040838503121561052357600080fd5b6000610531858286016104a5565b9250506020610542858286016103c5565b9150509250929050565b61055581610770565b82525050565b6000610568603183610710565b91507f4e65772062656c74206c6576656c206d7573742062652068696768657220746860008301527f616e2063757272656e74206c6576656c2e0000000000000000000000000000006020830152604082019050919050565b60006105ce601683610710565b91507f4a75646f6b6120646f6573206e6f742065786973742e000000000000000000006000830152602082019050919050565b61060a81610766565b82525050565b6000602082019050610625600083018461054c565b92915050565b600060208201905081810360008301526106448161055b565b9050919050565b60006020820190508181036000830152610664816105c1565b9050919050565b60006020820190506106806000830184610601565b92915050565b600060408201905061069b6000830185610601565b6106a8602083018461054c565b9392505050565b6000604051905081810181811067ffffffffffffffff821117156106d6576106d56107e4565b5b8060405250919050565b600067ffffffffffffffff8211156106fb576106fa6107e4565b5b601f19601f8301169050602081019050919050565b600082825260208201905092915050565b600061072c82610746565b9050919050565b600081905061074182610813565b919050565b600073ffffffffffffffffffffffffffffffffffffffff82169050919050565b6000819050919050565b600061077b82610733565b9050919050565b60005b838110156107a0578082015181840152602081019050610785565b838111156107af576000848401525b50505050565b7f4e487b7100000000000000000000000000000000000000000000000000000000600052602160045260246000fd5b7f4e487b7100000000000000000000000000000000000000000000000000000000600052604160045260246000fd5b60078110610824576108236107b5565b5b50565b61083081610721565b811461083b57600080fd5b50565b6007811061084b57600080fd5b50565b61085781610766565b811461086257600080fd5b5056fea26469706673582212202ac0b40db132c5cd9282bdc6dfa98cbbec20253b7c260b69a3f01bc012147c3a64736f6c63430008000033",
  "immutableReferences": {},
  "source": "// SPDX-License-Identifier: MIT\r\npragma solidity ^0.8.0;\r\n\r\nimport \"./JudoBeltStorage.sol\";\r\n\r\ncontract BeltPromotionManagement {\r\n    JudoBeltStorage private beltStorage;\r\n\r\n    event JudokaPromoted(uint256 indexed judokaId, JudoBeltStorage.BeltLevel newBeltLevel);\r\n\r\n    constructor(address _beltStorageAddress) {\r\n        beltStorage = JudoBeltStorage(_beltStorageAddress);\r\n    }\r\n\r\n    function promoteJudoka(uint256 _judokaId, JudoBeltStorage.BeltLevel _newBeltLevel) public {\r\nrequire(beltStorage.getJudoka(_judokaId).id == _judokaId, \"Judoka does not exist.\");\r\n    JudoBeltStorage.BeltLevel currentBeltLevel = beltStorage.getJudoka(_judokaId).beltLevel;\r\n    require(uint(_newBeltLevel) > uint(currentBeltLevel), \"New belt level must be higher than current level.\");\r\n\r\n    beltStorage.setBeltLevel(_judokaId, _newBeltLevel);\r\n    emit JudokaPromoted(_judokaId, _newBeltLevel);\r\n}\r\n}\r\n",
  "sourcePath": "C:\\Users\\marti\\Documents\\projects\\judo-dapp\\contracts\\BeltPromotionManagement.sol",
  "compiler": {
    "name": "solc",
    "version": "0.8.0+commit.c7dfd78e.Emscripten.clang"
  },
  "schemaVersion": "3.4.16",
  "updatedAt": "2024-01-16T11:10:19.085Z",
  "networkType": "ethereum",
  "devdoc": {
    "kind": "dev",
    "methods": {},
    "version": 1
  },
  "userdoc": {
    "kind": "user",
    "methods": {},
    "version": 1
  }
}