{
  "contractName": "JudoBeltSystem",
  "abi": [
    {
      "inputs": [],
      "stateMutability": "nonpayable",
      "type": "constructor"
    },
    {
      "anonymous": false,
      "inputs": [
        {
          "indexed": true,
          "internalType": "uint256",
          "name": "id",
          "type": "uint256"
        },
        {
          "indexed": false,
          "internalType": "enum JudoBeltSystem.BeltLevel",
          "name": "oldBeltLevel",
          "type": "uint8"
        },
        {
          "indexed": false,
          "internalType": "enum JudoBeltSystem.BeltLevel",
          "name": "newBeltLevel",
          "type": "uint8"
        },
        {
          "indexed": false,
          "internalType": "uint256",
          "name": "timestamp",
          "type": "uint256"
        }
      ],
      "name": "BeltLevelUpdated",
      "type": "event"
    },
    {
      "anonymous": false,
      "inputs": [
        {
          "indexed": true,
          "internalType": "uint256",
          "name": "id",
          "type": "uint256"
        },
        {
          "indexed": false,
          "internalType": "string",
          "name": "name",
          "type": "string"
        },
        {
          "indexed": false,
          "internalType": "address",
          "name": "walletAddress",
          "type": "address"
        },
        {
          "indexed": false,
          "internalType": "enum JudoBeltSystem.BeltLevel",
          "name": "beltLevel",
          "type": "uint8"
        },
        {
          "indexed": false,
          "internalType": "uint256",
          "name": "dateOfBirth",
          "type": "uint256"
        },
        {
          "indexed": false,
          "internalType": "enum JudoBeltSystem.Gender",
          "name": "gender",
          "type": "uint8"
        },
        {
          "indexed": false,
          "internalType": "string",
          "name": "email",
          "type": "string"
        },
        {
          "indexed": false,
          "internalType": "string",
          "name": "phoneNumber",
          "type": "string"
        },
        {
          "indexed": false,
          "internalType": "uint256",
          "name": "timestamp",
          "type": "uint256"
        }
      ],
      "name": "JudokaRegistered",
      "type": "event"
    },
    {
      "inputs": [],
      "name": "admin",
      "outputs": [
        {
          "internalType": "address",
          "name": "",
          "type": "address"
        }
      ],
      "stateMutability": "view",
      "type": "function"
    },
    {
      "inputs": [],
      "name": "judokaCount",
      "outputs": [
        {
          "internalType": "uint256",
          "name": "",
          "type": "uint256"
        }
      ],
      "stateMutability": "view",
      "type": "function"
    },
    {
      "inputs": [
        {
          "internalType": "address",
          "name": "",
          "type": "address"
        }
      ],
      "name": "judokaIds",
      "outputs": [
        {
          "internalType": "uint256",
          "name": "",
          "type": "uint256"
        }
      ],
      "stateMutability": "view",
      "type": "function"
    },
    {
      "inputs": [
        {
          "internalType": "uint256",
          "name": "",
          "type": "uint256"
        }
      ],
      "name": "judokaPoints",
      "outputs": [
        {
          "internalType": "uint256",
          "name": "",
          "type": "uint256"
        }
      ],
      "stateMutability": "view",
      "type": "function"
    },
    {
      "inputs": [
        {
          "internalType": "uint256",
          "name": "",
          "type": "uint256"
        }
      ],
      "name": "judokas",
      "outputs": [
        {
          "internalType": "uint256",
          "name": "id",
          "type": "uint256"
        },
        {
          "internalType": "string",
          "name": "name",
          "type": "string"
        },
        {
          "internalType": "address",
          "name": "walletAddress",
          "type": "address"
        },
        {
          "internalType": "enum JudoBeltSystem.BeltLevel",
          "name": "beltLevel",
          "type": "uint8"
        },
        {
          "internalType": "uint256",
          "name": "dateOfBirth",
          "type": "uint256"
        },
        {
          "internalType": "enum JudoBeltSystem.Gender",
          "name": "gender",
          "type": "uint8"
        },
        {
          "internalType": "string",
          "name": "email",
          "type": "string"
        },
        {
          "internalType": "string",
          "name": "phoneNumber",
          "type": "string"
        }
      ],
      "stateMutability": "view",
      "type": "function"
    },
    {
      "inputs": [
        {
          "internalType": "string",
          "name": "_name",
          "type": "string"
        },
        {
          "internalType": "address",
          "name": "_walletAddress",
          "type": "address"
        },
        {
          "internalType": "uint256",
          "name": "_dateOfBirth",
          "type": "uint256"
        },
        {
          "internalType": "uint8",
          "name": "_gender",
          "type": "uint8"
        },
        {
          "internalType": "string",
          "name": "_email",
          "type": "string"
        },
        {
          "internalType": "string",
          "name": "_phoneNumber",
          "type": "string"
        }
      ],
      "name": "registerBlackBelt",
      "outputs": [],
      "stateMutability": "nonpayable",
      "type": "function"
    },
    {
      "inputs": [
        {
          "internalType": "string",
          "name": "_name",
          "type": "string"
        },
        {
          "internalType": "address",
          "name": "_walletAddress",
          "type": "address"
        },
        {
          "internalType": "uint256",
          "name": "_dateOfBirth",
          "type": "uint256"
        },
        {
          "internalType": "uint8",
          "name": "_gender",
          "type": "uint8"
        },
        {
          "internalType": "string",
          "name": "_email",
          "type": "string"
        },
        {
          "internalType": "string",
          "name": "_phoneNumber",
          "type": "string"
        }
      ],
      "name": "registerJudoka",
      "outputs": [],
      "stateMutability": "nonpayable",
      "type": "function"
    },
    {
      "inputs": [
        {
          "internalType": "uint256",
          "name": "_id",
          "type": "uint256"
        }
      ],
      "name": "getJudokaInfo",
      "outputs": [
        {
          "components": [
            {
              "internalType": "uint256",
              "name": "id",
              "type": "uint256"
            },
            {
              "internalType": "string",
              "name": "name",
              "type": "string"
            },
            {
              "internalType": "address",
              "name": "walletAddress",
              "type": "address"
            },
            {
              "internalType": "enum JudoBeltSystem.BeltLevel",
              "name": "beltLevel",
              "type": "uint8"
            },
            {
              "internalType": "uint256",
              "name": "dateOfBirth",
              "type": "uint256"
            },
            {
              "internalType": "enum JudoBeltSystem.Gender",
              "name": "gender",
              "type": "uint8"
            },
            {
              "internalType": "string",
              "name": "email",
              "type": "string"
            },
            {
              "internalType": "string",
              "name": "phoneNumber",
              "type": "string"
            }
          ],
          "internalType": "struct JudoBeltSystem.Judoka",
          "name": "",
          "type": "tuple"
        }
      ],
      "stateMutability": "view",
      "type": "function"
    },
    {
      "inputs": [
        {
          "internalType": "uint256",
          "name": "_id",
          "type": "uint256"
        }
      ],
      "name": "getBeltLevel",
      "outputs": [
        {
          "internalType": "enum JudoBeltSystem.BeltLevel",
          "name": "",
          "type": "uint8"
        }
      ],
      "stateMutability": "view",
      "type": "function"
    },
    {
      "inputs": [
        {
          "internalType": "uint256",
          "name": "_id",
          "type": "uint256"
        },
        {
          "internalType": "enum JudoBeltSystem.BeltLevel",
          "name": "_newBeltLevel",
          "type": "uint8"
        }
      ],
      "name": "promoteJudoka",
      "outputs": [],
      "stateMutability": "nonpayable",
      "type": "function"
    },
    {
      "inputs": [
        {
          "internalType": "address",
          "name": "_address",
          "type": "address"
        }
      ],
      "name": "isBlackBelt",
      "outputs": [
        {
          "internalType": "bool",
          "name": "",
          "type": "bool"
        }
      ],
      "stateMutability": "view",
      "type": "function"
    },
    {
      "inputs": [
        {
          "internalType": "uint256",
          "name": "_id",
          "type": "uint256"
        },
        {
          "internalType": "address",
          "name": "_sender",
          "type": "address"
        }
      ],
      "name": "isAuthorized",
      "outputs": [
        {
          "internalType": "bool",
          "name": "",
          "type": "bool"
        }
      ],
      "stateMutability": "view",
      "type": "function"
    },
    {
      "inputs": [
        {
          "internalType": "address",
          "name": "_sender",
          "type": "address"
        }
      ],
      "name": "isAdmin",
      "outputs": [
        {
          "internalType": "bool",
          "name": "",
          "type": "bool"
        }
      ],
      "stateMutability": "view",
      "type": "function"
    },
    {
      "inputs": [
        {
          "internalType": "uint256",
          "name": "_id",
          "type": "uint256"
        },
        {
          "internalType": "uint256",
          "name": "_points",
          "type": "uint256"
        }
      ],
      "name": "updateJudokaPoints",
      "outputs": [],
      "stateMutability": "nonpayable",
      "type": "function"
    }
  ],
  "bytecode": "0x608060405234801561001057600080fd5b5033600460006101000a81548173ffffffffffffffffffffffffffffffffffffffff021916908373ffffffffffffffffffffffffffffffffffffffff160217905550612600806100616000396000f3fe608060405234801561001057600080fd5b50600436106100ea5760003560e01c8063609c6d7f1161008c578063cab96b7011610066578063cab96b701461027f578063ce3824b21461029d578063e9f86f1e146102d4578063f851a44014610304576100ea565b8063609c6d7f146102175780636c0701fa14610247578063932d37d214610263576100ea565b806322b9dd90116100c857806322b9dd901461016b57806324d7806c146101875780633ab9f6d8146101b757806345504a83146101e7576100ea565b806310c1224c146100ef5780631b8558dd1461011f5780631ef319921461013b575b600080fd5b6101096004803603810190610104919061197b565b610322565b6040516101169190611f70565b60405180910390f35b61013960048036038101906101349190611b16565b610400565b005b61015560048036038101906101509190611a75565b61050f565b6040516101629190611f8b565b60405180910390f35b61018560048036038101906101809190611ada565b61058c565b005b6101a1600480360381019061019c919061197b565b61081f565b6040516101ae9190611f70565b60405180910390f35b6101d160048036038101906101cc919061197b565b610879565b6040516101de9190612192565b60405180910390f35b61020160048036038101906101fc9190611a75565b610891565b60405161020e9190612170565b60405180910390f35b610231600480360381019061022c9190611a9e565b610bed565b60405161023e9190611f70565b60405180910390f35b610261600480360381019061025c91906119a4565b610cb4565b005b61027d600480360381019061027891906119a4565b6110cd565b005b6102876114f3565b6040516102949190612192565b60405180910390f35b6102b760048036038101906102b29190611a75565b6114f9565b6040516102cb9897969594939291906121ad565b60405180910390f35b6102ee60048036038101906102e99190611a75565b611713565b6040516102fb9190612192565b60405180910390f35b61030c61172b565b6040516103199190611f55565b60405180910390f35b600060068081111561035d577f4e487b7100000000000000000000000000000000000000000000000000000000600052602160045260246000fd5b60016000600260008673ffffffffffffffffffffffffffffffffffffffff1673ffffffffffffffffffffffffffffffffffffffff16815260200190815260200160002054815260200190815260200160002060020160149054906101000a900460ff1660068111156103f8577f4e487b7100000000000000000000000000000000000000000000000000000000600052602160045260246000fd5b149050919050565b600460009054906101000a900473ffffffffffffffffffffffffffffffffffffffff1673ffffffffffffffffffffffffffffffffffffffff163373ffffffffffffffffffffffffffffffffffffffff1614610490576040517f08c379a0000000000000000000000000000000000000000000000000000000008152600401610487906120f0565b60405180910390fd5b6000821180156104a257506000548211155b6104e1576040517f08c379a00000000000000000000000000000000000000000000000000000000081526004016104d890612070565b60405180910390fd5b8060036000848152602001908152602001600020600082825461050491906122ce565b925050819055505050565b6000808211801561052257506000548211155b610561576040517f08c379a000000000000000000000000000000000000000000000000000000000815260040161055890612150565b60405180910390fd5b6001600083815260200190815260200160002060020160149054906101000a900460ff169050919050565b61059533610322565b806105ed5750600460009054906101000a900473ffffffffffffffffffffffffffffffffffffffff1673ffffffffffffffffffffffffffffffffffffffff163373ffffffffffffffffffffffffffffffffffffffff16145b61062c576040517f08c379a0000000000000000000000000000000000000000000000000000000008152600401610623906120d0565b60405180910390fd5b60008211801561063e57506000548211155b61067d576040517f08c379a000000000000000000000000000000000000000000000000000000000815260040161067490612150565b60405180910390fd5b6001600083815260200190815260200160002060020160149054906101000a900460ff1660068111156106d9577f4e487b7100000000000000000000000000000000000000000000000000000000600052602160045260246000fd5b816006811115610712577f4e487b7100000000000000000000000000000000000000000000000000000000600052602160045260246000fd5b11610752576040517f08c379a000000000000000000000000000000000000000000000000000000000815260040161074990612090565b60405180910390fd5b60006001600084815260200190815260200160002060020160149054906101000a900460ff169050816001600085815260200190815260200160002060020160146101000a81548160ff021916908360068111156107d9577f4e487b7100000000000000000000000000000000000000000000000000000000600052602160045260246000fd5b0217905550827f01ae96fe1baf9d2d284e6a11b7ab2a76e1c8b047b807650660b4370d50462f2382844260405161081293929190611fa6565b60405180910390a2505050565b6000600460009054906101000a900473ffffffffffffffffffffffffffffffffffffffff1673ffffffffffffffffffffffffffffffffffffffff168273ffffffffffffffffffffffffffffffffffffffff16149050919050565b60026020528060005260406000206000915090505481565b610899611751565b6001600083815260200190815260200160002060405180610100016040529081600082015481526020016001820180546108d290612405565b80601f01602080910402602001604051908101604052809291908181526020018280546108fe90612405565b801561094b5780601f106109205761010080835404028352916020019161094b565b820191906000526020600020905b81548152906001019060200180831161092e57829003601f168201915b505050505081526020016002820160009054906101000a900473ffffffffffffffffffffffffffffffffffffffff1673ffffffffffffffffffffffffffffffffffffffff1673ffffffffffffffffffffffffffffffffffffffff1681526020016002820160149054906101000a900460ff1660068111156109f5577f4e487b7100000000000000000000000000000000000000000000000000000000600052602160045260246000fd5b6006811115610a2d577f4e487b7100000000000000000000000000000000000000000000000000000000600052602160045260246000fd5b8152602001600382015481526020016004820160009054906101000a900460ff166001811115610a86577f4e487b7100000000000000000000000000000000000000000000000000000000600052602160045260246000fd5b6001811115610abe577f4e487b7100000000000000000000000000000000000000000000000000000000600052602160045260246000fd5b8152602001600582018054610ad290612405565b80601f0160208091040260200160405190810160405280929190818152602001828054610afe90612405565b8015610b4b5780601f10610b2057610100808354040283529160200191610b4b565b820191906000526020600020905b815481529060010190602001808311610b2e57829003601f168201915b50505050508152602001600682018054610b6490612405565b80601f0160208091040260200160405190810160405280929190818152602001828054610b9090612405565b8015610bdd5780601f10610bb257610100808354040283529160200191610bdd565b820191906000526020600020905b815481529060010190602001808311610bc057829003601f168201915b5050505050815250509050919050565b60006001600084815260200190815260200160002060020160009054906101000a900473ffffffffffffffffffffffffffffffffffffffff1673ffffffffffffffffffffffffffffffffffffffff168273ffffffffffffffffffffffffffffffffffffffff161480610cac5750600460009054906101000a900473ffffffffffffffffffffffffffffffffffffffff1673ffffffffffffffffffffffffffffffffffffffff168273ffffffffffffffffffffffffffffffffffffffff16145b905092915050565b600073ffffffffffffffffffffffffffffffffffffffff168573ffffffffffffffffffffffffffffffffffffffff161415610d24576040517f08c379a0000000000000000000000000000000000000000000000000000000008152600401610d1b90612130565b60405180910390fd5b6000600260008773ffffffffffffffffffffffffffffffffffffffff1673ffffffffffffffffffffffffffffffffffffffff1681526020019081526020016000205414610da6576040517f08c379a0000000000000000000000000000000000000000000000000000000008152600401610d9d90612110565b60405180910390fd5b60008360ff166001811115610de4577f4e487b7100000000000000000000000000000000000000000000000000000000600052602160045260246000fd5b9050600080815480929190610df890612437565b919050555060405180610100016040528060005481526020018881526020018773ffffffffffffffffffffffffffffffffffffffff16815260200160006006811115610e6d577f4e487b7100000000000000000000000000000000000000000000000000000000600052602160045260246000fd5b8152602001868152602001826001811115610eb1577f4e487b7100000000000000000000000000000000000000000000000000000000600052602160045260246000fd5b8152602001848152602001838152506001600080548152602001908152602001600020600082015181600001556020820151816001019080519060200190610efa92919061181c565b5060408201518160020160006101000a81548173ffffffffffffffffffffffffffffffffffffffff021916908373ffffffffffffffffffffffffffffffffffffffff16021790555060608201518160020160146101000a81548160ff02191690836006811115610f93577f4e487b7100000000000000000000000000000000000000000000000000000000600052602160045260246000fd5b02179055506080820151816003015560a08201518160040160006101000a81548160ff02191690836001811115610ff3577f4e487b7100000000000000000000000000000000000000000000000000000000600052602160045260246000fd5b021790555060c082015181600501908051906020019061101492919061181c565b5060e082015181600601908051906020019061103192919061181c565b50905050600054600260008873ffffffffffffffffffffffffffffffffffffffff1673ffffffffffffffffffffffffffffffffffffffff168152602001908152602001600020819055506000547f1aa2daf79773d4b03f8c5c647ce687b708b9b0ed394bc1abeb4490ae92f407998888600089868989426040516110bc989796959493929190611fdd565b60405180910390a250505050505050565b600460009054906101000a900473ffffffffffffffffffffffffffffffffffffffff1673ffffffffffffffffffffffffffffffffffffffff163373ffffffffffffffffffffffffffffffffffffffff161461115d576040517f08c379a0000000000000000000000000000000000000000000000000000000008152600401611154906120b0565b60405180910390fd5b600073ffffffffffffffffffffffffffffffffffffffff168573ffffffffffffffffffffffffffffffffffffffff1614156111cd576040517f08c379a00000000000000000000000000000000000000000000000000000000081526004016111c490612130565b60405180910390fd5b60008360ff16600181111561120b577f4e487b7100000000000000000000000000000000000000000000000000000000600052602160045260246000fd5b905060008081548092919061121f90612437565b919050555060405180610100016040528060005481526020018881526020018773ffffffffffffffffffffffffffffffffffffffff168152602001600680811115611293577f4e487b7100000000000000000000000000000000000000000000000000000000600052602160045260246000fd5b81526020018681526020018260018111156112d7577f4e487b7100000000000000000000000000000000000000000000000000000000600052602160045260246000fd5b815260200184815260200183815250600160008054815260200190815260200160002060008201518160000155602082015181600101908051906020019061132092919061181c565b5060408201518160020160006101000a81548173ffffffffffffffffffffffffffffffffffffffff021916908373ffffffffffffffffffffffffffffffffffffffff16021790555060608201518160020160146101000a81548160ff021916908360068111156113b9577f4e487b7100000000000000000000000000000000000000000000000000000000600052602160045260246000fd5b02179055506080820151816003015560a08201518160040160006101000a81548160ff02191690836001811115611419577f4e487b7100000000000000000000000000000000000000000000000000000000600052602160045260246000fd5b021790555060c082015181600501908051906020019061143a92919061181c565b5060e082015181600601908051906020019061145792919061181c565b50905050600054600260008873ffffffffffffffffffffffffffffffffffffffff1673ffffffffffffffffffffffffffffffffffffffff168152602001908152602001600020819055506000547f1aa2daf79773d4b03f8c5c647ce687b708b9b0ed394bc1abeb4490ae92f407998888600689868989426040516114e2989796959493929190611fdd565b60405180910390a250505050505050565b60005481565b600160205280600052604060002060009150905080600001549080600101805461152290612405565b80601f016020809104026020016040519081016040528092919081815260200182805461154e90612405565b801561159b5780601f106115705761010080835404028352916020019161159b565b820191906000526020600020905b81548152906001019060200180831161157e57829003601f168201915b5050505050908060020160009054906101000a900473ffffffffffffffffffffffffffffffffffffffff16908060020160149054906101000a900460ff16908060030154908060040160009054906101000a900460ff169080600501805461160290612405565b80601f016020809104026020016040519081016040528092919081815260200182805461162e90612405565b801561167b5780601f106116505761010080835404028352916020019161167b565b820191906000526020600020905b81548152906001019060200180831161165e57829003601f168201915b50505050509080600601805461169090612405565b80601f01602080910402602001604051908101604052809291908181526020018280546116bc90612405565b80156117095780601f106116de57610100808354040283529160200191611709565b820191906000526020600020905b8154815290600101906020018083116116ec57829003601f168201915b5050505050905088565b60036020528060005260406000206000915090505481565b600460009054906101000a900473ffffffffffffffffffffffffffffffffffffffff1681565b6040518061010001604052806000815260200160608152602001600073ffffffffffffffffffffffffffffffffffffffff168152602001600060068111156117c2577f4e487b7100000000000000000000000000000000000000000000000000000000600052602160045260246000fd5b81526020016000815260200160006001811115611808577f4e487b7100000000000000000000000000000000000000000000000000000000600052602160045260246000fd5b815260200160608152602001606081525090565b82805461182890612405565b90600052602060002090601f01602090048101928261184a5760008555611891565b82601f1061186357805160ff1916838001178555611891565b82800160010185558215611891579182015b82811115611890578251825591602001919060010190611875565b5b50905061189e91906118a2565b5090565b5b808211156118bb5760008160009055506001016118a3565b5090565b60006118d26118cd84612271565b612240565b9050828152602081018484840111156118ea57600080fd5b6118f58482856123c3565b509392505050565b60008135905061190c81612575565b92915050565b6000813590506119218161258c565b92915050565b600082601f83011261193857600080fd5b81356119488482602086016118bf565b91505092915050565b6000813590506119608161259c565b92915050565b600081359050611975816125b3565b92915050565b60006020828403121561198d57600080fd5b600061199b848285016118fd565b91505092915050565b60008060008060008060c087890312156119bd57600080fd5b600087013567ffffffffffffffff8111156119d757600080fd5b6119e389828a01611927565b96505060206119f489828a016118fd565b9550506040611a0589828a01611951565b9450506060611a1689828a01611966565b935050608087013567ffffffffffffffff811115611a3357600080fd5b611a3f89828a01611927565b92505060a087013567ffffffffffffffff811115611a5c57600080fd5b611a6889828a01611927565b9150509295509295509295565b600060208284031215611a8757600080fd5b6000611a9584828501611951565b91505092915050565b60008060408385031215611ab157600080fd5b6000611abf85828601611951565b9250506020611ad0858286016118fd565b9150509250929050565b60008060408385031215611aed57600080fd5b6000611afb85828601611951565b9250506020611b0c85828601611912565b9150509250929050565b60008060408385031215611b2957600080fd5b6000611b3785828601611951565b9250506020611b4885828601611951565b9150509250929050565b611b5b81612324565b82525050565b611b6a81612324565b82525050565b611b7981612336565b82525050565b611b888161239f565b82525050565b611b978161239f565b82525050565b611ba6816123b1565b82525050565b611bb5816123b1565b82525050565b6000611bc6826122a1565b611bd081856122ac565b9350611be08185602086016123d2565b611be98161253c565b840191505092915050565b6000611bff826122a1565b611c0981856122bd565b9350611c198185602086016123d2565b611c228161253c565b840191505092915050565b6000611c3a6011836122bd565b91507f496e76616c6964204a75646f6b612049440000000000000000000000000000006000830152602082019050919050565b6000611c7a6018836122bd565b91507f4e6577206c6576656c206d7573742062652068696768657200000000000000006000830152602082019050919050565b6000611cba601e836122bd565b91507f4f6e6c792061646d696e2063616e2061646420626c61636b2062656c747300006000830152602082019050919050565b6000611cfa602d836122bd565b91507f4f6e6c7920626c61636b2062656c7473206f722061646d696e2063616e20707260008301527f6f6d6f7465206a75646f6b6173000000000000000000000000000000000000006020830152604082019050919050565b6000611d606022836122bd565b91507f4f6e6c792061646d696e2063616e20706572666f726d2074686973206163746960008301527f6f6e0000000000000000000000000000000000000000000000000000000000006020830152604082019050919050565b6000611dc66019836122bd565b91507f4a75646f6b6120616c72656164792072656769737465726564000000000000006000830152602082019050919050565b6000611e066016836122bd565b91507f496e76616c69642077616c6c65742061646472657373000000000000000000006000830152602082019050919050565b6000611e466016836122bd565b91507f4a75646f6b6120646f6573206e6f742065786973742e000000000000000000006000830152602082019050919050565b600061010083016000830151611e926000860182611f37565b5060208301518482036020860152611eaa8282611bbb565b9150506040830151611ebf6040860182611b52565b506060830151611ed26060860182611b7f565b506080830151611ee56080860182611f37565b5060a0830151611ef860a0860182611b9d565b5060c083015184820360c0860152611f108282611bbb565b91505060e083015184820360e0860152611f2a8282611bbb565b9150508091505092915050565b611f4081612388565b82525050565b611f4f81612388565b82525050565b6000602082019050611f6a6000830184611b61565b92915050565b6000602082019050611f856000830184611b70565b92915050565b6000602082019050611fa06000830184611b8e565b92915050565b6000606082019050611fbb6000830186611b8e565b611fc86020830185611b8e565b611fd56040830184611f46565b949350505050565b6000610100820190508181036000830152611ff8818b611bf4565b9050612007602083018a611b61565b6120146040830189611b8e565b6120216060830188611f46565b61202e6080830187611bac565b81810360a08301526120408186611bf4565b905081810360c08301526120548185611bf4565b905061206360e0830184611f46565b9998505050505050505050565b6000602082019050818103600083015261208981611c2d565b9050919050565b600060208201905081810360008301526120a981611c6d565b9050919050565b600060208201905081810360008301526120c981611cad565b9050919050565b600060208201905081810360008301526120e981611ced565b9050919050565b6000602082019050818103600083015261210981611d53565b9050919050565b6000602082019050818103600083015261212981611db9565b9050919050565b6000602082019050818103600083015261214981611df9565b9050919050565b6000602082019050818103600083015261216981611e39565b9050919050565b6000602082019050818103600083015261218a8184611e79565b905092915050565b60006020820190506121a76000830184611f46565b92915050565b6000610100820190506121c3600083018b611f46565b81810360208301526121d5818a611bf4565b90506121e46040830189611b61565b6121f16060830188611b8e565b6121fe6080830187611f46565b61220b60a0830186611bac565b81810360c083015261221d8185611bf4565b905081810360e08301526122318184611bf4565b90509998505050505050505050565b6000604051905081810181811067ffffffffffffffff821117156122675761226661250d565b5b8060405250919050565b600067ffffffffffffffff82111561228c5761228b61250d565b5b601f19601f8301169050602081019050919050565b600081519050919050565b600082825260208201905092915050565b600082825260208201905092915050565b60006122d982612388565b91506122e483612388565b9250827fffffffffffffffffffffffffffffffffffffffffffffffffffffffffffffffff0382111561231957612318612480565b5b828201905092915050565b600061232f82612368565b9050919050565b60008115159050919050565b60008190506123508261254d565b919050565b600081905061236382612561565b919050565b600073ffffffffffffffffffffffffffffffffffffffff82169050919050565b6000819050919050565b600060ff82169050919050565b60006123aa82612342565b9050919050565b60006123bc82612355565b9050919050565b82818337600083830152505050565b60005b838110156123f05780820151818401526020810190506123d5565b838111156123ff576000848401525b50505050565b6000600282049050600182168061241d57607f821691505b60208210811415612431576124306124de565b5b50919050565b600061244282612388565b91507fffffffffffffffffffffffffffffffffffffffffffffffffffffffffffffffff82141561247557612474612480565b5b600182019050919050565b7f4e487b7100000000000000000000000000000000000000000000000000000000600052601160045260246000fd5b7f4e487b7100000000000000000000000000000000000000000000000000000000600052602160045260246000fd5b7f4e487b7100000000000000000000000000000000000000000000000000000000600052602260045260246000fd5b7f4e487b7100000000000000000000000000000000000000000000000000000000600052604160045260246000fd5b6000601f19601f8301169050919050565b6007811061255e5761255d6124af565b5b50565b60028110612572576125716124af565b5b50565b61257e81612324565b811461258957600080fd5b50565b6007811061259957600080fd5b50565b6125a581612388565b81146125b057600080fd5b50565b6125bc81612392565b81146125c757600080fd5b5056fea2646970667358221220bb165cf622eca296fc31c658167d77c7cb8be291bbc9cf9d72d0edd2321a554c64736f6c63430008000033",
  "immutableReferences": {},
  "source": "// SPDX-License-Identifier: MIT\r\npragma solidity ^0.8.0;\r\n\r\ncontract JudoBeltSystem {\r\n    enum BeltLevel { White, Yellow, Orange, Green, Blue, Brown, Black }\r\n    enum Gender { Male, Female }\r\n\r\n    struct Judoka {\r\n        uint256 id;\r\n        string name;\r\n        address walletAddress;\r\n        BeltLevel beltLevel;\r\n        uint256 dateOfBirth;\r\n        Gender gender;\r\n        string email;\r\n        string phoneNumber;\r\n    }\r\n\r\n    uint256 public judokaCount;\r\n    mapping(uint256 => Judoka) public judokas;\r\n    mapping(address => uint256) public judokaIds;\r\n    mapping(uint256 => uint256) public judokaPoints;\r\n    address public admin;\r\n\r\n    event JudokaRegistered(\r\n        uint256 indexed id, \r\n        string name, \r\n        address walletAddress, \r\n        BeltLevel beltLevel, \r\n        uint256 dateOfBirth,\r\n        Gender gender,\r\n        string email,\r\n        string phoneNumber,\r\n        uint256 timestamp\r\n    );\r\n\r\n    event BeltLevelUpdated(\r\n        uint256 indexed id, \r\n        BeltLevel oldBeltLevel, \r\n        BeltLevel newBeltLevel, \r\n        uint256 timestamp\r\n    );\r\n\r\n    constructor() {\r\n        admin = msg.sender;\r\n    }\r\n\r\n    modifier onlyAdmin() {\r\n        require(msg.sender == admin, \"Only admin can perform this action\");\r\n        _;\r\n    }\r\n\r\n    function registerBlackBelt(\r\n        string memory _name, \r\n        address _walletAddress, \r\n        uint256 _dateOfBirth, \r\n        uint8 _gender,\r\n        string memory _email, \r\n        string memory _phoneNumber\r\n    ) public {\r\n        require(msg.sender == admin, \"Only admin can add black belts\");\r\n        require(_walletAddress != address(0), \"Invalid wallet address\");\r\n\r\n        Gender gender = Gender(_gender); // Casting uint8 to Gender enum\r\n        judokaCount++;\r\n        judokas[judokaCount] = Judoka(\r\n            judokaCount, \r\n            _name, \r\n            _walletAddress, \r\n            BeltLevel.Black, \r\n            _dateOfBirth,\r\n            gender, // Using the casted enum value\r\n            _email, \r\n            _phoneNumber\r\n        );\r\n        judokaIds[_walletAddress] = judokaCount;\r\n        emit JudokaRegistered(\r\n            judokaCount, \r\n            _name, \r\n            _walletAddress, \r\n            BeltLevel.Black, \r\n            _dateOfBirth,\r\n            gender, \r\n            _email, \r\n            _phoneNumber,\r\n            block.timestamp\r\n        );\r\n    }\r\n\r\n    function registerJudoka(\r\n        string memory _name, \r\n        address _walletAddress, \r\n        uint256 _dateOfBirth, \r\n        uint8 _gender, // Accepting uint8 for gender\r\n        string memory _email, \r\n        string memory _phoneNumber\r\n    ) public {\r\n        require(_walletAddress != address(0), \"Invalid wallet address\");\r\n        require(judokaIds[_walletAddress] == 0, \"Judoka already registered\");\r\n\r\n        Gender gender = Gender(_gender); // Casting uint8 to Gender enum\r\n        judokaCount++;\r\n        judokas[judokaCount] = Judoka(\r\n            judokaCount, \r\n            _name, \r\n            _walletAddress, \r\n            BeltLevel.White, \r\n            _dateOfBirth,\r\n            gender, // Using the casted enum value\r\n            _email, \r\n            _phoneNumber\r\n        );\r\n        judokaIds[_walletAddress] = judokaCount;\r\n        emit JudokaRegistered(\r\n            judokaCount, \r\n            _name, \r\n            _walletAddress, \r\n            BeltLevel.White, \r\n            _dateOfBirth,\r\n            gender, \r\n            _email, \r\n            _phoneNumber,\r\n            block.timestamp\r\n        );\r\n    }\r\n\r\n        // In your Solidity contract, there should be something like this:\r\n    function getJudokaInfo(uint256 _id) public view returns (Judoka memory) {\r\n        return judokas[_id];\r\n    }\r\n\r\n\r\n    function getBeltLevel(uint256 _id) public view returns (BeltLevel) {\r\n        require(_id > 0 && _id <= judokaCount, \"Judoka does not exist.\");\r\n        return judokas[_id].beltLevel;\r\n    }\r\n\r\n    function promoteJudoka(uint256 _id, BeltLevel _newBeltLevel) public {\r\n        require(\r\n            isBlackBelt(msg.sender) || msg.sender == admin,\r\n            \"Only black belts or admin can promote judokas\"\r\n        );\r\n        require(_id > 0 && _id <= judokaCount, \"Judoka does not exist.\");\r\n        require(\r\n            _newBeltLevel > judokas[_id].beltLevel,\r\n            \"New level must be higher\"\r\n        );\r\n\r\n        BeltLevel oldBeltLevel = judokas[_id].beltLevel;\r\n        judokas[_id].beltLevel = _newBeltLevel;\r\n        emit BeltLevelUpdated(_id, oldBeltLevel, _newBeltLevel, block.timestamp);\r\n    }\r\n\r\n    function isBlackBelt(address _address) public view returns(bool) {\r\n        return judokas[judokaIds[_address]].beltLevel == BeltLevel.Black;\r\n    }\r\n\r\n    function isAuthorized(uint256 _id, address _sender) public view returns(bool) {\r\n        return _sender == judokas[_id].walletAddress || _sender == admin;\r\n    }\r\n\r\n    function isAdmin(address _sender) public view returns(bool) {\r\n        return _sender == admin;\r\n    }\r\n\r\n    function updateJudokaPoints(uint256 _id, uint256 _points) public onlyAdmin {\r\n        require(_id > 0 && _id <= judokaCount, \"Invalid Judoka ID\");\r\n        judokaPoints[_id] += _points;\r\n    }\r\n\r\n\r\n}",
  "sourcePath": "C:\\Users\\marti\\Documents\\projects\\judo-dapp\\contracts\\JudoSystem.sol",
  "compiler": {
    "name": "solc",
    "version": "0.8.0+commit.c7dfd78e.Emscripten.clang"
  },
  "schemaVersion": "3.4.16",
  "updatedAt": "2024-03-29T10:52:41.067Z",
  "devdoc": {
    "kind": "dev",
    "methods": {},
    "version": 1
  },
  "userdoc": {
    "kind": "user",
    "methods": {},
    "version": 1
  }
}