{
  "contractName": "JudoSystem",
  "abi": [
    {
      "inputs": [],
      "stateMutability": "nonpayable",
      "type": "constructor"
    },
    {
      "anonymous": false,
      "inputs": [
        {
          "indexed": true,
          "internalType": "uint256",
          "name": "id",
          "type": "uint256"
        },
        {
          "indexed": false,
          "internalType": "enum JudoSystem.BeltLevel",
          "name": "oldBeltLevel",
          "type": "uint8"
        },
        {
          "indexed": false,
          "internalType": "enum JudoSystem.BeltLevel",
          "name": "newBeltLevel",
          "type": "uint8"
        },
        {
          "indexed": false,
          "internalType": "uint256",
          "name": "timestamp",
          "type": "uint256"
        }
      ],
      "name": "BeltLevelUpdated",
      "type": "event"
    },
    {
      "anonymous": false,
      "inputs": [
        {
          "indexed": true,
          "internalType": "uint256",
          "name": "id",
          "type": "uint256"
        },
        {
          "indexed": false,
          "internalType": "string",
          "name": "name",
          "type": "string"
        },
        {
          "indexed": false,
          "internalType": "uint256",
          "name": "date",
          "type": "uint256"
        }
      ],
      "name": "CompetitionCreated",
      "type": "event"
    },
    {
      "anonymous": false,
      "inputs": [
        {
          "indexed": true,
          "internalType": "uint256",
          "name": "competitionId",
          "type": "uint256"
        },
        {
          "indexed": false,
          "internalType": "address",
          "name": "firstPlace",
          "type": "address"
        },
        {
          "indexed": false,
          "internalType": "address",
          "name": "secondPlace",
          "type": "address"
        },
        {
          "indexed": false,
          "internalType": "address",
          "name": "thirdPlace",
          "type": "address"
        },
        {
          "indexed": false,
          "internalType": "address",
          "name": "fourthPlace",
          "type": "address"
        }
      ],
      "name": "CompetitionResultRecorded",
      "type": "event"
    },
    {
      "anonymous": false,
      "inputs": [
        {
          "indexed": true,
          "internalType": "uint256",
          "name": "id",
          "type": "uint256"
        },
        {
          "indexed": false,
          "internalType": "string",
          "name": "email",
          "type": "string"
        },
        {
          "indexed": false,
          "internalType": "string",
          "name": "phoneNumber",
          "type": "string"
        }
      ],
      "name": "JudokaContactUpdated",
      "type": "event"
    },
    {
      "anonymous": false,
      "inputs": [
        {
          "indexed": true,
          "internalType": "uint256",
          "name": "id",
          "type": "uint256"
        },
        {
          "indexed": false,
          "internalType": "string",
          "name": "name",
          "type": "string"
        },
        {
          "indexed": false,
          "internalType": "address",
          "name": "walletAddress",
          "type": "address"
        },
        {
          "indexed": false,
          "internalType": "enum JudoSystem.BeltLevel",
          "name": "beltLevel",
          "type": "uint8"
        },
        {
          "indexed": false,
          "internalType": "uint256",
          "name": "dateOfBirth",
          "type": "uint256"
        },
        {
          "indexed": false,
          "internalType": "enum JudoSystem.Gender",
          "name": "gender",
          "type": "uint8"
        },
        {
          "indexed": false,
          "internalType": "string",
          "name": "email",
          "type": "string"
        },
        {
          "indexed": false,
          "internalType": "string",
          "name": "phoneNumber",
          "type": "string"
        },
        {
          "indexed": false,
          "internalType": "uint256",
          "name": "age",
          "type": "uint256"
        },
        {
          "indexed": false,
          "internalType": "uint256",
          "name": "weight",
          "type": "uint256"
        },
        {
          "indexed": false,
          "internalType": "string",
          "name": "club",
          "type": "string"
        },
        {
          "indexed": false,
          "internalType": "enum JudoSystem.AgeCategory",
          "name": "ageCategory",
          "type": "uint8"
        },
        {
          "indexed": false,
          "internalType": "enum JudoSystem.WeightCategory",
          "name": "weightCategory",
          "type": "uint8"
        },
        {
          "indexed": false,
          "internalType": "uint256",
          "name": "timestamp",
          "type": "uint256"
        }
      ],
      "name": "JudokaRegistered",
      "type": "event"
    },
    {
      "anonymous": false,
      "inputs": [
        {
          "indexed": true,
          "internalType": "uint256",
          "name": "competitionId",
          "type": "uint256"
        },
        {
          "indexed": false,
          "internalType": "address",
          "name": "participant",
          "type": "address"
        }
      ],
      "name": "ParticipantAdded",
      "type": "event"
    },
    {
      "inputs": [],
      "name": "admin",
      "outputs": [
        {
          "internalType": "address",
          "name": "",
          "type": "address"
        }
      ],
      "stateMutability": "view",
      "type": "function",
      "constant": true
    },
    {
      "inputs": [
        {
          "internalType": "address",
          "name": "",
          "type": "address"
        }
      ],
      "name": "blackBeltAdmins",
      "outputs": [
        {
          "internalType": "bool",
          "name": "",
          "type": "bool"
        }
      ],
      "stateMutability": "view",
      "type": "function",
      "constant": true
    },
    {
      "inputs": [],
      "name": "competitionCount",
      "outputs": [
        {
          "internalType": "uint256",
          "name": "",
          "type": "uint256"
        }
      ],
      "stateMutability": "view",
      "type": "function",
      "constant": true
    },
    {
      "inputs": [
        {
          "internalType": "uint256",
          "name": "",
          "type": "uint256"
        }
      ],
      "name": "competitions",
      "outputs": [
        {
          "internalType": "uint256",
          "name": "id",
          "type": "uint256"
        },
        {
          "internalType": "string",
          "name": "name",
          "type": "string"
        },
        {
          "internalType": "uint16",
          "name": "date",
          "type": "uint16"
        },
        {
          "internalType": "bool",
          "name": "completed",
          "type": "bool"
        },
        {
          "components": [
            {
              "internalType": "address",
              "name": "firstPlace",
              "type": "address"
            },
            {
              "internalType": "address",
              "name": "secondPlace",
              "type": "address"
            },
            {
              "internalType": "address",
              "name": "thirdPlace",
              "type": "address"
            },
            {
              "internalType": "address",
              "name": "fourthPlace",
              "type": "address"
            }
          ],
          "internalType": "struct JudoSystem.CompetitionResult",
          "name": "results",
          "type": "tuple"
        }
      ],
      "stateMutability": "view",
      "type": "function",
      "constant": true
    },
    {
      "inputs": [],
      "name": "judokaCount",
      "outputs": [
        {
          "internalType": "uint256",
          "name": "",
          "type": "uint256"
        }
      ],
      "stateMutability": "view",
      "type": "function",
      "constant": true
    },
    {
      "inputs": [
        {
          "internalType": "address",
          "name": "",
          "type": "address"
        }
      ],
      "name": "judokaIds",
      "outputs": [
        {
          "internalType": "uint256",
          "name": "",
          "type": "uint256"
        }
      ],
      "stateMutability": "view",
      "type": "function",
      "constant": true
    },
    {
      "inputs": [
        {
          "internalType": "uint256",
          "name": "",
          "type": "uint256"
        }
      ],
      "name": "judokaPoints",
      "outputs": [
        {
          "internalType": "uint256",
          "name": "",
          "type": "uint256"
        }
      ],
      "stateMutability": "view",
      "type": "function",
      "constant": true
    },
    {
      "inputs": [
        {
          "internalType": "uint256",
          "name": "",
          "type": "uint256"
        }
      ],
      "name": "judokasBasic",
      "outputs": [
        {
          "internalType": "uint256",
          "name": "id",
          "type": "uint256"
        },
        {
          "internalType": "string",
          "name": "name",
          "type": "string"
        },
        {
          "internalType": "address",
          "name": "walletAddress",
          "type": "address"
        },
        {
          "internalType": "enum JudoSystem.BeltLevel",
          "name": "beltLevel",
          "type": "uint8"
        },
        {
          "internalType": "uint32",
          "name": "dateOfBirth",
          "type": "uint32"
        },
        {
          "internalType": "enum JudoSystem.Gender",
          "name": "gender",
          "type": "uint8"
        }
      ],
      "stateMutability": "view",
      "type": "function",
      "constant": true
    },
    {
      "inputs": [
        {
          "internalType": "uint256",
          "name": "",
          "type": "uint256"
        }
      ],
      "name": "judokasContact",
      "outputs": [
        {
          "internalType": "string",
          "name": "email",
          "type": "string"
        },
        {
          "internalType": "string",
          "name": "phoneNumber",
          "type": "string"
        }
      ],
      "stateMutability": "view",
      "type": "function",
      "constant": true
    },
    {
      "inputs": [
        {
          "internalType": "uint256",
          "name": "",
          "type": "uint256"
        }
      ],
      "name": "judokasPhysical",
      "outputs": [
        {
          "internalType": "uint256",
          "name": "age",
          "type": "uint256"
        },
        {
          "internalType": "uint256",
          "name": "weight",
          "type": "uint256"
        },
        {
          "internalType": "string",
          "name": "club",
          "type": "string"
        },
        {
          "internalType": "enum JudoSystem.AgeCategory",
          "name": "ageCategory",
          "type": "uint8"
        },
        {
          "internalType": "enum JudoSystem.WeightCategory",
          "name": "weightCategory",
          "type": "uint8"
        }
      ],
      "stateMutability": "view",
      "type": "function",
      "constant": true
    },
    {
      "inputs": [
        {
          "internalType": "address",
          "name": "_address",
          "type": "address"
        }
      ],
      "name": "isAdmin",
      "outputs": [
        {
          "internalType": "bool",
          "name": "",
          "type": "bool"
        }
      ],
      "stateMutability": "view",
      "type": "function",
      "constant": true
    },
    {
      "inputs": [
        {
          "internalType": "uint16",
          "name": "year",
          "type": "uint16"
        },
        {
          "internalType": "uint8",
          "name": "month",
          "type": "uint8"
        },
        {
          "internalType": "uint8",
          "name": "day",
          "type": "uint8"
        }
      ],
      "name": "packDateForJudoka",
      "outputs": [
        {
          "internalType": "uint32",
          "name": "",
          "type": "uint32"
        }
      ],
      "stateMutability": "pure",
      "type": "function",
      "constant": true
    },
    {
      "inputs": [
        {
          "internalType": "uint8",
          "name": "month",
          "type": "uint8"
        },
        {
          "internalType": "uint8",
          "name": "day",
          "type": "uint8"
        }
      ],
      "name": "packDateForCompetition",
      "outputs": [
        {
          "internalType": "uint16",
          "name": "",
          "type": "uint16"
        }
      ],
      "stateMutability": "pure",
      "type": "function",
      "constant": true
    },
    {
      "inputs": [
        {
          "internalType": "uint256",
          "name": "_age",
          "type": "uint256"
        }
      ],
      "name": "getAgeCategory",
      "outputs": [
        {
          "internalType": "enum JudoSystem.AgeCategory",
          "name": "",
          "type": "uint8"
        }
      ],
      "stateMutability": "pure",
      "type": "function",
      "constant": true
    },
    {
      "inputs": [
        {
          "internalType": "uint256",
          "name": "_weight",
          "type": "uint256"
        }
      ],
      "name": "getWeightCategory",
      "outputs": [
        {
          "internalType": "enum JudoSystem.WeightCategory",
          "name": "",
          "type": "uint8"
        }
      ],
      "stateMutability": "pure",
      "type": "function",
      "constant": true
    },
    {
      "inputs": [
        {
          "internalType": "uint32",
          "name": "_dateOfBirth",
          "type": "uint32"
        }
      ],
      "name": "calculateAge",
      "outputs": [
        {
          "internalType": "uint256",
          "name": "",
          "type": "uint256"
        }
      ],
      "stateMutability": "view",
      "type": "function",
      "constant": true
    },
    {
      "inputs": [
        {
          "internalType": "uint32",
          "name": "_packedDate",
          "type": "uint32"
        }
      ],
      "name": "unpackDate",
      "outputs": [
        {
          "internalType": "uint16",
          "name": "year",
          "type": "uint16"
        },
        {
          "internalType": "uint8",
          "name": "month",
          "type": "uint8"
        },
        {
          "internalType": "uint8",
          "name": "day",
          "type": "uint8"
        }
      ],
      "stateMutability": "pure",
      "type": "function",
      "constant": true
    },
    {
      "inputs": [
        {
          "internalType": "string",
          "name": "_name",
          "type": "string"
        },
        {
          "internalType": "address",
          "name": "_walletAddress",
          "type": "address"
        },
        {
          "internalType": "uint16",
          "name": "year",
          "type": "uint16"
        },
        {
          "internalType": "uint8",
          "name": "month",
          "type": "uint8"
        },
        {
          "internalType": "uint8",
          "name": "day",
          "type": "uint8"
        },
        {
          "internalType": "enum JudoSystem.Gender",
          "name": "_gender",
          "type": "uint8"
        },
        {
          "internalType": "uint256",
          "name": "_weight",
          "type": "uint256"
        },
        {
          "internalType": "string",
          "name": "_club",
          "type": "string"
        }
      ],
      "name": "registerJudoka",
      "outputs": [],
      "stateMutability": "nonpayable",
      "type": "function"
    },
    {
      "inputs": [
        {
          "internalType": "uint256",
          "name": "_id",
          "type": "uint256"
        }
      ],
      "name": "getJudokaDOB",
      "outputs": [
        {
          "internalType": "uint16",
          "name": "year",
          "type": "uint16"
        },
        {
          "internalType": "uint8",
          "name": "month",
          "type": "uint8"
        },
        {
          "internalType": "uint8",
          "name": "day",
          "type": "uint8"
        }
      ],
      "stateMutability": "view",
      "type": "function",
      "constant": true
    },
    {
      "inputs": [
        {
          "internalType": "uint256",
          "name": "_id",
          "type": "uint256"
        },
        {
          "internalType": "string",
          "name": "_email",
          "type": "string"
        },
        {
          "internalType": "string",
          "name": "_phoneNumber",
          "type": "string"
        }
      ],
      "name": "updateJudokaContactDetails",
      "outputs": [],
      "stateMutability": "nonpayable",
      "type": "function"
    },
    {
      "inputs": [
        {
          "internalType": "uint256",
          "name": "_id",
          "type": "uint256"
        }
      ],
      "name": "getJudokaInfo",
      "outputs": [
        {
          "components": [
            {
              "components": [
                {
                  "internalType": "uint256",
                  "name": "id",
                  "type": "uint256"
                },
                {
                  "internalType": "string",
                  "name": "name",
                  "type": "string"
                },
                {
                  "internalType": "address",
                  "name": "walletAddress",
                  "type": "address"
                },
                {
                  "internalType": "enum JudoSystem.BeltLevel",
                  "name": "beltLevel",
                  "type": "uint8"
                },
                {
                  "internalType": "uint32",
                  "name": "dateOfBirth",
                  "type": "uint32"
                },
                {
                  "internalType": "enum JudoSystem.Gender",
                  "name": "gender",
                  "type": "uint8"
                }
              ],
              "internalType": "struct JudoSystem.JudokaBasic",
              "name": "basic",
              "type": "tuple"
            },
            {
              "components": [
                {
                  "internalType": "string",
                  "name": "email",
                  "type": "string"
                },
                {
                  "internalType": "string",
                  "name": "phoneNumber",
                  "type": "string"
                }
              ],
              "internalType": "struct JudoSystem.JudokaContact",
              "name": "contact",
              "type": "tuple"
            },
            {
              "components": [
                {
                  "internalType": "uint256",
                  "name": "age",
                  "type": "uint256"
                },
                {
                  "internalType": "uint256",
                  "name": "weight",
                  "type": "uint256"
                },
                {
                  "internalType": "string",
                  "name": "club",
                  "type": "string"
                },
                {
                  "internalType": "enum JudoSystem.AgeCategory",
                  "name": "ageCategory",
                  "type": "uint8"
                },
                {
                  "internalType": "enum JudoSystem.WeightCategory",
                  "name": "weightCategory",
                  "type": "uint8"
                }
              ],
              "internalType": "struct JudoSystem.JudokaPhysical",
              "name": "physical",
              "type": "tuple"
            }
          ],
          "internalType": "struct JudoSystem.FullJudokaInfo",
          "name": "",
          "type": "tuple"
        }
      ],
      "stateMutability": "view",
      "type": "function",
      "constant": true
    },
    {
      "inputs": [
        {
          "internalType": "uint256",
          "name": "_id",
          "type": "uint256"
        }
      ],
      "name": "getBeltLevel",
      "outputs": [
        {
          "internalType": "enum JudoSystem.BeltLevel",
          "name": "",
          "type": "uint8"
        }
      ],
      "stateMutability": "view",
      "type": "function",
      "constant": true
    },
    {
      "inputs": [
        {
          "internalType": "uint256",
          "name": "_id",
          "type": "uint256"
        },
        {
          "internalType": "enum JudoSystem.BeltLevel",
          "name": "_newBeltLevel",
          "type": "uint8"
        }
      ],
      "name": "promoteJudoka",
      "outputs": [],
      "stateMutability": "nonpayable",
      "type": "function"
    },
    {
      "inputs": [
        {
          "internalType": "address",
          "name": "_address",
          "type": "address"
        }
      ],
      "name": "isBlackBelt",
      "outputs": [
        {
          "internalType": "bool",
          "name": "",
          "type": "bool"
        }
      ],
      "stateMutability": "view",
      "type": "function",
      "constant": true
    },
    {
      "inputs": [
        {
          "internalType": "uint256",
          "name": "_id",
          "type": "uint256"
        },
        {
          "internalType": "address",
          "name": "_sender",
          "type": "address"
        }
      ],
      "name": "isAuthorized",
      "outputs": [
        {
          "internalType": "bool",
          "name": "",
          "type": "bool"
        }
      ],
      "stateMutability": "view",
      "type": "function",
      "constant": true
    },
    {
      "inputs": [
        {
          "internalType": "uint256",
          "name": "_id",
          "type": "uint256"
        },
        {
          "internalType": "uint256",
          "name": "_points",
          "type": "uint256"
        }
      ],
      "name": "updateJudokaPoints",
      "outputs": [],
      "stateMutability": "nonpayable",
      "type": "function"
    },
    {
      "inputs": [
        {
          "internalType": "string",
          "name": "_name",
          "type": "string"
        },
        {
          "internalType": "uint8",
          "name": "month",
          "type": "uint8"
        },
        {
          "internalType": "uint8",
          "name": "day",
          "type": "uint8"
        }
      ],
      "name": "createCompetition",
      "outputs": [],
      "stateMutability": "nonpayable",
      "type": "function"
    },
    {
      "inputs": [
        {
          "internalType": "uint256",
          "name": "_competitionId",
          "type": "uint256"
        },
        {
          "internalType": "address",
          "name": "_participant",
          "type": "address"
        }
      ],
      "name": "addParticipant",
      "outputs": [],
      "stateMutability": "nonpayable",
      "type": "function"
    },
    {
      "inputs": [
        {
          "internalType": "uint256",
          "name": "_competitionId",
          "type": "uint256"
        },
        {
          "internalType": "address",
          "name": "_firstPlace",
          "type": "address"
        },
        {
          "internalType": "address",
          "name": "_secondPlace",
          "type": "address"
        },
        {
          "internalType": "address",
          "name": "_thirdPlace",
          "type": "address"
        },
        {
          "internalType": "address",
          "name": "_fourthPlace",
          "type": "address"
        },
        {
          "internalType": "uint256",
          "name": "_firstPlacePoints",
          "type": "uint256"
        },
        {
          "internalType": "uint256",
          "name": "_secondPlacePoints",
          "type": "uint256"
        },
        {
          "internalType": "uint256",
          "name": "_thirdPlacePoints",
          "type": "uint256"
        },
        {
          "internalType": "uint256",
          "name": "_fourthPlacePoints",
          "type": "uint256"
        }
      ],
      "name": "recordCompetitionResult",
      "outputs": [],
      "stateMutability": "nonpayable",
      "type": "function"
    }
  ],
  "bytecode": "0x608060405234801561001057600080fd5b5033600960006101000a81548173ffffffffffffffffffffffffffffffffffffffff021916908373ffffffffffffffffffffffffffffffffffffffff1602179055506001600560003373ffffffffffffffffffffffffffffffffffffffff1673ffffffffffffffffffffffffffffffffffffffff16815260200190815260200160002060006101000a81548160ff021916908315150217905550614ac4806100b96000396000f3fe608060405234801561001057600080fd5b50600436106101cf5760003560e01c80636af8bf7511610104578063d7984a29116100a2578063e9f86f1e11610071578063e9f86f1e146105fa578063ea23d0b61461062a578063f215bb0814610646578063f851a44014610676576101cf565b8063d7984a2914610535578063d8c1eb5414610569578063e1ad194614610599578063e7651d1f146105c9576101cf565b80639f6828d9116100de5780639f6828d914610495578063a1681770146104c9578063cab96b70146104e7578063ccf28e8614610505576101cf565b80636af8bf751461041457806397a3e66a146104305780639daa52fd14610465576101cf565b806324d7806c1161017157806345504a831161014b57806345504a831461035057806345f88af71461038057806358fa0840146103b2578063609c6d7f146103e4576101cf565b806324d7806c146102d457806338897f9a146103045780633ab9f6d814610320576101cf565b80631a50b3a8116101ad5780631a50b3a81461023c5780631b8558dd1461026c5780631ef319921461028857806322b9dd90146102b8576101cf565b80630410002a146101d457806310c1224c146101f057806318d85e5314610220575b600080fd5b6101ee60048036038101906101e99190613356565b610694565b005b61020a6004803603810190610205919061332d565b610ca7565b6040516102179190613fb2565b60405180910390f35b61023a60048036038101906102359190613517565b610d85565b005b6102566004803603810190610251919061349f565b610ee4565b6040516102639190614509565b60405180910390f35b610286600480360381019061028191906136d4565b610f12565b005b6102a2600480360381019061029d91906134ee565b610fd9565b6040516102af9190613fe8565b60405180910390f35b6102d260048036038101906102cd9190613619565b611056565b005b6102ee60048036038101906102e9919061332d565b611398565b6040516102fb9190613fb2565b60405180910390f35b61031e60048036038101906103199190613553565b611446565b005b61033a6004803603810190610335919061332d565b611acc565b60405161034791906143d1565b60405180910390f35b61036a600480360381019061036591906134ee565b611ae4565b604051610377919061435d565b60405180910390f35b61039a600480360381019061039591906134ee565b6120b4565b6040516103a99392919061439a565b60405180910390f35b6103cc60048036038101906103c79190613710565b6120fb565b6040516103db9392919061439a565b60405180910390f35b6103fe60048036038101906103f99190613517565b61212a565b60405161040b9190613fb2565b60405180910390f35b61042e60048036038101906104299190613655565b6121f1565b005b61044a600480360381019061044591906134ee565b61239a565b60405161045c969594939291906143ec565b60405180910390f35b61047f600480360381019061047a9190613739565b6124a8565b60405161048c919061437f565b60405180910390f35b6104af60048036038101906104aa91906134ee565b6124c3565b6040516104c0959493929190614454565b60405180910390f35b6104d16126fe565b6040516104de91906143d1565b60405180910390f35b6104ef612704565b6040516104fc91906143d1565b60405180910390f35b61051f600480360381019061051a919061332d565b61270a565b60405161052c9190613fb2565b60405180910390f35b61054f600480360381019061054a91906134ee565b61272a565b6040516105609594939291906144af565b60405180910390f35b610583600480360381019061057e91906134ee565b612802565b604051610590919061403a565b60405180910390f35b6105b360048036038101906105ae9190613710565b61287a565b6040516105c091906143d1565b60405180910390f35b6105e360048036038101906105de91906134ee565b61291b565b6040516105f1929190614136565b60405180910390f35b610614600480360381019061060f91906134ee565b612a4f565b60405161062191906143d1565b60405180910390f35b610644600480360381019061063f9190613438565b612a67565b005b610660600480360381019061065b91906134ee565b612e04565b60405161066d9190613fcd565b60405180910390f35b61067e612e90565b60405161068b9190613f52565b60405180910390f35b600073ffffffffffffffffffffffffffffffffffffffff168773ffffffffffffffffffffffffffffffffffffffff161415610704576040517f08c379a00000000000000000000000000000000000000000000000000000000081526004016106fb906142bd565b60405180910390fd5b6000600260008973ffffffffffffffffffffffffffffffffffffffff1673ffffffffffffffffffffffffffffffffffffffff1681526020019081526020016000205414610786576040517f08c379a000000000000000000000000000000000000000000000000000000000815260040161077d9061429d565b60405180910390fd5b6000610793878787610ee4565b905060006107a082612eb6565b905060006107ad82612f21565b905060006107ba82612e04565b905060006107c787612802565b90506000808154809291906107db90614866565b91905055506040518060c0016040528060005481526020018e81526020018d73ffffffffffffffffffffffffffffffffffffffff1681526020016000600681111561084f577f4e487b7100000000000000000000000000000000000000000000000000000000600052602160045260246000fd5b81526020018663ffffffff168152602001896001811115610899577f4e487b7100000000000000000000000000000000000000000000000000000000600052602160045260246000fd5b81525060066000805481526020019081526020016000206000820151816000015560208201518160010190805190602001906108d6929190612f57565b5060408201518160020160006101000a81548173ffffffffffffffffffffffffffffffffffffffff021916908373ffffffffffffffffffffffffffffffffffffffff16021790555060608201518160020160146101000a81548160ff0219169083600681111561096f577f4e487b7100000000000000000000000000000000000000000000000000000000600052602160045260246000fd5b021790555060808201518160020160156101000a81548163ffffffff021916908363ffffffff16021790555060a08201518160020160196101000a81548160ff021916908360018111156109ec577f4e487b7100000000000000000000000000000000000000000000000000000000600052602160045260246000fd5b021790555090505060405180604001604052806040518060200160405280600081525081526020016040518060200160405280600081525081525060076000805481526020019081526020016000206000820151816000019080519060200190610a57929190612f57565b506020820151816001019080519060200190610a74929190612f57565b509050506040518060a00160405280848152602001888152602001878152602001836004811115610ace577f4e487b7100000000000000000000000000000000000000000000000000000000600052602160045260246000fd5b8152602001826006811115610b0c577f4e487b7100000000000000000000000000000000000000000000000000000000600052602160045260246000fd5b815250600860008054815260200190815260200160002060008201518160000155602082015181600101556040820151816002019080519060200190610b53929190612f57565b5060608201518160030160006101000a81548160ff02191690836004811115610ba5577f4e487b7100000000000000000000000000000000000000000000000000000000600052602160045260246000fd5b021790555060808201518160030160016101000a81548160ff02191690836006811115610bfb577f4e487b7100000000000000000000000000000000000000000000000000000000600052602160045260246000fd5b0217905550905050600054600260008e73ffffffffffffffffffffffffffffffffffffffff1673ffffffffffffffffffffffffffffffffffffffff168152602001908152602001600020819055506000547f91b08635671aac60e9f3dda55c450b1170d8c93ab4e68fc5737cc03948f7d4598e8e6000898d898e8e8b8b42604051610c909b9a99989796959493929190614055565b60405180910390a250505050505050505050505050565b6000600680811115610ce2577f4e487b7100000000000000000000000000000000000000000000000000000000600052602160045260246000fd5b60066000600260008673ffffffffffffffffffffffffffffffffffffffff1673ffffffffffffffffffffffffffffffffffffffff16815260200190815260200160002054815260200190815260200160002060020160149054906101000a900460ff166006811115610d7d577f4e487b7100000000000000000000000000000000000000000000000000000000600052602160045260246000fd5b149050919050565b610d8e33611398565b610dcd576040517f08c379a0000000000000000000000000000000000000000000000000000000008152600401610dc49061427d565b60405180910390fd5b6004600083815260200190815260200160002060040160009054906101000a900460ff1615610e31576040517f08c379a0000000000000000000000000000000000000000000000000000000008152600401610e289061431d565b60405180910390fd5b60046000838152602001908152602001600020600301819080600181540180825580915050600190039060005260206000200160009091909190916101000a81548173ffffffffffffffffffffffffffffffffffffffff021916908373ffffffffffffffffffffffffffffffffffffffff160217905550817f12246ba2398106df92bc0281a1eece14e5b8516c5c3dab76205391650e39fddb82604051610ed89190613f52565b60405180910390a25050565b60008160ff1660088460ff1663ffffffff16901b60108661ffff1663ffffffff16901b171790509392505050565b610f1b33611398565b610f5a576040517f08c379a0000000000000000000000000000000000000000000000000000000008152600401610f519061427d565b60405180910390fd5b600082118015610f6c57506000548211155b610fab576040517f08c379a0000000000000000000000000000000000000000000000000000000008152600401610fa2906141bd565b60405180910390fd5b80600360008481526020019081526020016000206000828254610fce91906145b2565b925050819055505050565b60008082118015610fec57506000548211155b61102b576040517f08c379a0000000000000000000000000000000000000000000000000000000008152600401611022906142fd565b60405180910390fd5b6006600083815260200190815260200160002060020160149054906101000a900460ff169050919050565b61105f33611398565b61109e576040517f08c379a00000000000000000000000000000000000000000000000000000000081526004016110959061427d565b60405180910390fd5b6000821180156110b057506000548211155b6110ef576040517f08c379a00000000000000000000000000000000000000000000000000000000081526004016110e6906142fd565b60405180910390fd5b6006600083815260200190815260200160002060020160149054906101000a900460ff16600681111561114b577f4e487b7100000000000000000000000000000000000000000000000000000000600052602160045260246000fd5b816006811115611184577f4e487b7100000000000000000000000000000000000000000000000000000000600052602160045260246000fd5b116111c4576040517f08c379a00000000000000000000000000000000000000000000000000000000081526004016111bb906141dd565b60405180910390fd5b60006006600084815260200190815260200160002060020160149054906101000a900460ff169050816006600085815260200190815260200160002060020160146101000a81548160ff0219169083600681111561124b577f4e487b7100000000000000000000000000000000000000000000000000000000600052602160045260246000fd5b0217905550600680811115611289577f4e487b7100000000000000000000000000000000000000000000000000000000600052602160045260246000fd5b8260068111156112c2577f4e487b7100000000000000000000000000000000000000000000000000000000600052602160045260246000fd5b1415611357576001600560006006600087815260200190815260200160002060020160009054906101000a900473ffffffffffffffffffffffffffffffffffffffff1673ffffffffffffffffffffffffffffffffffffffff1673ffffffffffffffffffffffffffffffffffffffff16815260200190815260200160002060006101000a81548160ff0219169083151502179055505b827f01ae96fe1baf9d2d284e6a11b7ab2a76e1c8b047b807650660b4370d50462f2382844260405161138b93929190614003565b60405180910390a2505050565b6000600960009054906101000a900473ffffffffffffffffffffffffffffffffffffffff1673ffffffffffffffffffffffffffffffffffffffff168273ffffffffffffffffffffffffffffffffffffffff16148061143f5750600560008373ffffffffffffffffffffffffffffffffffffffff1673ffffffffffffffffffffffffffffffffffffffff16815260200190815260200160002060009054906101000a900460ff165b9050919050565b61144f33611398565b61148e576040517f08c379a00000000000000000000000000000000000000000000000000000000081526004016114859061427d565b60405180910390fd5b600460008a815260200190815260200160002060040160009054906101000a900460ff16156114f2576040517f08c379a00000000000000000000000000000000000000000000000000000000081526004016114e99061431d565b60405180910390fd5b6000600460008b8152602001908152602001600020600301805490501161154e576040517f08c379a00000000000000000000000000000000000000000000000000000000081526004016115459061421d565b60405180910390fd5b6000600260008a73ffffffffffffffffffffffffffffffffffffffff1673ffffffffffffffffffffffffffffffffffffffff1681526020019081526020016000205414156115d1576040517f08c379a00000000000000000000000000000000000000000000000000000000081526004016115c8906142dd565b60405180910390fd5b6000600260008973ffffffffffffffffffffffffffffffffffffffff1673ffffffffffffffffffffffffffffffffffffffff168152602001908152602001600020541415611654576040517f08c379a000000000000000000000000000000000000000000000000000000000815260040161164b9061425d565b60405180910390fd5b6000600260008873ffffffffffffffffffffffffffffffffffffffff1673ffffffffffffffffffffffffffffffffffffffff1681526020019081526020016000205414156116d7576040517f08c379a00000000000000000000000000000000000000000000000000000000081526004016116ce9061419d565b60405180910390fd5b6000600260008773ffffffffffffffffffffffffffffffffffffffff1673ffffffffffffffffffffffffffffffffffffffff16815260200190815260200160002054141561175a576040517f08c379a0000000000000000000000000000000000000000000000000000000008152600401611751906141fd565b60405180910390fd5b6001600460008b815260200190815260200160002060040160006101000a81548160ff02191690831515021790555060405180608001604052808973ffffffffffffffffffffffffffffffffffffffff1681526020018873ffffffffffffffffffffffffffffffffffffffff1681526020018773ffffffffffffffffffffffffffffffffffffffff1681526020018673ffffffffffffffffffffffffffffffffffffffff16815250600460008b815260200190815260200160002060050160008201518160000160006101000a81548173ffffffffffffffffffffffffffffffffffffffff021916908373ffffffffffffffffffffffffffffffffffffffff16021790555060208201518160010160006101000a81548173ffffffffffffffffffffffffffffffffffffffff021916908373ffffffffffffffffffffffffffffffffffffffff16021790555060408201518160020160006101000a81548173ffffffffffffffffffffffffffffffffffffffff021916908373ffffffffffffffffffffffffffffffffffffffff16021790555060608201518160030160006101000a81548173ffffffffffffffffffffffffffffffffffffffff021916908373ffffffffffffffffffffffffffffffffffffffff160217905550905050600084111561198a57611989600260008a73ffffffffffffffffffffffffffffffffffffffff1673ffffffffffffffffffffffffffffffffffffffff1681526020019081526020016000205485610f12565b5b60008311156119dd576119dc600260008973ffffffffffffffffffffffffffffffffffffffff1673ffffffffffffffffffffffffffffffffffffffff1681526020019081526020016000205484610f12565b5b6000821115611a3057611a2f600260008873ffffffffffffffffffffffffffffffffffffffff1673ffffffffffffffffffffffffffffffffffffffff1681526020019081526020016000205483610f12565b5b6000811115611a8357611a82600260008773ffffffffffffffffffffffffffffffffffffffff1673ffffffffffffffffffffffffffffffffffffffff1681526020019081526020016000205482610f12565b5b887f19974ab114e4d06de9fa6a18e214db804b1d2a9b1acb21496207e2deafbbb9dc89898989604051611ab99493929190613f6d565b60405180910390a2505050505050505050565b60026020528060005260406000206000915090505481565b611aec612fdd565b600082118015611afe57506000548211155b611b3d576040517f08c379a0000000000000000000000000000000000000000000000000000000008152600401611b34906142fd565b60405180910390fd5b6040518060600160405280600660008581526020019081526020016000206040518060c001604052908160008201548152602001600182018054611b8090614834565b80601f0160208091040260200160405190810160405280929190818152602001828054611bac90614834565b8015611bf95780601f10611bce57610100808354040283529160200191611bf9565b820191906000526020600020905b815481529060010190602001808311611bdc57829003601f168201915b505050505081526020016002820160009054906101000a900473ffffffffffffffffffffffffffffffffffffffff1673ffffffffffffffffffffffffffffffffffffffff1673ffffffffffffffffffffffffffffffffffffffff1681526020016002820160149054906101000a900460ff166006811115611ca3577f4e487b7100000000000000000000000000000000000000000000000000000000600052602160045260246000fd5b6006811115611cdb577f4e487b7100000000000000000000000000000000000000000000000000000000600052602160045260246000fd5b81526020016002820160159054906101000a900463ffffffff1663ffffffff1663ffffffff1681526020016002820160199054906101000a900460ff166001811115611d50577f4e487b7100000000000000000000000000000000000000000000000000000000600052602160045260246000fd5b6001811115611d88577f4e487b7100000000000000000000000000000000000000000000000000000000600052602160045260246000fd5b81525050815260200160076000858152602001908152602001600020604051806040016040529081600082018054611dbf90614834565b80601f0160208091040260200160405190810160405280929190818152602001828054611deb90614834565b8015611e385780601f10611e0d57610100808354040283529160200191611e38565b820191906000526020600020905b815481529060010190602001808311611e1b57829003601f168201915b50505050508152602001600182018054611e5190614834565b80601f0160208091040260200160405190810160405280929190818152602001828054611e7d90614834565b8015611eca5780601f10611e9f57610100808354040283529160200191611eca565b820191906000526020600020905b815481529060010190602001808311611ead57829003601f168201915b5050505050815250508152602001600860008581526020019081526020016000206040518060a00160405290816000820154815260200160018201548152602001600282018054611f1a90614834565b80601f0160208091040260200160405190810160405280929190818152602001828054611f4690614834565b8015611f935780601f10611f6857610100808354040283529160200191611f93565b820191906000526020600020905b815481529060010190602001808311611f7657829003601f168201915b505050505081526020016003820160009054906101000a900460ff166004811115611fe7577f4e487b7100000000000000000000000000000000000000000000000000000000600052602160045260246000fd5b600481111561201f577f4e487b7100000000000000000000000000000000000000000000000000000000600052602160045260246000fd5b81526020016003820160019054906101000a900460ff16600681111561206e577f4e487b7100000000000000000000000000000000000000000000000000000000600052602160045260246000fd5b60068111156120a6577f4e487b7100000000000000000000000000000000000000000000000000000000600052602160045260246000fd5b815250508152509050919050565b60008060006120e86006600086815260200190815260200160002060020160159054906101000a900463ffffffff166120fb565b8093508194508295505050509193909250565b600080600060108463ffffffff16901c925060ff60088563ffffffff16901c16915060ff841690509193909250565b60006006600084815260200190815260200160002060020160009054906101000a900473ffffffffffffffffffffffffffffffffffffffff1673ffffffffffffffffffffffffffffffffffffffff168273ffffffffffffffffffffffffffffffffffffffff1614806121e95750600960009054906101000a900473ffffffffffffffffffffffffffffffffffffffff1673ffffffffffffffffffffffffffffffffffffffff168273ffffffffffffffffffffffffffffffffffffffff16145b905092915050565b60008311801561220357506000548311155b612242576040517f08c379a00000000000000000000000000000000000000000000000000000000081526004016122399061423d565b60405180910390fd5b6006600084815260200190815260200160002060020160009054906101000a900473ffffffffffffffffffffffffffffffffffffffff1673ffffffffffffffffffffffffffffffffffffffff163373ffffffffffffffffffffffffffffffffffffffff1614806122b757506122b633611398565b5b6122f6576040517f08c379a00000000000000000000000000000000000000000000000000000000081526004016122ed9061433d565b60405180910390fd5b60405180604001604052808381526020018281525060076000858152602001908152602001600020600082015181600001908051906020019061233a929190612f57565b506020820151816001019080519060200190612357929190612f57565b50905050827f3a2df04b3034672d2c2b1dad7a1a514a04aa7bca1f226958091c379b472dadbf838360405161238d929190614136565b60405180910390a2505050565b60066020528060005260406000206000915090508060000154908060010180546123c390614834565b80601f01602080910402602001604051908101604052809291908181526020018280546123ef90614834565b801561243c5780601f106124115761010080835404028352916020019161243c565b820191906000526020600020905b81548152906001019060200180831161241f57829003601f168201915b5050505050908060020160009054906101000a900473ffffffffffffffffffffffffffffffffffffffff16908060020160149054906101000a900460ff16908060020160159054906101000a900463ffffffff16908060020160199054906101000a900460ff16905086565b60008160ff1660088460ff1661ffff16901b17905092915050565b60046020528060005260406000206000915090508060000154908060010180546124ec90614834565b80601f016020809104026020016040519081016040528092919081815260200182805461251890614834565b80156125655780601f1061253a57610100808354040283529160200191612565565b820191906000526020600020905b81548152906001019060200180831161254857829003601f168201915b5050505050908060020160009054906101000a900461ffff16908060040160009054906101000a900460ff1690806005016040518060800160405290816000820160009054906101000a900473ffffffffffffffffffffffffffffffffffffffff1673ffffffffffffffffffffffffffffffffffffffff1673ffffffffffffffffffffffffffffffffffffffff1681526020016001820160009054906101000a900473ffffffffffffffffffffffffffffffffffffffff1673ffffffffffffffffffffffffffffffffffffffff1673ffffffffffffffffffffffffffffffffffffffff1681526020016002820160009054906101000a900473ffffffffffffffffffffffffffffffffffffffff1673ffffffffffffffffffffffffffffffffffffffff1673ffffffffffffffffffffffffffffffffffffffff1681526020016003820160009054906101000a900473ffffffffffffffffffffffffffffffffffffffff1673ffffffffffffffffffffffffffffffffffffffff1673ffffffffffffffffffffffffffffffffffffffff1681525050905085565b60015481565b60005481565b60056020528060005260406000206000915054906101000a900460ff1681565b600860205280600052604060002060009150905080600001549080600101549080600201805461275990614834565b80601f016020809104026020016040519081016040528092919081815260200182805461278590614834565b80156127d25780601f106127a7576101008083540402835291602001916127d2565b820191906000526020600020905b8154815290600101906020018083116127b557829003601f168201915b5050505050908060030160009054906101000a900460ff16908060030160019054906101000a900460ff16905085565b6000603c8210156128165760009050612875565b60428210156128285760019050612875565b604982101561283a5760029050612875565b605182101561284c5760039050612875565b605a82101561285e5760049050612875565b60648210156128705760059050612875565b600690505b919050565b600080600080612889856120fb565b9250925092506000620151808260ff166128a39190614639565b62278d008460ff166128b59190614639565b6301e133808661ffff166128c99190614639565b6128d391906145b2565b6128dd91906145b2565b9050428111156128f4576000945050505050612916565b6301e1338081426129059190614693565b61290f9190614608565b9450505050505b919050565b600760205280600052604060002060009150905080600001805461293e90614834565b80601f016020809104026020016040519081016040528092919081815260200182805461296a90614834565b80156129b75780601f1061298c576101008083540402835291602001916129b7565b820191906000526020600020905b81548152906001019060200180831161299a57829003601f168201915b5050505050908060010180546129cc90614834565b80601f01602080910402602001604051908101604052809291908181526020018280546129f890614834565b8015612a455780601f10612a1a57610100808354040283529160200191612a45565b820191906000526020600020905b815481529060010190602001808311612a2857829003601f168201915b5050505050905082565b60036020528060005260406000206000915090505481565b612a7033611398565b612aaf576040517f08c379a0000000000000000000000000000000000000000000000000000000008152600401612aa69061427d565b60405180910390fd5b6000612abb83836124a8565b905060006040518060800160405280600073ffffffffffffffffffffffffffffffffffffffff168152602001600073ffffffffffffffffffffffffffffffffffffffff168152602001600073ffffffffffffffffffffffffffffffffffffffff168152602001600073ffffffffffffffffffffffffffffffffffffffff16815250905060016000815480929190612b5190614866565b91905055506040518060c0016040528060015481526020018681526020018361ffff168152602001600067ffffffffffffffff811115612bba577f4e487b7100000000000000000000000000000000000000000000000000000000600052604160045260246000fd5b604051908082528060200260200182016040528015612be85781602001602082028036833780820191505090505b50815260200160001515815260200182815250600460006001548152602001908152602001600020600082015181600001556020820151816001019080519060200190612c36929190612f57565b5060408201518160020160006101000a81548161ffff021916908361ffff1602179055506060820151816003019080519060200190612c76929190613010565b5060808201518160040160006101000a81548160ff02191690831515021790555060a08201518160050160008201518160000160006101000a81548173ffffffffffffffffffffffffffffffffffffffff021916908373ffffffffffffffffffffffffffffffffffffffff16021790555060208201518160010160006101000a81548173ffffffffffffffffffffffffffffffffffffffff021916908373ffffffffffffffffffffffffffffffffffffffff16021790555060408201518160020160006101000a81548173ffffffffffffffffffffffffffffffffffffffff021916908373ffffffffffffffffffffffffffffffffffffffff16021790555060608201518160030160006101000a81548173ffffffffffffffffffffffffffffffffffffffff021916908373ffffffffffffffffffffffffffffffffffffffff16021790555050509050506001547f527887ed6033dc7f6637d06840290a881f67a7f6b0b297598a5a88195bba4f6d8684604051612df592919061416d565b60405180910390a25050505050565b6000600d8210158015612e185750600e8211155b15612e265760009050612e8b565b600f8210158015612e38575060118211155b15612e465760019050612e8b565b60128210158015612e58575060148211155b15612e665760029050612e8b565b60158210158015612e785750601e8211155b15612e865760039050612e8b565b600490505b919050565b600960009054906101000a900473ffffffffffffffffffffffffffffffffffffffff1681565b600080600080612ec5856120fb565b925092509250620151808160ff16612edd9190614639565b62278d008360ff16612eef9190614639565b6301e133808561ffff16612f039190614639565b612f0d91906145b2565b612f1791906145b2565b9350505050919050565b600042821115612f345760009050612f52565b6301e133808242612f459190614693565b612f4f9190614608565b90505b919050565b828054612f6390614834565b90600052602060002090601f016020900481019282612f855760008555612fcc565b82601f10612f9e57805160ff1916838001178555612fcc565b82800160010185558215612fcc579182015b82811115612fcb578251825591602001919060010190612fb0565b5b509050612fd9919061309a565b5090565b6040518060600160405280612ff06130b7565b8152602001612ffd613179565b815260200161300a613193565b81525090565b828054828255906000526020600020908101928215613089579160200282015b828111156130885782518260006101000a81548173ffffffffffffffffffffffffffffffffffffffff021916908373ffffffffffffffffffffffffffffffffffffffff16021790555091602001919060010190613030565b5b509050613096919061309a565b5090565b5b808211156130b357600081600090555060010161309b565b5090565b6040518060c001604052806000815260200160608152602001600073ffffffffffffffffffffffffffffffffffffffff16815260200160006006811115613127577f4e487b7100000000000000000000000000000000000000000000000000000000600052602160045260246000fd5b8152602001600063ffffffff16815260200160006001811115613173577f4e487b7100000000000000000000000000000000000000000000000000000000600052602160045260246000fd5b81525090565b604051806040016040528060608152602001606081525090565b6040518060a00160405280600081526020016000815260200160608152602001600060048111156131ed577f4e487b7100000000000000000000000000000000000000000000000000000000600052602160045260246000fd5b81526020016000600681111561322c577f4e487b7100000000000000000000000000000000000000000000000000000000600052602160045260246000fd5b81525090565b600061324561324084614555565b614524565b90508281526020810184848401111561325d57600080fd5b6132688482856147f2565b509392505050565b60008135905061327f816149fb565b92915050565b60008135905061329481614a12565b92915050565b6000813590506132a981614a22565b92915050565b600082601f8301126132c057600080fd5b81356132d0848260208601613232565b91505092915050565b6000813590506132e881614a32565b92915050565b6000813590506132fd81614a49565b92915050565b60008135905061331281614a60565b92915050565b60008135905061332781614a77565b92915050565b60006020828403121561333f57600080fd5b600061334d84828501613270565b91505092915050565b600080600080600080600080610100898b03121561337357600080fd5b600089013567ffffffffffffffff81111561338d57600080fd5b6133998b828c016132af565b98505060206133aa8b828c01613270565b97505060406133bb8b828c016132d9565b96505060606133cc8b828c01613318565b95505060806133dd8b828c01613318565b94505060a06133ee8b828c0161329a565b93505060c06133ff8b828c016132ee565b92505060e089013567ffffffffffffffff81111561341c57600080fd5b6134288b828c016132af565b9150509295985092959890939650565b60008060006060848603121561344d57600080fd5b600084013567ffffffffffffffff81111561346757600080fd5b613473868287016132af565b935050602061348486828701613318565b925050604061349586828701613318565b9150509250925092565b6000806000606084860312156134b457600080fd5b60006134c2868287016132d9565b93505060206134d386828701613318565b92505060406134e486828701613318565b9150509250925092565b60006020828403121561350057600080fd5b600061350e848285016132ee565b91505092915050565b6000806040838503121561352a57600080fd5b6000613538858286016132ee565b925050602061354985828601613270565b9150509250929050565b60008060008060008060008060006101208a8c03121561357257600080fd5b60006135808c828d016132ee565b99505060206135918c828d01613270565b98505060406135a28c828d01613270565b97505060606135b38c828d01613270565b96505060806135c48c828d01613270565b95505060a06135d58c828d016132ee565b94505060c06135e68c828d016132ee565b93505060e06135f78c828d016132ee565b9250506101006136098c828d016132ee565b9150509295985092959850929598565b6000806040838503121561362c57600080fd5b600061363a858286016132ee565b925050602061364b85828601613285565b9150509250929050565b60008060006060848603121561366a57600080fd5b6000613678868287016132ee565b935050602084013567ffffffffffffffff81111561369557600080fd5b6136a1868287016132af565b925050604084013567ffffffffffffffff8111156136be57600080fd5b6136ca868287016132af565b9150509250925092565b600080604083850312156136e757600080fd5b60006136f5858286016132ee565b9250506020613706858286016132ee565b9150509250929050565b60006020828403121561372257600080fd5b600061373084828501613303565b91505092915050565b6000806040838503121561374c57600080fd5b600061375a85828601613318565b925050602061376b85828601613318565b9150509250929050565b61377e816146c7565b82525050565b61378d816146c7565b82525050565b61379c816146d9565b82525050565b6137ab81614786565b82525050565b6137ba81614786565b82525050565b6137c981614798565b82525050565b6137d881614798565b82525050565b6137e7816147aa565b82525050565b6137f6816147aa565b82525050565b613805816147bc565b82525050565b613814816147bc565b82525050565b600061382582614585565b61382f8185614590565b935061383f818560208601614801565b6138488161499a565b840191505092915050565b600061385e82614585565b61386881856145a1565b9350613878818560208601614801565b6138818161499a565b840191505092915050565b60006138996021836145a1565b91507f546869726420706c6163652077696e6e6572206e6f742072656769737465726560008301527f64000000000000000000000000000000000000000000000000000000000000006020830152604082019050919050565b60006138ff6011836145a1565b91507f496e76616c6964204a75646f6b612049440000000000000000000000000000006000830152602082019050919050565b600061393f6018836145a1565b91507f4e6577206c6576656c206d7573742062652068696768657200000000000000006000830152602082019050919050565b600061397f6022836145a1565b91507f466f7572746820706c6163652077696e6e6572206e6f7420726567697374657260008301527f65640000000000000000000000000000000000000000000000000000000000006020830152604082019050919050565b60006139e5601e836145a1565b91507f4e6f207061727469636970616e747320696e20636f6d7065746974696f6e00006000830152602082019050919050565b6000613a256015836145a1565b91507f4a75646f6b6120646f6573206e6f7420657869737400000000000000000000006000830152602082019050919050565b6000613a656022836145a1565b91507f5365636f6e6420706c6163652077696e6e6572206e6f7420726567697374657260008301527f65640000000000000000000000000000000000000000000000000000000000006020830152604082019050919050565b6000613acb6022836145a1565b91507f4f6e6c792061646d696e2063616e20706572666f726d2074686973206163746960008301527f6f6e0000000000000000000000000000000000000000000000000000000000006020830152604082019050919050565b6000613b316019836145a1565b91507f4a75646f6b6120616c72656164792072656769737465726564000000000000006000830152602082019050919050565b6000613b716000836145a1565b9150600082019050919050565b6000613b8b6016836145a1565b91507f496e76616c69642077616c6c65742061646472657373000000000000000000006000830152602082019050919050565b6000613bcb6021836145a1565b91507f466972737420706c6163652077696e6e6572206e6f742072656769737465726560008301527f64000000000000000000000000000000000000000000000000000000000000006020830152604082019050919050565b6000613c316016836145a1565b91507f4a75646f6b6120646f6573206e6f742065786973742e000000000000000000006000830152602082019050919050565b6000613c71601d836145a1565b91507f436f6d7065746974696f6e20616c726561647920636f6d706c657465640000006000830152602082019050919050565b6000613cb1600e836145a1565b91507f4e6f7420617574686f72697a65640000000000000000000000000000000000006000830152602082019050919050565b608082016000820151613cfa6000850182613775565b506020820151613d0d6020850182613775565b506040820151613d206040850182613775565b506060820151613d336060850182613775565b50505050565b60006060830160008301518482036000860152613d568282613d97565b91505060208301518482036020860152613d708282613e20565b91505060408301518482036040860152613d8a8282613e64565b9150508091505092915050565b600060c083016000830151613daf6000860182613ef8565b5060208301518482036020860152613dc7828261381a565b9150506040830151613ddc6040860182613775565b506060830151613def60608601826137c0565b506080830151613e026080860182613f25565b5060a0830151613e1560a08601826137de565b508091505092915050565b60006040830160008301518482036000860152613e3d828261381a565b91505060208301518482036020860152613e57828261381a565b9150508091505092915050565b600060a083016000830151613e7c6000860182613ef8565b506020830151613e8f6020860182613ef8565b5060408301518482036040860152613ea7828261381a565b9150506060830151613ebc60608601826137a2565b506080830151613ecf60808601826137fc565b508091505092915050565b613ee381614731565b82525050565b613ef2816147ce565b82525050565b613f018161475f565b82525050565b613f108161475f565b82525050565b613f1f816147e0565b82525050565b613f2e81614769565b82525050565b613f3d81614769565b82525050565b613f4c81614779565b82525050565b6000602082019050613f676000830184613784565b92915050565b6000608082019050613f826000830187613784565b613f8f6020830186613784565b613f9c6040830185613784565b613fa96060830184613784565b95945050505050565b6000602082019050613fc76000830184613793565b92915050565b6000602082019050613fe260008301846137b1565b92915050565b6000602082019050613ffd60008301846137cf565b92915050565b600060608201905061401860008301866137cf565b61402560208301856137cf565b6140326040830184613f07565b949350505050565b600060208201905061404f600083018461380b565b92915050565b60006101a0820190508181036000830152614070818e613853565b905061407f602083018d613784565b61408c604083018c6137cf565b614099606083018b613f16565b6140a6608083018a6137ed565b81810360a08301526140b781613b64565b905081810360c08301526140ca81613b64565b90506140d960e0830189613f07565b6140e7610100830188613f07565b8181036101208301526140fa8187613853565b905061410a6101408301866137b1565b61411861016083018561380b565b614126610180830184613f07565b9c9b505050505050505050505050565b600060408201905081810360008301526141508185613853565b905081810360208301526141648184613853565b90509392505050565b600060408201905081810360008301526141878185613853565b90506141966020830184613ee9565b9392505050565b600060208201905081810360008301526141b68161388c565b9050919050565b600060208201905081810360008301526141d6816138f2565b9050919050565b600060208201905081810360008301526141f681613932565b9050919050565b6000602082019050818103600083015261421681613972565b9050919050565b60006020820190508181036000830152614236816139d8565b9050919050565b6000602082019050818103600083015261425681613a18565b9050919050565b6000602082019050818103600083015261427681613a58565b9050919050565b6000602082019050818103600083015261429681613abe565b9050919050565b600060208201905081810360008301526142b681613b24565b9050919050565b600060208201905081810360008301526142d681613b7e565b9050919050565b600060208201905081810360008301526142f681613bbe565b9050919050565b6000602082019050818103600083015261431681613c24565b9050919050565b6000602082019050818103600083015261433681613c64565b9050919050565b6000602082019050818103600083015261435681613ca4565b9050919050565b600060208201905081810360008301526143778184613d39565b905092915050565b60006020820190506143946000830184613eda565b92915050565b60006060820190506143af6000830186613eda565b6143bc6020830185613f43565b6143c96040830184613f43565b949350505050565b60006020820190506143e66000830184613f07565b92915050565b600060c0820190506144016000830189613f07565b81810360208301526144138188613853565b90506144226040830187613784565b61442f60608301866137cf565b61443c6080830185613f34565b61444960a08301846137ed565b979650505050505050565b60006101008201905061446a6000830188613f07565b818103602083015261447c8187613853565b905061448b6040830186613eda565b6144986060830185613793565b6144a56080830184613ce4565b9695505050505050565b600060a0820190506144c46000830188613f07565b6144d16020830187613f07565b81810360408301526144e38186613853565b90506144f260608301856137b1565b6144ff608083018461380b565b9695505050505050565b600060208201905061451e6000830184613f34565b92915050565b6000604051905081810181811067ffffffffffffffff8211171561454b5761454a61496b565b5b8060405250919050565b600067ffffffffffffffff8211156145705761456f61496b565b5b601f19601f8301169050602081019050919050565b600081519050919050565b600082825260208201905092915050565b600082825260208201905092915050565b60006145bd8261475f565b91506145c88361475f565b9250827fffffffffffffffffffffffffffffffffffffffffffffffffffffffffffffffff038211156145fd576145fc6148af565b5b828201905092915050565b60006146138261475f565b915061461e8361475f565b92508261462e5761462d6148de565b5b828204905092915050565b60006146448261475f565b915061464f8361475f565b9250817fffffffffffffffffffffffffffffffffffffffffffffffffffffffffffffffff0483118215151615614688576146876148af565b5b828202905092915050565b600061469e8261475f565b91506146a98361475f565b9250828210156146bc576146bb6148af565b5b828203905092915050565b60006146d28261473f565b9050919050565b60008115159050919050565b60008190506146f3826149ab565b919050565b6000819050614706826149bf565b919050565b6000819050614719826149d3565b919050565b600081905061472c826149e7565b919050565b600061ffff82169050919050565b600073ffffffffffffffffffffffffffffffffffffffff82169050919050565b6000819050919050565b600063ffffffff82169050919050565b600060ff82169050919050565b6000614791826146e5565b9050919050565b60006147a3826146f8565b9050919050565b60006147b58261470b565b9050919050565b60006147c78261471e565b9050919050565b60006147d982614731565b9050919050565b60006147eb82614769565b9050919050565b82818337600083830152505050565b60005b8381101561481f578082015181840152602081019050614804565b8381111561482e576000848401525b50505050565b6000600282049050600182168061484c57607f821691505b602082108114156148605761485f61493c565b5b50919050565b60006148718261475f565b91507fffffffffffffffffffffffffffffffffffffffffffffffffffffffffffffffff8214156148a4576148a36148af565b5b600182019050919050565b7f4e487b7100000000000000000000000000000000000000000000000000000000600052601160045260246000fd5b7f4e487b7100000000000000000000000000000000000000000000000000000000600052601260045260246000fd5b7f4e487b7100000000000000000000000000000000000000000000000000000000600052602160045260246000fd5b7f4e487b7100000000000000000000000000000000000000000000000000000000600052602260045260246000fd5b7f4e487b7100000000000000000000000000000000000000000000000000000000600052604160045260246000fd5b6000601f19601f8301169050919050565b600581106149bc576149bb61490d565b5b50565b600781106149d0576149cf61490d565b5b50565b600281106149e4576149e361490d565b5b50565b600781106149f8576149f761490d565b5b50565b614a04816146c7565b8114614a0f57600080fd5b50565b60078110614a1f57600080fd5b50565b60028110614a2f57600080fd5b50565b614a3b81614731565b8114614a4657600080fd5b50565b614a528161475f565b8114614a5d57600080fd5b50565b614a6981614769565b8114614a7457600080fd5b50565b614a8081614779565b8114614a8b57600080fd5b5056fea264697066735822122016689bdbc2fb5984d46052d84f2154c063de62a0ea366ca7ddca0c3ee9922c7764736f6c63430008000033",
  "immutableReferences": {},
  "source": "// SPDX-License-Identifier: MIT\r\npragma solidity ^0.8.0;\r\n\r\ncontract JudoSystem {\r\n    enum BeltLevel { White, Yellow, Orange, Green, Blue, Brown, Black }\r\n    enum Gender { Male, Female }\r\n    enum AgeCategory { Juveniles, Cadets, Juniors, Seniors, Veterans }\r\n    enum WeightCategory { Under60, Under66, Under73, Under81, Under90, Under100, Over100 }\r\n\r\n    struct JudokaBasic {\r\n        uint256 id;\r\n        string name;\r\n        address walletAddress;\r\n        BeltLevel beltLevel;\r\n        uint32 dateOfBirth;\r\n        Gender gender;\r\n    }\r\n\r\n    struct JudokaContact {\r\n        string email;\r\n        string phoneNumber;\r\n    }\r\n\r\n    struct JudokaPhysical {\r\n        uint256 age;\r\n        uint256 weight;\r\n        string club;\r\n        AgeCategory ageCategory;\r\n        WeightCategory weightCategory;\r\n    }\r\n\r\n    struct FullJudokaInfo {\r\n        JudokaBasic basic;\r\n        JudokaContact contact;\r\n        JudokaPhysical physical;\r\n    }\r\n\r\n    struct CompetitionResult {\r\n        address firstPlace;\r\n        address secondPlace;\r\n        address thirdPlace;\r\n        address fourthPlace;\r\n    }\r\n\r\n    struct Competition {\r\n        uint256 id;\r\n        string name;\r\n        uint16 date;\r\n        address[] participants;\r\n        bool completed;\r\n        CompetitionResult results;\r\n    }\r\n\r\n    struct BeltLevelChange {\r\n        BeltLevel oldBeltLevel;\r\n        BeltLevel newBeltLevel;\r\n        uint256 timestamp;\r\n    }\r\n\r\n    uint256 public judokaCount;\r\n    uint256 public competitionCount;\r\n    mapping(address => uint256) public judokaIds;\r\n    mapping(uint256 => uint256) public judokaPoints;\r\n    mapping(uint256 => Competition) public competitions;\r\n    mapping(address => bool) public blackBeltAdmins;\r\n    mapping(uint256 => JudokaBasic) public judokasBasic;\r\n    mapping(uint256 => JudokaContact) public judokasContact;\r\n    mapping(uint256 => JudokaPhysical) public judokasPhysical;\r\n\r\n    address public admin;\r\n\r\n    event JudokaRegistered(uint256 indexed id, string name, address walletAddress, BeltLevel beltLevel, uint256 dateOfBirth, Gender gender, string email, string phoneNumber, uint256 age, uint256 weight, string club, AgeCategory ageCategory, WeightCategory weightCategory, uint256 timestamp);\r\n    event BeltLevelUpdated(uint256 indexed id, BeltLevel oldBeltLevel, BeltLevel newBeltLevel, uint256 timestamp);\r\n    event CompetitionCreated(uint256 indexed id, string name, uint256 date);\r\n    event ParticipantAdded(uint256 indexed competitionId, address participant);\r\n    event CompetitionResultRecorded(uint256 indexed competitionId, address firstPlace, address secondPlace, address thirdPlace, address fourthPlace);\r\n    event JudokaContactUpdated(uint256 indexed id, string email, string phoneNumber);\r\n    \r\n    constructor() {\r\n        admin = msg.sender;\r\n        blackBeltAdmins[msg.sender] = true;\r\n    }\r\n\r\n    modifier onlyAdmin() {\r\n        require(isAdmin(msg.sender), \"Only admin can perform this action\");\r\n        _;\r\n    }\r\n\r\n    function isAdmin(address _address) public view returns (bool) {\r\n    return _address == admin || blackBeltAdmins[_address];\r\n    }\r\n\r\n    // Utility functions for date packing and unpacking\r\n    function packDateForJudoka(uint16 year, uint8 month, uint8 day) public pure returns (uint32) {\r\n        return (uint32(year) << 16) | (uint32(month) << 8) | uint32(day);\r\n    }\r\n\r\n    function packDateForCompetition(uint8 month, uint8 day) public pure returns (uint16) {\r\n        return (uint16(month) << 8) | uint16(day);\r\n    }\r\n\r\n\r\n    function getAgeCategory(uint256 _age) public pure returns (AgeCategory) {\r\n        if (_age >= 13 && _age <= 14) {\r\n            return AgeCategory.Juveniles;\r\n        } else if (_age >= 15 && _age <= 17) {\r\n            return AgeCategory.Cadets;\r\n        } else if (_age >= 18 && _age <= 20) {\r\n            return AgeCategory.Juniors;\r\n        } else if (_age >= 21 && _age <= 30) {\r\n            return AgeCategory.Seniors;\r\n        } else {\r\n            return AgeCategory.Veterans;\r\n        }\r\n    }\r\n\r\n    function getWeightCategory(uint256 _weight) public pure returns (WeightCategory) {\r\n        if (_weight < 60) {\r\n            return WeightCategory.Under60;\r\n        } else if (_weight < 66) {\r\n            return WeightCategory.Under66;\r\n        } else if (_weight < 73) {\r\n            return WeightCategory.Under73;\r\n        } else if (_weight < 81) {\r\n            return WeightCategory.Under81;\r\n        } else if (_weight < 90) {\r\n            return WeightCategory.Under90;\r\n        } else if (_weight < 100) {\r\n            return WeightCategory.Under100;\r\n        } else {\r\n            return WeightCategory.Over100;\r\n        }\r\n    }\r\n\r\n    function calculateAge(uint32 _dateOfBirth) public view returns (uint256) {\r\n        (uint16 year, uint8 month, uint8 day) = unpackDate(_dateOfBirth);\r\n        uint256 dobInSeconds = uint256(year) * 365 days + uint256(month) * 30 days + uint256(day) * 1 days;\r\n        if (dobInSeconds > block.timestamp) {\r\n            return 0;\r\n        }\r\n        return (block.timestamp - dobInSeconds) / 365 days;\r\n    }\r\n\r\n    // Function to unpack date from uint32 format\r\n    function unpackDate(uint32 _packedDate) public pure returns (uint16 year, uint8 month, uint8 day) {\r\n        year = uint16(_packedDate >> 16);\r\n        month = uint8(_packedDate >> 8 & 0xFF);\r\n        day = uint8(_packedDate & 0xFF);\r\n    }\r\n\r\n// Correct usage in registerJudoka (and similar adjustment in other relevant functions)\r\nfunction registerJudoka(\r\n    string memory _name, \r\n    address _walletAddress, \r\n    uint16 year, \r\n    uint8 month, \r\n    uint8 day, \r\n    Gender _gender,\r\n    uint256 _weight,\r\n    string memory _club\r\n) public {\r\n    require(_walletAddress != address(0), \"Invalid wallet address\");\r\n    require(judokaIds[_walletAddress] == 0, \"Judoka already registered\");\r\n\r\n    uint32 packedDate = packDateForJudoka(year, month, day);\r\n    uint256 dobInSeconds = calculateDOBInSeconds(packedDate);\r\n    uint256 age = calculateAgeFromSeconds(dobInSeconds);\r\n\r\n    AgeCategory ageCategory = getAgeCategory(age);\r\n    WeightCategory weightCategory = getWeightCategory(_weight);\r\n\r\n    judokaCount++;\r\n    judokasBasic[judokaCount] = JudokaBasic({\r\n        id: judokaCount,\r\n        name: _name,\r\n        walletAddress: _walletAddress,\r\n        beltLevel: BeltLevel.White,\r\n        dateOfBirth: packedDate,\r\n        gender: _gender\r\n    });\r\n\r\n    judokasContact[judokaCount] = JudokaContact({\r\n        email: '',\r\n        phoneNumber: ''\r\n    });\r\n\r\n    judokasPhysical[judokaCount] = JudokaPhysical({\r\n        age: age,\r\n        weight: _weight,\r\n        club: _club,\r\n        ageCategory: ageCategory,\r\n        weightCategory: weightCategory\r\n    });\r\n\r\n    judokaIds[_walletAddress] = judokaCount;\r\n    emit JudokaRegistered(\r\n        judokaCount, _name, _walletAddress, BeltLevel.White, packedDate, _gender, '', '', age, _weight, _club, ageCategory, weightCategory, block.timestamp\r\n    );\r\n}\r\n\r\n// Helper functions to calculate age from seconds and DOB in seconds\r\nfunction calculateDOBInSeconds(uint32 packedDate) private pure returns (uint256) {\r\n    (uint16 year, uint8 month, uint8 day) = unpackDate(packedDate);\r\n    return uint256(year) * 365 days + uint256(month) * 30 days + uint256(day) * 1 days;\r\n}\r\n\r\n// Ensure this function is marked as view if using block.timestamp\r\nfunction calculateAgeFromSeconds(uint256 dobInSeconds) private view returns (uint256) {\r\n    if (dobInSeconds > block.timestamp) {\r\n        return 0;\r\n    }\r\n    return (block.timestamp - dobInSeconds) / 365 days;\r\n}\r\n\r\nfunction getJudokaDOB(uint256 _id) public view returns (uint16 year, uint8 month, uint8 day) {\r\n        (year, month, day) = unpackDate(judokasBasic[_id].dateOfBirth);\r\n    }\r\n\r\nfunction updateJudokaContactDetails(\r\n    uint256 _id,\r\n    string memory _email,\r\n    string memory _phoneNumber\r\n) public {\r\n    require(_id > 0 && _id <= judokaCount, \"Judoka does not exist\");\r\n    require(msg.sender == judokasBasic[_id].walletAddress || isAdmin(msg.sender), \"Not authorized\");\r\n\r\n    judokasContact[_id] = JudokaContact({\r\n        email: _email,\r\n        phoneNumber: _phoneNumber\r\n    });\r\n\r\n    emit JudokaContactUpdated(_id, _email, _phoneNumber);\r\n    }\r\n\r\n    function getJudokaInfo(uint256 _id) public view returns (FullJudokaInfo memory) {\r\n        require(_id > 0 && _id <= judokaCount, \"Judoka does not exist.\");\r\n        return FullJudokaInfo({\r\n            basic: judokasBasic[_id],\r\n            contact: judokasContact[_id],\r\n            physical: judokasPhysical[_id]\r\n        });\r\n    }\r\n\r\n    function getBeltLevel(uint256 _id) public view returns (BeltLevel) {\r\n        require(_id > 0 && _id <= judokaCount, \"Judoka does not exist.\");\r\n        return judokasBasic[_id].beltLevel;\r\n    }\r\n\r\n    function promoteJudoka(uint256 _id, BeltLevel _newBeltLevel) public onlyAdmin {\r\n        require(_id > 0 && _id <= judokaCount, \"Judoka does not exist.\");\r\n        require(_newBeltLevel > judokasBasic[_id].beltLevel, \"New level must be higher\");\r\n\r\n        BeltLevel oldBeltLevel = judokasBasic[_id].beltLevel;\r\n        judokasBasic[_id].beltLevel = _newBeltLevel;\r\n\r\n        if (_newBeltLevel == BeltLevel.Black) {\r\n            blackBeltAdmins[judokasBasic[_id].walletAddress] = true;\r\n        }\r\n\r\n        emit BeltLevelUpdated(_id, oldBeltLevel, _newBeltLevel, block.timestamp);\r\n    }\r\n\r\n    function isBlackBelt(address _address) public view returns (bool) {\r\n        return judokasBasic[judokaIds[_address]].beltLevel == BeltLevel.Black;\r\n    }\r\n\r\n    function isAuthorized(uint256 _id, address _sender) public view returns (bool) {\r\n        return _sender == judokasBasic[_id].walletAddress || _sender == admin;\r\n    }\r\n\r\n    function updateJudokaPoints(uint256 _id, uint256 _points) public onlyAdmin {\r\n        require(_id > 0 && _id <= judokaCount, \"Invalid Judoka ID\");\r\n        judokaPoints[_id] += _points;\r\n    }\r\n\r\n    // Updated createCompetition function to correctly handle date parameters\r\n    function createCompetition(\r\n        string memory _name,\r\n        uint8 month, \r\n        uint8 day\r\n    ) public onlyAdmin {\r\n        uint16 packedDate = packDateForCompetition(month, day); // This packs the date correctly\r\n\r\n        CompetitionResult memory defaultResults = CompetitionResult({\r\n            firstPlace: address(0),\r\n            secondPlace: address(0),\r\n            thirdPlace: address(0),\r\n            fourthPlace: address(0)\r\n        });\r\n\r\n        competitionCount++;\r\n        competitions[competitionCount] = Competition({\r\n            id: competitionCount,\r\n            name: _name,\r\n            date: packedDate, // Use the packed date\r\n            participants: new address[](0) ,\r\n            completed: false,\r\n            results: defaultResults\r\n        });\r\n\r\n    emit CompetitionCreated(competitionCount, _name, packedDate); // Updated to use packedDate\r\n    }\r\n\r\n    function addParticipant(uint256 _competitionId, address _participant) public onlyAdmin {\r\n        require(!competitions[_competitionId].completed, \"Competition already completed\");\r\n        competitions[_competitionId].participants.push(_participant);\r\n        emit ParticipantAdded(_competitionId, _participant);\r\n    }\r\n\r\n    function recordCompetitionResult(\r\n        uint256 _competitionId, \r\n        address _firstPlace, \r\n        address _secondPlace, \r\n        address _thirdPlace, \r\n        address _fourthPlace,\r\n        uint256 _firstPlacePoints,\r\n        uint256 _secondPlacePoints,\r\n        uint256 _thirdPlacePoints,\r\n        uint256 _fourthPlacePoints\r\n    ) public onlyAdmin {\r\n        require(!competitions[_competitionId].completed, \"Competition already completed\");\r\n        require(competitions[_competitionId].participants.length > 0, \"No participants in competition\");\r\n\r\n        require(judokaIds[_firstPlace] != 0, \"First place winner not registered\");\r\n        require(judokaIds[_secondPlace] != 0, \"Second place winner not registered\");\r\n        require(judokaIds[_thirdPlace] != 0, \"Third place winner not registered\");\r\n        require(judokaIds[_fourthPlace] != 0, \"Fourth place winner not registered\");\r\n\r\n        competitions[_competitionId].completed = true;\r\n        competitions[_competitionId].results = CompetitionResult({\r\n            firstPlace: _firstPlace,\r\n            secondPlace: _secondPlace,\r\n            thirdPlace: _thirdPlace,\r\n            fourthPlace: _fourthPlace\r\n        });\r\n\r\n        if (_firstPlacePoints > 0) {\r\n            updateJudokaPoints(judokaIds[_firstPlace], _firstPlacePoints);\r\n        }\r\n        if (_secondPlacePoints > 0) {\r\n            updateJudokaPoints(judokaIds[_secondPlace], _secondPlacePoints);\r\n        }\r\n        if (_thirdPlacePoints > 0) {\r\n            updateJudokaPoints(judokaIds[_thirdPlace], _thirdPlacePoints);\r\n        }\r\n        if (_fourthPlacePoints > 0) {\r\n            updateJudokaPoints(judokaIds[_fourthPlace], _fourthPlacePoints);\r\n        }\r\n\r\n        emit CompetitionResultRecorded(_competitionId, _firstPlace, _secondPlace, _thirdPlace, _fourthPlace);\r\n    }\r\n}\r\n",
  "sourcePath": "C:\\Users\\marti\\Documents\\projects\\judo-dapp\\contracts\\JudoSystem.sol",
  "compiler": {
    "name": "solc",
    "version": "0.8.0+commit.c7dfd78e.Emscripten.clang"
  },
  "schemaVersion": "3.4.16",
  "updatedAt": "2024-04-23T07:39:54.395Z",
  "networkType": "ethereum",
  "devdoc": {
    "kind": "dev",
    "methods": {},
    "version": 1
  },
  "userdoc": {
    "kind": "user",
    "methods": {},
    "version": 1
  }
}