{
  "contractName": "JudoBeltStorage",
  "abi": [
    {
      "anonymous": false,
      "inputs": [
        {
          "indexed": true,
          "internalType": "uint256",
          "name": "id",
          "type": "uint256"
        },
        {
          "indexed": false,
          "internalType": "enum JudoBeltStorage.BeltLevel",
          "name": "newBeltLevel",
          "type": "uint8"
        }
      ],
      "name": "BeltLevelUpdated",
      "type": "event"
    },
    {
      "anonymous": false,
      "inputs": [
        {
          "indexed": true,
          "internalType": "uint256",
          "name": "id",
          "type": "uint256"
        },
        {
          "indexed": false,
          "internalType": "string",
          "name": "name",
          "type": "string"
        },
        {
          "indexed": false,
          "internalType": "address",
          "name": "walletAddress",
          "type": "address"
        },
        {
          "indexed": false,
          "internalType": "enum JudoBeltStorage.BeltLevel",
          "name": "beltLevel",
          "type": "uint8"
        }
      ],
      "name": "JudokaRegistered",
      "type": "event"
    },
    {
      "inputs": [],
      "name": "judokaCount",
      "outputs": [
        {
          "internalType": "uint256",
          "name": "",
          "type": "uint256"
        }
      ],
      "stateMutability": "view",
      "type": "function",
      "constant": true
    },
    {
      "inputs": [
        {
          "internalType": "address",
          "name": "",
          "type": "address"
        }
      ],
      "name": "judokaIds",
      "outputs": [
        {
          "internalType": "uint256",
          "name": "",
          "type": "uint256"
        }
      ],
      "stateMutability": "view",
      "type": "function",
      "constant": true
    },
    {
      "inputs": [
        {
          "internalType": "uint256",
          "name": "",
          "type": "uint256"
        }
      ],
      "name": "judokas",
      "outputs": [
        {
          "internalType": "uint256",
          "name": "id",
          "type": "uint256"
        },
        {
          "internalType": "string",
          "name": "name",
          "type": "string"
        },
        {
          "internalType": "address",
          "name": "walletAddress",
          "type": "address"
        },
        {
          "internalType": "enum JudoBeltStorage.BeltLevel",
          "name": "beltLevel",
          "type": "uint8"
        }
      ],
      "stateMutability": "view",
      "type": "function",
      "constant": true
    },
    {
      "inputs": [
        {
          "internalType": "string",
          "name": "_name",
          "type": "string"
        },
        {
          "internalType": "address",
          "name": "_walletAddress",
          "type": "address"
        }
      ],
      "name": "addJudoka",
      "outputs": [],
      "stateMutability": "nonpayable",
      "type": "function"
    },
    {
      "inputs": [
        {
          "internalType": "uint256",
          "name": "_id",
          "type": "uint256"
        },
        {
          "internalType": "enum JudoBeltStorage.BeltLevel",
          "name": "_beltLevel",
          "type": "uint8"
        }
      ],
      "name": "setBeltLevel",
      "outputs": [],
      "stateMutability": "nonpayable",
      "type": "function"
    },
    {
      "inputs": [
        {
          "internalType": "uint256",
          "name": "_id",
          "type": "uint256"
        }
      ],
      "name": "getJudoka",
      "outputs": [
        {
          "components": [
            {
              "internalType": "uint256",
              "name": "id",
              "type": "uint256"
            },
            {
              "internalType": "string",
              "name": "name",
              "type": "string"
            },
            {
              "internalType": "address",
              "name": "walletAddress",
              "type": "address"
            },
            {
              "internalType": "enum JudoBeltStorage.BeltLevel",
              "name": "beltLevel",
              "type": "uint8"
            }
          ],
          "internalType": "struct JudoBeltStorage.Judoka",
          "name": "",
          "type": "tuple"
        }
      ],
      "stateMutability": "view",
      "type": "function",
      "constant": true
    }
  ],
  "bytecode": "0x608060405234801561001057600080fd5b5061100c806100206000396000f3fe608060405234801561001057600080fd5b50600436106100625760003560e01c80633ab9f6d8146100675780639318423914610097578063ad0c06ae146100c7578063bcc57021146100e3578063cab96b70146100ff578063ce3824b21461011d575b600080fd5b610081600480360381019061007c9190610958565b610150565b60405161008e9190610ca4565b60405180910390f35b6100b160048036038101906100ac91906109d5565b610168565b6040516100be9190610c82565b60405180910390f35b6100e160048036038101906100dc91906109fe565b61035f565b005b6100fd60048036038101906100f89190610981565b610450565b005b6101076106ad565b6040516101149190610ca4565b60405180910390f35b610137600480360381019061013291906109d5565b6106b3565b6040516101479493929190610cbf565b60405180910390f35b60026020528060005260406000206000915090505481565b610170610798565b60008211801561018257506000548211155b6101c1576040517f08c379a00000000000000000000000000000000000000000000000000000000081526004016101b890610c62565b60405180910390fd5b60016000838152602001908152602001600020604051806080016040529081600082015481526020016001820180546101f990610e3c565b80601f016020809104026020016040519081016040528092919081815260200182805461022590610e3c565b80156102725780601f1061024757610100808354040283529160200191610272565b820191906000526020600020905b81548152906001019060200180831161025557829003601f168201915b505050505081526020016002820160009054906101000a900473ffffffffffffffffffffffffffffffffffffffff1673ffffffffffffffffffffffffffffffffffffffff1673ffffffffffffffffffffffffffffffffffffffff1681526020016002820160149054906101000a900460ff16600681111561031c577f4e487b7100000000000000000000000000000000000000000000000000000000600052602160045260246000fd5b6006811115610354577f4e487b7100000000000000000000000000000000000000000000000000000000600052602160045260246000fd5b815250509050919050565b60008211801561037157506000548211155b6103b0576040517f08c379a00000000000000000000000000000000000000000000000000000000081526004016103a790610c62565b60405180910390fd5b806001600084815260200190815260200160002060020160146101000a81548160ff0219169083600681111561040f577f4e487b7100000000000000000000000000000000000000000000000000000000600052602160045260246000fd5b0217905550817f27ea931272f731cd09006c3599956a7b38be986b07aff1ed24fbd60e1ab4ff99826040516104449190610be9565b60405180910390a25050565b600073ffffffffffffffffffffffffffffffffffffffff168173ffffffffffffffffffffffffffffffffffffffff1614156104c0576040517f08c379a00000000000000000000000000000000000000000000000000000000081526004016104b790610c42565b60405180910390fd5b6000808154809291906104d290610e6e565b9190505550604051806080016040528060005481526020018381526020018273ffffffffffffffffffffffffffffffffffffffff16815260200160006006811115610546577f4e487b7100000000000000000000000000000000000000000000000000000000600052602160045260246000fd5b815250600160008054815260200190815260200160002060008201518160000155602082015181600101908051906020019061058392919061080e565b5060408201518160020160006101000a81548173ffffffffffffffffffffffffffffffffffffffff021916908373ffffffffffffffffffffffffffffffffffffffff16021790555060608201518160020160146101000a81548160ff0219169083600681111561061c577f4e487b7100000000000000000000000000000000000000000000000000000000600052602160045260246000fd5b0217905550905050600054600260008373ffffffffffffffffffffffffffffffffffffffff1673ffffffffffffffffffffffffffffffffffffffff168152602001908152602001600020819055506000547f027ac653ce0c6c0daf3073682ad41b63e111ca61aeba1d624e52ac8bf2764767838360006040516106a193929190610c04565b60405180910390a25050565b60005481565b60016020528060005260406000206000915090508060000154908060010180546106dc90610e3c565b80601f016020809104026020016040519081016040528092919081815260200182805461070890610e3c565b80156107555780601f1061072a57610100808354040283529160200191610755565b820191906000526020600020905b81548152906001019060200180831161073857829003601f168201915b5050505050908060020160009054906101000a900473ffffffffffffffffffffffffffffffffffffffff16908060020160149054906101000a900460ff16905084565b60405180608001604052806000815260200160608152602001600073ffffffffffffffffffffffffffffffffffffffff16815260200160006006811115610808577f4e487b7100000000000000000000000000000000000000000000000000000000600052602160045260246000fd5b81525090565b82805461081a90610e3c565b90600052602060002090601f01602090048101928261083c5760008555610883565b82601f1061085557805160ff1916838001178555610883565b82800160010185558215610883579182015b82811115610882578251825591602001919060010190610867565b5b5090506108909190610894565b5090565b5b808211156108ad576000816000905550600101610895565b5090565b60006108c46108bf84610d3c565b610d0b565b9050828152602081018484840111156108dc57600080fd5b6108e7848285610dfa565b509392505050565b6000813590506108fe81610f98565b92915050565b60008135905061091381610faf565b92915050565b600082601f83011261092a57600080fd5b813561093a8482602086016108b1565b91505092915050565b60008135905061095281610fbf565b92915050565b60006020828403121561096a57600080fd5b6000610978848285016108ef565b91505092915050565b6000806040838503121561099457600080fd5b600083013567ffffffffffffffff8111156109ae57600080fd5b6109ba85828601610919565b92505060206109cb858286016108ef565b9150509250929050565b6000602082840312156109e757600080fd5b60006109f584828501610943565b91505092915050565b60008060408385031215610a1157600080fd5b6000610a1f85828601610943565b9250506020610a3085828601610904565b9150509250929050565b610a4381610d99565b82525050565b610a5281610d99565b82525050565b610a6181610de8565b82525050565b610a7081610de8565b82525050565b6000610a8182610d6c565b610a8b8185610d77565b9350610a9b818560208601610e09565b610aa481610f73565b840191505092915050565b6000610aba82610d6c565b610ac48185610d88565b9350610ad4818560208601610e09565b610add81610f73565b840191505092915050565b6000610af5601683610d88565b91507f496e76616c69642077616c6c65742061646472657373000000000000000000006000830152602082019050919050565b6000610b35601683610d88565b91507f4a75646f6b6120646f6573206e6f742065786973742e000000000000000000006000830152602082019050919050565b6000608083016000830151610b806000860182610bcb565b5060208301518482036020860152610b988282610a76565b9150506040830151610bad6040860182610a3a565b506060830151610bc06060860182610a58565b508091505092915050565b610bd481610dde565b82525050565b610be381610dde565b82525050565b6000602082019050610bfe6000830184610a67565b92915050565b60006060820190508181036000830152610c1e8186610aaf565b9050610c2d6020830185610a49565b610c3a6040830184610a67565b949350505050565b60006020820190508181036000830152610c5b81610ae8565b9050919050565b60006020820190508181036000830152610c7b81610b28565b9050919050565b60006020820190508181036000830152610c9c8184610b68565b905092915050565b6000602082019050610cb96000830184610bda565b92915050565b6000608082019050610cd46000830187610bda565b8181036020830152610ce68186610aaf565b9050610cf56040830185610a49565b610d026060830184610a67565b95945050505050565b6000604051905081810181811067ffffffffffffffff82111715610d3257610d31610f44565b5b8060405250919050565b600067ffffffffffffffff821115610d5757610d56610f44565b5b601f19601f8301169050602081019050919050565b600081519050919050565b600082825260208201905092915050565b600082825260208201905092915050565b6000610da482610dbe565b9050919050565b6000819050610db982610f84565b919050565b600073ffffffffffffffffffffffffffffffffffffffff82169050919050565b6000819050919050565b6000610df382610dab565b9050919050565b82818337600083830152505050565b60005b83811015610e27578082015181840152602081019050610e0c565b83811115610e36576000848401525b50505050565b60006002820490506001821680610e5457607f821691505b60208210811415610e6857610e67610f15565b5b50919050565b6000610e7982610dde565b91507fffffffffffffffffffffffffffffffffffffffffffffffffffffffffffffffff821415610eac57610eab610eb7565b5b600182019050919050565b7f4e487b7100000000000000000000000000000000000000000000000000000000600052601160045260246000fd5b7f4e487b7100000000000000000000000000000000000000000000000000000000600052602160045260246000fd5b7f4e487b7100000000000000000000000000000000000000000000000000000000600052602260045260246000fd5b7f4e487b7100000000000000000000000000000000000000000000000000000000600052604160045260246000fd5b6000601f19601f8301169050919050565b60078110610f9557610f94610ee6565b5b50565b610fa181610d99565b8114610fac57600080fd5b50565b60078110610fbc57600080fd5b50565b610fc881610dde565b8114610fd357600080fd5b5056fea26469706673582212208beae18a8e35da6814f957e1d1009585600accf5c84119b2042ef415ec193b3a64736f6c63430008000033",
  "immutableReferences": {},
  "source": "// SPDX-License-Identifier: MIT\r\npragma solidity ^0.8.0;\r\n\r\ncontract JudoBeltStorage {\r\n    enum BeltLevel { White, Yellow, Orange, Green, Blue, Brown, Black }\r\n\r\n    struct Judoka {\r\n        uint256 id;\r\n        string name;\r\n        address walletAddress;\r\n        BeltLevel beltLevel;\r\n    }\r\n\r\n    uint256 public judokaCount;\r\n    mapping(uint256 => Judoka) public judokas;\r\n    mapping(address => uint256) public judokaIds;\r\n\r\n    event JudokaRegistered(uint256 indexed id, string name, address walletAddress, BeltLevel beltLevel);\r\n    event BeltLevelUpdated(uint256 indexed id, BeltLevel newBeltLevel);\r\n\r\n    function addJudoka(string memory _name, address _walletAddress) public {\r\n        require(_walletAddress != address(0), \"Invalid wallet address\");\r\n        judokaCount++;\r\n        judokas[judokaCount] = Judoka(judokaCount, _name, _walletAddress, BeltLevel.White);\r\n        judokaIds[_walletAddress] = judokaCount;\r\n        emit JudokaRegistered(judokaCount, _name, _walletAddress, BeltLevel.White);\r\n    }\r\n\r\n    function setBeltLevel(uint256 _id, BeltLevel _beltLevel) public {\r\n        require(_id > 0 && _id <= judokaCount, \"Judoka does not exist.\");\r\n        judokas[_id].beltLevel = _beltLevel;\r\n        emit BeltLevelUpdated(_id, _beltLevel);\r\n    }\r\n\r\n    function getJudoka(uint256 _id) public view returns (Judoka memory) {\r\n        require(_id > 0 && _id <= judokaCount, \"Judoka does not exist.\");\r\n        return judokas[_id];\r\n    }\r\n}\r\n",
  "sourcePath": "C:\\Users\\marti\\Documents\\projects\\judo-dapp\\contracts\\JudoBeltStorage.sol",
  "compiler": {
    "name": "solc",
    "version": "0.8.0+commit.c7dfd78e.Emscripten.clang"
  },
  "schemaVersion": "3.4.16",
  "updatedAt": "2024-01-16T09:41:29.997Z",
  "networkType": "ethereum",
  "devdoc": {
    "kind": "dev",
    "methods": {},
    "version": 1
  },
  "userdoc": {
    "kind": "user",
    "methods": {},
    "version": 1
  }
}