{
  "contractName": "JudoBeltSystem",
  "abi": [
    {
      "inputs": [],
      "stateMutability": "nonpayable",
      "type": "constructor"
    },
    {
      "anonymous": false,
      "inputs": [
        {
          "indexed": true,
          "internalType": "uint256",
          "name": "id",
          "type": "uint256"
        },
        {
          "indexed": false,
          "internalType": "enum JudoBeltSystem.BeltLevel",
          "name": "oldBeltLevel",
          "type": "uint8"
        },
        {
          "indexed": false,
          "internalType": "enum JudoBeltSystem.BeltLevel",
          "name": "newBeltLevel",
          "type": "uint8"
        },
        {
          "indexed": false,
          "internalType": "uint256",
          "name": "timestamp",
          "type": "uint256"
        }
      ],
      "name": "BeltLevelUpdated",
      "type": "event"
    },
    {
      "anonymous": false,
      "inputs": [
        {
          "indexed": true,
          "internalType": "uint256",
          "name": "id",
          "type": "uint256"
        },
        {
          "indexed": false,
          "internalType": "string",
          "name": "name",
          "type": "string"
        },
        {
          "indexed": false,
          "internalType": "address",
          "name": "walletAddress",
          "type": "address"
        },
        {
          "indexed": false,
          "internalType": "enum JudoBeltSystem.BeltLevel",
          "name": "beltLevel",
          "type": "uint8"
        },
        {
          "indexed": false,
          "internalType": "uint256",
          "name": "dateOfBirth",
          "type": "uint256"
        },
        {
          "indexed": false,
          "internalType": "enum JudoBeltSystem.Gender",
          "name": "gender",
          "type": "uint8"
        },
        {
          "indexed": false,
          "internalType": "string",
          "name": "email",
          "type": "string"
        },
        {
          "indexed": false,
          "internalType": "string",
          "name": "phoneNumber",
          "type": "string"
        },
        {
          "indexed": false,
          "internalType": "uint256",
          "name": "timestamp",
          "type": "uint256"
        }
      ],
      "name": "JudokaRegistered",
      "type": "event"
    },
    {
      "inputs": [],
      "name": "admin",
      "outputs": [
        {
          "internalType": "address",
          "name": "",
          "type": "address"
        }
      ],
      "stateMutability": "view",
      "type": "function",
      "constant": true
    },
    {
      "inputs": [],
      "name": "judokaCount",
      "outputs": [
        {
          "internalType": "uint256",
          "name": "",
          "type": "uint256"
        }
      ],
      "stateMutability": "view",
      "type": "function",
      "constant": true
    },
    {
      "inputs": [
        {
          "internalType": "address",
          "name": "",
          "type": "address"
        }
      ],
      "name": "judokaIds",
      "outputs": [
        {
          "internalType": "uint256",
          "name": "",
          "type": "uint256"
        }
      ],
      "stateMutability": "view",
      "type": "function",
      "constant": true
    },
    {
      "inputs": [
        {
          "internalType": "uint256",
          "name": "",
          "type": "uint256"
        }
      ],
      "name": "judokas",
      "outputs": [
        {
          "internalType": "uint256",
          "name": "id",
          "type": "uint256"
        },
        {
          "internalType": "string",
          "name": "name",
          "type": "string"
        },
        {
          "internalType": "address",
          "name": "walletAddress",
          "type": "address"
        },
        {
          "internalType": "enum JudoBeltSystem.BeltLevel",
          "name": "beltLevel",
          "type": "uint8"
        },
        {
          "internalType": "uint256",
          "name": "dateOfBirth",
          "type": "uint256"
        },
        {
          "internalType": "enum JudoBeltSystem.Gender",
          "name": "gender",
          "type": "uint8"
        },
        {
          "internalType": "string",
          "name": "email",
          "type": "string"
        },
        {
          "internalType": "string",
          "name": "phoneNumber",
          "type": "string"
        }
      ],
      "stateMutability": "view",
      "type": "function",
      "constant": true
    },
    {
      "inputs": [
        {
          "internalType": "string",
          "name": "_name",
          "type": "string"
        },
        {
          "internalType": "address",
          "name": "_walletAddress",
          "type": "address"
        },
        {
          "internalType": "uint256",
          "name": "_dateOfBirth",
          "type": "uint256"
        },
        {
          "internalType": "uint8",
          "name": "_gender",
          "type": "uint8"
        },
        {
          "internalType": "string",
          "name": "_email",
          "type": "string"
        },
        {
          "internalType": "string",
          "name": "_phoneNumber",
          "type": "string"
        }
      ],
      "name": "registerBlackBelt",
      "outputs": [],
      "stateMutability": "nonpayable",
      "type": "function"
    },
    {
      "inputs": [
        {
          "internalType": "string",
          "name": "_name",
          "type": "string"
        },
        {
          "internalType": "address",
          "name": "_walletAddress",
          "type": "address"
        },
        {
          "internalType": "uint256",
          "name": "_dateOfBirth",
          "type": "uint256"
        },
        {
          "internalType": "uint8",
          "name": "_gender",
          "type": "uint8"
        },
        {
          "internalType": "string",
          "name": "_email",
          "type": "string"
        },
        {
          "internalType": "string",
          "name": "_phoneNumber",
          "type": "string"
        }
      ],
      "name": "registerJudoka",
      "outputs": [],
      "stateMutability": "nonpayable",
      "type": "function"
    },
    {
      "inputs": [
        {
          "internalType": "uint256",
          "name": "_id",
          "type": "uint256"
        }
      ],
      "name": "getJudokaInfo",
      "outputs": [
        {
          "components": [
            {
              "internalType": "uint256",
              "name": "id",
              "type": "uint256"
            },
            {
              "internalType": "string",
              "name": "name",
              "type": "string"
            },
            {
              "internalType": "address",
              "name": "walletAddress",
              "type": "address"
            },
            {
              "internalType": "enum JudoBeltSystem.BeltLevel",
              "name": "beltLevel",
              "type": "uint8"
            },
            {
              "internalType": "uint256",
              "name": "dateOfBirth",
              "type": "uint256"
            },
            {
              "internalType": "enum JudoBeltSystem.Gender",
              "name": "gender",
              "type": "uint8"
            },
            {
              "internalType": "string",
              "name": "email",
              "type": "string"
            },
            {
              "internalType": "string",
              "name": "phoneNumber",
              "type": "string"
            }
          ],
          "internalType": "struct JudoBeltSystem.Judoka",
          "name": "",
          "type": "tuple"
        }
      ],
      "stateMutability": "view",
      "type": "function",
      "constant": true
    },
    {
      "inputs": [
        {
          "internalType": "uint256",
          "name": "_id",
          "type": "uint256"
        }
      ],
      "name": "getBeltLevel",
      "outputs": [
        {
          "internalType": "enum JudoBeltSystem.BeltLevel",
          "name": "",
          "type": "uint8"
        }
      ],
      "stateMutability": "view",
      "type": "function",
      "constant": true
    },
    {
      "inputs": [
        {
          "internalType": "uint256",
          "name": "_id",
          "type": "uint256"
        },
        {
          "internalType": "enum JudoBeltSystem.BeltLevel",
          "name": "_newBeltLevel",
          "type": "uint8"
        }
      ],
      "name": "promoteJudoka",
      "outputs": [],
      "stateMutability": "nonpayable",
      "type": "function"
    },
    {
      "inputs": [
        {
          "internalType": "address",
          "name": "_address",
          "type": "address"
        }
      ],
      "name": "isBlackBelt",
      "outputs": [
        {
          "internalType": "bool",
          "name": "",
          "type": "bool"
        }
      ],
      "stateMutability": "view",
      "type": "function",
      "constant": true
    },
    {
      "inputs": [
        {
          "internalType": "uint256",
          "name": "_id",
          "type": "uint256"
        },
        {
          "internalType": "address",
          "name": "_sender",
          "type": "address"
        }
      ],
      "name": "isAuthorized",
      "outputs": [
        {
          "internalType": "bool",
          "name": "",
          "type": "bool"
        }
      ],
      "stateMutability": "view",
      "type": "function",
      "constant": true
    },
    {
      "inputs": [
        {
          "internalType": "address",
          "name": "_sender",
          "type": "address"
        }
      ],
      "name": "isAdmin",
      "outputs": [
        {
          "internalType": "bool",
          "name": "",
          "type": "bool"
        }
      ],
      "stateMutability": "view",
      "type": "function",
      "constant": true
    }
  ],
  "bytecode": "0x608060405234801561001057600080fd5b5033600360006101000a81548173ffffffffffffffffffffffffffffffffffffffff021916908373ffffffffffffffffffffffffffffffffffffffff1602179055506122df806100616000396000f3fe608060405234801561001057600080fd5b50600436106100b45760003560e01c8063609c6d7f11610071578063609c6d7f146101c55780636c0701fa146101f5578063932d37d214610211578063cab96b701461022d578063ce3824b21461024b578063f851a44014610282576100b4565b806310c1224c146100b95780631ef31992146100e957806322b9dd901461011957806324d7806c146101355780633ab9f6d81461016557806345504a8314610195575b600080fd5b6100d360048036038101906100ce91906117d2565b6102a0565b6040516100e09190611ce5565b60405180910390f35b61010360048036038101906100fe91906118cc565b61037e565b6040516101109190611d00565b60405180910390f35b610133600480360381019061012e9190611931565b6103fb565b005b61014f600480360381019061014a91906117d2565b61068e565b60405161015c9190611ce5565b60405180910390f35b61017f600480360381019061017a91906117d2565b6106e8565b60405161018c9190611ec7565b60405180910390f35b6101af60048036038101906101aa91906118cc565b610700565b6040516101bc9190611ea5565b60405180910390f35b6101df60048036038101906101da91906118f5565b610a5c565b6040516101ec9190611ce5565b60405180910390f35b61020f600480360381019061020a91906117fb565b610b23565b005b61022b600480360381019061022691906117fb565b610f3c565b005b610235611362565b6040516102429190611ec7565b60405180910390f35b610265600480360381019061026091906118cc565b611368565b604051610279989796959493929190611ee2565b60405180910390f35b61028a611582565b6040516102979190611cca565b60405180910390f35b60006006808111156102db577f4e487b7100000000000000000000000000000000000000000000000000000000600052602160045260246000fd5b60016000600260008673ffffffffffffffffffffffffffffffffffffffff1673ffffffffffffffffffffffffffffffffffffffff16815260200190815260200160002054815260200190815260200160002060020160149054906101000a900460ff166006811115610376577f4e487b7100000000000000000000000000000000000000000000000000000000600052602160045260246000fd5b149050919050565b6000808211801561039157506000548211155b6103d0576040517f08c379a00000000000000000000000000000000000000000000000000000000081526004016103c790611e85565b60405180910390fd5b6001600083815260200190815260200160002060020160149054906101000a900460ff169050919050565b610404336102a0565b8061045c5750600360009054906101000a900473ffffffffffffffffffffffffffffffffffffffff1673ffffffffffffffffffffffffffffffffffffffff163373ffffffffffffffffffffffffffffffffffffffff16145b61049b576040517f08c379a000000000000000000000000000000000000000000000000000000000815260040161049290611e25565b60405180910390fd5b6000821180156104ad57506000548211155b6104ec576040517f08c379a00000000000000000000000000000000000000000000000000000000081526004016104e390611e85565b60405180910390fd5b6001600083815260200190815260200160002060020160149054906101000a900460ff166006811115610548577f4e487b7100000000000000000000000000000000000000000000000000000000600052602160045260246000fd5b816006811115610581577f4e487b7100000000000000000000000000000000000000000000000000000000600052602160045260246000fd5b116105c1576040517f08c379a00000000000000000000000000000000000000000000000000000000081526004016105b890611de5565b60405180910390fd5b60006001600084815260200190815260200160002060020160149054906101000a900460ff169050816001600085815260200190815260200160002060020160146101000a81548160ff02191690836006811115610648577f4e487b7100000000000000000000000000000000000000000000000000000000600052602160045260246000fd5b0217905550827f01ae96fe1baf9d2d284e6a11b7ab2a76e1c8b047b807650660b4370d50462f2382844260405161068193929190611d1b565b60405180910390a2505050565b6000600360009054906101000a900473ffffffffffffffffffffffffffffffffffffffff1673ffffffffffffffffffffffffffffffffffffffff168273ffffffffffffffffffffffffffffffffffffffff16149050919050565b60026020528060005260406000206000915090505481565b6107086115a8565b600160008381526020019081526020016000206040518061010001604052908160008201548152602001600182018054610741906120e4565b80601f016020809104026020016040519081016040528092919081815260200182805461076d906120e4565b80156107ba5780601f1061078f576101008083540402835291602001916107ba565b820191906000526020600020905b81548152906001019060200180831161079d57829003601f168201915b505050505081526020016002820160009054906101000a900473ffffffffffffffffffffffffffffffffffffffff1673ffffffffffffffffffffffffffffffffffffffff1673ffffffffffffffffffffffffffffffffffffffff1681526020016002820160149054906101000a900460ff166006811115610864577f4e487b7100000000000000000000000000000000000000000000000000000000600052602160045260246000fd5b600681111561089c577f4e487b7100000000000000000000000000000000000000000000000000000000600052602160045260246000fd5b8152602001600382015481526020016004820160009054906101000a900460ff1660018111156108f5577f4e487b7100000000000000000000000000000000000000000000000000000000600052602160045260246000fd5b600181111561092d577f4e487b7100000000000000000000000000000000000000000000000000000000600052602160045260246000fd5b8152602001600582018054610941906120e4565b80601f016020809104026020016040519081016040528092919081815260200182805461096d906120e4565b80156109ba5780601f1061098f576101008083540402835291602001916109ba565b820191906000526020600020905b81548152906001019060200180831161099d57829003601f168201915b505050505081526020016006820180546109d3906120e4565b80601f01602080910402602001604051908101604052809291908181526020018280546109ff906120e4565b8015610a4c5780601f10610a2157610100808354040283529160200191610a4c565b820191906000526020600020905b815481529060010190602001808311610a2f57829003601f168201915b5050505050815250509050919050565b60006001600084815260200190815260200160002060020160009054906101000a900473ffffffffffffffffffffffffffffffffffffffff1673ffffffffffffffffffffffffffffffffffffffff168273ffffffffffffffffffffffffffffffffffffffff161480610b1b5750600360009054906101000a900473ffffffffffffffffffffffffffffffffffffffff1673ffffffffffffffffffffffffffffffffffffffff168273ffffffffffffffffffffffffffffffffffffffff16145b905092915050565b600073ffffffffffffffffffffffffffffffffffffffff168573ffffffffffffffffffffffffffffffffffffffff161415610b93576040517f08c379a0000000000000000000000000000000000000000000000000000000008152600401610b8a90611e65565b60405180910390fd5b6000600260008773ffffffffffffffffffffffffffffffffffffffff1673ffffffffffffffffffffffffffffffffffffffff1681526020019081526020016000205414610c15576040517f08c379a0000000000000000000000000000000000000000000000000000000008152600401610c0c90611e45565b60405180910390fd5b60008360ff166001811115610c53577f4e487b7100000000000000000000000000000000000000000000000000000000600052602160045260246000fd5b9050600080815480929190610c6790612116565b919050555060405180610100016040528060005481526020018881526020018773ffffffffffffffffffffffffffffffffffffffff16815260200160006006811115610cdc577f4e487b7100000000000000000000000000000000000000000000000000000000600052602160045260246000fd5b8152602001868152602001826001811115610d20577f4e487b7100000000000000000000000000000000000000000000000000000000600052602160045260246000fd5b8152602001848152602001838152506001600080548152602001908152602001600020600082015181600001556020820151816001019080519060200190610d69929190611673565b5060408201518160020160006101000a81548173ffffffffffffffffffffffffffffffffffffffff021916908373ffffffffffffffffffffffffffffffffffffffff16021790555060608201518160020160146101000a81548160ff02191690836006811115610e02577f4e487b7100000000000000000000000000000000000000000000000000000000600052602160045260246000fd5b02179055506080820151816003015560a08201518160040160006101000a81548160ff02191690836001811115610e62577f4e487b7100000000000000000000000000000000000000000000000000000000600052602160045260246000fd5b021790555060c0820151816005019080519060200190610e83929190611673565b5060e0820151816006019080519060200190610ea0929190611673565b50905050600054600260008873ffffffffffffffffffffffffffffffffffffffff1673ffffffffffffffffffffffffffffffffffffffff168152602001908152602001600020819055506000547f1aa2daf79773d4b03f8c5c647ce687b708b9b0ed394bc1abeb4490ae92f40799888860008986898942604051610f2b989796959493929190611d52565b60405180910390a250505050505050565b600360009054906101000a900473ffffffffffffffffffffffffffffffffffffffff1673ffffffffffffffffffffffffffffffffffffffff163373ffffffffffffffffffffffffffffffffffffffff1614610fcc576040517f08c379a0000000000000000000000000000000000000000000000000000000008152600401610fc390611e05565b60405180910390fd5b600073ffffffffffffffffffffffffffffffffffffffff168573ffffffffffffffffffffffffffffffffffffffff16141561103c576040517f08c379a000000000000000000000000000000000000000000000000000000000815260040161103390611e65565b60405180910390fd5b60008360ff16600181111561107a577f4e487b7100000000000000000000000000000000000000000000000000000000600052602160045260246000fd5b905060008081548092919061108e90612116565b919050555060405180610100016040528060005481526020018881526020018773ffffffffffffffffffffffffffffffffffffffff168152602001600680811115611102577f4e487b7100000000000000000000000000000000000000000000000000000000600052602160045260246000fd5b8152602001868152602001826001811115611146577f4e487b7100000000000000000000000000000000000000000000000000000000600052602160045260246000fd5b815260200184815260200183815250600160008054815260200190815260200160002060008201518160000155602082015181600101908051906020019061118f929190611673565b5060408201518160020160006101000a81548173ffffffffffffffffffffffffffffffffffffffff021916908373ffffffffffffffffffffffffffffffffffffffff16021790555060608201518160020160146101000a81548160ff02191690836006811115611228577f4e487b7100000000000000000000000000000000000000000000000000000000600052602160045260246000fd5b02179055506080820151816003015560a08201518160040160006101000a81548160ff02191690836001811115611288577f4e487b7100000000000000000000000000000000000000000000000000000000600052602160045260246000fd5b021790555060c08201518160050190805190602001906112a9929190611673565b5060e08201518160060190805190602001906112c6929190611673565b50905050600054600260008873ffffffffffffffffffffffffffffffffffffffff1673ffffffffffffffffffffffffffffffffffffffff168152602001908152602001600020819055506000547f1aa2daf79773d4b03f8c5c647ce687b708b9b0ed394bc1abeb4490ae92f40799888860068986898942604051611351989796959493929190611d52565b60405180910390a250505050505050565b60005481565b6001602052806000526040600020600091509050806000015490806001018054611391906120e4565b80601f01602080910402602001604051908101604052809291908181526020018280546113bd906120e4565b801561140a5780601f106113df5761010080835404028352916020019161140a565b820191906000526020600020905b8154815290600101906020018083116113ed57829003601f168201915b5050505050908060020160009054906101000a900473ffffffffffffffffffffffffffffffffffffffff16908060020160149054906101000a900460ff16908060030154908060040160009054906101000a900460ff1690806005018054611471906120e4565b80601f016020809104026020016040519081016040528092919081815260200182805461149d906120e4565b80156114ea5780601f106114bf576101008083540402835291602001916114ea565b820191906000526020600020905b8154815290600101906020018083116114cd57829003601f168201915b5050505050908060060180546114ff906120e4565b80601f016020809104026020016040519081016040528092919081815260200182805461152b906120e4565b80156115785780601f1061154d57610100808354040283529160200191611578565b820191906000526020600020905b81548152906001019060200180831161155b57829003601f168201915b5050505050905088565b600360009054906101000a900473ffffffffffffffffffffffffffffffffffffffff1681565b6040518061010001604052806000815260200160608152602001600073ffffffffffffffffffffffffffffffffffffffff16815260200160006006811115611619577f4e487b7100000000000000000000000000000000000000000000000000000000600052602160045260246000fd5b8152602001600081526020016000600181111561165f577f4e487b7100000000000000000000000000000000000000000000000000000000600052602160045260246000fd5b815260200160608152602001606081525090565b82805461167f906120e4565b90600052602060002090601f0160209004810192826116a157600085556116e8565b82601f106116ba57805160ff19168380011785556116e8565b828001600101855582156116e8579182015b828111156116e75782518255916020019190600101906116cc565b5b5090506116f591906116f9565b5090565b5b808211156117125760008160009055506001016116fa565b5090565b600061172961172484611fa6565b611f75565b90508281526020810184848401111561174157600080fd5b61174c8482856120a2565b509392505050565b60008135905061176381612254565b92915050565b6000813590506117788161226b565b92915050565b600082601f83011261178f57600080fd5b813561179f848260208601611716565b91505092915050565b6000813590506117b78161227b565b92915050565b6000813590506117cc81612292565b92915050565b6000602082840312156117e457600080fd5b60006117f284828501611754565b91505092915050565b60008060008060008060c0878903121561181457600080fd5b600087013567ffffffffffffffff81111561182e57600080fd5b61183a89828a0161177e565b965050602061184b89828a01611754565b955050604061185c89828a016117a8565b945050606061186d89828a016117bd565b935050608087013567ffffffffffffffff81111561188a57600080fd5b61189689828a0161177e565b92505060a087013567ffffffffffffffff8111156118b357600080fd5b6118bf89828a0161177e565b9150509295509295509295565b6000602082840312156118de57600080fd5b60006118ec848285016117a8565b91505092915050565b6000806040838503121561190857600080fd5b6000611916858286016117a8565b925050602061192785828601611754565b9150509250929050565b6000806040838503121561194457600080fd5b6000611952858286016117a8565b925050602061196385828601611769565b9150509250929050565b61197681612003565b82525050565b61198581612003565b82525050565b61199481612015565b82525050565b6119a38161207e565b82525050565b6119b28161207e565b82525050565b6119c181612090565b82525050565b6119d081612090565b82525050565b60006119e182611fd6565b6119eb8185611fe1565b93506119fb8185602086016120b1565b611a048161221b565b840191505092915050565b6000611a1a82611fd6565b611a248185611ff2565b9350611a348185602086016120b1565b611a3d8161221b565b840191505092915050565b6000611a55601883611ff2565b91507f4e6577206c6576656c206d7573742062652068696768657200000000000000006000830152602082019050919050565b6000611a95601e83611ff2565b91507f4f6e6c792061646d696e2063616e2061646420626c61636b2062656c747300006000830152602082019050919050565b6000611ad5602d83611ff2565b91507f4f6e6c7920626c61636b2062656c7473206f722061646d696e2063616e20707260008301527f6f6d6f7465206a75646f6b6173000000000000000000000000000000000000006020830152604082019050919050565b6000611b3b601983611ff2565b91507f4a75646f6b6120616c72656164792072656769737465726564000000000000006000830152602082019050919050565b6000611b7b601683611ff2565b91507f496e76616c69642077616c6c65742061646472657373000000000000000000006000830152602082019050919050565b6000611bbb601683611ff2565b91507f4a75646f6b6120646f6573206e6f742065786973742e000000000000000000006000830152602082019050919050565b600061010083016000830151611c076000860182611cac565b5060208301518482036020860152611c1f82826119d6565b9150506040830151611c34604086018261196d565b506060830151611c47606086018261199a565b506080830151611c5a6080860182611cac565b5060a0830151611c6d60a08601826119b8565b5060c083015184820360c0860152611c8582826119d6565b91505060e083015184820360e0860152611c9f82826119d6565b9150508091505092915050565b611cb581612067565b82525050565b611cc481612067565b82525050565b6000602082019050611cdf600083018461197c565b92915050565b6000602082019050611cfa600083018461198b565b92915050565b6000602082019050611d1560008301846119a9565b92915050565b6000606082019050611d3060008301866119a9565b611d3d60208301856119a9565b611d4a6040830184611cbb565b949350505050565b6000610100820190508181036000830152611d6d818b611a0f565b9050611d7c602083018a61197c565b611d8960408301896119a9565b611d966060830188611cbb565b611da360808301876119c7565b81810360a0830152611db58186611a0f565b905081810360c0830152611dc98185611a0f565b9050611dd860e0830184611cbb565b9998505050505050505050565b60006020820190508181036000830152611dfe81611a48565b9050919050565b60006020820190508181036000830152611e1e81611a88565b9050919050565b60006020820190508181036000830152611e3e81611ac8565b9050919050565b60006020820190508181036000830152611e5e81611b2e565b9050919050565b60006020820190508181036000830152611e7e81611b6e565b9050919050565b60006020820190508181036000830152611e9e81611bae565b9050919050565b60006020820190508181036000830152611ebf8184611bee565b905092915050565b6000602082019050611edc6000830184611cbb565b92915050565b600061010082019050611ef8600083018b611cbb565b8181036020830152611f0a818a611a0f565b9050611f19604083018961197c565b611f2660608301886119a9565b611f336080830187611cbb565b611f4060a08301866119c7565b81810360c0830152611f528185611a0f565b905081810360e0830152611f668184611a0f565b90509998505050505050505050565b6000604051905081810181811067ffffffffffffffff82111715611f9c57611f9b6121ec565b5b8060405250919050565b600067ffffffffffffffff821115611fc157611fc06121ec565b5b601f19601f8301169050602081019050919050565b600081519050919050565b600082825260208201905092915050565b600082825260208201905092915050565b600061200e82612047565b9050919050565b60008115159050919050565b600081905061202f8261222c565b919050565b600081905061204282612240565b919050565b600073ffffffffffffffffffffffffffffffffffffffff82169050919050565b6000819050919050565b600060ff82169050919050565b600061208982612021565b9050919050565b600061209b82612034565b9050919050565b82818337600083830152505050565b60005b838110156120cf5780820151818401526020810190506120b4565b838111156120de576000848401525b50505050565b600060028204905060018216806120fc57607f821691505b602082108114156121105761210f6121bd565b5b50919050565b600061212182612067565b91507fffffffffffffffffffffffffffffffffffffffffffffffffffffffffffffffff8214156121545761215361215f565b5b600182019050919050565b7f4e487b7100000000000000000000000000000000000000000000000000000000600052601160045260246000fd5b7f4e487b7100000000000000000000000000000000000000000000000000000000600052602160045260246000fd5b7f4e487b7100000000000000000000000000000000000000000000000000000000600052602260045260246000fd5b7f4e487b7100000000000000000000000000000000000000000000000000000000600052604160045260246000fd5b6000601f19601f8301169050919050565b6007811061223d5761223c61218e565b5b50565b600281106122515761225061218e565b5b50565b61225d81612003565b811461226857600080fd5b50565b6007811061227857600080fd5b50565b61228481612067565b811461228f57600080fd5b50565b61229b81612071565b81146122a657600080fd5b5056fea26469706673582212201da71a40962024134d977970fbb2588aab2fd62d377afc31eb5672ccc236fbbc64736f6c63430008000033",
  "immutableReferences": {},
  "source": "// SPDX-License-Identifier: MIT\r\npragma solidity ^0.8.0;\r\n\r\ncontract JudoBeltSystem {\r\n    enum BeltLevel { White, Yellow, Orange, Green, Blue, Brown, Black }\r\n    enum Gender { Male, Female }\r\n\r\n    struct Judoka {\r\n        uint256 id;\r\n        string name;\r\n        address walletAddress;\r\n        BeltLevel beltLevel;\r\n        uint256 dateOfBirth;\r\n        Gender gender;\r\n        string email;\r\n        string phoneNumber;\r\n    }\r\n\r\n    uint256 public judokaCount;\r\n    mapping(uint256 => Judoka) public judokas;\r\n    mapping(address => uint256) public judokaIds;\r\n    address public admin;\r\n\r\n    event JudokaRegistered(\r\n        uint256 indexed id, \r\n        string name, \r\n        address walletAddress, \r\n        BeltLevel beltLevel, \r\n        uint256 dateOfBirth,\r\n        Gender gender,\r\n        string email,\r\n        string phoneNumber,\r\n        uint256 timestamp\r\n    );\r\n\r\n    event BeltLevelUpdated(\r\n        uint256 indexed id, \r\n        BeltLevel oldBeltLevel, \r\n        BeltLevel newBeltLevel, \r\n        uint256 timestamp\r\n    );\r\n\r\n    constructor() {\r\n        admin = msg.sender;\r\n    }\r\n\r\n    function registerBlackBelt(\r\n        string memory _name, \r\n        address _walletAddress, \r\n        uint256 _dateOfBirth, \r\n        uint8 _gender,\r\n        string memory _email, \r\n        string memory _phoneNumber\r\n    ) public {\r\n        require(msg.sender == admin, \"Only admin can add black belts\");\r\n        require(_walletAddress != address(0), \"Invalid wallet address\");\r\n\r\n        Gender gender = Gender(_gender); // Casting uint8 to Gender enum\r\n        judokaCount++;\r\n        judokas[judokaCount] = Judoka(\r\n            judokaCount, \r\n            _name, \r\n            _walletAddress, \r\n            BeltLevel.Black, \r\n            _dateOfBirth,\r\n            gender, // Using the casted enum value\r\n            _email, \r\n            _phoneNumber\r\n        );\r\n        judokaIds[_walletAddress] = judokaCount;\r\n        emit JudokaRegistered(\r\n            judokaCount, \r\n            _name, \r\n            _walletAddress, \r\n            BeltLevel.Black, \r\n            _dateOfBirth,\r\n            gender, \r\n            _email, \r\n            _phoneNumber,\r\n            block.timestamp\r\n        );\r\n    }\r\n\r\n    function registerJudoka(\r\n        string memory _name, \r\n        address _walletAddress, \r\n        uint256 _dateOfBirth, \r\n        uint8 _gender, // Accepting uint8 for gender\r\n        string memory _email, \r\n        string memory _phoneNumber\r\n    ) public {\r\n        require(_walletAddress != address(0), \"Invalid wallet address\");\r\n        require(judokaIds[_walletAddress] == 0, \"Judoka already registered\");\r\n\r\n        Gender gender = Gender(_gender); // Casting uint8 to Gender enum\r\n        judokaCount++;\r\n        judokas[judokaCount] = Judoka(\r\n            judokaCount, \r\n            _name, \r\n            _walletAddress, \r\n            BeltLevel.White, \r\n            _dateOfBirth,\r\n            gender, // Using the casted enum value\r\n            _email, \r\n            _phoneNumber\r\n        );\r\n        judokaIds[_walletAddress] = judokaCount;\r\n        emit JudokaRegistered(\r\n            judokaCount, \r\n            _name, \r\n            _walletAddress, \r\n            BeltLevel.White, \r\n            _dateOfBirth,\r\n            gender, \r\n            _email, \r\n            _phoneNumber,\r\n            block.timestamp\r\n        );\r\n    }\r\n\r\n        // In your Solidity contract, there should be something like this:\r\n    function getJudokaInfo(uint256 _id) public view returns (Judoka memory) {\r\n        return judokas[_id];\r\n    }\r\n\r\n\r\n    function getBeltLevel(uint256 _id) public view returns (BeltLevel) {\r\n        require(_id > 0 && _id <= judokaCount, \"Judoka does not exist.\");\r\n        return judokas[_id].beltLevel;\r\n    }\r\n\r\n    function promoteJudoka(uint256 _id, BeltLevel _newBeltLevel) public {\r\n        require(\r\n            isBlackBelt(msg.sender) || msg.sender == admin,\r\n            \"Only black belts or admin can promote judokas\"\r\n        );\r\n        require(_id > 0 && _id <= judokaCount, \"Judoka does not exist.\");\r\n        require(\r\n            _newBeltLevel > judokas[_id].beltLevel,\r\n            \"New level must be higher\"\r\n        );\r\n\r\n        BeltLevel oldBeltLevel = judokas[_id].beltLevel;\r\n        judokas[_id].beltLevel = _newBeltLevel;\r\n        emit BeltLevelUpdated(_id, oldBeltLevel, _newBeltLevel, block.timestamp);\r\n    }\r\n\r\n    function isBlackBelt(address _address) public view returns(bool) {\r\n        return judokas[judokaIds[_address]].beltLevel == BeltLevel.Black;\r\n    }\r\n\r\n    function isAuthorized(uint256 _id, address _sender) public view returns(bool) {\r\n        return _sender == judokas[_id].walletAddress || _sender == admin;\r\n    }\r\n\r\n    function isAdmin(address _sender) public view returns(bool) {\r\n        return _sender == admin;\r\n    }\r\n}",
  "sourcePath": "C:\\Users\\marti\\Documents\\projects\\judo-dapp\\contracts\\JudoBeltSystem.sol",
  "compiler": {
    "name": "solc",
    "version": "0.8.0+commit.c7dfd78e.Emscripten.clang"
  },
  "schemaVersion": "3.4.16",
  "updatedAt": "2024-03-22T10:42:23.546Z",
  "networkType": "ethereum",
  "devdoc": {
    "kind": "dev",
    "methods": {},
    "version": 1
  },
  "userdoc": {
    "kind": "user",
    "methods": {},
    "version": 1
  }
}