{
  "contractName": "JudoSystem",
  "abi": [
    {
      "inputs": [],
      "stateMutability": "nonpayable",
      "type": "constructor"
    },
    {
      "anonymous": false,
      "inputs": [
        {
          "indexed": true,
          "internalType": "uint256",
          "name": "id",
          "type": "uint256"
        },
        {
          "indexed": false,
          "internalType": "enum JudoSystem.BeltLevel",
          "name": "oldBeltLevel",
          "type": "uint8"
        },
        {
          "indexed": false,
          "internalType": "enum JudoSystem.BeltLevel",
          "name": "newBeltLevel",
          "type": "uint8"
        },
        {
          "indexed": false,
          "internalType": "uint256",
          "name": "timestamp",
          "type": "uint256"
        }
      ],
      "name": "BeltLevelUpdated",
      "type": "event"
    },
    {
      "anonymous": false,
      "inputs": [
        {
          "indexed": true,
          "internalType": "uint256",
          "name": "id",
          "type": "uint256"
        },
        {
          "indexed": false,
          "internalType": "string",
          "name": "name",
          "type": "string"
        },
        {
          "indexed": false,
          "internalType": "uint256",
          "name": "date",
          "type": "uint256"
        }
      ],
      "name": "CompetitionCreated",
      "type": "event"
    },
    {
      "anonymous": false,
      "inputs": [
        {
          "indexed": true,
          "internalType": "uint256",
          "name": "competitionId",
          "type": "uint256"
        },
        {
          "indexed": false,
          "internalType": "address",
          "name": "firstPlace",
          "type": "address"
        },
        {
          "indexed": false,
          "internalType": "address",
          "name": "secondPlace",
          "type": "address"
        },
        {
          "indexed": false,
          "internalType": "address",
          "name": "thirdPlace",
          "type": "address"
        },
        {
          "indexed": false,
          "internalType": "address",
          "name": "fourthPlace",
          "type": "address"
        }
      ],
      "name": "CompetitionResultRecorded",
      "type": "event"
    },
    {
      "anonymous": false,
      "inputs": [
        {
          "indexed": true,
          "internalType": "uint256",
          "name": "id",
          "type": "uint256"
        },
        {
          "indexed": false,
          "internalType": "string",
          "name": "name",
          "type": "string"
        },
        {
          "indexed": false,
          "internalType": "address",
          "name": "walletAddress",
          "type": "address"
        },
        {
          "indexed": false,
          "internalType": "enum JudoSystem.BeltLevel",
          "name": "beltLevel",
          "type": "uint8"
        },
        {
          "indexed": false,
          "internalType": "uint256",
          "name": "dateOfBirth",
          "type": "uint256"
        },
        {
          "indexed": false,
          "internalType": "enum JudoSystem.Gender",
          "name": "gender",
          "type": "uint8"
        },
        {
          "indexed": false,
          "internalType": "string",
          "name": "email",
          "type": "string"
        },
        {
          "indexed": false,
          "internalType": "string",
          "name": "phoneNumber",
          "type": "string"
        },
        {
          "indexed": false,
          "internalType": "uint256",
          "name": "timestamp",
          "type": "uint256"
        }
      ],
      "name": "JudokaRegistered",
      "type": "event"
    },
    {
      "anonymous": false,
      "inputs": [
        {
          "indexed": true,
          "internalType": "uint256",
          "name": "competitionId",
          "type": "uint256"
        },
        {
          "indexed": false,
          "internalType": "address",
          "name": "participant",
          "type": "address"
        }
      ],
      "name": "ParticipantAdded",
      "type": "event"
    },
    {
      "inputs": [],
      "name": "admin",
      "outputs": [
        {
          "internalType": "address",
          "name": "",
          "type": "address"
        }
      ],
      "stateMutability": "view",
      "type": "function",
      "constant": true
    },
    {
      "inputs": [],
      "name": "competitionCount",
      "outputs": [
        {
          "internalType": "uint256",
          "name": "",
          "type": "uint256"
        }
      ],
      "stateMutability": "view",
      "type": "function",
      "constant": true
    },
    {
      "inputs": [
        {
          "internalType": "uint256",
          "name": "",
          "type": "uint256"
        }
      ],
      "name": "competitions",
      "outputs": [
        {
          "internalType": "uint256",
          "name": "id",
          "type": "uint256"
        },
        {
          "internalType": "string",
          "name": "name",
          "type": "string"
        },
        {
          "internalType": "uint256",
          "name": "date",
          "type": "uint256"
        },
        {
          "internalType": "bool",
          "name": "completed",
          "type": "bool"
        },
        {
          "components": [
            {
              "internalType": "address",
              "name": "firstPlace",
              "type": "address"
            },
            {
              "internalType": "address",
              "name": "secondPlace",
              "type": "address"
            },
            {
              "internalType": "address",
              "name": "thirdPlace",
              "type": "address"
            },
            {
              "internalType": "address",
              "name": "fourthPlace",
              "type": "address"
            }
          ],
          "internalType": "struct JudoSystem.CompetitionResult",
          "name": "results",
          "type": "tuple"
        }
      ],
      "stateMutability": "view",
      "type": "function",
      "constant": true
    },
    {
      "inputs": [],
      "name": "judokaCount",
      "outputs": [
        {
          "internalType": "uint256",
          "name": "",
          "type": "uint256"
        }
      ],
      "stateMutability": "view",
      "type": "function",
      "constant": true
    },
    {
      "inputs": [
        {
          "internalType": "address",
          "name": "",
          "type": "address"
        }
      ],
      "name": "judokaIds",
      "outputs": [
        {
          "internalType": "uint256",
          "name": "",
          "type": "uint256"
        }
      ],
      "stateMutability": "view",
      "type": "function",
      "constant": true
    },
    {
      "inputs": [
        {
          "internalType": "uint256",
          "name": "",
          "type": "uint256"
        }
      ],
      "name": "judokaPoints",
      "outputs": [
        {
          "internalType": "uint256",
          "name": "",
          "type": "uint256"
        }
      ],
      "stateMutability": "view",
      "type": "function",
      "constant": true
    },
    {
      "inputs": [
        {
          "internalType": "uint256",
          "name": "",
          "type": "uint256"
        }
      ],
      "name": "judokas",
      "outputs": [
        {
          "internalType": "uint256",
          "name": "id",
          "type": "uint256"
        },
        {
          "internalType": "string",
          "name": "name",
          "type": "string"
        },
        {
          "internalType": "address",
          "name": "walletAddress",
          "type": "address"
        },
        {
          "internalType": "enum JudoSystem.BeltLevel",
          "name": "beltLevel",
          "type": "uint8"
        },
        {
          "internalType": "uint256",
          "name": "dateOfBirth",
          "type": "uint256"
        },
        {
          "internalType": "enum JudoSystem.Gender",
          "name": "gender",
          "type": "uint8"
        },
        {
          "internalType": "string",
          "name": "email",
          "type": "string"
        },
        {
          "internalType": "string",
          "name": "phoneNumber",
          "type": "string"
        },
        {
          "internalType": "uint256",
          "name": "age",
          "type": "uint256"
        },
        {
          "internalType": "uint256",
          "name": "weight",
          "type": "uint256"
        },
        {
          "internalType": "string",
          "name": "club",
          "type": "string"
        }
      ],
      "stateMutability": "view",
      "type": "function",
      "constant": true
    },
    {
      "inputs": [
        {
          "internalType": "string",
          "name": "_name",
          "type": "string"
        },
        {
          "internalType": "address",
          "name": "_walletAddress",
          "type": "address"
        },
        {
          "internalType": "uint256",
          "name": "_dateOfBirth",
          "type": "uint256"
        },
        {
          "internalType": "uint8",
          "name": "_gender",
          "type": "uint8"
        },
        {
          "internalType": "string",
          "name": "_email",
          "type": "string"
        },
        {
          "internalType": "string",
          "name": "_phoneNumber",
          "type": "string"
        },
        {
          "internalType": "uint256",
          "name": "_age",
          "type": "uint256"
        },
        {
          "internalType": "uint256",
          "name": "_weight",
          "type": "uint256"
        },
        {
          "internalType": "string",
          "name": "_club",
          "type": "string"
        }
      ],
      "name": "registerBlackBelt",
      "outputs": [],
      "stateMutability": "nonpayable",
      "type": "function"
    },
    {
      "inputs": [
        {
          "internalType": "string",
          "name": "_name",
          "type": "string"
        },
        {
          "internalType": "address",
          "name": "_walletAddress",
          "type": "address"
        },
        {
          "internalType": "uint256",
          "name": "_dateOfBirth",
          "type": "uint256"
        },
        {
          "internalType": "uint8",
          "name": "_gender",
          "type": "uint8"
        },
        {
          "internalType": "string",
          "name": "_email",
          "type": "string"
        },
        {
          "internalType": "string",
          "name": "_phoneNumber",
          "type": "string"
        },
        {
          "internalType": "uint256",
          "name": "_age",
          "type": "uint256"
        },
        {
          "internalType": "uint256",
          "name": "_weight",
          "type": "uint256"
        },
        {
          "internalType": "string",
          "name": "_club",
          "type": "string"
        }
      ],
      "name": "registerJudoka",
      "outputs": [],
      "stateMutability": "nonpayable",
      "type": "function"
    },
    {
      "inputs": [
        {
          "internalType": "uint256",
          "name": "_id",
          "type": "uint256"
        }
      ],
      "name": "getJudokaInfo",
      "outputs": [
        {
          "components": [
            {
              "internalType": "uint256",
              "name": "id",
              "type": "uint256"
            },
            {
              "internalType": "string",
              "name": "name",
              "type": "string"
            },
            {
              "internalType": "address",
              "name": "walletAddress",
              "type": "address"
            },
            {
              "internalType": "enum JudoSystem.BeltLevel",
              "name": "beltLevel",
              "type": "uint8"
            },
            {
              "internalType": "uint256",
              "name": "dateOfBirth",
              "type": "uint256"
            },
            {
              "internalType": "enum JudoSystem.Gender",
              "name": "gender",
              "type": "uint8"
            },
            {
              "internalType": "string",
              "name": "email",
              "type": "string"
            },
            {
              "internalType": "string",
              "name": "phoneNumber",
              "type": "string"
            },
            {
              "internalType": "uint256",
              "name": "age",
              "type": "uint256"
            },
            {
              "internalType": "uint256",
              "name": "weight",
              "type": "uint256"
            },
            {
              "internalType": "string",
              "name": "club",
              "type": "string"
            }
          ],
          "internalType": "struct JudoSystem.Judoka",
          "name": "",
          "type": "tuple"
        }
      ],
      "stateMutability": "view",
      "type": "function",
      "constant": true
    },
    {
      "inputs": [
        {
          "internalType": "uint256",
          "name": "_id",
          "type": "uint256"
        }
      ],
      "name": "getBeltLevel",
      "outputs": [
        {
          "internalType": "enum JudoSystem.BeltLevel",
          "name": "",
          "type": "uint8"
        }
      ],
      "stateMutability": "view",
      "type": "function",
      "constant": true
    },
    {
      "inputs": [
        {
          "internalType": "uint256",
          "name": "_id",
          "type": "uint256"
        },
        {
          "internalType": "enum JudoSystem.BeltLevel",
          "name": "_newBeltLevel",
          "type": "uint8"
        }
      ],
      "name": "promoteJudoka",
      "outputs": [],
      "stateMutability": "nonpayable",
      "type": "function"
    },
    {
      "inputs": [
        {
          "internalType": "address",
          "name": "_address",
          "type": "address"
        }
      ],
      "name": "isBlackBelt",
      "outputs": [
        {
          "internalType": "bool",
          "name": "",
          "type": "bool"
        }
      ],
      "stateMutability": "view",
      "type": "function",
      "constant": true
    },
    {
      "inputs": [
        {
          "internalType": "uint256",
          "name": "_id",
          "type": "uint256"
        },
        {
          "internalType": "address",
          "name": "_sender",
          "type": "address"
        }
      ],
      "name": "isAuthorized",
      "outputs": [
        {
          "internalType": "bool",
          "name": "",
          "type": "bool"
        }
      ],
      "stateMutability": "view",
      "type": "function",
      "constant": true
    },
    {
      "inputs": [
        {
          "internalType": "address",
          "name": "_sender",
          "type": "address"
        }
      ],
      "name": "isAdmin",
      "outputs": [
        {
          "internalType": "bool",
          "name": "",
          "type": "bool"
        }
      ],
      "stateMutability": "view",
      "type": "function",
      "constant": true
    },
    {
      "inputs": [
        {
          "internalType": "uint256",
          "name": "_id",
          "type": "uint256"
        },
        {
          "internalType": "uint256",
          "name": "_points",
          "type": "uint256"
        }
      ],
      "name": "updateJudokaPoints",
      "outputs": [],
      "stateMutability": "nonpayable",
      "type": "function"
    },
    {
      "inputs": [
        {
          "internalType": "string",
          "name": "_name",
          "type": "string"
        },
        {
          "internalType": "uint256",
          "name": "_date",
          "type": "uint256"
        }
      ],
      "name": "createCompetition",
      "outputs": [],
      "stateMutability": "nonpayable",
      "type": "function"
    },
    {
      "inputs": [
        {
          "internalType": "uint256",
          "name": "_competitionId",
          "type": "uint256"
        },
        {
          "internalType": "address",
          "name": "_participant",
          "type": "address"
        }
      ],
      "name": "addParticipant",
      "outputs": [],
      "stateMutability": "nonpayable",
      "type": "function"
    },
    {
      "inputs": [
        {
          "internalType": "uint256",
          "name": "_competitionId",
          "type": "uint256"
        },
        {
          "internalType": "address",
          "name": "_firstPlace",
          "type": "address"
        },
        {
          "internalType": "address",
          "name": "_secondPlace",
          "type": "address"
        },
        {
          "internalType": "address",
          "name": "_thirdPlace",
          "type": "address"
        },
        {
          "internalType": "address",
          "name": "_fourthPlace",
          "type": "address"
        },
        {
          "internalType": "uint256",
          "name": "_firstPlacePoints",
          "type": "uint256"
        },
        {
          "internalType": "uint256",
          "name": "_secondPlacePoints",
          "type": "uint256"
        },
        {
          "internalType": "uint256",
          "name": "_thirdPlacePoints",
          "type": "uint256"
        },
        {
          "internalType": "uint256",
          "name": "_fourthPlacePoints",
          "type": "uint256"
        }
      ],
      "name": "recordCompetitionResult",
      "outputs": [],
      "stateMutability": "nonpayable",
      "type": "function"
    }
  ],
  "bytecode": "0x608060405234801561001057600080fd5b5033600660006101000a81548173ffffffffffffffffffffffffffffffffffffffff021916908373ffffffffffffffffffffffffffffffffffffffff160217905550613df7806100616000396000f3fe608060405234801561001057600080fd5b50600436106101215760003560e01c80633ab9f6d8116100ad578063a168177011610071578063a16817701461033e578063cab96b701461035c578063ce3824b21461037a578063e9f86f1e146103b4578063f851a440146103e457610121565b80633ab9f6d81461025e57806345504a831461028e578063609c6d7f146102be5780637d5d952c146102ee5780639f6828d91461030a57610121565b80631ef31992116100f45780631ef31992146101aa57806322b9dd90146101da57806324d7806c146101f657806338897f9a146102265780633a01ba131461024257610121565b806310c1224c1461012657806318d85e53146101565780631b8558dd146101725780631d91d3221461018e575b600080fd5b610140600480360381019061013b9190612b2c565b610402565b60405161014d91906135c8565b60405180910390f35b610170600480360381019061016b9190612cf8565b6104e0565b005b61018c60048036038101906101879190612e36565b610687565b005b6101a860048036038101906101a39190612c7b565b610796565b005b6101c460048036038101906101bf9190612ccf565b610b4e565b6040516101d191906135e3565b60405180910390f35b6101f460048036038101906101ef9190612dfa565b610bcb565b005b610210600480360381019061020b9190612b2c565b610e5e565b60405161021d91906135c8565b60405180910390f35b610240600480360381019061023b9190612d34565b610eb8565b005b61025c60048036038101906102579190612b55565b611586565b005b61027860048036038101906102739190612b2c565b6119f5565b60405161028591906138fa565b60405180910390f35b6102a860048036038101906102a39190612ccf565b611a0d565b6040516102b591906138d8565b60405180910390f35b6102d860048036038101906102d39190612cf8565b611e0f565b6040516102e591906135c8565b60405180910390f35b61030860048036038101906103039190612b55565b611ed6565b005b610324600480360381019061031f9190612ccf565b612338565b6040516103359594939291906139dc565b60405180910390f35b610346612565565b60405161035391906138fa565b60405180910390f35b61036461256b565b60405161037191906138fa565b60405180910390f35b610394600480360381019061038f9190612ccf565b612571565b6040516103ab9b9a99989796959493929190613915565b60405180910390f35b6103ce60048036038101906103c99190612ccf565b612825565b6040516103db91906138fa565b60405180910390f35b6103ec61283d565b6040516103f99190613568565b60405180910390f35b600060068081111561043d577f4e487b7100000000000000000000000000000000000000000000000000000000600052602160045260246000fd5b60026000600360008673ffffffffffffffffffffffffffffffffffffffff1673ffffffffffffffffffffffffffffffffffffffff16815260200190815260200160002054815260200190815260200160002060020160149054906101000a900460ff1660068111156104d8577f4e487b7100000000000000000000000000000000000000000000000000000000600052602160045260246000fd5b149050919050565b600660009054906101000a900473ffffffffffffffffffffffffffffffffffffffff1673ffffffffffffffffffffffffffffffffffffffff163373ffffffffffffffffffffffffffffffffffffffff1614610570576040517f08c379a000000000000000000000000000000000000000000000000000000000815260040161056790613818565b60405180910390fd5b6005600083815260200190815260200160002060040160009054906101000a900460ff16156105d4576040517f08c379a00000000000000000000000000000000000000000000000000000000081526004016105cb906138b8565b60405180910390fd5b60056000838152602001908152602001600020600301819080600181540180825580915050600190039060005260206000200160009091909190916101000a81548173ffffffffffffffffffffffffffffffffffffffff021916908373ffffffffffffffffffffffffffffffffffffffff160217905550817f12246ba2398106df92bc0281a1eece14e5b8516c5c3dab76205391650e39fddb8260405161067b9190613568565b60405180910390a25050565b600660009054906101000a900473ffffffffffffffffffffffffffffffffffffffff1673ffffffffffffffffffffffffffffffffffffffff163373ffffffffffffffffffffffffffffffffffffffff1614610717576040517f08c379a000000000000000000000000000000000000000000000000000000000815260040161070e90613818565b60405180910390fd5b60008211801561072957506000548211155b610768576040517f08c379a000000000000000000000000000000000000000000000000000000000815260040161075f90613718565b60405180910390fd5b8060046000848152602001908152602001600020600082825461078b9190613ac5565b925050819055505050565b600660009054906101000a900473ffffffffffffffffffffffffffffffffffffffff1673ffffffffffffffffffffffffffffffffffffffff163373ffffffffffffffffffffffffffffffffffffffff1614610826576040517f08c379a000000000000000000000000000000000000000000000000000000000815260040161081d90613798565b60405180910390fd5b60006040518060800160405280600073ffffffffffffffffffffffffffffffffffffffff168152602001600073ffffffffffffffffffffffffffffffffffffffff168152602001600073ffffffffffffffffffffffffffffffffffffffff168152602001600073ffffffffffffffffffffffffffffffffffffffff168152509050600160008154809291906108ba90613c2e565b91905055506040518060c001604052806001548152602001848152602001838152602001600067ffffffffffffffff81111561091f577f4e487b7100000000000000000000000000000000000000000000000000000000600052604160045260246000fd5b60405190808252806020026020018201604052801561094d5781602001602082028036833780820191505090505b5081526020016000151581526020018281525060056000600154815260200190815260200160002060008201518160000155602082015181600101908051906020019061099b929190612863565b506040820151816002015560608201518160030190805190602001906109c29291906128e9565b5060808201518160040160006101000a81548160ff02191690831515021790555060a08201518160050160008201518160000160006101000a81548173ffffffffffffffffffffffffffffffffffffffff021916908373ffffffffffffffffffffffffffffffffffffffff16021790555060208201518160010160006101000a81548173ffffffffffffffffffffffffffffffffffffffff021916908373ffffffffffffffffffffffffffffffffffffffff16021790555060408201518160020160006101000a81548173ffffffffffffffffffffffffffffffffffffffff021916908373ffffffffffffffffffffffffffffffffffffffff16021790555060608201518160030160006101000a81548173ffffffffffffffffffffffffffffffffffffffff021916908373ffffffffffffffffffffffffffffffffffffffff16021790555050509050506001547f527887ed6033dc7f6637d06840290a881f67a7f6b0b297598a5a88195bba4f6d8484604051610b419291906136c8565b60405180910390a2505050565b60008082118015610b6157506000548211155b610ba0576040517f08c379a0000000000000000000000000000000000000000000000000000000008152600401610b9790613898565b60405180910390fd5b6002600083815260200190815260200160002060020160149054906101000a900460ff169050919050565b610bd433610402565b80610c2c5750600660009054906101000a900473ffffffffffffffffffffffffffffffffffffffff1673ffffffffffffffffffffffffffffffffffffffff163373ffffffffffffffffffffffffffffffffffffffff16145b610c6b576040517f08c379a0000000000000000000000000000000000000000000000000000000008152600401610c62906137b8565b60405180910390fd5b600082118015610c7d57506000548211155b610cbc576040517f08c379a0000000000000000000000000000000000000000000000000000000008152600401610cb390613898565b60405180910390fd5b6002600083815260200190815260200160002060020160149054906101000a900460ff166006811115610d18577f4e487b7100000000000000000000000000000000000000000000000000000000600052602160045260246000fd5b816006811115610d51577f4e487b7100000000000000000000000000000000000000000000000000000000600052602160045260246000fd5b11610d91576040517f08c379a0000000000000000000000000000000000000000000000000000000008152600401610d8890613738565b60405180910390fd5b60006002600084815260200190815260200160002060020160149054906101000a900460ff169050816002600085815260200190815260200160002060020160146101000a81548160ff02191690836006811115610e18577f4e487b7100000000000000000000000000000000000000000000000000000000600052602160045260246000fd5b0217905550827f01ae96fe1baf9d2d284e6a11b7ab2a76e1c8b047b807650660b4370d50462f23828442604051610e51939291906135fe565b60405180910390a2505050565b6000600660009054906101000a900473ffffffffffffffffffffffffffffffffffffffff1673ffffffffffffffffffffffffffffffffffffffff168273ffffffffffffffffffffffffffffffffffffffff16149050919050565b600660009054906101000a900473ffffffffffffffffffffffffffffffffffffffff1673ffffffffffffffffffffffffffffffffffffffff163373ffffffffffffffffffffffffffffffffffffffff1614610f48576040517f08c379a0000000000000000000000000000000000000000000000000000000008152600401610f3f90613818565b60405180910390fd5b600560008a815260200190815260200160002060040160009054906101000a900460ff1615610fac576040517f08c379a0000000000000000000000000000000000000000000000000000000008152600401610fa3906138b8565b60405180910390fd5b6000600560008b81526020019081526020016000206003018054905011611008576040517f08c379a0000000000000000000000000000000000000000000000000000000008152600401610fff906137d8565b60405180910390fd5b6000600360008a73ffffffffffffffffffffffffffffffffffffffff1673ffffffffffffffffffffffffffffffffffffffff16815260200190815260200160002054141561108b576040517f08c379a000000000000000000000000000000000000000000000000000000000815260040161108290613878565b60405180910390fd5b6000600360008973ffffffffffffffffffffffffffffffffffffffff1673ffffffffffffffffffffffffffffffffffffffff16815260200190815260200160002054141561110e576040517f08c379a0000000000000000000000000000000000000000000000000000000008152600401611105906137f8565b60405180910390fd5b6000600360008873ffffffffffffffffffffffffffffffffffffffff1673ffffffffffffffffffffffffffffffffffffffff168152602001908152602001600020541415611191576040517f08c379a0000000000000000000000000000000000000000000000000000000008152600401611188906136f8565b60405180910390fd5b6000600360008773ffffffffffffffffffffffffffffffffffffffff1673ffffffffffffffffffffffffffffffffffffffff168152602001908152602001600020541415611214576040517f08c379a000000000000000000000000000000000000000000000000000000000815260040161120b90613758565b60405180910390fd5b6001600560008b815260200190815260200160002060040160006101000a81548160ff02191690831515021790555060405180608001604052808973ffffffffffffffffffffffffffffffffffffffff1681526020018873ffffffffffffffffffffffffffffffffffffffff1681526020018773ffffffffffffffffffffffffffffffffffffffff1681526020018673ffffffffffffffffffffffffffffffffffffffff16815250600560008b815260200190815260200160002060050160008201518160000160006101000a81548173ffffffffffffffffffffffffffffffffffffffff021916908373ffffffffffffffffffffffffffffffffffffffff16021790555060208201518160010160006101000a81548173ffffffffffffffffffffffffffffffffffffffff021916908373ffffffffffffffffffffffffffffffffffffffff16021790555060408201518160020160006101000a81548173ffffffffffffffffffffffffffffffffffffffff021916908373ffffffffffffffffffffffffffffffffffffffff16021790555060608201518160030160006101000a81548173ffffffffffffffffffffffffffffffffffffffff021916908373ffffffffffffffffffffffffffffffffffffffff160217905550905050600084111561144457611443600360008a73ffffffffffffffffffffffffffffffffffffffff1673ffffffffffffffffffffffffffffffffffffffff1681526020019081526020016000205485610687565b5b600083111561149757611496600360008973ffffffffffffffffffffffffffffffffffffffff1673ffffffffffffffffffffffffffffffffffffffff1681526020019081526020016000205484610687565b5b60008211156114ea576114e9600360008873ffffffffffffffffffffffffffffffffffffffff1673ffffffffffffffffffffffffffffffffffffffff1681526020019081526020016000205483610687565b5b600081111561153d5761153c600360008773ffffffffffffffffffffffffffffffffffffffff1673ffffffffffffffffffffffffffffffffffffffff1681526020019081526020016000205482610687565b5b887f19974ab114e4d06de9fa6a18e214db804b1d2a9b1acb21496207e2deafbbb9dc898989896040516115739493929190613583565b60405180910390a2505050505050505050565b600660009054906101000a900473ffffffffffffffffffffffffffffffffffffffff1673ffffffffffffffffffffffffffffffffffffffff163373ffffffffffffffffffffffffffffffffffffffff1614611616576040517f08c379a000000000000000000000000000000000000000000000000000000000815260040161160d90613778565b60405180910390fd5b600073ffffffffffffffffffffffffffffffffffffffff168873ffffffffffffffffffffffffffffffffffffffff161415611686576040517f08c379a000000000000000000000000000000000000000000000000000000000815260040161167d90613858565b60405180910390fd5b60008660ff1660018111156116c4577f4e487b7100000000000000000000000000000000000000000000000000000000600052602160045260246000fd5b90506000808154809291906116d890613c2e565b919050555060405180610160016040528060005481526020018b81526020018a73ffffffffffffffffffffffffffffffffffffffff16815260200160068081111561174c577f4e487b7100000000000000000000000000000000000000000000000000000000600052602160045260246000fd5b8152602001898152602001826001811115611790577f4e487b7100000000000000000000000000000000000000000000000000000000600052602160045260246000fd5b81526020018781526020018681526020018581526020018481526020018381525060026000805481526020019081526020016000206000820151816000015560208201518160010190805190602001906117eb929190612863565b5060408201518160020160006101000a81548173ffffffffffffffffffffffffffffffffffffffff021916908373ffffffffffffffffffffffffffffffffffffffff16021790555060608201518160020160146101000a81548160ff02191690836006811115611884577f4e487b7100000000000000000000000000000000000000000000000000000000600052602160045260246000fd5b02179055506080820151816003015560a08201518160040160006101000a81548160ff021916908360018111156118e4577f4e487b7100000000000000000000000000000000000000000000000000000000600052602160045260246000fd5b021790555060c0820151816005019080519060200190611905929190612863565b5060e0820151816006019080519060200190611922929190612863565b5061010082015181600701556101208201518160080155610140820151816009019080519060200190611956929190612863565b50905050600054600360008b73ffffffffffffffffffffffffffffffffffffffff1673ffffffffffffffffffffffffffffffffffffffff168152602001908152602001600020819055506000547f1aa2daf79773d4b03f8c5c647ce687b708b9b0ed394bc1abeb4490ae92f407998b8b60068c868c8c426040516119e1989796959493929190613635565b60405180910390a250505050505050505050565b60036020528060005260406000206000915090505481565b611a15612973565b600260008381526020019081526020016000206040518061016001604052908160008201548152602001600182018054611a4e90613bfc565b80601f0160208091040260200160405190810160405280929190818152602001828054611a7a90613bfc565b8015611ac75780601f10611a9c57610100808354040283529160200191611ac7565b820191906000526020600020905b815481529060010190602001808311611aaa57829003601f168201915b505050505081526020016002820160009054906101000a900473ffffffffffffffffffffffffffffffffffffffff1673ffffffffffffffffffffffffffffffffffffffff1673ffffffffffffffffffffffffffffffffffffffff1681526020016002820160149054906101000a900460ff166006811115611b71577f4e487b7100000000000000000000000000000000000000000000000000000000600052602160045260246000fd5b6006811115611ba9577f4e487b7100000000000000000000000000000000000000000000000000000000600052602160045260246000fd5b8152602001600382015481526020016004820160009054906101000a900460ff166001811115611c02577f4e487b7100000000000000000000000000000000000000000000000000000000600052602160045260246000fd5b6001811115611c3a577f4e487b7100000000000000000000000000000000000000000000000000000000600052602160045260246000fd5b8152602001600582018054611c4e90613bfc565b80601f0160208091040260200160405190810160405280929190818152602001828054611c7a90613bfc565b8015611cc75780601f10611c9c57610100808354040283529160200191611cc7565b820191906000526020600020905b815481529060010190602001808311611caa57829003601f168201915b50505050508152602001600682018054611ce090613bfc565b80601f0160208091040260200160405190810160405280929190818152602001828054611d0c90613bfc565b8015611d595780601f10611d2e57610100808354040283529160200191611d59565b820191906000526020600020905b815481529060010190602001808311611d3c57829003601f168201915b505050505081526020016007820154815260200160088201548152602001600982018054611d8690613bfc565b80601f0160208091040260200160405190810160405280929190818152602001828054611db290613bfc565b8015611dff5780601f10611dd457610100808354040283529160200191611dff565b820191906000526020600020905b815481529060010190602001808311611de257829003601f168201915b5050505050815250509050919050565b60006002600084815260200190815260200160002060020160009054906101000a900473ffffffffffffffffffffffffffffffffffffffff1673ffffffffffffffffffffffffffffffffffffffff168273ffffffffffffffffffffffffffffffffffffffff161480611ece5750600660009054906101000a900473ffffffffffffffffffffffffffffffffffffffff1673ffffffffffffffffffffffffffffffffffffffff168273ffffffffffffffffffffffffffffffffffffffff16145b905092915050565b600073ffffffffffffffffffffffffffffffffffffffff168873ffffffffffffffffffffffffffffffffffffffff161415611f46576040517f08c379a0000000000000000000000000000000000000000000000000000000008152600401611f3d90613858565b60405180910390fd5b6000600360008a73ffffffffffffffffffffffffffffffffffffffff1673ffffffffffffffffffffffffffffffffffffffff1681526020019081526020016000205414611fc8576040517f08c379a0000000000000000000000000000000000000000000000000000000008152600401611fbf90613838565b60405180910390fd5b60008660ff166001811115612006577f4e487b7100000000000000000000000000000000000000000000000000000000600052602160045260246000fd5b905060008081548092919061201a90613c2e565b919050555060405180610160016040528060005481526020018b81526020018a73ffffffffffffffffffffffffffffffffffffffff1681526020016000600681111561208f577f4e487b7100000000000000000000000000000000000000000000000000000000600052602160045260246000fd5b81526020018981526020018260018111156120d3577f4e487b7100000000000000000000000000000000000000000000000000000000600052602160045260246000fd5b815260200187815260200186815260200185815260200184815260200183815250600260008054815260200190815260200160002060008201518160000155602082015181600101908051906020019061212e929190612863565b5060408201518160020160006101000a81548173ffffffffffffffffffffffffffffffffffffffff021916908373ffffffffffffffffffffffffffffffffffffffff16021790555060608201518160020160146101000a81548160ff021916908360068111156121c7577f4e487b7100000000000000000000000000000000000000000000000000000000600052602160045260246000fd5b02179055506080820151816003015560a08201518160040160006101000a81548160ff02191690836001811115612227577f4e487b7100000000000000000000000000000000000000000000000000000000600052602160045260246000fd5b021790555060c0820151816005019080519060200190612248929190612863565b5060e0820151816006019080519060200190612265929190612863565b5061010082015181600701556101208201518160080155610140820151816009019080519060200190612299929190612863565b50905050600054600360008b73ffffffffffffffffffffffffffffffffffffffff1673ffffffffffffffffffffffffffffffffffffffff168152602001908152602001600020819055506000547f1aa2daf79773d4b03f8c5c647ce687b708b9b0ed394bc1abeb4490ae92f407998b8b60008c868c8c42604051612324989796959493929190613635565b60405180910390a250505050505050505050565b600560205280600052604060002060009150905080600001549080600101805461236190613bfc565b80601f016020809104026020016040519081016040528092919081815260200182805461238d90613bfc565b80156123da5780601f106123af576101008083540402835291602001916123da565b820191906000526020600020905b8154815290600101906020018083116123bd57829003601f168201915b5050505050908060020154908060040160009054906101000a900460ff1690806005016040518060800160405290816000820160009054906101000a900473ffffffffffffffffffffffffffffffffffffffff1673ffffffffffffffffffffffffffffffffffffffff1673ffffffffffffffffffffffffffffffffffffffff1681526020016001820160009054906101000a900473ffffffffffffffffffffffffffffffffffffffff1673ffffffffffffffffffffffffffffffffffffffff1673ffffffffffffffffffffffffffffffffffffffff1681526020016002820160009054906101000a900473ffffffffffffffffffffffffffffffffffffffff1673ffffffffffffffffffffffffffffffffffffffff1673ffffffffffffffffffffffffffffffffffffffff1681526020016003820160009054906101000a900473ffffffffffffffffffffffffffffffffffffffff1673ffffffffffffffffffffffffffffffffffffffff1673ffffffffffffffffffffffffffffffffffffffff1681525050905085565b60015481565b60005481565b600260205280600052604060002060009150905080600001549080600101805461259a90613bfc565b80601f01602080910402602001604051908101604052809291908181526020018280546125c690613bfc565b80156126135780601f106125e857610100808354040283529160200191612613565b820191906000526020600020905b8154815290600101906020018083116125f657829003601f168201915b5050505050908060020160009054906101000a900473ffffffffffffffffffffffffffffffffffffffff16908060020160149054906101000a900460ff16908060030154908060040160009054906101000a900460ff169080600501805461267a90613bfc565b80601f01602080910402602001604051908101604052809291908181526020018280546126a690613bfc565b80156126f35780601f106126c8576101008083540402835291602001916126f3565b820191906000526020600020905b8154815290600101906020018083116126d657829003601f168201915b50505050509080600601805461270890613bfc565b80601f016020809104026020016040519081016040528092919081815260200182805461273490613bfc565b80156127815780601f1061275657610100808354040283529160200191612781565b820191906000526020600020905b81548152906001019060200180831161276457829003601f168201915b5050505050908060070154908060080154908060090180546127a290613bfc565b80601f01602080910402602001604051908101604052809291908181526020018280546127ce90613bfc565b801561281b5780601f106127f05761010080835404028352916020019161281b565b820191906000526020600020905b8154815290600101906020018083116127fe57829003601f168201915b505050505090508b565b60046020528060005260406000206000915090505481565b600660009054906101000a900473ffffffffffffffffffffffffffffffffffffffff1681565b82805461286f90613bfc565b90600052602060002090601f01602090048101928261289157600085556128d8565b82601f106128aa57805160ff19168380011785556128d8565b828001600101855582156128d8579182015b828111156128d75782518255916020019190600101906128bc565b5b5090506128e59190612a53565b5090565b828054828255906000526020600020908101928215612962579160200282015b828111156129615782518260006101000a81548173ffffffffffffffffffffffffffffffffffffffff021916908373ffffffffffffffffffffffffffffffffffffffff16021790555091602001919060010190612909565b5b50905061296f9190612a53565b5090565b6040518061016001604052806000815260200160608152602001600073ffffffffffffffffffffffffffffffffffffffff168152602001600060068111156129e4577f4e487b7100000000000000000000000000000000000000000000000000000000600052602160045260246000fd5b81526020016000815260200160006001811115612a2a577f4e487b7100000000000000000000000000000000000000000000000000000000600052602160045260246000fd5b815260200160608152602001606081526020016000815260200160008152602001606081525090565b5b80821115612a6c576000816000905550600101612a54565b5090565b6000612a83612a7e84613a68565b613a37565b905082815260208101848484011115612a9b57600080fd5b612aa6848285613bba565b509392505050565b600081359050612abd81613d6c565b92915050565b600081359050612ad281613d83565b92915050565b600082601f830112612ae957600080fd5b8135612af9848260208601612a70565b91505092915050565b600081359050612b1181613d93565b92915050565b600081359050612b2681613daa565b92915050565b600060208284031215612b3e57600080fd5b6000612b4c84828501612aae565b91505092915050565b60008060008060008060008060006101208a8c031215612b7457600080fd5b60008a013567ffffffffffffffff811115612b8e57600080fd5b612b9a8c828d01612ad8565b9950506020612bab8c828d01612aae565b9850506040612bbc8c828d01612b02565b9750506060612bcd8c828d01612b17565b96505060808a013567ffffffffffffffff811115612bea57600080fd5b612bf68c828d01612ad8565b95505060a08a013567ffffffffffffffff811115612c1357600080fd5b612c1f8c828d01612ad8565b94505060c0612c308c828d01612b02565b93505060e0612c418c828d01612b02565b9250506101008a013567ffffffffffffffff811115612c5f57600080fd5b612c6b8c828d01612ad8565b9150509295985092959850929598565b60008060408385031215612c8e57600080fd5b600083013567ffffffffffffffff811115612ca857600080fd5b612cb485828601612ad8565b9250506020612cc585828601612b02565b9150509250929050565b600060208284031215612ce157600080fd5b6000612cef84828501612b02565b91505092915050565b60008060408385031215612d0b57600080fd5b6000612d1985828601612b02565b9250506020612d2a85828601612aae565b9150509250929050565b60008060008060008060008060006101208a8c031215612d5357600080fd5b6000612d618c828d01612b02565b9950506020612d728c828d01612aae565b9850506040612d838c828d01612aae565b9750506060612d948c828d01612aae565b9650506080612da58c828d01612aae565b95505060a0612db68c828d01612b02565b94505060c0612dc78c828d01612b02565b93505060e0612dd88c828d01612b02565b925050610100612dea8c828d01612b02565b9150509295985092959850929598565b60008060408385031215612e0d57600080fd5b6000612e1b85828601612b02565b9250506020612e2c85828601612ac3565b9150509250929050565b60008060408385031215612e4957600080fd5b6000612e5785828601612b02565b9250506020612e6885828601612b02565b9150509250929050565b612e7b81613b1b565b82525050565b612e8a81613b1b565b82525050565b612e9981613b2d565b82525050565b612ea881613b96565b82525050565b612eb781613b96565b82525050565b612ec681613ba8565b82525050565b612ed581613ba8565b82525050565b6000612ee682613a98565b612ef08185613aa3565b9350612f00818560208601613bc9565b612f0981613d33565b840191505092915050565b6000612f1f82613a98565b612f298185613ab4565b9350612f39818560208601613bc9565b612f4281613d33565b840191505092915050565b6000612f5a602183613ab4565b91507f546869726420706c6163652077696e6e6572206e6f742072656769737465726560008301527f64000000000000000000000000000000000000000000000000000000000000006020830152604082019050919050565b6000612fc0601183613ab4565b91507f496e76616c6964204a75646f6b612049440000000000000000000000000000006000830152602082019050919050565b6000613000601883613ab4565b91507f4e6577206c6576656c206d7573742062652068696768657200000000000000006000830152602082019050919050565b6000613040602283613ab4565b91507f466f7572746820706c6163652077696e6e6572206e6f7420726567697374657260008301527f65640000000000000000000000000000000000000000000000000000000000006020830152604082019050919050565b60006130a6601e83613ab4565b91507f4f6e6c792061646d696e2063616e2061646420626c61636b2062656c747300006000830152602082019050919050565b60006130e6601f83613ab4565b91507f4f6e6c792061646d696e2063616e2061646420636f6d7065746974696f6e73006000830152602082019050919050565b6000613126602d83613ab4565b91507f4f6e6c7920626c61636b2062656c7473206f722061646d696e2063616e20707260008301527f6f6d6f7465206a75646f6b6173000000000000000000000000000000000000006020830152604082019050919050565b600061318c601e83613ab4565b91507f4e6f207061727469636970616e747320696e20636f6d7065746974696f6e00006000830152602082019050919050565b60006131cc602283613ab4565b91507f5365636f6e6420706c6163652077696e6e6572206e6f7420726567697374657260008301527f65640000000000000000000000000000000000000000000000000000000000006020830152604082019050919050565b6000613232602283613ab4565b91507f4f6e6c792061646d696e2063616e20706572666f726d2074686973206163746960008301527f6f6e0000000000000000000000000000000000000000000000000000000000006020830152604082019050919050565b6000613298601983613ab4565b91507f4a75646f6b6120616c72656164792072656769737465726564000000000000006000830152602082019050919050565b60006132d8601683613ab4565b91507f496e76616c69642077616c6c65742061646472657373000000000000000000006000830152602082019050919050565b6000613318602183613ab4565b91507f466972737420706c6163652077696e6e6572206e6f742072656769737465726560008301527f64000000000000000000000000000000000000000000000000000000000000006020830152604082019050919050565b600061337e601683613ab4565b91507f4a75646f6b6120646f6573206e6f742065786973742e000000000000000000006000830152602082019050919050565b60006133be601d83613ab4565b91507f436f6d7065746974696f6e20616c726561647920636f6d706c657465640000006000830152602082019050919050565b6080820160008201516134076000850182612e72565b50602082015161341a6020850182612e72565b50604082015161342d6040850182612e72565b5060608201516134406060850182612e72565b50505050565b60006101608301600083015161345f600086018261354a565b50602083015184820360208601526134778282612edb565b915050604083015161348c6040860182612e72565b50606083015161349f6060860182612e9f565b5060808301516134b2608086018261354a565b5060a08301516134c560a0860182612ebd565b5060c083015184820360c08601526134dd8282612edb565b91505060e083015184820360e08601526134f78282612edb565b91505061010083015161350e61010086018261354a565b5061012083015161352361012086018261354a565b5061014083015184820361014086015261353d8282612edb565b9150508091505092915050565b61355381613b7f565b82525050565b61356281613b7f565b82525050565b600060208201905061357d6000830184612e81565b92915050565b60006080820190506135986000830187612e81565b6135a56020830186612e81565b6135b26040830185612e81565b6135bf6060830184612e81565b95945050505050565b60006020820190506135dd6000830184612e90565b92915050565b60006020820190506135f86000830184612eae565b92915050565b60006060820190506136136000830186612eae565b6136206020830185612eae565b61362d6040830184613559565b949350505050565b6000610100820190508181036000830152613650818b612f14565b905061365f602083018a612e81565b61366c6040830189612eae565b6136796060830188613559565b6136866080830187612ecc565b81810360a08301526136988186612f14565b905081810360c08301526136ac8185612f14565b90506136bb60e0830184613559565b9998505050505050505050565b600060408201905081810360008301526136e28185612f14565b90506136f16020830184613559565b9392505050565b6000602082019050818103600083015261371181612f4d565b9050919050565b6000602082019050818103600083015261373181612fb3565b9050919050565b6000602082019050818103600083015261375181612ff3565b9050919050565b6000602082019050818103600083015261377181613033565b9050919050565b6000602082019050818103600083015261379181613099565b9050919050565b600060208201905081810360008301526137b1816130d9565b9050919050565b600060208201905081810360008301526137d181613119565b9050919050565b600060208201905081810360008301526137f18161317f565b9050919050565b60006020820190508181036000830152613811816131bf565b9050919050565b6000602082019050818103600083015261383181613225565b9050919050565b600060208201905081810360008301526138518161328b565b9050919050565b60006020820190508181036000830152613871816132cb565b9050919050565b600060208201905081810360008301526138918161330b565b9050919050565b600060208201905081810360008301526138b181613371565b9050919050565b600060208201905081810360008301526138d1816133b1565b9050919050565b600060208201905081810360008301526138f28184613446565b905092915050565b600060208201905061390f6000830184613559565b92915050565b60006101608201905061392b600083018e613559565b818103602083015261393d818d612f14565b905061394c604083018c612e81565b613959606083018b612eae565b613966608083018a613559565b61397360a0830189612ecc565b81810360c08301526139858188612f14565b905081810360e08301526139998187612f14565b90506139a9610100830186613559565b6139b7610120830185613559565b8181036101408301526139ca8184612f14565b90509c9b505050505050505050505050565b6000610100820190506139f26000830188613559565b8181036020830152613a048187612f14565b9050613a136040830186613559565b613a206060830185612e90565b613a2d60808301846133f1565b9695505050505050565b6000604051905081810181811067ffffffffffffffff82111715613a5e57613a5d613d04565b5b8060405250919050565b600067ffffffffffffffff821115613a8357613a82613d04565b5b601f19601f8301169050602081019050919050565b600081519050919050565b600082825260208201905092915050565b600082825260208201905092915050565b6000613ad082613b7f565b9150613adb83613b7f565b9250827fffffffffffffffffffffffffffffffffffffffffffffffffffffffffffffffff03821115613b1057613b0f613c77565b5b828201905092915050565b6000613b2682613b5f565b9050919050565b60008115159050919050565b6000819050613b4782613d44565b919050565b6000819050613b5a82613d58565b919050565b600073ffffffffffffffffffffffffffffffffffffffff82169050919050565b6000819050919050565b600060ff82169050919050565b6000613ba182613b39565b9050919050565b6000613bb382613b4c565b9050919050565b82818337600083830152505050565b60005b83811015613be7578082015181840152602081019050613bcc565b83811115613bf6576000848401525b50505050565b60006002820490506001821680613c1457607f821691505b60208210811415613c2857613c27613cd5565b5b50919050565b6000613c3982613b7f565b91507fffffffffffffffffffffffffffffffffffffffffffffffffffffffffffffffff821415613c6c57613c6b613c77565b5b600182019050919050565b7f4e487b7100000000000000000000000000000000000000000000000000000000600052601160045260246000fd5b7f4e487b7100000000000000000000000000000000000000000000000000000000600052602160045260246000fd5b7f4e487b7100000000000000000000000000000000000000000000000000000000600052602260045260246000fd5b7f4e487b7100000000000000000000000000000000000000000000000000000000600052604160045260246000fd5b6000601f19601f8301169050919050565b60078110613d5557613d54613ca6565b5b50565b60028110613d6957613d68613ca6565b5b50565b613d7581613b1b565b8114613d8057600080fd5b50565b60078110613d9057600080fd5b50565b613d9c81613b7f565b8114613da757600080fd5b50565b613db381613b89565b8114613dbe57600080fd5b5056fea2646970667358221220814a63be5110a732a03ea3d942c5c2e1e8161ee33045b7a2a462aa3651b6bdb364736f6c63430008000033",
  "immutableReferences": {},
  "source": "// SPDX-License-Identifier: MIT\r\npragma solidity ^0.8.0;\r\n\r\ncontract JudoSystem {\r\n    enum BeltLevel { White, Yellow, Orange, Green, Blue, Brown, Black }\r\n    enum Gender { Male, Female }\r\n\r\n    struct Judoka {\r\n        uint256 id;\r\n        string name;\r\n        address walletAddress;\r\n        BeltLevel beltLevel;\r\n        uint256 dateOfBirth;\r\n        Gender gender;\r\n        string email;\r\n        string phoneNumber;\r\n        uint256 age;\r\n        uint256 weight;\r\n        string club;\r\n    }\r\n\r\n    struct CompetitionResult {\r\n        address firstPlace;\r\n        address secondPlace;\r\n        address thirdPlace;\r\n        address fourthPlace;\r\n    }\r\n\r\n    struct Competition {\r\n        uint256 id;\r\n        string name;\r\n        uint256 date;\r\n        address[] participants;\r\n        bool completed;\r\n        CompetitionResult results;\r\n    }\r\n\r\n    struct BeltLevelChange {\r\n        BeltLevel oldBeltLevel;\r\n        BeltLevel newBeltLevel;\r\n        uint256 timestamp;\r\n    }\r\n\r\n    uint256 public judokaCount;\r\n    uint256 public competitionCount;\r\n    mapping(uint256 => Judoka) public judokas;\r\n    mapping(address => uint256) public judokaIds;\r\n    mapping(uint256 => uint256) public judokaPoints;\r\n    mapping(uint256 => Competition) public competitions;\r\n    address public admin;\r\n\r\n    event JudokaRegistered(uint256 indexed id, string name, address walletAddress, BeltLevel beltLevel, uint256 dateOfBirth, Gender gender, string email, string phoneNumber, uint256 timestamp);\r\n    event BeltLevelUpdated(uint256 indexed id, BeltLevel oldBeltLevel, BeltLevel newBeltLevel, uint256 timestamp);\r\n    event CompetitionCreated(uint256 indexed id, string name, uint256 date);\r\n    event ParticipantAdded(uint256 indexed competitionId, address participant);\r\n    event CompetitionResultRecorded(uint256 indexed competitionId, address firstPlace, address secondPlace, address thirdPlace, address fourthPlace);\r\n\r\n    constructor() {\r\n        admin = msg.sender;\r\n    }\r\n\r\n    modifier onlyAdmin() {\r\n        require(msg.sender == admin, \"Only admin can perform this action\");\r\n        _;\r\n    }\r\n\r\n    // Functions from JudoBeltSystem\r\nfunction registerBlackBelt(\r\n    string memory _name, \r\n    address _walletAddress, \r\n    uint256 _dateOfBirth, \r\n    uint8 _gender,\r\n    string memory _email, \r\n    string memory _phoneNumber,\r\n    uint256 _age,\r\n    uint256 _weight,\r\n    string memory _club\r\n) public {\r\n    require(msg.sender == admin, \"Only admin can add black belts\");\r\n    require(_walletAddress != address(0), \"Invalid wallet address\");\r\n\r\n    Gender gender = Gender(_gender);\r\n    judokaCount++;\r\n    judokas[judokaCount] = Judoka({\r\n        id: judokaCount,\r\n        name: _name,\r\n        walletAddress: _walletAddress,\r\n        beltLevel: BeltLevel.Black,\r\n        dateOfBirth: _dateOfBirth,\r\n        gender: gender,\r\n        email: _email,\r\n        phoneNumber: _phoneNumber,\r\n        age: _age,\r\n        weight: _weight,\r\n        club: _club\r\n    });\r\n\r\n    judokaIds[_walletAddress] = judokaCount;\r\n    emit JudokaRegistered(\r\n        judokaCount, \r\n        _name, \r\n        _walletAddress, \r\n        BeltLevel.Black, \r\n        _dateOfBirth,\r\n        gender, \r\n        _email, \r\n        _phoneNumber,\r\n        block.timestamp\r\n    );\r\n}\r\n\r\n\r\n\r\nfunction registerJudoka(\r\n    string memory _name, \r\n    address _walletAddress, \r\n    uint256 _dateOfBirth, \r\n    uint8 _gender, \r\n    string memory _email, \r\n    string memory _phoneNumber,\r\n    uint256 _age,\r\n    uint256 _weight,\r\n    string memory _club\r\n) public {\r\n        require(_walletAddress != address(0), \"Invalid wallet address\");\r\n        require(judokaIds[_walletAddress] == 0, \"Judoka already registered\");\r\n\r\n    Gender gender = Gender(_gender);\r\n    judokaCount++;\r\n    judokas[judokaCount] = Judoka({\r\n        id: judokaCount,\r\n        name: _name,\r\n        walletAddress: _walletAddress,\r\n        beltLevel: BeltLevel.White,\r\n        dateOfBirth: _dateOfBirth,\r\n        gender: gender,\r\n        email: _email,\r\n        phoneNumber: _phoneNumber,\r\n        age: _age,\r\n        weight: _weight,\r\n        club: _club\r\n    });\r\n\r\n\r\n        judokaIds[_walletAddress] = judokaCount;\r\n        emit JudokaRegistered(\r\n            judokaCount, \r\n            _name, \r\n            _walletAddress, \r\n            BeltLevel.White, \r\n            _dateOfBirth,\r\n            gender, \r\n            _email, \r\n            _phoneNumber,\r\n            block.timestamp\r\n        );\r\n    }\r\n\r\n\r\n    function getJudokaInfo(uint256 _id) public view returns (Judoka memory) {\r\n        return judokas[_id];\r\n    }\r\n\r\n    function getBeltLevel(uint256 _id) public view returns (BeltLevel) {\r\n        require(_id > 0 && _id <= judokaCount, \"Judoka does not exist.\");\r\n        return judokas[_id].beltLevel;\r\n    }\r\n\r\n    function promoteJudoka(uint256 _id, BeltLevel _newBeltLevel) public {\r\n        require(\r\n            isBlackBelt(msg.sender) || msg.sender == admin,\r\n            \"Only black belts or admin can promote judokas\"\r\n        );\r\n        require(_id > 0 && _id <= judokaCount, \"Judoka does not exist.\");\r\n        require(\r\n            _newBeltLevel > judokas[_id].beltLevel,\r\n            \"New level must be higher\"\r\n        );\r\n\r\n        BeltLevel oldBeltLevel = judokas[_id].beltLevel;\r\n        judokas[_id].beltLevel = _newBeltLevel;\r\n        emit BeltLevelUpdated(_id, oldBeltLevel, _newBeltLevel, block.timestamp);\r\n    }\r\n\r\n    function isBlackBelt(address _address) public view returns(bool) {\r\n        return judokas[judokaIds[_address]].beltLevel == BeltLevel.Black;\r\n    }\r\n\r\n    function isAuthorized(uint256 _id, address _sender) public view returns(bool) {\r\n        return _sender == judokas[_id].walletAddress || _sender == admin;\r\n    }\r\n\r\n    function isAdmin(address _sender) public view returns(bool) {\r\n        return _sender == admin;\r\n    }\r\n\r\n    function updateJudokaPoints(uint256 _id, uint256 _points) public onlyAdmin {\r\n        require(_id > 0 && _id <= judokaCount, \"Invalid Judoka ID\");\r\n        judokaPoints[_id] += _points;\r\n    }\r\n\r\n    // Functions from JudoCompetition\r\nfunction createCompetition(\r\n    string memory _name, \r\n    uint256 _date\r\n) public {\r\n    require(msg.sender == admin, \"Only admin can add competitions\");\r\n\r\n    CompetitionResult memory defaultResults = CompetitionResult({\r\n        firstPlace: address(0),\r\n        secondPlace: address(0),\r\n        thirdPlace: address(0),\r\n        fourthPlace: address(0)\r\n    });\r\n\r\n    competitionCount++;\r\n    competitions[competitionCount] = Competition({\r\n        id: competitionCount,\r\n        name: _name,\r\n        date: _date,\r\n        participants: new address[](0) ,\r\n        completed: false,\r\n        results: defaultResults\r\n    });\r\n    emit CompetitionCreated(competitionCount, _name, _date);\r\n}\r\n\r\n\r\n\r\n\r\n\r\n\r\n\r\n\r\n\r\n\r\n\r\n    function addParticipant(uint256 _competitionId, address _participant) public onlyAdmin {\r\n        require(!competitions[_competitionId].completed, \"Competition already completed\");\r\n        competitions[_competitionId].participants.push(_participant);\r\n        emit ParticipantAdded(_competitionId, _participant);\r\n    }\r\n\r\n    function recordCompetitionResult(\r\n        uint256 _competitionId, \r\n        address _firstPlace, \r\n        address _secondPlace, \r\n        address _thirdPlace, \r\n        address _fourthPlace,\r\n        uint256 _firstPlacePoints,\r\n        uint256 _secondPlacePoints,\r\n        uint256 _thirdPlacePoints,\r\n        uint256 _fourthPlacePoints\r\n    ) public onlyAdmin {\r\n        require(!competitions[_competitionId].completed, \"Competition already completed\");\r\n        require(competitions[_competitionId].participants.length > 0, \"No participants in competition\");\r\n\r\n        require(judokaIds[_firstPlace] != 0, \"First place winner not registered\");\r\n        require(judokaIds[_secondPlace] != 0, \"Second place winner not registered\");\r\n        require(judokaIds[_thirdPlace] != 0, \"Third place winner not registered\");\r\n        require(judokaIds[_fourthPlace] != 0, \"Fourth place winner not registered\");\r\n\r\n        competitions[_competitionId].completed = true;\r\n        competitions[_competitionId].results = CompetitionResult(_firstPlace, _secondPlace, _thirdPlace, _fourthPlace);\r\n\r\n        if(_firstPlacePoints > 0) {\r\n            updateJudokaPoints(judokaIds[_firstPlace], _firstPlacePoints);\r\n        }\r\n        if(_secondPlacePoints > 0) {\r\n            updateJudokaPoints(judokaIds[_secondPlace], _secondPlacePoints);\r\n        }\r\n        if(_thirdPlacePoints > 0) {\r\n            updateJudokaPoints(judokaIds[_thirdPlace], _thirdPlacePoints);\r\n        }\r\n        if(_fourthPlacePoints > 0) {\r\n            updateJudokaPoints(judokaIds[_fourthPlace], _fourthPlacePoints);\r\n        }\r\n\r\n        emit CompetitionResultRecorded(_competitionId, _firstPlace, _secondPlace, _thirdPlace, _fourthPlace);\r\n    }\r\n}",
  "sourcePath": "C:\\Users\\marti\\Documents\\projects\\judo-dapp\\contracts\\JudoSystem.sol",
  "compiler": {
    "name": "solc",
    "version": "0.8.0+commit.c7dfd78e.Emscripten.clang"
  },
  "schemaVersion": "3.4.16",
  "updatedAt": "2024-04-03T15:27:47.085Z",
  "networkType": "ethereum",
  "devdoc": {
    "kind": "dev",
    "methods": {},
    "version": 1
  },
  "userdoc": {
    "kind": "user",
    "methods": {},
    "version": 1
  }
}