{
  "contractName": "JudoBeltStorage",
  "abi": [
    {
      "inputs": [],
      "stateMutability": "nonpayable",
      "type": "constructor"
    },
    {
      "inputs": [],
      "name": "admin",
      "outputs": [
        {
          "internalType": "address",
          "name": "",
          "type": "address"
        }
      ],
      "stateMutability": "view",
      "type": "function",
      "constant": true
    },
    {
      "inputs": [
        {
          "internalType": "uint256",
          "name": "",
          "type": "uint256"
        }
      ],
      "name": "blackBelts",
      "outputs": [
        {
          "internalType": "address",
          "name": "",
          "type": "address"
        }
      ],
      "stateMutability": "view",
      "type": "function",
      "constant": true
    },
    {
      "inputs": [
        {
          "internalType": "address",
          "name": "",
          "type": "address"
        }
      ],
      "name": "judokaBelts",
      "outputs": [
        {
          "internalType": "enum JudoBeltStorage.BeltLevel",
          "name": "",
          "type": "uint8"
        }
      ],
      "stateMutability": "view",
      "type": "function",
      "constant": true
    },
    {
      "inputs": [
        {
          "internalType": "address",
          "name": "blackBeltAddress",
          "type": "address"
        }
      ],
      "name": "addBlackBelt",
      "outputs": [],
      "stateMutability": "nonpayable",
      "type": "function"
    },
    {
      "inputs": [
        {
          "internalType": "address",
          "name": "judoka",
          "type": "address"
        },
        {
          "internalType": "enum JudoBeltStorage.BeltLevel",
          "name": "belt",
          "type": "uint8"
        }
      ],
      "name": "setBeltLevel",
      "outputs": [],
      "stateMutability": "nonpayable",
      "type": "function"
    },
    {
      "inputs": [
        {
          "internalType": "address",
          "name": "judoka",
          "type": "address"
        }
      ],
      "name": "getBeltLevel",
      "outputs": [
        {
          "internalType": "enum JudoBeltStorage.BeltLevel",
          "name": "",
          "type": "uint8"
        }
      ],
      "stateMutability": "view",
      "type": "function",
      "constant": true
    },
    {
      "inputs": [
        {
          "internalType": "address",
          "name": "judoka",
          "type": "address"
        }
      ],
      "name": "isBlackBelt",
      "outputs": [
        {
          "internalType": "bool",
          "name": "",
          "type": "bool"
        }
      ],
      "stateMutability": "view",
      "type": "function",
      "constant": true
    }
  ],
  "bytecode": "0x608060405234801561001057600080fd5b5033600160006101000a81548173ffffffffffffffffffffffffffffffffffffffff021916908373ffffffffffffffffffffffffffffffffffffffff1602179055506002600160009054906101000a900473ffffffffffffffffffffffffffffffffffffffff169080600181540180825580915050600190039060005260206000200160009091909190916101000a81548173ffffffffffffffffffffffffffffffffffffffff021916908373ffffffffffffffffffffffffffffffffffffffff1602179055506109a6806100e66000396000f3fe608060405234801561001057600080fd5b506004361061007d5760003560e01c80635e6627b91161005b5780635e6627b914610112578063d53f32501461012e578063e00e27131461014a578063f851a4401461017a5761007d565b80630a0b6ce71461008257806310c1224c146100b257806346125eec146100e2575b600080fd5b61009c600480360381019061009791906105e1565b610198565b6040516100a9919061079e565b60405180910390f35b6100cc60048036038101906100c791906105e1565b6101b8565b6040516100d99190610783565b60405180910390f35b6100fc60048036038101906100f79190610646565b61028d565b6040516101099190610768565b60405180910390f35b61012c600480360381019061012791906105e1565b6102cc565b005b6101486004803603810190610143919061060a565b61044f565b005b610164600480360381019061015f91906105e1565b610527565b604051610171919061079e565b60405180910390f35b61018261057c565b60405161018f9190610768565b60405180910390f35b60006020528060005260406000206000915054906101000a900460ff1681565b600080600090505b600280549050811015610282578273ffffffffffffffffffffffffffffffffffffffff166002828154811061021e577f4e487b7100000000000000000000000000000000000000000000000000000000600052603260045260246000fd5b9060005260206000200160009054906101000a900473ffffffffffffffffffffffffffffffffffffffff1673ffffffffffffffffffffffffffffffffffffffff16141561026f576001915050610288565b808061027a90610877565b9150506101c0565b50600090505b919050565b6002818154811061029d57600080fd5b906000526020600020016000915054906101000a900473ffffffffffffffffffffffffffffffffffffffff1681565b600160009054906101000a900473ffffffffffffffffffffffffffffffffffffffff1673ffffffffffffffffffffffffffffffffffffffff163373ffffffffffffffffffffffffffffffffffffffff161461035c576040517f08c379a0000000000000000000000000000000000000000000000000000000008152600401610353906107d9565b60405180910390fd5b6002819080600181540180825580915050600190039060005260206000200160009091909190916101000a81548173ffffffffffffffffffffffffffffffffffffffff021916908373ffffffffffffffffffffffffffffffffffffffff16021790555060066000808373ffffffffffffffffffffffffffffffffffffffff1673ffffffffffffffffffffffffffffffffffffffff16815260200190815260200160002060006101000a81548160ff02191690836006811115610447577f4e487b7100000000000000000000000000000000000000000000000000000000600052602160045260246000fd5b021790555050565b610458336101b8565b610497576040517f08c379a000000000000000000000000000000000000000000000000000000000815260040161048e906107b9565b60405180910390fd5b806000808473ffffffffffffffffffffffffffffffffffffffff1673ffffffffffffffffffffffffffffffffffffffff16815260200190815260200160002060006101000a81548160ff0219169083600681111561051e577f4e487b7100000000000000000000000000000000000000000000000000000000600052602160045260246000fd5b02179055505050565b60008060008373ffffffffffffffffffffffffffffffffffffffff1673ffffffffffffffffffffffffffffffffffffffff16815260200190815260200160002060009054906101000a900460ff169050919050565b600160009054906101000a900473ffffffffffffffffffffffffffffffffffffffff1681565b6000813590506105b181610932565b92915050565b6000813590506105c681610949565b92915050565b6000813590506105db81610959565b92915050565b6000602082840312156105f357600080fd5b6000610601848285016105a2565b91505092915050565b6000806040838503121561061d57600080fd5b600061062b858286016105a2565b925050602061063c858286016105b7565b9150509250929050565b60006020828403121561065857600080fd5b6000610666848285016105cc565b91505092915050565b6106788161080a565b82525050565b6106878161081c565b82525050565b61069681610865565b82525050565b60006106a96027836107f9565b91507f4f6e6c7920626c61636b2062656c74732063616e206d6f646966792062656c7460008301527f206c6576656c73000000000000000000000000000000000000000000000000006020830152604082019050919050565b600061070f6022836107f9565b91507f4f6e6c792061646d696e2063616e20706572666f726d2074686973206163746960008301527f6f6e0000000000000000000000000000000000000000000000000000000000006020830152604082019050919050565b600060208201905061077d600083018461066f565b92915050565b6000602082019050610798600083018461067e565b92915050565b60006020820190506107b3600083018461068d565b92915050565b600060208201905081810360008301526107d28161069c565b9050919050565b600060208201905081810360008301526107f281610702565b9050919050565b600082825260208201905092915050565b60006108158261083b565b9050919050565b60008115159050919050565b60008190506108368261091e565b919050565b600073ffffffffffffffffffffffffffffffffffffffff82169050919050565b6000819050919050565b600061087082610828565b9050919050565b60006108828261085b565b91507fffffffffffffffffffffffffffffffffffffffffffffffffffffffffffffffff8214156108b5576108b46108c0565b5b600182019050919050565b7f4e487b7100000000000000000000000000000000000000000000000000000000600052601160045260246000fd5b7f4e487b7100000000000000000000000000000000000000000000000000000000600052602160045260246000fd5b6007811061092f5761092e6108ef565b5b50565b61093b8161080a565b811461094657600080fd5b50565b6007811061095657600080fd5b50565b6109628161085b565b811461096d57600080fd5b5056fea26469706673582212207da0259b2b725753d2055f03d9e34ff84fd347f3e16c1651cb9007cdde3f46b464736f6c63430008000033",
  "immutableReferences": {},
  "source": "// SPDX-License-Identifier: MIT\r\npragma solidity ^0.8.0;\r\n\r\ncontract JudoBeltStorage {\r\n    enum BeltLevel { White, Yellow, Orange, Green, Blue, Brown, Black }\r\n    mapping(address => BeltLevel) public judokaBelts;\r\n\r\n    address public admin;\r\n    address[] public blackBelts;\r\n\r\n    modifier onlyAdmin() {\r\n        require(msg.sender == admin, \"Only admin can perform this action\");\r\n        _;\r\n    }\r\n\r\n    constructor() {\r\n        admin = msg.sender;\r\n        // Initialize black belts\r\n        blackBelts.push(admin); // Admin is a black belt by default\r\n    }\r\n\r\n    function addBlackBelt(address blackBeltAddress) external onlyAdmin {\r\n        blackBelts.push(blackBeltAddress);\r\n        judokaBelts[blackBeltAddress] = BeltLevel.Black;\r\n    }\r\n\r\n    function setBeltLevel(address judoka, BeltLevel belt) public {\r\n        require(isBlackBelt(msg.sender), \"Only black belts can modify belt levels\");\r\n        judokaBelts[judoka] = belt;\r\n    }\r\n\r\n    function getBeltLevel(address judoka) external view returns (BeltLevel) {\r\n        return judokaBelts[judoka];\r\n    }\r\n\r\n    function isBlackBelt(address judoka) public view returns(bool) {\r\n        for(uint i = 0; i < blackBelts.length; i++) {\r\n            if(blackBelts[i] == judoka) {\r\n                return true;\r\n            }\r\n        }\r\n        return false;\r\n    }\r\n}\r\n",
  "sourcePath": "C:\\Users\\marti\\Documents\\projects\\judo-dapp\\contracts\\JudoBeltStorage.sol",
  "compiler": {
    "name": "solc",
    "version": "0.8.0+commit.c7dfd78e.Emscripten.clang"
  },
  "schemaVersion": "3.4.16",
  "updatedAt": "2024-01-12T10:36:48.962Z",
  "networkType": "ethereum",
  "devdoc": {
    "kind": "dev",
    "methods": {},
    "version": 1
  },
  "userdoc": {
    "kind": "user",
    "methods": {},
    "version": 1
  }
}