{
  "contractName": "JudoBeltPromotion",
  "abi": [
    {
      "inputs": [
        {
          "internalType": "address",
          "name": "storageAddress",
          "type": "address"
        }
      ],
      "stateMutability": "nonpayable",
      "type": "constructor"
    },
    {
      "inputs": [
        {
          "internalType": "address",
          "name": "judoka",
          "type": "address"
        }
      ],
      "name": "promoteJudoka",
      "outputs": [],
      "stateMutability": "nonpayable",
      "type": "function"
    }
  ],
  "bytecode": "0x608060405234801561001057600080fd5b5060405161086c38038061086c8339818101604052810190610032919061008d565b806000806101000a81548173ffffffffffffffffffffffffffffffffffffffff021916908373ffffffffffffffffffffffffffffffffffffffff160217905550506100ff565b600081519050610087816100e8565b92915050565b60006020828403121561009f57600080fd5b60006100ad84828501610078565b91505092915050565b60006100c1826100c8565b9050919050565b600073ffffffffffffffffffffffffffffffffffffffff82169050919050565b6100f1816100b6565b81146100fc57600080fd5b50565b61075e8061010e6000396000f3fe608060405234801561001057600080fd5b506004361061002b5760003560e01c8063e95cbe3014610030575b600080fd5b61004a600480360381019061004591906103e1565b61004c565b005b60008054906101000a900473ffffffffffffffffffffffffffffffffffffffff1673ffffffffffffffffffffffffffffffffffffffff166310c1224c336040518263ffffffff1660e01b81526004016100a59190610520565b60206040518083038186803b1580156100bd57600080fd5b505afa1580156100d1573d6000803e3d6000fd5b505050506040513d601f19601f820116820180604052508101906100f5919061040a565b610134576040517f08c379a000000000000000000000000000000000000000000000000000000000815260040161012b90610564565b60405180910390fd5b60008060009054906101000a900473ffffffffffffffffffffffffffffffffffffffff1673ffffffffffffffffffffffffffffffffffffffff1663e00e2713836040518263ffffffff1660e01b81526004016101909190610520565b60206040518083038186803b1580156101a857600080fd5b505afa1580156101bc573d6000803e3d6000fd5b505050506040513d601f19601f820116820180604052508101906101e09190610433565b905060068081111561021b577f4e487b7100000000000000000000000000000000000000000000000000000000600052602160045260246000fd5b816006811115610254577f4e487b7100000000000000000000000000000000000000000000000000000000600052602160045260246000fd5b1415610295576040517f08c379a000000000000000000000000000000000000000000000000000000000815260040161028c90610584565b60405180910390fd5b60008054906101000a900473ffffffffffffffffffffffffffffffffffffffff1673ffffffffffffffffffffffffffffffffffffffff1663d53f325083600184600681111561030d577f4e487b7100000000000000000000000000000000000000000000000000000000600052602160045260246000fd5b61031791906105b5565b600681111561034f577f4e487b7100000000000000000000000000000000000000000000000000000000600052602160045260246000fd5b6040518363ffffffff1660e01b815260040161036c92919061053b565b600060405180830381600087803b15801561038657600080fd5b505af115801561039a573d6000803e3d6000fd5b505050505050565b6000813590506103b1816106ea565b92915050565b6000815190506103c681610701565b92915050565b6000815190506103db81610718565b92915050565b6000602082840312156103f357600080fd5b6000610401848285016103a2565b91505092915050565b60006020828403121561041c57600080fd5b600061042a848285016103b7565b91505092915050565b60006020828403121561044557600080fd5b6000610453848285016103cc565b91505092915050565b6104658161060b565b82525050565b61047481610666565b82525050565b60006104876024836105a4565b91507f4f6e6c7920626c61636b2062656c74732063616e2070726f6d6f7465206a756460008301527f6f6b6173000000000000000000000000000000000000000000000000000000006020830152604082019050919050565b60006104ed6020836105a4565b91507f43616e6e6f742070726f6d6f7465206265796f6e6420626c61636b2062656c746000830152602082019050919050565b6000602082019050610535600083018461045c565b92915050565b6000604082019050610550600083018561045c565b61055d602083018461046b565b9392505050565b6000602082019050818103600083015261057d8161047a565b9050919050565b6000602082019050818103600083015261059d816104e0565b9050919050565b600082825260208201905092915050565b60006105c08261065c565b91506105cb8361065c565b9250827fffffffffffffffffffffffffffffffffffffffffffffffffffffffffffffffff03821115610600576105ff610678565b5b828201905092915050565b60006106168261063c565b9050919050565b60008115159050919050565b6000819050610637826106d6565b919050565b600073ffffffffffffffffffffffffffffffffffffffff82169050919050565b6000819050919050565b600061067182610629565b9050919050565b7f4e487b7100000000000000000000000000000000000000000000000000000000600052601160045260246000fd5b7f4e487b7100000000000000000000000000000000000000000000000000000000600052602160045260246000fd5b600781106106e7576106e66106a7565b5b50565b6106f38161060b565b81146106fe57600080fd5b50565b61070a8161061d565b811461071557600080fd5b50565b6007811061072557600080fd5b5056fea2646970667358221220b8494caaf97bf6ad3f22aa890b14853b9b6fc33106a68897a8460708067040de64736f6c63430008000033",
  "immutableReferences": {},
  "source": "// SPDX-License-Identifier: MIT\r\npragma solidity ^0.8.0;\r\n\r\nimport \"./JudoBeltStorage.sol\";\r\n\r\ncontract JudoBeltPromotion {\r\n    JudoBeltStorage private beltStorage;\r\n\r\n    constructor(address storageAddress) {\r\n        beltStorage = JudoBeltStorage(storageAddress);\r\n    }\r\n\r\n    function promoteJudoka(address judoka) public {\r\n        require(beltStorage.isBlackBelt(msg.sender), \"Only black belts can promote judokas\");\r\n        JudoBeltStorage.BeltLevel currentBelt = beltStorage.getBeltLevel(judoka);\r\n        require(currentBelt != JudoBeltStorage.BeltLevel.Black, \"Cannot promote beyond black belt\");\r\n        beltStorage.setBeltLevel(judoka, JudoBeltStorage.BeltLevel(uint(currentBelt) + 1));\r\n    }\r\n}\r\n",
  "sourcePath": "C:\\Users\\marti\\Documents\\projects\\judo-dapp\\contracts\\JudoBeltPromotion.sol",
  "compiler": {
    "name": "solc",
    "version": "0.8.0+commit.c7dfd78e.Emscripten.clang"
  },
  "schemaVersion": "3.4.16",
  "updatedAt": "2024-01-12T10:36:48.971Z",
  "networkType": "ethereum",
  "devdoc": {
    "kind": "dev",
    "methods": {},
    "version": 1
  },
  "userdoc": {
    "kind": "user",
    "methods": {},
    "version": 1
  }
}