{
  "contractName": "JudoBeltStorage",
  "abi": [
    {
      "inputs": [
        {
          "internalType": "address[]",
          "name": "initialBlackBelts",
          "type": "address[]"
        }
      ],
      "stateMutability": "nonpayable",
      "type": "constructor"
    },
    {
      "inputs": [],
      "name": "admin",
      "outputs": [
        {
          "internalType": "address",
          "name": "",
          "type": "address"
        }
      ],
      "stateMutability": "view",
      "type": "function",
      "constant": true
    },
    {
      "inputs": [
        {
          "internalType": "address",
          "name": "",
          "type": "address"
        }
      ],
      "name": "judokaBelts",
      "outputs": [
        {
          "internalType": "enum JudoBeltStorage.BeltLevel",
          "name": "",
          "type": "uint8"
        }
      ],
      "stateMutability": "view",
      "type": "function",
      "constant": true
    },
    {
      "inputs": [
        {
          "internalType": "address",
          "name": "judoka",
          "type": "address"
        },
        {
          "internalType": "enum JudoBeltStorage.BeltLevel",
          "name": "belt",
          "type": "uint8"
        }
      ],
      "name": "setBeltLevel",
      "outputs": [],
      "stateMutability": "nonpayable",
      "type": "function"
    },
    {
      "inputs": [
        {
          "internalType": "address",
          "name": "judoka",
          "type": "address"
        }
      ],
      "name": "getBeltLevel",
      "outputs": [
        {
          "internalType": "enum JudoBeltStorage.BeltLevel",
          "name": "",
          "type": "uint8"
        }
      ],
      "stateMutability": "view",
      "type": "function",
      "constant": true
    },
    {
      "inputs": [
        {
          "internalType": "address",
          "name": "newAdmin",
          "type": "address"
        }
      ],
      "name": "transferAdminship",
      "outputs": [],
      "stateMutability": "nonpayable",
      "type": "function"
    }
  ],
  "bytecode": "0x60806040523480156200001157600080fd5b5060405162000b4438038062000b4483398181016040528101906200003791906200022b565b33600160006101000a81548173ffffffffffffffffffffffffffffffffffffffff021916908373ffffffffffffffffffffffffffffffffffffffff16021790555060005b81518110156200016a576006600080848481518110620000c4577f4e487b7100000000000000000000000000000000000000000000000000000000600052603260045260246000fd5b602002602001015173ffffffffffffffffffffffffffffffffffffffff1673ffffffffffffffffffffffffffffffffffffffff16815260200190815260200160002060006101000a81548160ff021916908360068111156200014f577f4e487b7100000000000000000000000000000000000000000000000000000000600052602160045260246000fd5b02179055508080620001619062000311565b9150506200007b565b5050620003d7565b6000620001896200018384620002a4565b62000270565b90508083825260208201905082856020860282011115620001a957600080fd5b60005b85811015620001dd5781620001c28882620001e7565b845260208401935060208301925050600181019050620001ac565b5050509392505050565b600081519050620001f881620003bd565b92915050565b600082601f8301126200021057600080fd5b81516200022284826020860162000172565b91505092915050565b6000602082840312156200023e57600080fd5b600082015167ffffffffffffffff8111156200025957600080fd5b6200026784828501620001fe565b91505092915050565b6000604051905081810181811067ffffffffffffffff821117156200029a57620002996200038e565b5b8060405250919050565b600067ffffffffffffffff821115620002c257620002c16200038e565b5b602082029050602081019050919050565b6000620002e082620002e7565b9050919050565b600073ffffffffffffffffffffffffffffffffffffffff82169050919050565b6000819050919050565b60006200031e8262000307565b91507fffffffffffffffffffffffffffffffffffffffffffffffffffffffffffffffff8214156200035457620003536200035f565b5b600182019050919050565b7f4e487b7100000000000000000000000000000000000000000000000000000000600052601160045260246000fd5b7f4e487b7100000000000000000000000000000000000000000000000000000000600052604160045260246000fd5b620003c881620002d3565b8114620003d457600080fd5b50565b61075d80620003e76000396000f3fe608060405234801561001057600080fd5b50600436106100575760003560e01c80630a0b6ce71461005c5780635be7cc161461008c578063d53f3250146100a8578063e00e2713146100c4578063f851a440146100f4575b600080fd5b61007660048036038101906100719190610490565b610112565b60405161008391906105fa565b60405180910390f35b6100a660048036038101906100a19190610490565b610132565b005b6100c260048036038101906100bd91906104b9565b610206565b005b6100de60048036038101906100d99190610490565b6103eb565b6040516100eb91906105fa565b60405180910390f35b6100fc610440565b60405161010991906105df565b60405180910390f35b60006020528060005260406000206000915054906101000a900460ff1681565b600160009054906101000a900473ffffffffffffffffffffffffffffffffffffffff1673ffffffffffffffffffffffffffffffffffffffff163373ffffffffffffffffffffffffffffffffffffffff16146101c2576040517f08c379a00000000000000000000000000000000000000000000000000000000081526004016101b990610635565b60405180910390fd5b80600160006101000a81548173ffffffffffffffffffffffffffffffffffffffff021916908373ffffffffffffffffffffffffffffffffffffffff16021790555050565b60068081111561023f577f4e487b7100000000000000000000000000000000000000000000000000000000600052602160045260246000fd5b6000803373ffffffffffffffffffffffffffffffffffffffff1673ffffffffffffffffffffffffffffffffffffffff16815260200190815260200160002060009054906101000a900460ff1660068111156102c3577f4e487b7100000000000000000000000000000000000000000000000000000000600052602160045260246000fd5b148061031c5750600160009054906101000a900473ffffffffffffffffffffffffffffffffffffffff1673ffffffffffffffffffffffffffffffffffffffff163373ffffffffffffffffffffffffffffffffffffffff16145b61035b576040517f08c379a000000000000000000000000000000000000000000000000000000000815260040161035290610615565b60405180910390fd5b806000808473ffffffffffffffffffffffffffffffffffffffff1673ffffffffffffffffffffffffffffffffffffffff16815260200190815260200160002060006101000a81548160ff021916908360068111156103e2577f4e487b7100000000000000000000000000000000000000000000000000000000600052602160045260246000fd5b02179055505050565b60008060008373ffffffffffffffffffffffffffffffffffffffff1673ffffffffffffffffffffffffffffffffffffffff16815260200190815260200160002060009054906101000a900460ff169050919050565b600160009054906101000a900473ffffffffffffffffffffffffffffffffffffffff1681565b60008135905061047581610700565b92915050565b60008135905061048a81610717565b92915050565b6000602082840312156104a257600080fd5b60006104b084828501610466565b91505092915050565b600080604083850312156104cc57600080fd5b60006104da85828601610466565b92505060206104eb8582860161047b565b9150509250929050565b6104fe81610666565b82525050565b61050d816106ab565b82525050565b6000610520603083610655565b91507f4f6e6c7920626c61636b2062656c7473206f722061646d696e2063616e206d6f60008301527f646966792062656c74206c6576656c73000000000000000000000000000000006020830152604082019050919050565b6000610586602283610655565b91507f4f6e6c792061646d696e2063616e20706572666f726d2074686973206163746960008301527f6f6e0000000000000000000000000000000000000000000000000000000000006020830152604082019050919050565b60006020820190506105f460008301846104f5565b92915050565b600060208201905061060f6000830184610504565b92915050565b6000602082019050818103600083015261062e81610513565b9050919050565b6000602082019050818103600083015261064e81610579565b9050919050565b600082825260208201905092915050565b60006106718261068b565b9050919050565b6000819050610686826106ec565b919050565b600073ffffffffffffffffffffffffffffffffffffffff82169050919050565b60006106b682610678565b9050919050565b7f4e487b7100000000000000000000000000000000000000000000000000000000600052602160045260246000fd5b600781106106fd576106fc6106bd565b5b50565b61070981610666565b811461071457600080fd5b50565b6007811061072457600080fd5b5056fea264697066735822122060f1927268fa2be3c02910405985f84acb336ab14f5ea7b1135565c8f19d7f4c64736f6c63430008000033",
  "immutableReferences": {},
  "source": "// SPDX-License-Identifier: MIT\r\npragma solidity ^0.8.0;\r\n\r\ncontract JudoBeltStorage {\r\n    enum BeltLevel { White, Yellow, Orange, Green, Blue, Brown, Black }\r\n    mapping(address => BeltLevel) public judokaBelts;\r\n\r\n    address public admin;\r\n\r\n    modifier onlyAdmin() {\r\n        require(msg.sender == admin, \"Only admin can perform this action\");\r\n        _;\r\n    }\r\n\r\n    constructor(address[] memory initialBlackBelts) {\r\n        admin = msg.sender;\r\n        for (uint i = 0; i < initialBlackBelts.length; i++) {\r\n            judokaBelts[initialBlackBelts[i]] = BeltLevel.Black;\r\n        }\r\n    }\r\n\r\n    function setBeltLevel(address judoka, BeltLevel belt) external {\r\n        require(\r\n            judokaBelts[msg.sender] == BeltLevel.Black || msg.sender == admin, \r\n            \"Only black belts or admin can modify belt levels\"\r\n        );\r\n        judokaBelts[judoka] = belt;\r\n    }\r\n\r\n    function getBeltLevel(address judoka) external view returns (BeltLevel) {\r\n        return judokaBelts[judoka];\r\n    }\r\n\r\n    function transferAdminship(address newAdmin) external onlyAdmin {\r\n        admin = newAdmin;\r\n    }\r\n}\r\n",
  "sourcePath": "C:\\Users\\marti\\Documents\\projects\\judo-dapp\\contracts\\JudoBeltStorage.sol",
  "compiler": {
    "name": "solc",
    "version": "0.8.0+commit.c7dfd78e.Emscripten.clang"
  },
  "schemaVersion": "3.4.16",
  "updatedAt": "2024-01-08T14:21:14.058Z",
  "networkType": "ethereum",
  "devdoc": {
    "kind": "dev",
    "methods": {},
    "version": 1
  },
  "userdoc": {
    "kind": "user",
    "methods": {},
    "version": 1
  }
}