{
  "contractName": "JudoBeltPromotion",
  "abi": [
    {
      "inputs": [
        {
          "internalType": "address",
          "name": "_storageAddress",
          "type": "address"
        }
      ],
      "stateMutability": "nonpayable",
      "type": "constructor"
    },
    {
      "inputs": [
        {
          "internalType": "address",
          "name": "judoka",
          "type": "address"
        }
      ],
      "name": "promoteJudoka",
      "outputs": [],
      "stateMutability": "nonpayable",
      "type": "function"
    }
  ],
  "bytecode": "0x608060405234801561001057600080fd5b5060405161069c38038061069c8339818101604052810190610032919061008d565b806000806101000a81548173ffffffffffffffffffffffffffffffffffffffff021916908373ffffffffffffffffffffffffffffffffffffffff160217905550506100ff565b600081519050610087816100e8565b92915050565b60006020828403121561009f57600080fd5b60006100ad84828501610078565b91505092915050565b60006100c1826100c8565b9050919050565b600073ffffffffffffffffffffffffffffffffffffffff82169050919050565b6100f1816100b6565b81146100fc57600080fd5b50565b61058e8061010e6000396000f3fe608060405234801561001057600080fd5b506004361061002b5760003560e01c8063e95cbe3014610030575b600080fd5b61004a600480360381019061004591906102e3565b61004c565b005b60008060009054906101000a900473ffffffffffffffffffffffffffffffffffffffff1673ffffffffffffffffffffffffffffffffffffffff1663e00e2713836040518263ffffffff1660e01b81526004016100a89190610393565b60206040518083038186803b1580156100c057600080fd5b505afa1580156100d4573d6000803e3d6000fd5b505050506040513d601f19601f820116820180604052508101906100f8919061030c565b9050600680811115610133577f4e487b7100000000000000000000000000000000000000000000000000000000600052602160045260246000fd5b81600681111561016c577f4e487b7100000000000000000000000000000000000000000000000000000000600052602160045260246000fd5b106101ac576040517f08c379a00000000000000000000000000000000000000000000000000000000081526004016101a3906103d7565b60405180910390fd5b60008054906101000a900473ffffffffffffffffffffffffffffffffffffffff1673ffffffffffffffffffffffffffffffffffffffff1663d53f3250836001846006811115610224577f4e487b7100000000000000000000000000000000000000000000000000000000600052602160045260246000fd5b61022e9190610408565b6006811115610266577f4e487b7100000000000000000000000000000000000000000000000000000000600052602160045260246000fd5b6040518363ffffffff1660e01b81526004016102839291906103ae565b600060405180830381600087803b15801561029d57600080fd5b505af11580156102b1573d6000803e3d6000fd5b505050505050565b6000813590506102c881610531565b92915050565b6000815190506102dd81610548565b92915050565b6000602082840312156102f557600080fd5b6000610303848285016102b9565b91505092915050565b60006020828403121561031e57600080fd5b600061032c848285016102ce565b91505092915050565b61033e8161045e565b82525050565b61034d816104ad565b82525050565b60006103606020836103f7565b91507f43616e6e6f742070726f6d6f7465206265796f6e6420626c61636b2062656c746000830152602082019050919050565b60006020820190506103a86000830184610335565b92915050565b60006040820190506103c36000830185610335565b6103d06020830184610344565b9392505050565b600060208201905081810360008301526103f081610353565b9050919050565b600082825260208201905092915050565b6000610413826104a3565b915061041e836104a3565b9250827fffffffffffffffffffffffffffffffffffffffffffffffffffffffffffffffff03821115610453576104526104bf565b5b828201905092915050565b600061046982610483565b9050919050565b600081905061047e8261051d565b919050565b600073ffffffffffffffffffffffffffffffffffffffff82169050919050565b6000819050919050565b60006104b882610470565b9050919050565b7f4e487b7100000000000000000000000000000000000000000000000000000000600052601160045260246000fd5b7f4e487b7100000000000000000000000000000000000000000000000000000000600052602160045260246000fd5b6007811061052e5761052d6104ee565b5b50565b61053a8161045e565b811461054557600080fd5b50565b6007811061055557600080fd5b5056fea2646970667358221220d10a95c28783ae33985866b651e3029c12854c03d8fc21e948e03462da26e34264736f6c63430008000033",
  "immutableReferences": {},
  "source": "// SPDX-License-Identifier: MIT\r\npragma solidity ^0.8.0;\r\n\r\nimport \"./JudoBeltStorage.sol\";\r\n\r\ncontract JudoBeltPromotion {\r\n    JudoBeltStorage private storageContract;\r\n\r\n    constructor(address _storageAddress) {\r\n        storageContract = JudoBeltStorage(_storageAddress);\r\n    }\r\n\r\n    function promoteJudoka(address judoka) public {\r\n        // Ensure that only senseis can promote judokas\r\n        JudoBeltStorage.BeltLevel currentBelt = storageContract.getBeltLevel(judoka);\r\n        require(currentBelt < JudoBeltStorage.BeltLevel.Black, \"Cannot promote beyond black belt\");\r\n        storageContract.setBeltLevel(judoka, JudoBeltStorage.BeltLevel(uint(currentBelt) + 1));\r\n    }\r\n}\r\n",
  "sourcePath": "C:\\Users\\marti\\Documents\\projects\\judo-dapp\\contracts\\JudoBeltPromotion.sol",
  "compiler": {
    "name": "solc",
    "version": "0.8.0+commit.c7dfd78e.Emscripten.clang"
  },
  "schemaVersion": "3.4.16",
  "updatedAt": "2024-01-04T10:39:42.754Z",
  "networkType": "ethereum",
  "devdoc": {
    "kind": "dev",
    "methods": {},
    "version": 1
  },
  "userdoc": {
    "kind": "user",
    "methods": {},
    "version": 1
  }
}