{
  "contractName": "JudoSystem",
  "abi": [
    {
      "inputs": [],
      "stateMutability": "nonpayable",
      "type": "constructor"
    },
    {
      "anonymous": false,
      "inputs": [
        {
          "indexed": true,
          "internalType": "uint256",
          "name": "id",
          "type": "uint256"
        },
        {
          "indexed": false,
          "internalType": "enum JudoSystem.BeltLevel",
          "name": "oldBeltLevel",
          "type": "uint8"
        },
        {
          "indexed": false,
          "internalType": "enum JudoSystem.BeltLevel",
          "name": "newBeltLevel",
          "type": "uint8"
        },
        {
          "indexed": false,
          "internalType": "uint256",
          "name": "timestamp",
          "type": "uint256"
        }
      ],
      "name": "BeltLevelUpdated",
      "type": "event"
    },
    {
      "anonymous": false,
      "inputs": [
        {
          "indexed": true,
          "internalType": "uint256",
          "name": "id",
          "type": "uint256"
        },
        {
          "indexed": false,
          "internalType": "string",
          "name": "name",
          "type": "string"
        },
        {
          "indexed": false,
          "internalType": "uint256",
          "name": "date",
          "type": "uint256"
        }
      ],
      "name": "CompetitionCreated",
      "type": "event"
    },
    {
      "anonymous": false,
      "inputs": [
        {
          "indexed": true,
          "internalType": "uint256",
          "name": "competitionId",
          "type": "uint256"
        },
        {
          "indexed": false,
          "internalType": "address",
          "name": "firstPlace",
          "type": "address"
        },
        {
          "indexed": false,
          "internalType": "address",
          "name": "secondPlace",
          "type": "address"
        },
        {
          "indexed": false,
          "internalType": "address",
          "name": "thirdPlace",
          "type": "address"
        },
        {
          "indexed": false,
          "internalType": "address",
          "name": "fourthPlace",
          "type": "address"
        }
      ],
      "name": "CompetitionResultRecorded",
      "type": "event"
    },
    {
      "anonymous": false,
      "inputs": [
        {
          "indexed": true,
          "internalType": "uint256",
          "name": "id",
          "type": "uint256"
        },
        {
          "indexed": false,
          "internalType": "uint256",
          "name": "age",
          "type": "uint256"
        },
        {
          "indexed": false,
          "internalType": "uint256",
          "name": "weight",
          "type": "uint256"
        },
        {
          "indexed": false,
          "internalType": "enum JudoSystem.AgeCategory",
          "name": "ageCategory",
          "type": "uint8"
        },
        {
          "indexed": false,
          "internalType": "enum JudoSystem.WeightCategory",
          "name": "weightCategory",
          "type": "uint8"
        }
      ],
      "name": "DebugInfo",
      "type": "event"
    },
    {
      "anonymous": false,
      "inputs": [
        {
          "indexed": true,
          "internalType": "uint256",
          "name": "id",
          "type": "uint256"
        },
        {
          "indexed": false,
          "internalType": "string",
          "name": "email",
          "type": "string"
        },
        {
          "indexed": false,
          "internalType": "string",
          "name": "phoneNumber",
          "type": "string"
        }
      ],
      "name": "JudokaContactUpdated",
      "type": "event"
    },
    {
      "anonymous": false,
      "inputs": [
        {
          "indexed": true,
          "internalType": "uint256",
          "name": "id",
          "type": "uint256"
        },
        {
          "indexed": false,
          "internalType": "string",
          "name": "name",
          "type": "string"
        },
        {
          "indexed": false,
          "internalType": "address",
          "name": "walletAddress",
          "type": "address"
        },
        {
          "indexed": false,
          "internalType": "enum JudoSystem.BeltLevel",
          "name": "beltLevel",
          "type": "uint8"
        },
        {
          "indexed": false,
          "internalType": "uint256",
          "name": "dateOfBirth",
          "type": "uint256"
        },
        {
          "indexed": false,
          "internalType": "enum JudoSystem.Gender",
          "name": "gender",
          "type": "uint8"
        },
        {
          "indexed": false,
          "internalType": "string",
          "name": "email",
          "type": "string"
        },
        {
          "indexed": false,
          "internalType": "string",
          "name": "phoneNumber",
          "type": "string"
        },
        {
          "indexed": false,
          "internalType": "uint256",
          "name": "age",
          "type": "uint256"
        },
        {
          "indexed": false,
          "internalType": "uint256",
          "name": "weight",
          "type": "uint256"
        },
        {
          "indexed": false,
          "internalType": "string",
          "name": "club",
          "type": "string"
        },
        {
          "indexed": false,
          "internalType": "enum JudoSystem.AgeCategory",
          "name": "ageCategory",
          "type": "uint8"
        },
        {
          "indexed": false,
          "internalType": "enum JudoSystem.WeightCategory",
          "name": "weightCategory",
          "type": "uint8"
        },
        {
          "indexed": false,
          "internalType": "uint256",
          "name": "timestamp",
          "type": "uint256"
        }
      ],
      "name": "JudokaRegistered",
      "type": "event"
    },
    {
      "anonymous": false,
      "inputs": [
        {
          "indexed": true,
          "internalType": "uint256",
          "name": "competitionId",
          "type": "uint256"
        },
        {
          "indexed": false,
          "internalType": "address",
          "name": "participant",
          "type": "address"
        }
      ],
      "name": "ParticipantAdded",
      "type": "event"
    },
    {
      "inputs": [],
      "name": "admin",
      "outputs": [
        {
          "internalType": "address",
          "name": "",
          "type": "address"
        }
      ],
      "stateMutability": "view",
      "type": "function",
      "constant": true
    },
    {
      "inputs": [
        {
          "internalType": "address",
          "name": "",
          "type": "address"
        }
      ],
      "name": "blackBeltAdmins",
      "outputs": [
        {
          "internalType": "bool",
          "name": "",
          "type": "bool"
        }
      ],
      "stateMutability": "view",
      "type": "function",
      "constant": true
    },
    {
      "inputs": [],
      "name": "competitionCount",
      "outputs": [
        {
          "internalType": "uint256",
          "name": "",
          "type": "uint256"
        }
      ],
      "stateMutability": "view",
      "type": "function",
      "constant": true
    },
    {
      "inputs": [
        {
          "internalType": "uint256",
          "name": "",
          "type": "uint256"
        }
      ],
      "name": "competitions",
      "outputs": [
        {
          "internalType": "uint256",
          "name": "id",
          "type": "uint256"
        },
        {
          "internalType": "string",
          "name": "name",
          "type": "string"
        },
        {
          "components": [
            {
              "internalType": "uint8",
              "name": "day",
              "type": "uint8"
            },
            {
              "internalType": "uint8",
              "name": "month",
              "type": "uint8"
            },
            {
              "internalType": "uint16",
              "name": "year",
              "type": "uint16"
            }
          ],
          "internalType": "struct JudoSystem.Date",
          "name": "date",
          "type": "tuple"
        },
        {
          "internalType": "bool",
          "name": "completed",
          "type": "bool"
        },
        {
          "components": [
            {
              "internalType": "address",
              "name": "firstPlace",
              "type": "address"
            },
            {
              "internalType": "address",
              "name": "secondPlace",
              "type": "address"
            },
            {
              "internalType": "address",
              "name": "thirdPlace",
              "type": "address"
            },
            {
              "internalType": "address",
              "name": "fourthPlace",
              "type": "address"
            }
          ],
          "internalType": "struct JudoSystem.CompetitionResult",
          "name": "results",
          "type": "tuple"
        }
      ],
      "stateMutability": "view",
      "type": "function",
      "constant": true
    },
    {
      "inputs": [],
      "name": "judokaCount",
      "outputs": [
        {
          "internalType": "uint256",
          "name": "",
          "type": "uint256"
        }
      ],
      "stateMutability": "view",
      "type": "function",
      "constant": true
    },
    {
      "inputs": [
        {
          "internalType": "address",
          "name": "",
          "type": "address"
        }
      ],
      "name": "judokaIds",
      "outputs": [
        {
          "internalType": "uint256",
          "name": "",
          "type": "uint256"
        }
      ],
      "stateMutability": "view",
      "type": "function",
      "constant": true
    },
    {
      "inputs": [
        {
          "internalType": "uint256",
          "name": "",
          "type": "uint256"
        }
      ],
      "name": "judokaPoints",
      "outputs": [
        {
          "internalType": "uint256",
          "name": "",
          "type": "uint256"
        }
      ],
      "stateMutability": "view",
      "type": "function",
      "constant": true
    },
    {
      "inputs": [
        {
          "internalType": "uint256",
          "name": "",
          "type": "uint256"
        }
      ],
      "name": "judokasBasic",
      "outputs": [
        {
          "internalType": "uint256",
          "name": "id",
          "type": "uint256"
        },
        {
          "internalType": "string",
          "name": "name",
          "type": "string"
        },
        {
          "internalType": "address",
          "name": "walletAddress",
          "type": "address"
        },
        {
          "internalType": "enum JudoSystem.BeltLevel",
          "name": "beltLevel",
          "type": "uint8"
        },
        {
          "components": [
            {
              "internalType": "uint8",
              "name": "day",
              "type": "uint8"
            },
            {
              "internalType": "uint8",
              "name": "month",
              "type": "uint8"
            },
            {
              "internalType": "uint16",
              "name": "year",
              "type": "uint16"
            }
          ],
          "internalType": "struct JudoSystem.Date",
          "name": "birthDate",
          "type": "tuple"
        },
        {
          "internalType": "enum JudoSystem.Gender",
          "name": "gender",
          "type": "uint8"
        }
      ],
      "stateMutability": "view",
      "type": "function",
      "constant": true
    },
    {
      "inputs": [
        {
          "internalType": "uint256",
          "name": "",
          "type": "uint256"
        }
      ],
      "name": "judokasContact",
      "outputs": [
        {
          "internalType": "string",
          "name": "email",
          "type": "string"
        },
        {
          "internalType": "string",
          "name": "phoneNumber",
          "type": "string"
        }
      ],
      "stateMutability": "view",
      "type": "function",
      "constant": true
    },
    {
      "inputs": [
        {
          "internalType": "uint256",
          "name": "",
          "type": "uint256"
        }
      ],
      "name": "judokasPhysical",
      "outputs": [
        {
          "internalType": "uint256",
          "name": "age",
          "type": "uint256"
        },
        {
          "internalType": "uint256",
          "name": "weight",
          "type": "uint256"
        },
        {
          "internalType": "string",
          "name": "club",
          "type": "string"
        },
        {
          "internalType": "enum JudoSystem.AgeCategory",
          "name": "ageCategory",
          "type": "uint8"
        },
        {
          "internalType": "enum JudoSystem.WeightCategory",
          "name": "weightCategory",
          "type": "uint8"
        }
      ],
      "stateMutability": "view",
      "type": "function",
      "constant": true
    },
    {
      "inputs": [
        {
          "internalType": "address",
          "name": "_address",
          "type": "address"
        }
      ],
      "name": "isAdmin",
      "outputs": [
        {
          "internalType": "bool",
          "name": "",
          "type": "bool"
        }
      ],
      "stateMutability": "view",
      "type": "function",
      "constant": true
    },
    {
      "inputs": [
        {
          "internalType": "uint16",
          "name": "_birthYear",
          "type": "uint16"
        }
      ],
      "name": "packDateForJudoka",
      "outputs": [
        {
          "internalType": "uint32",
          "name": "",
          "type": "uint32"
        }
      ],
      "stateMutability": "pure",
      "type": "function",
      "constant": true
    },
    {
      "inputs": [
        {
          "internalType": "uint8",
          "name": "_month",
          "type": "uint8"
        },
        {
          "internalType": "uint8",
          "name": "_day",
          "type": "uint8"
        }
      ],
      "name": "packDateForCompetition",
      "outputs": [
        {
          "internalType": "uint16",
          "name": "",
          "type": "uint16"
        }
      ],
      "stateMutability": "pure",
      "type": "function",
      "constant": true
    },
    {
      "inputs": [
        {
          "internalType": "uint256",
          "name": "_age",
          "type": "uint256"
        }
      ],
      "name": "getAgeCategory",
      "outputs": [
        {
          "internalType": "enum JudoSystem.AgeCategory",
          "name": "",
          "type": "uint8"
        }
      ],
      "stateMutability": "pure",
      "type": "function",
      "constant": true
    },
    {
      "inputs": [
        {
          "internalType": "uint256",
          "name": "_weight",
          "type": "uint256"
        }
      ],
      "name": "getWeightCategory",
      "outputs": [
        {
          "internalType": "enum JudoSystem.WeightCategory",
          "name": "",
          "type": "uint8"
        }
      ],
      "stateMutability": "pure",
      "type": "function",
      "constant": true
    },
    {
      "inputs": [
        {
          "internalType": "uint256",
          "name": "_age",
          "type": "uint256"
        }
      ],
      "name": "getAgeCategoryByAge",
      "outputs": [
        {
          "internalType": "enum JudoSystem.AgeCategory",
          "name": "",
          "type": "uint8"
        }
      ],
      "stateMutability": "view",
      "type": "function",
      "constant": true
    },
    {
      "inputs": [
        {
          "internalType": "uint256",
          "name": "_weight",
          "type": "uint256"
        }
      ],
      "name": "getWeightCategoryByWeight",
      "outputs": [
        {
          "internalType": "enum JudoSystem.WeightCategory",
          "name": "",
          "type": "uint8"
        }
      ],
      "stateMutability": "view",
      "type": "function",
      "constant": true
    },
    {
      "inputs": [
        {
          "components": [
            {
              "internalType": "uint8",
              "name": "day",
              "type": "uint8"
            },
            {
              "internalType": "uint8",
              "name": "month",
              "type": "uint8"
            },
            {
              "internalType": "uint16",
              "name": "year",
              "type": "uint16"
            }
          ],
          "internalType": "struct JudoSystem.Date",
          "name": "_birthDate",
          "type": "tuple"
        }
      ],
      "name": "calculateAge",
      "outputs": [
        {
          "internalType": "uint256",
          "name": "",
          "type": "uint256"
        }
      ],
      "stateMutability": "view",
      "type": "function",
      "constant": true
    },
    {
      "inputs": [
        {
          "internalType": "uint32",
          "name": "_packedDate",
          "type": "uint32"
        }
      ],
      "name": "unpackDate",
      "outputs": [
        {
          "internalType": "uint16",
          "name": "year",
          "type": "uint16"
        },
        {
          "internalType": "uint8",
          "name": "month",
          "type": "uint8"
        },
        {
          "internalType": "uint8",
          "name": "day",
          "type": "uint8"
        }
      ],
      "stateMutability": "pure",
      "type": "function",
      "constant": true
    },
    {
      "inputs": [
        {
          "internalType": "string",
          "name": "_name",
          "type": "string"
        },
        {
          "internalType": "address",
          "name": "_walletAddress",
          "type": "address"
        },
        {
          "components": [
            {
              "internalType": "uint8",
              "name": "day",
              "type": "uint8"
            },
            {
              "internalType": "uint8",
              "name": "month",
              "type": "uint8"
            },
            {
              "internalType": "uint16",
              "name": "year",
              "type": "uint16"
            }
          ],
          "internalType": "struct JudoSystem.Date",
          "name": "_birthDate",
          "type": "tuple"
        },
        {
          "internalType": "enum JudoSystem.Gender",
          "name": "_gender",
          "type": "uint8"
        },
        {
          "internalType": "uint256",
          "name": "_weight",
          "type": "uint256"
        },
        {
          "internalType": "string",
          "name": "_club",
          "type": "string"
        }
      ],
      "name": "registerJudoka",
      "outputs": [],
      "stateMutability": "nonpayable",
      "type": "function"
    },
    {
      "inputs": [
        {
          "internalType": "uint256",
          "name": "_id",
          "type": "uint256"
        }
      ],
      "name": "getJudokaDOB",
      "outputs": [
        {
          "internalType": "uint16",
          "name": "year",
          "type": "uint16"
        },
        {
          "internalType": "uint8",
          "name": "month",
          "type": "uint8"
        },
        {
          "internalType": "uint8",
          "name": "day",
          "type": "uint8"
        }
      ],
      "stateMutability": "view",
      "type": "function",
      "constant": true
    },
    {
      "inputs": [
        {
          "internalType": "uint256",
          "name": "_id",
          "type": "uint256"
        },
        {
          "internalType": "string",
          "name": "_email",
          "type": "string"
        },
        {
          "internalType": "string",
          "name": "_phoneNumber",
          "type": "string"
        }
      ],
      "name": "updateJudokaContactDetails",
      "outputs": [],
      "stateMutability": "nonpayable",
      "type": "function"
    },
    {
      "inputs": [
        {
          "internalType": "uint256",
          "name": "_id",
          "type": "uint256"
        }
      ],
      "name": "getJudokaInfo",
      "outputs": [
        {
          "components": [
            {
              "components": [
                {
                  "internalType": "uint256",
                  "name": "id",
                  "type": "uint256"
                },
                {
                  "internalType": "string",
                  "name": "name",
                  "type": "string"
                },
                {
                  "internalType": "address",
                  "name": "walletAddress",
                  "type": "address"
                },
                {
                  "internalType": "enum JudoSystem.BeltLevel",
                  "name": "beltLevel",
                  "type": "uint8"
                },
                {
                  "components": [
                    {
                      "internalType": "uint8",
                      "name": "day",
                      "type": "uint8"
                    },
                    {
                      "internalType": "uint8",
                      "name": "month",
                      "type": "uint8"
                    },
                    {
                      "internalType": "uint16",
                      "name": "year",
                      "type": "uint16"
                    }
                  ],
                  "internalType": "struct JudoSystem.Date",
                  "name": "birthDate",
                  "type": "tuple"
                },
                {
                  "internalType": "enum JudoSystem.Gender",
                  "name": "gender",
                  "type": "uint8"
                }
              ],
              "internalType": "struct JudoSystem.JudokaBasic",
              "name": "basic",
              "type": "tuple"
            },
            {
              "components": [
                {
                  "internalType": "string",
                  "name": "email",
                  "type": "string"
                },
                {
                  "internalType": "string",
                  "name": "phoneNumber",
                  "type": "string"
                }
              ],
              "internalType": "struct JudoSystem.JudokaContact",
              "name": "contact",
              "type": "tuple"
            },
            {
              "components": [
                {
                  "internalType": "uint256",
                  "name": "age",
                  "type": "uint256"
                },
                {
                  "internalType": "uint256",
                  "name": "weight",
                  "type": "uint256"
                },
                {
                  "internalType": "string",
                  "name": "club",
                  "type": "string"
                },
                {
                  "internalType": "enum JudoSystem.AgeCategory",
                  "name": "ageCategory",
                  "type": "uint8"
                },
                {
                  "internalType": "enum JudoSystem.WeightCategory",
                  "name": "weightCategory",
                  "type": "uint8"
                }
              ],
              "internalType": "struct JudoSystem.JudokaPhysical",
              "name": "physical",
              "type": "tuple"
            }
          ],
          "internalType": "struct JudoSystem.FullJudokaInfo",
          "name": "",
          "type": "tuple"
        }
      ],
      "stateMutability": "view",
      "type": "function",
      "constant": true
    },
    {
      "inputs": [
        {
          "internalType": "uint256",
          "name": "_id",
          "type": "uint256"
        }
      ],
      "name": "getBeltLevel",
      "outputs": [
        {
          "internalType": "enum JudoSystem.BeltLevel",
          "name": "",
          "type": "uint8"
        }
      ],
      "stateMutability": "view",
      "type": "function",
      "constant": true
    },
    {
      "inputs": [
        {
          "internalType": "uint256",
          "name": "_id",
          "type": "uint256"
        },
        {
          "internalType": "enum JudoSystem.BeltLevel",
          "name": "_newBeltLevel",
          "type": "uint8"
        }
      ],
      "name": "promoteJudoka",
      "outputs": [],
      "stateMutability": "nonpayable",
      "type": "function"
    },
    {
      "inputs": [
        {
          "internalType": "address",
          "name": "_address",
          "type": "address"
        }
      ],
      "name": "isBlackBelt",
      "outputs": [
        {
          "internalType": "bool",
          "name": "",
          "type": "bool"
        }
      ],
      "stateMutability": "view",
      "type": "function",
      "constant": true
    },
    {
      "inputs": [
        {
          "internalType": "uint256",
          "name": "_id",
          "type": "uint256"
        },
        {
          "internalType": "address",
          "name": "_sender",
          "type": "address"
        }
      ],
      "name": "isAuthorized",
      "outputs": [
        {
          "internalType": "bool",
          "name": "",
          "type": "bool"
        }
      ],
      "stateMutability": "view",
      "type": "function",
      "constant": true
    },
    {
      "inputs": [
        {
          "internalType": "uint256",
          "name": "_id",
          "type": "uint256"
        },
        {
          "internalType": "uint256",
          "name": "_points",
          "type": "uint256"
        }
      ],
      "name": "updateJudokaPoints",
      "outputs": [],
      "stateMutability": "nonpayable",
      "type": "function"
    },
    {
      "inputs": [
        {
          "internalType": "string",
          "name": "_name",
          "type": "string"
        },
        {
          "internalType": "uint8",
          "name": "_day",
          "type": "uint8"
        },
        {
          "internalType": "uint8",
          "name": "_month",
          "type": "uint8"
        },
        {
          "internalType": "uint16",
          "name": "_year",
          "type": "uint16"
        }
      ],
      "name": "createCompetition",
      "outputs": [],
      "stateMutability": "nonpayable",
      "type": "function"
    },
    {
      "inputs": [
        {
          "internalType": "uint256",
          "name": "_competitionId",
          "type": "uint256"
        },
        {
          "internalType": "address",
          "name": "_participant",
          "type": "address"
        }
      ],
      "name": "addParticipant",
      "outputs": [],
      "stateMutability": "nonpayable",
      "type": "function"
    },
    {
      "inputs": [
        {
          "internalType": "uint256",
          "name": "_competitionId",
          "type": "uint256"
        },
        {
          "internalType": "address",
          "name": "_firstPlace",
          "type": "address"
        },
        {
          "internalType": "address",
          "name": "_secondPlace",
          "type": "address"
        },
        {
          "internalType": "address",
          "name": "_thirdPlace",
          "type": "address"
        },
        {
          "internalType": "address",
          "name": "_fourthPlace",
          "type": "address"
        },
        {
          "internalType": "uint256",
          "name": "_firstPlacePoints",
          "type": "uint256"
        },
        {
          "internalType": "uint256",
          "name": "_secondPlacePoints",
          "type": "uint256"
        },
        {
          "internalType": "uint256",
          "name": "_thirdPlacePoints",
          "type": "uint256"
        },
        {
          "internalType": "uint256",
          "name": "_fourthPlacePoints",
          "type": "uint256"
        }
      ],
      "name": "recordCompetitionResult",
      "outputs": [],
      "stateMutability": "nonpayable",
      "type": "function"
    }
  ],
  "bytecode": "0x608060405234801561001057600080fd5b5033600960006101000a81548173ffffffffffffffffffffffffffffffffffffffff021916908373ffffffffffffffffffffffffffffffffffffffff1602179055506001600560003373ffffffffffffffffffffffffffffffffffffffff1673ffffffffffffffffffffffffffffffffffffffff16815260200190815260200160002060006101000a81548160ff021916908315150217905550614d56806100b96000396000f3fe608060405234801561001057600080fd5b50600436106101e55760003560e01c8063609c6d7f1161010f578063cab96b70116100a2578063e7651d1f11610071578063e7651d1f1461065b578063e9f86f1e1461068c578063f215bb08146106bc578063f851a440146106ec576101e5565b8063cab96b70146105a9578063ccf28e86146105c7578063d7984a29146105f7578063d8c1eb541461062b576101e5565b806397a3e66a116100de57806397a3e66a146104f25780639daa52fd146105275780639f6828d914610557578063a16817701461058b576101e5565b8063609c6d7f1461045a5780636794a7ec1461048a5780636af8bf75146104a65780638d44d9d9146104c2576101e5565b80631ef31992116101875780633ab9f6d8116101565780633ab9f6d81461039657806345504a83146103c657806345f88af7146103f657806358fa084014610428576101e5565b80631ef31992146102fe57806322b9dd901461032e57806324d7806c1461034a57806338897f9a1461037a576101e5565b806316ac952a116101c357806316ac952a1461027a57806318d85e53146102965780631b3ea351146102b25780631b8558dd146102e2576101e5565b80630745aa36146101ea578063080d36341461021a57806310c1224c1461024a575b600080fd5b61020460048036038101906101ff91906136b7565b61070a565b6040516102119190614288565b60405180910390f35b610234600480360381019061022f919061368e565b61071c565b6040516102419190614758565b60405180910390f35b610264600480360381019061025f9190613507565b61072a565b6040516102719190614200565b60405180910390f35b610294600480360381019061028f9190613530565b610808565b005b6102b060048036038101906102ab91906136e0565b610e42565b005b6102cc60048036038101906102c79190613665565b610fa1565b6040516102d9919061461f565b60405180910390f35b6102fc60048036038101906102f7919061389d565b610fe9565b005b610318600480360381019061031391906136b7565b6110b0565b6040516103259190614236565b60405180910390f35b610348600480360381019061034391906137e2565b61112d565b005b610364600480360381019061035f9190613507565b61146f565b6040516103719190614200565b60405180910390f35b610394600480360381019061038f919061371c565b61151d565b005b6103b060048036038101906103ab9190613507565b611ba3565b6040516103bd919061461f565b60405180910390f35b6103e060048036038101906103db91906136b7565b611bbb565b6040516103ed91906145ab565b60405180910390f35b610410600480360381019061040b91906136b7565b6121d3565b60405161041f939291906145e8565b60405180910390f35b610442600480360381019061043d91906138d9565b612236565b604051610451939291906145e8565b60405180910390f35b610474600480360381019061046f91906136e0565b612265565b6040516104819190614200565b60405180910390f35b6104a4600480360381019061049f91906135ea565b61232c565b005b6104c060048036038101906104bb919061381e565b612763565b005b6104dc60048036038101906104d791906136b7565b61290c565b6040516104e9919061421b565b60405180910390f35b61050c600480360381019061050791906136b7565b61291e565b60405161051e9695949392919061463a565b60405180910390f35b610541600480360381019061053c9190613902565b612a80565b60405161054e91906145cd565b60405180910390f35b610571600480360381019061056c91906136b7565b612a9b565b6040516105829594939291906146a3565b60405180910390f35b610593612d2c565b6040516105a0919061461f565b60405180910390f35b6105b1612d32565b6040516105be919061461f565b60405180910390f35b6105e160048036038101906105dc9190613507565b612d38565b6040516105ee9190614200565b60405180910390f35b610611600480360381019061060c91906136b7565b612d58565b6040516106229594939291906146fe565b60405180910390f35b610645600480360381019061064091906136b7565b612e30565b6040516106529190614288565b60405180910390f35b610675600480360381019061067091906136b7565b612ea8565b604051610683929190614384565b60405180910390f35b6106a660048036038101906106a191906136b7565b612fdc565b6040516106b3919061461f565b60405180910390f35b6106d660048036038101906106d191906136b7565b612ff4565b6040516106e3919061421b565b60405180910390f35b6106f4613080565b60405161070191906141a0565b60405180910390f35b600061071582612e30565b9050919050565b60008161ffff169050919050565b6000600680811115610765577f4e487b7100000000000000000000000000000000000000000000000000000000600052602160045260246000fd5b60066000600260008673ffffffffffffffffffffffffffffffffffffffff1673ffffffffffffffffffffffffffffffffffffffff16815260200190815260200160002054815260200190815260200160002060020160149054906101000a900460ff166006811115610800577f4e487b7100000000000000000000000000000000000000000000000000000000600052602160045260246000fd5b149050919050565b600073ffffffffffffffffffffffffffffffffffffffff168573ffffffffffffffffffffffffffffffffffffffff161415610878576040517f08c379a000000000000000000000000000000000000000000000000000000000815260040161086f9061450b565b60405180910390fd5b6000600260008773ffffffffffffffffffffffffffffffffffffffff1673ffffffffffffffffffffffffffffffffffffffff16815260200190815260200160002054146108fa576040517f08c379a00000000000000000000000000000000000000000000000000000000081526004016108f1906144eb565b60405180910390fd5b600061090585610fa1565b9050600061091282612ff4565b9050600061091f85612e30565b905060008081548092919061093390614af8565b91905055506040518060c0016040528060005481526020018a81526020018973ffffffffffffffffffffffffffffffffffffffff168152602001600060068111156109a7577f4e487b7100000000000000000000000000000000000000000000000000000000600052602160045260246000fd5b81526020018881526020018760018111156109eb577f4e487b7100000000000000000000000000000000000000000000000000000000600052602160045260246000fd5b8152506006600080548152602001908152602001600020600082015181600001556020820151816001019080519060200190610a289291906130a6565b5060408201518160020160006101000a81548173ffffffffffffffffffffffffffffffffffffffff021916908373ffffffffffffffffffffffffffffffffffffffff16021790555060608201518160020160146101000a81548160ff02191690836006811115610ac1577f4e487b7100000000000000000000000000000000000000000000000000000000600052602160045260246000fd5b021790555060808201518160030160008201518160000160006101000a81548160ff021916908360ff16021790555060208201518160000160016101000a81548160ff021916908360ff16021790555060408201518160000160026101000a81548161ffff021916908361ffff160217905550505060a08201518160040160006101000a81548160ff02191690836001811115610b87577f4e487b7100000000000000000000000000000000000000000000000000000000600052602160045260246000fd5b021790555090505060405180604001604052806040518060200160405280600081525081526020016040518060200160405280600081525081525060076000805481526020019081526020016000206000820151816000019080519060200190610bf29291906130a6565b506020820151816001019080519060200190610c0f9291906130a6565b509050506040518060a00160405280848152602001868152602001858152602001836004811115610c69577f4e487b7100000000000000000000000000000000000000000000000000000000600052602160045260246000fd5b8152602001826006811115610ca7577f4e487b7100000000000000000000000000000000000000000000000000000000600052602160045260246000fd5b815250600860008054815260200190815260200160002060008201518160000155602082015181600101556040820151816002019080519060200190610cee9291906130a6565b5060608201518160030160006101000a81548160ff02191690836004811115610d40577f4e487b7100000000000000000000000000000000000000000000000000000000600052602160045260246000fd5b021790555060808201518160030160016101000a81548160ff02191690836006811115610d96577f4e487b7100000000000000000000000000000000000000000000000000000000600052602160045260246000fd5b0217905550905050600054600260008a73ffffffffffffffffffffffffffffffffffffffff1673ffffffffffffffffffffffffffffffffffffffff168152602001908152602001600020819055506000547f91b08635671aac60e9f3dda55c450b1170d8c93ab4e68fc5737cc03948f7d4598a8a60008b604001518b898c8c8b8b42604051610e2f9b9a999897969594939291906142a3565b60405180910390a2505050505050505050565b610e4b3361146f565b610e8a576040517f08c379a0000000000000000000000000000000000000000000000000000000008152600401610e81906144cb565b60405180910390fd5b6004600083815260200190815260200160002060040160009054906101000a900460ff1615610eee576040517f08c379a0000000000000000000000000000000000000000000000000000000008152600401610ee59061456b565b60405180910390fd5b60046000838152602001908152602001600020600301819080600181540180825580915050600190039060005260206000200160009091909190916101000a81548173ffffffffffffffffffffffffffffffffffffffff021916908373ffffffffffffffffffffffffffffffffffffffff160217905550817f12246ba2398106df92bc0281a1eece14e5b8516c5c3dab76205391650e39fddb82604051610f9591906141a0565b60405180910390a25050565b6000806301e1338042610fb4919061488f565b9050826040015161ffff168111610fcc576000610fe1565b826040015161ffff1681610fe09190614937565b5b915050919050565b610ff23361146f565b611031576040517f08c379a0000000000000000000000000000000000000000000000000000000008152600401611028906144cb565b60405180910390fd5b60008211801561104357506000548211155b611082576040517f08c379a00000000000000000000000000000000000000000000000000000000081526004016110799061440b565b60405180910390fd5b806003600084815260200190815260200160002060008282546110a59190614839565b925050819055505050565b600080821180156110c357506000548211155b611102576040517f08c379a00000000000000000000000000000000000000000000000000000000081526004016110f99061454b565b60405180910390fd5b6006600083815260200190815260200160002060020160149054906101000a900460ff169050919050565b6111363361146f565b611175576040517f08c379a000000000000000000000000000000000000000000000000000000000815260040161116c906144cb565b60405180910390fd5b60008211801561118757506000548211155b6111c6576040517f08c379a00000000000000000000000000000000000000000000000000000000081526004016111bd9061454b565b60405180910390fd5b6006600083815260200190815260200160002060020160149054906101000a900460ff166006811115611222577f4e487b7100000000000000000000000000000000000000000000000000000000600052602160045260246000fd5b81600681111561125b577f4e487b7100000000000000000000000000000000000000000000000000000000600052602160045260246000fd5b1161129b576040517f08c379a00000000000000000000000000000000000000000000000000000000081526004016112929061442b565b60405180910390fd5b60006006600084815260200190815260200160002060020160149054906101000a900460ff169050816006600085815260200190815260200160002060020160146101000a81548160ff02191690836006811115611322577f4e487b7100000000000000000000000000000000000000000000000000000000600052602160045260246000fd5b0217905550600680811115611360577f4e487b7100000000000000000000000000000000000000000000000000000000600052602160045260246000fd5b826006811115611399577f4e487b7100000000000000000000000000000000000000000000000000000000600052602160045260246000fd5b141561142e576001600560006006600087815260200190815260200160002060020160009054906101000a900473ffffffffffffffffffffffffffffffffffffffff1673ffffffffffffffffffffffffffffffffffffffff1673ffffffffffffffffffffffffffffffffffffffff16815260200190815260200160002060006101000a81548160ff0219169083151502179055505b827f01ae96fe1baf9d2d284e6a11b7ab2a76e1c8b047b807650660b4370d50462f2382844260405161146293929190614251565b60405180910390a2505050565b6000600960009054906101000a900473ffffffffffffffffffffffffffffffffffffffff1673ffffffffffffffffffffffffffffffffffffffff168273ffffffffffffffffffffffffffffffffffffffff1614806115165750600560008373ffffffffffffffffffffffffffffffffffffffff1673ffffffffffffffffffffffffffffffffffffffff16815260200190815260200160002060009054906101000a900460ff165b9050919050565b6115263361146f565b611565576040517f08c379a000000000000000000000000000000000000000000000000000000000815260040161155c906144cb565b60405180910390fd5b600460008a815260200190815260200160002060040160009054906101000a900460ff16156115c9576040517f08c379a00000000000000000000000000000000000000000000000000000000081526004016115c09061456b565b60405180910390fd5b6000600460008b81526020019081526020016000206003018054905011611625576040517f08c379a000000000000000000000000000000000000000000000000000000000815260040161161c9061446b565b60405180910390fd5b6000600260008a73ffffffffffffffffffffffffffffffffffffffff1673ffffffffffffffffffffffffffffffffffffffff1681526020019081526020016000205414156116a8576040517f08c379a000000000000000000000000000000000000000000000000000000000815260040161169f9061452b565b60405180910390fd5b6000600260008973ffffffffffffffffffffffffffffffffffffffff1673ffffffffffffffffffffffffffffffffffffffff16815260200190815260200160002054141561172b576040517f08c379a0000000000000000000000000000000000000000000000000000000008152600401611722906144ab565b60405180910390fd5b6000600260008873ffffffffffffffffffffffffffffffffffffffff1673ffffffffffffffffffffffffffffffffffffffff1681526020019081526020016000205414156117ae576040517f08c379a00000000000000000000000000000000000000000000000000000000081526004016117a5906143eb565b60405180910390fd5b6000600260008773ffffffffffffffffffffffffffffffffffffffff1673ffffffffffffffffffffffffffffffffffffffff168152602001908152602001600020541415611831576040517f08c379a00000000000000000000000000000000000000000000000000000000081526004016118289061444b565b60405180910390fd5b6001600460008b815260200190815260200160002060040160006101000a81548160ff02191690831515021790555060405180608001604052808973ffffffffffffffffffffffffffffffffffffffff1681526020018873ffffffffffffffffffffffffffffffffffffffff1681526020018773ffffffffffffffffffffffffffffffffffffffff1681526020018673ffffffffffffffffffffffffffffffffffffffff16815250600460008b815260200190815260200160002060050160008201518160000160006101000a81548173ffffffffffffffffffffffffffffffffffffffff021916908373ffffffffffffffffffffffffffffffffffffffff16021790555060208201518160010160006101000a81548173ffffffffffffffffffffffffffffffffffffffff021916908373ffffffffffffffffffffffffffffffffffffffff16021790555060408201518160020160006101000a81548173ffffffffffffffffffffffffffffffffffffffff021916908373ffffffffffffffffffffffffffffffffffffffff16021790555060608201518160030160006101000a81548173ffffffffffffffffffffffffffffffffffffffff021916908373ffffffffffffffffffffffffffffffffffffffff1602179055509050506000841115611a6157611a60600260008a73ffffffffffffffffffffffffffffffffffffffff1673ffffffffffffffffffffffffffffffffffffffff1681526020019081526020016000205485610fe9565b5b6000831115611ab457611ab3600260008973ffffffffffffffffffffffffffffffffffffffff1673ffffffffffffffffffffffffffffffffffffffff1681526020019081526020016000205484610fe9565b5b6000821115611b0757611b06600260008873ffffffffffffffffffffffffffffffffffffffff1673ffffffffffffffffffffffffffffffffffffffff1681526020019081526020016000205483610fe9565b5b6000811115611b5a57611b59600260008773ffffffffffffffffffffffffffffffffffffffff1673ffffffffffffffffffffffffffffffffffffffff1681526020019081526020016000205482610fe9565b5b887f19974ab114e4d06de9fa6a18e214db804b1d2a9b1acb21496207e2deafbbb9dc89898989604051611b9094939291906141bb565b60405180910390a2505050505050505050565b60026020528060005260406000206000915090505481565b611bc361312c565b600082118015611bd557506000548211155b611c14576040517f08c379a0000000000000000000000000000000000000000000000000000000008152600401611c0b9061454b565b60405180910390fd5b6040518060600160405280600660008581526020019081526020016000206040518060c001604052908160008201548152602001600182018054611c5790614ac6565b80601f0160208091040260200160405190810160405280929190818152602001828054611c8390614ac6565b8015611cd05780601f10611ca557610100808354040283529160200191611cd0565b820191906000526020600020905b815481529060010190602001808311611cb357829003601f168201915b505050505081526020016002820160009054906101000a900473ffffffffffffffffffffffffffffffffffffffff1673ffffffffffffffffffffffffffffffffffffffff1673ffffffffffffffffffffffffffffffffffffffff1681526020016002820160149054906101000a900460ff166006811115611d7a577f4e487b7100000000000000000000000000000000000000000000000000000000600052602160045260246000fd5b6006811115611db2577f4e487b7100000000000000000000000000000000000000000000000000000000600052602160045260246000fd5b8152602001600382016040518060600160405290816000820160009054906101000a900460ff1660ff1660ff1681526020016000820160019054906101000a900460ff1660ff1660ff1681526020016000820160029054906101000a900461ffff1661ffff1661ffff168152505081526020016004820160009054906101000a900460ff166001811115611e6f577f4e487b7100000000000000000000000000000000000000000000000000000000600052602160045260246000fd5b6001811115611ea7577f4e487b7100000000000000000000000000000000000000000000000000000000600052602160045260246000fd5b81525050815260200160076000858152602001908152602001600020604051806040016040529081600082018054611ede90614ac6565b80601f0160208091040260200160405190810160405280929190818152602001828054611f0a90614ac6565b8015611f575780601f10611f2c57610100808354040283529160200191611f57565b820191906000526020600020905b815481529060010190602001808311611f3a57829003601f168201915b50505050508152602001600182018054611f7090614ac6565b80601f0160208091040260200160405190810160405280929190818152602001828054611f9c90614ac6565b8015611fe95780601f10611fbe57610100808354040283529160200191611fe9565b820191906000526020600020905b815481529060010190602001808311611fcc57829003601f168201915b5050505050815250508152602001600860008581526020019081526020016000206040518060a0016040529081600082015481526020016001820154815260200160028201805461203990614ac6565b80601f016020809104026020016040519081016040528092919081815260200182805461206590614ac6565b80156120b25780601f10612087576101008083540402835291602001916120b2565b820191906000526020600020905b81548152906001019060200180831161209557829003601f168201915b505050505081526020016003820160009054906101000a900460ff166004811115612106577f4e487b7100000000000000000000000000000000000000000000000000000000600052602160045260246000fd5b600481111561213e577f4e487b7100000000000000000000000000000000000000000000000000000000600052602160045260246000fd5b81526020016003820160019054906101000a900460ff16600681111561218d577f4e487b7100000000000000000000000000000000000000000000000000000000600052602160045260246000fd5b60068111156121c5577f4e487b7100000000000000000000000000000000000000000000000000000000600052602160045260246000fd5b815250508152509050919050565b6000806000806006600086815260200190815260200160002060030190508060000160029054906101000a900461ffff1693508060000160019054906101000a900460ff1692508060000160009054906101000a900460ff169150509193909250565b600080600060108463ffffffff16901c925060ff60088563ffffffff16901c16915060ff841690509193909250565b60006006600084815260200190815260200160002060020160009054906101000a900473ffffffffffffffffffffffffffffffffffffffff1673ffffffffffffffffffffffffffffffffffffffff168273ffffffffffffffffffffffffffffffffffffffff1614806123245750600960009054906101000a900473ffffffffffffffffffffffffffffffffffffffff1673ffffffffffffffffffffffffffffffffffffffff168273ffffffffffffffffffffffffffffffffffffffff16145b905092915050565b6123353361146f565b612374576040517f08c379a000000000000000000000000000000000000000000000000000000000815260040161236b906144cb565b60405180910390fd5b600060405180606001604052808560ff1681526020018460ff1681526020018361ffff16815250905060006040518060800160405280600073ffffffffffffffffffffffffffffffffffffffff168152602001600073ffffffffffffffffffffffffffffffffffffffff168152602001600073ffffffffffffffffffffffffffffffffffffffff168152602001600073ffffffffffffffffffffffffffffffffffffffff1681525090506001600081548092919061243190614af8565b91905055506040518060c001604052806001548152602001878152602001838152602001600067ffffffffffffffff811115612496577f4e487b7100000000000000000000000000000000000000000000000000000000600052604160045260246000fd5b6040519080825280602002602001820160405280156124c45781602001602082028036833780820191505090505b508152602001600015158152602001828152506004600060015481526020019081526020016000206000820151816000015560208201518160010190805190602001906125129291906130a6565b5060408201518160020160008201518160000160006101000a81548160ff021916908360ff16021790555060208201518160000160016101000a81548160ff021916908360ff16021790555060408201518160000160026101000a81548161ffff021916908361ffff1602179055505050606082015181600301908051906020019061259f92919061315f565b5060808201518160040160006101000a81548160ff02191690831515021790555060a08201518160050160008201518160000160006101000a81548173ffffffffffffffffffffffffffffffffffffffff021916908373ffffffffffffffffffffffffffffffffffffffff16021790555060208201518160010160006101000a81548173ffffffffffffffffffffffffffffffffffffffff021916908373ffffffffffffffffffffffffffffffffffffffff16021790555060408201518160020160006101000a81548173ffffffffffffffffffffffffffffffffffffffff021916908373ffffffffffffffffffffffffffffffffffffffff16021790555060608201518160030160006101000a81548173ffffffffffffffffffffffffffffffffffffffff021916908373ffffffffffffffffffffffffffffffffffffffff16021790555050509050506001547f527887ed6033dc7f6637d06840290a881f67a7f6b0b297598a5a88195bba4f6d878760ff1660648861272091906148fc565b60ff166127108861273191906148c0565b61273b9190614801565b6127459190614801565b6040516127539291906143bb565b60405180910390a2505050505050565b60008311801561277557506000548311155b6127b4576040517f08c379a00000000000000000000000000000000000000000000000000000000081526004016127ab9061448b565b60405180910390fd5b6006600084815260200190815260200160002060020160009054906101000a900473ffffffffffffffffffffffffffffffffffffffff1673ffffffffffffffffffffffffffffffffffffffff163373ffffffffffffffffffffffffffffffffffffffff16148061282957506128283361146f565b5b612868576040517f08c379a000000000000000000000000000000000000000000000000000000000815260040161285f9061458b565b60405180910390fd5b6040518060400160405280838152602001828152506007600085815260200190815260200160002060008201518160000190805190602001906128ac9291906130a6565b5060208201518160010190805190602001906128c99291906130a6565b50905050827f3a2df04b3034672d2c2b1dad7a1a514a04aa7bca1f226958091c379b472dadbf83836040516128ff929190614384565b60405180910390a2505050565b600061291782612ff4565b9050919050565b600660205280600052604060002060009150905080600001549080600101805461294790614ac6565b80601f016020809104026020016040519081016040528092919081815260200182805461297390614ac6565b80156129c05780601f10612995576101008083540402835291602001916129c0565b820191906000526020600020905b8154815290600101906020018083116129a357829003601f168201915b5050505050908060020160009054906101000a900473ffffffffffffffffffffffffffffffffffffffff16908060020160149054906101000a900460ff1690806003016040518060600160405290816000820160009054906101000a900460ff1660ff1660ff1681526020016000820160019054906101000a900460ff1660ff1660ff1681526020016000820160029054906101000a900461ffff1661ffff1661ffff1681525050908060040160009054906101000a900460ff16905086565b60008160ff1660088460ff1661ffff16901b17905092915050565b6004602052806000526040600020600091509050806000015490806001018054612ac490614ac6565b80601f0160208091040260200160405190810160405280929190818152602001828054612af090614ac6565b8015612b3d5780601f10612b1257610100808354040283529160200191612b3d565b820191906000526020600020905b815481529060010190602001808311612b2057829003601f168201915b505050505090806002016040518060600160405290816000820160009054906101000a900460ff1660ff1660ff1681526020016000820160019054906101000a900460ff1660ff1660ff1681526020016000820160029054906101000a900461ffff1661ffff1661ffff1681525050908060040160009054906101000a900460ff1690806005016040518060800160405290816000820160009054906101000a900473ffffffffffffffffffffffffffffffffffffffff1673ffffffffffffffffffffffffffffffffffffffff1673ffffffffffffffffffffffffffffffffffffffff1681526020016001820160009054906101000a900473ffffffffffffffffffffffffffffffffffffffff1673ffffffffffffffffffffffffffffffffffffffff1673ffffffffffffffffffffffffffffffffffffffff1681526020016002820160009054906101000a900473ffffffffffffffffffffffffffffffffffffffff1673ffffffffffffffffffffffffffffffffffffffff1673ffffffffffffffffffffffffffffffffffffffff1681526020016003820160009054906101000a900473ffffffffffffffffffffffffffffffffffffffff1673ffffffffffffffffffffffffffffffffffffffff1673ffffffffffffffffffffffffffffffffffffffff1681525050905085565b60015481565b60005481565b60056020528060005260406000206000915054906101000a900460ff1681565b6008602052806000526040600020600091509050806000015490806001015490806002018054612d8790614ac6565b80601f0160208091040260200160405190810160405280929190818152602001828054612db390614ac6565b8015612e005780601f10612dd557610100808354040283529160200191612e00565b820191906000526020600020905b815481529060010190602001808311612de357829003601f168201915b5050505050908060030160009054906101000a900460ff16908060030160019054906101000a900460ff16905085565b6000603c821015612e445760009050612ea3565b6042821015612e565760019050612ea3565b6049821015612e685760029050612ea3565b6051821015612e7a5760039050612ea3565b605a821015612e8c5760049050612ea3565b6064821015612e9e5760059050612ea3565b600690505b919050565b6007602052806000526040600020600091509050806000018054612ecb90614ac6565b80601f0160208091040260200160405190810160405280929190818152602001828054612ef790614ac6565b8015612f445780601f10612f1957610100808354040283529160200191612f44565b820191906000526020600020905b815481529060010190602001808311612f2757829003601f168201915b505050505090806001018054612f5990614ac6565b80601f0160208091040260200160405190810160405280929190818152602001828054612f8590614ac6565b8015612fd25780601f10612fa757610100808354040283529160200191612fd2565b820191906000526020600020905b815481529060010190602001808311612fb557829003601f168201915b5050505050905082565b60036020528060005260406000206000915090505481565b6000600d82101580156130085750600e8211155b15613016576000905061307b565b600f8210158015613028575060118211155b15613036576001905061307b565b60128210158015613048575060148211155b15613056576002905061307b565b601582101580156130685750601e8211155b15613076576003905061307b565b600490505b919050565b600960009054906101000a900473ffffffffffffffffffffffffffffffffffffffff1681565b8280546130b290614ac6565b90600052602060002090601f0160209004810192826130d4576000855561311b565b82601f106130ed57805160ff191683800117855561311b565b8280016001018555821561311b579182015b8281111561311a5782518255916020019190600101906130ff565b5b50905061312891906131e9565b5090565b604051806060016040528061313f613206565b815260200161314c6132c8565b81526020016131596132e2565b81525090565b8280548282559060005260206000209081019282156131d8579160200282015b828111156131d75782518260006101000a81548173ffffffffffffffffffffffffffffffffffffffff021916908373ffffffffffffffffffffffffffffffffffffffff1602179055509160200191906001019061317f565b5b5090506131e591906131e9565b5090565b5b808211156132025760008160009055506001016131ea565b5090565b6040518060c001604052806000815260200160608152602001600073ffffffffffffffffffffffffffffffffffffffff16815260200160006006811115613276577f4e487b7100000000000000000000000000000000000000000000000000000000600052602160045260246000fd5b8152602001613283613381565b8152602001600060018111156132c2577f4e487b7100000000000000000000000000000000000000000000000000000000600052602160045260246000fd5b81525090565b604051806040016040528060608152602001606081525090565b6040518060a001604052806000815260200160008152602001606081526020016000600481111561333c577f4e487b7100000000000000000000000000000000000000000000000000000000600052602160045260246000fd5b81526020016000600681111561337b577f4e487b7100000000000000000000000000000000000000000000000000000000600052602160045260246000fd5b81525090565b6040518060600160405280600060ff168152602001600060ff168152602001600061ffff1681525090565b60006133bf6133ba846147a4565b614773565b9050828152602081018484840111156133d757600080fd5b6133e2848285614a84565b509392505050565b6000813590506133f981614c8d565b92915050565b60008135905061340e81614ca4565b92915050565b60008135905061342381614cb4565b92915050565b600082601f83011261343a57600080fd5b813561344a8482602086016133ac565b91505092915050565b60006060828403121561346557600080fd5b61346f6060614773565b9050600061347f848285016134f2565b6000830152506020613493848285016134f2565b60208301525060406134a7848285016134b3565b60408301525092915050565b6000813590506134c281614cc4565b92915050565b6000813590506134d781614cdb565b92915050565b6000813590506134ec81614cf2565b92915050565b60008135905061350181614d09565b92915050565b60006020828403121561351957600080fd5b6000613527848285016133ea565b91505092915050565b600080600080600080610100878903121561354a57600080fd5b600087013567ffffffffffffffff81111561356457600080fd5b61357089828a01613429565b965050602061358189828a016133ea565b955050604061359289828a01613453565b94505060a06135a389828a01613414565b93505060c06135b489828a016134c8565b92505060e087013567ffffffffffffffff8111156135d157600080fd5b6135dd89828a01613429565b9150509295509295509295565b6000806000806080858703121561360057600080fd5b600085013567ffffffffffffffff81111561361a57600080fd5b61362687828801613429565b9450506020613637878288016134f2565b9350506040613648878288016134f2565b9250506060613659878288016134b3565b91505092959194509250565b60006060828403121561367757600080fd5b600061368584828501613453565b91505092915050565b6000602082840312156136a057600080fd5b60006136ae848285016134b3565b91505092915050565b6000602082840312156136c957600080fd5b60006136d7848285016134c8565b91505092915050565b600080604083850312156136f357600080fd5b6000613701858286016134c8565b9250506020613712858286016133ea565b9150509250929050565b60008060008060008060008060006101208a8c03121561373b57600080fd5b60006137498c828d016134c8565b995050602061375a8c828d016133ea565b985050604061376b8c828d016133ea565b975050606061377c8c828d016133ea565b965050608061378d8c828d016133ea565b95505060a061379e8c828d016134c8565b94505060c06137af8c828d016134c8565b93505060e06137c08c828d016134c8565b9250506101006137d28c828d016134c8565b9150509295985092959850929598565b600080604083850312156137f557600080fd5b6000613803858286016134c8565b9250506020613814858286016133ff565b9150509250929050565b60008060006060848603121561383357600080fd5b6000613841868287016134c8565b935050602084013567ffffffffffffffff81111561385e57600080fd5b61386a86828701613429565b925050604084013567ffffffffffffffff81111561388757600080fd5b61389386828701613429565b9150509250925092565b600080604083850312156138b057600080fd5b60006138be858286016134c8565b92505060206138cf858286016134c8565b9150509250929050565b6000602082840312156138eb57600080fd5b60006138f9848285016134dd565b91505092915050565b6000806040838503121561391557600080fd5b6000613923858286016134f2565b9250506020613934858286016134f2565b9150509250929050565b6139478161496b565b82525050565b6139568161496b565b82525050565b6139658161497d565b82525050565b61397481614a2a565b82525050565b61398381614a2a565b82525050565b61399281614a3c565b82525050565b6139a181614a3c565b82525050565b6139b081614a4e565b82525050565b6139bf81614a4e565b82525050565b6139ce81614a60565b82525050565b6139dd81614a60565b82525050565b60006139ee826147d4565b6139f881856147df565b9350613a08818560208601614a93565b613a1181614c2c565b840191505092915050565b6000613a27826147d4565b613a3181856147f0565b9350613a41818560208601614a93565b613a4a81614c2c565b840191505092915050565b6000613a626021836147f0565b91507f546869726420706c6163652077696e6e6572206e6f742072656769737465726560008301527f64000000000000000000000000000000000000000000000000000000000000006020830152604082019050919050565b6000613ac86011836147f0565b91507f496e76616c6964204a75646f6b612049440000000000000000000000000000006000830152602082019050919050565b6000613b086018836147f0565b91507f4e6577206c6576656c206d7573742062652068696768657200000000000000006000830152602082019050919050565b6000613b486022836147f0565b91507f466f7572746820706c6163652077696e6e6572206e6f7420726567697374657260008301527f65640000000000000000000000000000000000000000000000000000000000006020830152604082019050919050565b6000613bae601e836147f0565b91507f4e6f207061727469636970616e747320696e20636f6d7065746974696f6e00006000830152602082019050919050565b6000613bee6015836147f0565b91507f4a75646f6b6120646f6573206e6f7420657869737400000000000000000000006000830152602082019050919050565b6000613c2e6022836147f0565b91507f5365636f6e6420706c6163652077696e6e6572206e6f7420726567697374657260008301527f65640000000000000000000000000000000000000000000000000000000000006020830152604082019050919050565b6000613c946022836147f0565b91507f4f6e6c792061646d696e2063616e20706572666f726d2074686973206163746960008301527f6f6e0000000000000000000000000000000000000000000000000000000000006020830152604082019050919050565b6000613cfa6019836147f0565b91507f4a75646f6b6120616c72656164792072656769737465726564000000000000006000830152602082019050919050565b6000613d3a6000836147f0565b9150600082019050919050565b6000613d546016836147f0565b91507f496e76616c69642077616c6c65742061646472657373000000000000000000006000830152602082019050919050565b6000613d946021836147f0565b91507f466972737420706c6163652077696e6e6572206e6f742072656769737465726560008301527f64000000000000000000000000000000000000000000000000000000000000006020830152604082019050919050565b6000613dfa6016836147f0565b91507f4a75646f6b6120646f6573206e6f742065786973742e000000000000000000006000830152602082019050919050565b6000613e3a601d836147f0565b91507f436f6d7065746974696f6e20616c726561647920636f6d706c657465640000006000830152602082019050919050565b6000613e7a600e836147f0565b91507f4e6f7420617574686f72697a65640000000000000000000000000000000000006000830152602082019050919050565b608082016000820151613ec3600085018261393e565b506020820151613ed6602085018261393e565b506040820151613ee9604085018261393e565b506060820151613efc606085018261393e565b50505050565b606082016000820151613f186000850182614182565b506020820151613f2b6020850182614182565b506040820151613f3e6040850182614128565b50505050565b606082016000820151613f5a6000850182614182565b506020820151613f6d6020850182614182565b506040820151613f806040850182614128565b50505050565b60006060830160008301518482036000860152613fa38282613fe4565b91505060208301518482036020860152613fbd828261406e565b91505060408301518482036040860152613fd782826140b2565b9150508091505092915050565b600061010083016000830151613ffd6000860182614155565b506020830151848203602086015261401582826139e3565b915050604083015161402a604086018261393e565b50606083015161403d6060860182613989565b5060808301516140506080860182613f02565b5060a083015161406360e08601826139a7565b508091505092915050565b6000604083016000830151848203600086015261408b82826139e3565b915050602083015184820360208601526140a582826139e3565b9150508091505092915050565b600060a0830160008301516140ca6000860182614155565b5060208301516140dd6020860182614155565b50604083015184820360408601526140f582826139e3565b915050606083015161410a606086018261396b565b50608083015161411d60808601826139c5565b508091505092915050565b614131816149d5565b82525050565b614140816149d5565b82525050565b61414f81614a72565b82525050565b61415e81614a03565b82525050565b61416d81614a03565b82525050565b61417c81614a0d565b82525050565b61418b81614a1d565b82525050565b61419a81614a1d565b82525050565b60006020820190506141b5600083018461394d565b92915050565b60006080820190506141d0600083018761394d565b6141dd602083018661394d565b6141ea604083018561394d565b6141f7606083018461394d565b95945050505050565b6000602082019050614215600083018461395c565b92915050565b6000602082019050614230600083018461397a565b92915050565b600060208201905061424b6000830184613998565b92915050565b60006060820190506142666000830186613998565b6142736020830185613998565b6142806040830184614164565b949350505050565b600060208201905061429d60008301846139d4565b92915050565b60006101a08201905081810360008301526142be818e613a1c565b90506142cd602083018d61394d565b6142da604083018c613998565b6142e7606083018b614146565b6142f4608083018a6139b6565b81810360a083015261430581613d2d565b905081810360c083015261431881613d2d565b905061432760e0830189614164565b614335610100830188614164565b8181036101208301526143488187613a1c565b905061435861014083018661397a565b6143666101608301856139d4565b614374610180830184614164565b9c9b505050505050505050505050565b6000604082019050818103600083015261439e8185613a1c565b905081810360208301526143b28184613a1c565b90509392505050565b600060408201905081810360008301526143d58185613a1c565b90506143e46020830184614146565b9392505050565b6000602082019050818103600083015261440481613a55565b9050919050565b6000602082019050818103600083015261442481613abb565b9050919050565b6000602082019050818103600083015261444481613afb565b9050919050565b6000602082019050818103600083015261446481613b3b565b9050919050565b6000602082019050818103600083015261448481613ba1565b9050919050565b600060208201905081810360008301526144a481613be1565b9050919050565b600060208201905081810360008301526144c481613c21565b9050919050565b600060208201905081810360008301526144e481613c87565b9050919050565b6000602082019050818103600083015261450481613ced565b9050919050565b6000602082019050818103600083015261452481613d47565b9050919050565b6000602082019050818103600083015261454481613d87565b9050919050565b6000602082019050818103600083015261456481613ded565b9050919050565b6000602082019050818103600083015261458481613e2d565b9050919050565b600060208201905081810360008301526145a481613e6d565b9050919050565b600060208201905081810360008301526145c58184613f86565b905092915050565b60006020820190506145e26000830184614137565b92915050565b60006060820190506145fd6000830186614137565b61460a6020830185614191565b6146176040830184614191565b949350505050565b60006020820190506146346000830184614164565b92915050565b6000610100820190506146506000830189614164565b81810360208301526146628188613a1c565b9050614671604083018761394d565b61467e6060830186613998565b61468b6080830185613f44565b61469860e08301846139b6565b979650505050505050565b6000610140820190506146b96000830188614164565b81810360208301526146cb8187613a1c565b90506146da6040830186613f44565b6146e760a083018561395c565b6146f460c0830184613ead565b9695505050505050565b600060a0820190506147136000830188614164565b6147206020830187614164565b81810360408301526147328186613a1c565b9050614741606083018561397a565b61474e60808301846139d4565b9695505050505050565b600060208201905061476d6000830184614173565b92915050565b6000604051905081810181811067ffffffffffffffff8211171561479a57614799614bfd565b5b8060405250919050565b600067ffffffffffffffff8211156147bf576147be614bfd565b5b601f19601f8301169050602081019050919050565b600081519050919050565b600082825260208201905092915050565b600082825260208201905092915050565b600061480c826149d5565b9150614817836149d5565b92508261ffff0382111561482e5761482d614b41565b5b828201905092915050565b600061484482614a03565b915061484f83614a03565b9250827fffffffffffffffffffffffffffffffffffffffffffffffffffffffffffffffff0382111561488457614883614b41565b5b828201905092915050565b600061489a82614a03565b91506148a583614a03565b9250826148b5576148b4614b70565b5b828204905092915050565b60006148cb826149d5565b91506148d6836149d5565b92508161ffff04831182151516156148f1576148f0614b41565b5b828202905092915050565b600061490782614a1d565b915061491283614a1d565b92508160ff048311821515161561492c5761492b614b41565b5b828202905092915050565b600061494282614a03565b915061494d83614a03565b9250828210156149605761495f614b41565b5b828203905092915050565b6000614976826149e3565b9050919050565b60008115159050919050565b600081905061499782614c3d565b919050565b60008190506149aa82614c51565b919050565b60008190506149bd82614c65565b919050565b60008190506149d082614c79565b919050565b600061ffff82169050919050565b600073ffffffffffffffffffffffffffffffffffffffff82169050919050565b6000819050919050565b600063ffffffff82169050919050565b600060ff82169050919050565b6000614a3582614989565b9050919050565b6000614a478261499c565b9050919050565b6000614a59826149af565b9050919050565b6000614a6b826149c2565b9050919050565b6000614a7d826149d5565b9050919050565b82818337600083830152505050565b60005b83811015614ab1578082015181840152602081019050614a96565b83811115614ac0576000848401525b50505050565b60006002820490506001821680614ade57607f821691505b60208210811415614af257614af1614bce565b5b50919050565b6000614b0382614a03565b91507fffffffffffffffffffffffffffffffffffffffffffffffffffffffffffffffff821415614b3657614b35614b41565b5b600182019050919050565b7f4e487b7100000000000000000000000000000000000000000000000000000000600052601160045260246000fd5b7f4e487b7100000000000000000000000000000000000000000000000000000000600052601260045260246000fd5b7f4e487b7100000000000000000000000000000000000000000000000000000000600052602160045260246000fd5b7f4e487b7100000000000000000000000000000000000000000000000000000000600052602260045260246000fd5b7f4e487b7100000000000000000000000000000000000000000000000000000000600052604160045260246000fd5b6000601f19601f8301169050919050565b60058110614c4e57614c4d614b9f565b5b50565b60078110614c6257614c61614b9f565b5b50565b60028110614c7657614c75614b9f565b5b50565b60078110614c8a57614c89614b9f565b5b50565b614c968161496b565b8114614ca157600080fd5b50565b60078110614cb157600080fd5b50565b60028110614cc157600080fd5b50565b614ccd816149d5565b8114614cd857600080fd5b50565b614ce481614a03565b8114614cef57600080fd5b50565b614cfb81614a0d565b8114614d0657600080fd5b50565b614d1281614a1d565b8114614d1d57600080fd5b5056fea2646970667358221220e9219e3a73b077a7d988563bac4bba6e0278fbe7aef91ef2f9a743e2498a8edf64736f6c63430008000033",
  "immutableReferences": {},
  "source": "// SPDX-License-Identifier: MIT\r\npragma solidity ^0.8.0;\r\n\r\ncontract JudoSystem {\r\n    enum BeltLevel { White, Yellow, Orange, Green, Blue, Brown, Black }\r\n    enum Gender { Male, Female }\r\n    enum AgeCategory { Juveniles, Cadets, Juniors, Seniors, Veterans }\r\n    enum WeightCategory { Under60, Under66, Under73, Under81, Under90, Under100, Over100 }\r\n\r\n    struct JudokaBasic {\r\n        uint256 id;\r\n        string name;\r\n        address walletAddress;\r\n        BeltLevel beltLevel;\r\n        Date birthDate;\r\n        Gender gender;\r\n    }\r\n\r\n    struct Date {\r\n        uint8 day;\r\n        uint8 month;\r\n        uint16 year;\r\n    }\r\n\r\n    struct JudokaContact {\r\n        string email;\r\n        string phoneNumber;\r\n    }\r\n\r\n    struct JudokaPhysical {\r\n        uint256 age;\r\n        uint256 weight;\r\n        string club;\r\n        AgeCategory ageCategory;\r\n        WeightCategory weightCategory;\r\n    }\r\n\r\n    struct FullJudokaInfo {\r\n        JudokaBasic basic;\r\n        JudokaContact contact;\r\n        JudokaPhysical physical;\r\n    }\r\n\r\n    struct CompetitionResult {\r\n        address firstPlace;\r\n        address secondPlace;\r\n        address thirdPlace;\r\n        address fourthPlace;\r\n    }\r\n\r\n    struct Competition {\r\n        uint256 id;\r\n        string name;\r\n        Date date;\r\n        address[] participants;\r\n        bool completed;\r\n        CompetitionResult results;\r\n    }\r\n\r\n    struct BeltLevelChange {\r\n        BeltLevel oldBeltLevel;\r\n        BeltLevel newBeltLevel;\r\n        uint256 timestamp;\r\n    }\r\n\r\n    uint256 public judokaCount;\r\n    uint256 public competitionCount;\r\n    mapping(address => uint256) public judokaIds;\r\n    mapping(uint256 => uint256) public judokaPoints;\r\n    mapping(uint256 => Competition) public competitions;\r\n    mapping(address => bool) public blackBeltAdmins;\r\n    mapping(uint256 => JudokaBasic) public judokasBasic;\r\n    mapping(uint256 => JudokaContact) public judokasContact;\r\n    mapping(uint256 => JudokaPhysical) public judokasPhysical;\r\n\r\n    address public admin;\r\n\r\n    event JudokaRegistered(uint256 indexed id, string name, address walletAddress, BeltLevel beltLevel, uint256 dateOfBirth, Gender gender, string email, string phoneNumber, uint256 age, uint256 weight, string club, AgeCategory ageCategory, WeightCategory weightCategory, uint256 timestamp);\r\n    event BeltLevelUpdated(uint256 indexed id, BeltLevel oldBeltLevel, BeltLevel newBeltLevel, uint256 timestamp);\r\n    event CompetitionCreated(uint256 indexed id, string name, uint256 date);\r\n    event ParticipantAdded(uint256 indexed competitionId, address participant);\r\n    event CompetitionResultRecorded(uint256 indexed competitionId, address firstPlace, address secondPlace, address thirdPlace, address fourthPlace);\r\n    event JudokaContactUpdated(uint256 indexed id, string email, string phoneNumber);\r\n    event DebugInfo(uint256 indexed id, uint256 age, uint256 weight, AgeCategory ageCategory, WeightCategory weightCategory);\r\n\r\n    \r\n    constructor() {\r\n        admin = msg.sender;\r\n        blackBeltAdmins[msg.sender] = true;\r\n    }\r\n\r\n    modifier onlyAdmin() {\r\n        require(isAdmin(msg.sender), \"Only admin can perform this action\");\r\n        _;\r\n    }\r\n\r\n    function isAdmin(address _address) public view returns (bool) {\r\n    return _address == admin || blackBeltAdmins[_address];\r\n    }\r\n\r\n    // Utility functions for date packing and unpacking\r\n    function packDateForJudoka(uint16 _birthYear) public pure returns (uint32) {\r\n        // Since only year is relevant for judokas, we simplify this function\r\n        return uint32(_birthYear);\r\n    }\r\n\r\n    function packDateForCompetition(uint8 _month, uint8 _day) public pure returns (uint16) {\r\n        // Correct packing for competition dates\r\n        return (uint16(_month) << 8) | uint16(_day);\r\n    }\r\n\r\n    function getAgeCategory(uint256 _age) public pure returns (AgeCategory) {\r\n        if (_age >= 13 && _age <= 14) {\r\n            return AgeCategory.Juveniles;\r\n        } else if (_age >= 15 && _age <= 17) {\r\n            return AgeCategory.Cadets;\r\n        } else if (_age >= 18 && _age <= 20) {\r\n            return AgeCategory.Juniors;\r\n        } else if (_age >= 21 && _age <= 30) {\r\n            return AgeCategory.Seniors;\r\n        } else {\r\n            return AgeCategory.Veterans;\r\n        }\r\n    }\r\n\r\n    function getWeightCategory(uint256 _weight) public pure returns (WeightCategory) {\r\n        if (_weight < 60) {\r\n            return WeightCategory.Under60;\r\n        } else if (_weight < 66) {\r\n            return WeightCategory.Under66;\r\n        } else if (_weight < 73) {\r\n            return WeightCategory.Under73;\r\n        } else if (_weight < 81) {\r\n            return WeightCategory.Under81;\r\n        } else if (_weight < 90) {\r\n            return WeightCategory.Under90;\r\n        } else if (_weight < 100) {\r\n            return WeightCategory.Under100;\r\n        } else {\r\n            return WeightCategory.Over100;\r\n        }\r\n    }\r\n\r\n    // Example getter functions in your Solidity contract\r\n\r\n    function getAgeCategoryByAge(uint256 _age) public view returns (AgeCategory) {\r\n        return getAgeCategory(_age);\r\n    }\r\n\r\n    function getWeightCategoryByWeight(uint256 _weight) public view returns (WeightCategory) {\r\n        return getWeightCategory(_weight);\r\n    }\r\n\r\n\r\n    function calculateAge(Date memory _birthDate) public view returns (uint256) {\r\n        uint256 currentYear = block.timestamp / 365 days; // Get current year from timestamp\r\n        return currentYear > _birthDate.year ? currentYear - _birthDate.year : 0;\r\n    }\r\n\r\n    // Function to unpack date from uint32 format\r\n    function unpackDate(uint32 _packedDate) public pure returns (uint16 year, uint8 month, uint8 day) {\r\n        year = uint16(_packedDate >> 16);\r\n        month = uint8(_packedDate >> 8 & 0xFF);\r\n        day = uint8(_packedDate & 0xFF);\r\n    }\r\n\r\n\r\n// Correct usage in registerJudoka (and similar adjustment in other relevant functions)\r\nfunction registerJudoka(\r\n        string memory _name, \r\n        address _walletAddress, \r\n        Date memory _birthDate,\r\n        Gender _gender,\r\n        uint256 _weight,\r\n        string memory _club\r\n    ) public {\r\n        require(_walletAddress != address(0), \"Invalid wallet address\");\r\n        require(judokaIds[_walletAddress] == 0, \"Judoka already registered\");\r\n\r\n        uint256 age = calculateAge(_birthDate);\r\n\r\n        AgeCategory ageCategory = getAgeCategory(age);\r\n        WeightCategory weightCategory = getWeightCategory(_weight);\r\n\r\n        judokaCount++;\r\n        judokasBasic[judokaCount] = JudokaBasic({\r\n            id: judokaCount,\r\n            name: _name,\r\n            walletAddress: _walletAddress,\r\n            beltLevel: BeltLevel.White,\r\n            birthDate: _birthDate,\r\n            gender: _gender\r\n        });\r\n\r\n        judokasContact[judokaCount] = JudokaContact({\r\n            email: '',\r\n            phoneNumber: ''\r\n        });\r\n\r\n        judokasPhysical[judokaCount] = JudokaPhysical({\r\n            age: age,\r\n            weight: _weight,\r\n            club: _club,\r\n            ageCategory: ageCategory,\r\n            weightCategory: weightCategory\r\n        });\r\n\r\n        judokaIds[_walletAddress] = judokaCount;\r\n\r\n        emit JudokaRegistered(\r\n            judokaCount, _name, _walletAddress, BeltLevel.White, _birthDate.year, _gender, '', '', age, _weight, _club, ageCategory, weightCategory, block.timestamp\r\n        );\r\n    }\r\n\r\n\r\nfunction getJudokaDOB(uint256 _id) public view returns (uint16 year, uint8 month, uint8 day) {\r\n    Date storage birthDate = judokasBasic[_id].birthDate;\r\n    year = birthDate.year;\r\n    month = birthDate.month;\r\n    day = birthDate.day;\r\n}\r\n\r\n\r\nfunction updateJudokaContactDetails(\r\n    uint256 _id,\r\n    string memory _email,\r\n    string memory _phoneNumber\r\n) public {\r\n    require(_id > 0 && _id <= judokaCount, \"Judoka does not exist\");\r\n    require(msg.sender == judokasBasic[_id].walletAddress || isAdmin(msg.sender), \"Not authorized\");\r\n\r\n    judokasContact[_id] = JudokaContact({\r\n        email: _email,\r\n        phoneNumber: _phoneNumber\r\n    });\r\n\r\n    emit JudokaContactUpdated(_id, _email, _phoneNumber);\r\n    }\r\n\r\n    function getJudokaInfo(uint256 _id) public view returns (FullJudokaInfo memory) {\r\n        require(_id > 0 && _id <= judokaCount, \"Judoka does not exist.\");\r\n        return FullJudokaInfo({\r\n            basic: judokasBasic[_id],\r\n            contact: judokasContact[_id],\r\n            physical: judokasPhysical[_id]\r\n        });\r\n    }\r\n\r\n    function getBeltLevel(uint256 _id) public view returns (BeltLevel) {\r\n        require(_id > 0 && _id <= judokaCount, \"Judoka does not exist.\");\r\n        return judokasBasic[_id].beltLevel;\r\n    }\r\n\r\n    function promoteJudoka(uint256 _id, BeltLevel _newBeltLevel) public onlyAdmin {\r\n        require(_id > 0 && _id <= judokaCount, \"Judoka does not exist.\");\r\n        require(_newBeltLevel > judokasBasic[_id].beltLevel, \"New level must be higher\");\r\n\r\n        BeltLevel oldBeltLevel = judokasBasic[_id].beltLevel;\r\n        judokasBasic[_id].beltLevel = _newBeltLevel;\r\n\r\n        if (_newBeltLevel == BeltLevel.Black) {\r\n            blackBeltAdmins[judokasBasic[_id].walletAddress] = true;\r\n        }\r\n\r\n        emit BeltLevelUpdated(_id, oldBeltLevel, _newBeltLevel, block.timestamp);\r\n    }\r\n\r\n    function isBlackBelt(address _address) public view returns (bool) {\r\n        return judokasBasic[judokaIds[_address]].beltLevel == BeltLevel.Black;\r\n    }\r\n\r\n    function isAuthorized(uint256 _id, address _sender) public view returns (bool) {\r\n        return _sender == judokasBasic[_id].walletAddress || _sender == admin;\r\n    }\r\n\r\n    function updateJudokaPoints(uint256 _id, uint256 _points) public onlyAdmin {\r\n        require(_id > 0 && _id <= judokaCount, \"Invalid Judoka ID\");\r\n        judokaPoints[_id] += _points;\r\n    }\r\n\r\n// Function to create a competition correctly handling the packed date\r\nfunction createCompetition(\r\n    string memory _name,\r\n    uint8 _day,\r\n    uint8 _month,\r\n    uint16 _year // Assuming you want to store the full date\r\n) public onlyAdmin {\r\n    // Create the date structure for the competition\r\n        Date memory competitionDate = Date({\r\n        day: _day,\r\n        month: _month,\r\n        year: _year\r\n    });\r\n\r\n    // Default results structure\r\n    CompetitionResult memory defaultResults = CompetitionResult({\r\n        firstPlace: address(0),\r\n        secondPlace: address(0),\r\n        thirdPlace: address(0),\r\n        fourthPlace: address(0)\r\n    });\r\n\r\n    // Increment the competition counter and set up the new competition\r\n    competitionCount++;\r\n    competitions[competitionCount] = Competition({\r\n        id: competitionCount,\r\n        name: _name,\r\n        date: competitionDate,\r\n        participants: new address[](0) ,\r\n        completed: false,\r\n        results: defaultResults\r\n    });\r\n\r\n    // Emit the competition creation event\r\n    emit CompetitionCreated(competitionCount, _name, _year * 10000 + _month * 100 + _day); // Example packed date format for the event\r\n    }\r\n\r\n\r\n    function addParticipant(uint256 _competitionId, address _participant) public onlyAdmin {\r\n        require(!competitions[_competitionId].completed, \"Competition already completed\");\r\n        competitions[_competitionId].participants.push(_participant);\r\n        emit ParticipantAdded(_competitionId, _participant);\r\n    }\r\n\r\n    function recordCompetitionResult(\r\n        uint256 _competitionId, \r\n        address _firstPlace, \r\n        address _secondPlace, \r\n        address _thirdPlace, \r\n        address _fourthPlace,\r\n        uint256 _firstPlacePoints,\r\n        uint256 _secondPlacePoints,\r\n        uint256 _thirdPlacePoints,\r\n        uint256 _fourthPlacePoints\r\n    ) public onlyAdmin {\r\n        require(!competitions[_competitionId].completed, \"Competition already completed\");\r\n        require(competitions[_competitionId].participants.length > 0, \"No participants in competition\");\r\n\r\n        require(judokaIds[_firstPlace] != 0, \"First place winner not registered\");\r\n        require(judokaIds[_secondPlace] != 0, \"Second place winner not registered\");\r\n        require(judokaIds[_thirdPlace] != 0, \"Third place winner not registered\");\r\n        require(judokaIds[_fourthPlace] != 0, \"Fourth place winner not registered\");\r\n\r\n        competitions[_competitionId].completed = true;\r\n        competitions[_competitionId].results = CompetitionResult({\r\n            firstPlace: _firstPlace,\r\n            secondPlace: _secondPlace,\r\n            thirdPlace: _thirdPlace,\r\n            fourthPlace: _fourthPlace\r\n        });\r\n\r\n        if (_firstPlacePoints > 0) {\r\n            updateJudokaPoints(judokaIds[_firstPlace], _firstPlacePoints);\r\n        }\r\n        if (_secondPlacePoints > 0) {\r\n            updateJudokaPoints(judokaIds[_secondPlace], _secondPlacePoints);\r\n        }\r\n        if (_thirdPlacePoints > 0) {\r\n            updateJudokaPoints(judokaIds[_thirdPlace], _thirdPlacePoints);\r\n        }\r\n        if (_fourthPlacePoints > 0) {\r\n            updateJudokaPoints(judokaIds[_fourthPlace], _fourthPlacePoints);\r\n        }\r\n\r\n        emit CompetitionResultRecorded(_competitionId, _firstPlace, _secondPlace, _thirdPlace, _fourthPlace);\r\n    }\r\n}\r\n",
  "sourcePath": "C:\\Users\\marti\\Documents\\projects\\judo-dapp\\contracts\\JudoSystem.sol",
  "compiler": {
    "name": "solc",
    "version": "0.8.0+commit.c7dfd78e.Emscripten.clang"
  },
  "schemaVersion": "3.4.16",
  "updatedAt": "2024-04-23T12:31:26.087Z",
  "networkType": "ethereum",
  "devdoc": {
    "kind": "dev",
    "methods": {},
    "version": 1
  },
  "userdoc": {
    "kind": "user",
    "methods": {},
    "version": 1
  }
}