{
  "contractName": "JudoCompetition",
  "abi": [
    {
      "inputs": [],
      "stateMutability": "nonpayable",
      "type": "constructor"
    },
    {
      "anonymous": false,
      "inputs": [
        {
          "indexed": true,
          "internalType": "uint256",
          "name": "id",
          "type": "uint256"
        },
        {
          "indexed": false,
          "internalType": "string",
          "name": "name",
          "type": "string"
        },
        {
          "indexed": false,
          "internalType": "uint256",
          "name": "date",
          "type": "uint256"
        }
      ],
      "name": "CompetitionCreated",
      "type": "event"
    },
    {
      "anonymous": false,
      "inputs": [
        {
          "indexed": true,
          "internalType": "uint256",
          "name": "competitionId",
          "type": "uint256"
        },
        {
          "indexed": false,
          "internalType": "address",
          "name": "winner",
          "type": "address"
        }
      ],
      "name": "CompetitionResultRecorded",
      "type": "event"
    },
    {
      "anonymous": false,
      "inputs": [
        {
          "indexed": true,
          "internalType": "uint256",
          "name": "competitionId",
          "type": "uint256"
        },
        {
          "indexed": false,
          "internalType": "address",
          "name": "participant",
          "type": "address"
        }
      ],
      "name": "ParticipantAdded",
      "type": "event"
    },
    {
      "inputs": [],
      "name": "admin",
      "outputs": [
        {
          "internalType": "address",
          "name": "",
          "type": "address"
        }
      ],
      "stateMutability": "view",
      "type": "function",
      "constant": true
    },
    {
      "inputs": [],
      "name": "competitionCount",
      "outputs": [
        {
          "internalType": "uint256",
          "name": "",
          "type": "uint256"
        }
      ],
      "stateMutability": "view",
      "type": "function",
      "constant": true
    },
    {
      "inputs": [
        {
          "internalType": "uint256",
          "name": "",
          "type": "uint256"
        }
      ],
      "name": "competitions",
      "outputs": [
        {
          "internalType": "uint256",
          "name": "id",
          "type": "uint256"
        },
        {
          "internalType": "string",
          "name": "name",
          "type": "string"
        },
        {
          "internalType": "uint256",
          "name": "date",
          "type": "uint256"
        },
        {
          "internalType": "bool",
          "name": "completed",
          "type": "bool"
        },
        {
          "internalType": "address",
          "name": "winner",
          "type": "address"
        }
      ],
      "stateMutability": "view",
      "type": "function",
      "constant": true
    },
    {
      "inputs": [
        {
          "internalType": "string",
          "name": "_name",
          "type": "string"
        },
        {
          "internalType": "uint256",
          "name": "_date",
          "type": "uint256"
        }
      ],
      "name": "createCompetition",
      "outputs": [],
      "stateMutability": "nonpayable",
      "type": "function"
    },
    {
      "inputs": [
        {
          "internalType": "uint256",
          "name": "_competitionId",
          "type": "uint256"
        },
        {
          "internalType": "address",
          "name": "_participant",
          "type": "address"
        }
      ],
      "name": "addParticipant",
      "outputs": [],
      "stateMutability": "nonpayable",
      "type": "function"
    },
    {
      "inputs": [
        {
          "internalType": "uint256",
          "name": "_competitionId",
          "type": "uint256"
        },
        {
          "internalType": "address",
          "name": "_winner",
          "type": "address"
        }
      ],
      "name": "recordCompetitionResult",
      "outputs": [],
      "stateMutability": "nonpayable",
      "type": "function"
    }
  ],
  "bytecode": "0x608060405234801561001057600080fd5b5033600260006101000a81548173ffffffffffffffffffffffffffffffffffffffff021916908373ffffffffffffffffffffffffffffffffffffffff160217905550610f0f806100616000396000f3fe608060405234801561001057600080fd5b50600436106100625760003560e01c806318d85e53146100675780631d91d3221461008357806372fc8c1f1461009f5780639f6828d9146100bb578063a1681770146100ef578063f851a4401461010d575b600080fd5b610081600480360381019061007c9190610a43565b61012b565b005b61009d600480360381019061009891906109c6565b6102d2565b005b6100b960048036038101906100b49190610a43565b61053d565b005b6100d560048036038101906100d09190610a1a565b6106f0565b6040516100e6959493929190610c31565b60405180910390f35b6100f76107db565b6040516101049190610c16565b60405180910390f35b6101156107e1565b6040516101229190610b8b565b60405180910390f35b600260009054906101000a900473ffffffffffffffffffffffffffffffffffffffff1673ffffffffffffffffffffffffffffffffffffffff163373ffffffffffffffffffffffffffffffffffffffff16146101bb576040517f08c379a00000000000000000000000000000000000000000000000000000000081526004016101b290610bd6565b60405180910390fd5b6001600083815260200190815260200160002060040160009054906101000a900460ff161561021f576040517f08c379a000000000000000000000000000000000000000000000000000000000815260040161021690610bf6565b60405180910390fd5b60016000838152602001908152602001600020600301819080600181540180825580915050600190039060005260206000200160009091909190916101000a81548173ffffffffffffffffffffffffffffffffffffffff021916908373ffffffffffffffffffffffffffffffffffffffff160217905550817f12246ba2398106df92bc0281a1eece14e5b8516c5c3dab76205391650e39fddb826040516102c69190610b8b565b60405180910390a25050565b600260009054906101000a900473ffffffffffffffffffffffffffffffffffffffff1673ffffffffffffffffffffffffffffffffffffffff163373ffffffffffffffffffffffffffffffffffffffff1614610362576040517f08c379a000000000000000000000000000000000000000000000000000000000815260040161035990610bd6565b60405180910390fd5b60008081548092919061037490610dc4565b91905055506040518060c001604052806000548152602001838152602001828152602001600067ffffffffffffffff8111156103d9577f4e487b7100000000000000000000000000000000000000000000000000000000600052604160045260246000fd5b6040519080825280602002602001820160405280156104075781602001602082028036833780820191505090505b508152602001600015158152602001600073ffffffffffffffffffffffffffffffffffffffff16815250600160008054815260200190815260200160002060008201518160000155602082015181600101908051906020019061046b929190610807565b5060408201518160020155606082015181600301908051906020019061049292919061088d565b5060808201518160040160006101000a81548160ff02191690831515021790555060a08201518160040160016101000a81548173ffffffffffffffffffffffffffffffffffffffff021916908373ffffffffffffffffffffffffffffffffffffffff1602179055509050506000547f527887ed6033dc7f6637d06840290a881f67a7f6b0b297598a5a88195bba4f6d8383604051610531929190610ba6565b60405180910390a25050565b600260009054906101000a900473ffffffffffffffffffffffffffffffffffffffff1673ffffffffffffffffffffffffffffffffffffffff163373ffffffffffffffffffffffffffffffffffffffff16146105cd576040517f08c379a00000000000000000000000000000000000000000000000000000000081526004016105c490610bd6565b60405180910390fd5b6001600083815260200190815260200160002060040160009054906101000a900460ff1615610631576040517f08c379a000000000000000000000000000000000000000000000000000000000815260040161062890610bf6565b60405180910390fd5b600180600084815260200190815260200160002060040160006101000a81548160ff021916908315150217905550806001600084815260200190815260200160002060040160016101000a81548173ffffffffffffffffffffffffffffffffffffffff021916908373ffffffffffffffffffffffffffffffffffffffff160217905550817fb12769583ec97131a112680edebe2952456622eed3a7ee9dfb1f985ee1639457826040516106e49190610b8b565b60405180910390a25050565b600160205280600052604060002060009150905080600001549080600101805461071990610d92565b80601f016020809104026020016040519081016040528092919081815260200182805461074590610d92565b80156107925780601f1061076757610100808354040283529160200191610792565b820191906000526020600020905b81548152906001019060200180831161077557829003601f168201915b5050505050908060020154908060040160009054906101000a900460ff16908060040160019054906101000a900473ffffffffffffffffffffffffffffffffffffffff16905085565b60005481565b600260009054906101000a900473ffffffffffffffffffffffffffffffffffffffff1681565b82805461081390610d92565b90600052602060002090601f016020900481019282610835576000855561087c565b82601f1061084e57805160ff191683800117855561087c565b8280016001018555821561087c579182015b8281111561087b578251825591602001919060010190610860565b5b5090506108899190610917565b5090565b828054828255906000526020600020908101928215610906579160200282015b828111156109055782518260006101000a81548173ffffffffffffffffffffffffffffffffffffffff021916908373ffffffffffffffffffffffffffffffffffffffff160217905550916020019190600101906108ad565b5b5090506109139190610917565b5090565b5b80821115610930576000816000905550600101610918565b5090565b600061094761094284610cbc565b610c8b565b90508281526020810184848401111561095f57600080fd5b61096a848285610d50565b509392505050565b60008135905061098181610eab565b92915050565b600082601f83011261099857600080fd5b81356109a8848260208601610934565b91505092915050565b6000813590506109c081610ec2565b92915050565b600080604083850312156109d957600080fd5b600083013567ffffffffffffffff8111156109f357600080fd5b6109ff85828601610987565b9250506020610a10858286016109b1565b9150509250929050565b600060208284031215610a2c57600080fd5b6000610a3a848285016109b1565b91505092915050565b60008060408385031215610a5657600080fd5b6000610a64858286016109b1565b9250506020610a7585828601610972565b9150509250929050565b610a8881610d08565b82525050565b610a9781610d1a565b82525050565b6000610aa882610cec565b610ab28185610cf7565b9350610ac2818560208601610d5f565b610acb81610e9a565b840191505092915050565b6000610ae3602283610cf7565b91507f4f6e6c792061646d696e2063616e20706572666f726d2074686973206163746960008301527f6f6e0000000000000000000000000000000000000000000000000000000000006020830152604082019050919050565b6000610b49601d83610cf7565b91507f436f6d7065746974696f6e20616c726561647920636f6d706c657465640000006000830152602082019050919050565b610b8581610d46565b82525050565b6000602082019050610ba06000830184610a7f565b92915050565b60006040820190508181036000830152610bc08185610a9d565b9050610bcf6020830184610b7c565b9392505050565b60006020820190508181036000830152610bef81610ad6565b9050919050565b60006020820190508181036000830152610c0f81610b3c565b9050919050565b6000602082019050610c2b6000830184610b7c565b92915050565b600060a082019050610c466000830188610b7c565b8181036020830152610c588187610a9d565b9050610c676040830186610b7c565b610c746060830185610a8e565b610c816080830184610a7f565b9695505050505050565b6000604051905081810181811067ffffffffffffffff82111715610cb257610cb1610e6b565b5b8060405250919050565b600067ffffffffffffffff821115610cd757610cd6610e6b565b5b601f19601f8301169050602081019050919050565b600081519050919050565b600082825260208201905092915050565b6000610d1382610d26565b9050919050565b60008115159050919050565b600073ffffffffffffffffffffffffffffffffffffffff82169050919050565b6000819050919050565b82818337600083830152505050565b60005b83811015610d7d578082015181840152602081019050610d62565b83811115610d8c576000848401525b50505050565b60006002820490506001821680610daa57607f821691505b60208210811415610dbe57610dbd610e3c565b5b50919050565b6000610dcf82610d46565b91507fffffffffffffffffffffffffffffffffffffffffffffffffffffffffffffffff821415610e0257610e01610e0d565b5b600182019050919050565b7f4e487b7100000000000000000000000000000000000000000000000000000000600052601160045260246000fd5b7f4e487b7100000000000000000000000000000000000000000000000000000000600052602260045260246000fd5b7f4e487b7100000000000000000000000000000000000000000000000000000000600052604160045260246000fd5b6000601f19601f8301169050919050565b610eb481610d08565b8114610ebf57600080fd5b50565b610ecb81610d46565b8114610ed657600080fd5b5056fea2646970667358221220b30a114ab6cf66b6c266fdf128a2a79a72bf2f95b24f0d4114d2784fd2b04ea564736f6c63430008000033",
  "immutableReferences": {},
  "source": "// SPDX-License-Identifier: MIT\r\npragma solidity ^0.8.0;\r\n\r\ncontract JudoCompetition {\r\n    struct Competition {\r\n        uint256 id;\r\n        string name;\r\n        uint256 date; // Unix timestamp for the competition date\r\n        address[] participants;\r\n        bool completed;\r\n        address winner;\r\n    }\r\n\r\n    uint256 public competitionCount;\r\n    mapping(uint256 => Competition) public competitions;\r\n    address public admin;\r\n\r\n    event CompetitionCreated(uint256 indexed id, string name, uint256 date);\r\n    event ParticipantAdded(uint256 indexed competitionId, address participant);\r\n    event CompetitionResultRecorded(uint256 indexed competitionId, address winner);\r\n\r\n    constructor() {\r\n        admin = msg.sender;\r\n    }\r\n\r\n    modifier onlyAdmin() {\r\n        require(msg.sender == admin, \"Only admin can perform this action\");\r\n        _;\r\n    }\r\n\r\n    function createCompetition(string memory _name, uint256 _date) public onlyAdmin {\r\n        competitionCount++;\r\n        competitions[competitionCount] = Competition(competitionCount, _name, _date, new address[](0), false, address(0));\r\n        emit CompetitionCreated(competitionCount, _name, _date);\r\n    }\r\n\r\n    function addParticipant(uint256 _competitionId, address _participant) public onlyAdmin {\r\n        require(!competitions[_competitionId].completed, \"Competition already completed\");\r\n        competitions[_competitionId].participants.push(_participant);\r\n        emit ParticipantAdded(_competitionId, _participant);\r\n    }\r\n\r\n    function recordCompetitionResult(uint256 _competitionId, address _winner) public onlyAdmin {\r\n        require(!competitions[_competitionId].completed, \"Competition already completed\");\r\n        competitions[_competitionId].completed = true;\r\n        competitions[_competitionId].winner = _winner;\r\n        emit CompetitionResultRecorded(_competitionId, _winner);\r\n        // Integrate with JudoBeltSystem to update points - will be implemented in integration\r\n    }\r\n\r\n    // Additional helper functions as needed\r\n}\r\n",
  "sourcePath": "C:\\Users\\marti\\Documents\\projects\\judo-dapp\\contracts\\JudoCompetition.sol",
  "compiler": {
    "name": "solc",
    "version": "0.8.0+commit.c7dfd78e.Emscripten.clang"
  },
  "schemaVersion": "3.4.16",
  "updatedAt": "2024-02-16T10:00:20.999Z",
  "networkType": "ethereum",
  "devdoc": {
    "kind": "dev",
    "methods": {},
    "version": 1
  },
  "userdoc": {
    "kind": "user",
    "methods": {},
    "version": 1
  }
}