{
  "contractName": "JudoSystem",
  "abi": [
    {
      "inputs": [],
      "stateMutability": "nonpayable",
      "type": "constructor"
    },
    {
      "anonymous": false,
      "inputs": [
        {
          "indexed": true,
          "internalType": "uint256",
          "name": "id",
          "type": "uint256"
        },
        {
          "indexed": false,
          "internalType": "enum JudoSystem.BeltLevel",
          "name": "oldBeltLevel",
          "type": "uint8"
        },
        {
          "indexed": false,
          "internalType": "enum JudoSystem.BeltLevel",
          "name": "newBeltLevel",
          "type": "uint8"
        },
        {
          "indexed": false,
          "internalType": "uint256",
          "name": "timestamp",
          "type": "uint256"
        }
      ],
      "name": "BeltLevelUpdated",
      "type": "event"
    },
    {
      "anonymous": false,
      "inputs": [
        {
          "indexed": true,
          "internalType": "uint256",
          "name": "id",
          "type": "uint256"
        },
        {
          "indexed": false,
          "internalType": "string",
          "name": "name",
          "type": "string"
        },
        {
          "indexed": false,
          "internalType": "uint256",
          "name": "date",
          "type": "uint256"
        }
      ],
      "name": "CompetitionCreated",
      "type": "event"
    },
    {
      "anonymous": false,
      "inputs": [
        {
          "indexed": true,
          "internalType": "uint256",
          "name": "competitionId",
          "type": "uint256"
        },
        {
          "indexed": false,
          "internalType": "address",
          "name": "winner",
          "type": "address"
        }
      ],
      "name": "CompetitionResultRecorded",
      "type": "event"
    },
    {
      "anonymous": false,
      "inputs": [
        {
          "indexed": true,
          "internalType": "uint256",
          "name": "id",
          "type": "uint256"
        },
        {
          "indexed": false,
          "internalType": "string",
          "name": "name",
          "type": "string"
        },
        {
          "indexed": false,
          "internalType": "address",
          "name": "walletAddress",
          "type": "address"
        },
        {
          "indexed": false,
          "internalType": "enum JudoSystem.BeltLevel",
          "name": "beltLevel",
          "type": "uint8"
        },
        {
          "indexed": false,
          "internalType": "uint256",
          "name": "dateOfBirth",
          "type": "uint256"
        },
        {
          "indexed": false,
          "internalType": "enum JudoSystem.Gender",
          "name": "gender",
          "type": "uint8"
        },
        {
          "indexed": false,
          "internalType": "string",
          "name": "email",
          "type": "string"
        },
        {
          "indexed": false,
          "internalType": "string",
          "name": "phoneNumber",
          "type": "string"
        },
        {
          "indexed": false,
          "internalType": "uint256",
          "name": "timestamp",
          "type": "uint256"
        }
      ],
      "name": "JudokaRegistered",
      "type": "event"
    },
    {
      "anonymous": false,
      "inputs": [
        {
          "indexed": true,
          "internalType": "uint256",
          "name": "competitionId",
          "type": "uint256"
        },
        {
          "indexed": false,
          "internalType": "address",
          "name": "participant",
          "type": "address"
        }
      ],
      "name": "ParticipantAdded",
      "type": "event"
    },
    {
      "inputs": [],
      "name": "admin",
      "outputs": [
        {
          "internalType": "address",
          "name": "",
          "type": "address"
        }
      ],
      "stateMutability": "view",
      "type": "function"
    },
    {
      "inputs": [],
      "name": "competitionCount",
      "outputs": [
        {
          "internalType": "uint256",
          "name": "",
          "type": "uint256"
        }
      ],
      "stateMutability": "view",
      "type": "function"
    },
    {
      "inputs": [
        {
          "internalType": "uint256",
          "name": "",
          "type": "uint256"
        }
      ],
      "name": "competitions",
      "outputs": [
        {
          "internalType": "uint256",
          "name": "id",
          "type": "uint256"
        },
        {
          "internalType": "string",
          "name": "name",
          "type": "string"
        },
        {
          "internalType": "uint256",
          "name": "date",
          "type": "uint256"
        },
        {
          "internalType": "bool",
          "name": "completed",
          "type": "bool"
        },
        {
          "internalType": "address",
          "name": "winner",
          "type": "address"
        }
      ],
      "stateMutability": "view",
      "type": "function"
    },
    {
      "inputs": [],
      "name": "judokaCount",
      "outputs": [
        {
          "internalType": "uint256",
          "name": "",
          "type": "uint256"
        }
      ],
      "stateMutability": "view",
      "type": "function"
    },
    {
      "inputs": [
        {
          "internalType": "address",
          "name": "",
          "type": "address"
        }
      ],
      "name": "judokaIds",
      "outputs": [
        {
          "internalType": "uint256",
          "name": "",
          "type": "uint256"
        }
      ],
      "stateMutability": "view",
      "type": "function"
    },
    {
      "inputs": [
        {
          "internalType": "uint256",
          "name": "",
          "type": "uint256"
        }
      ],
      "name": "judokaPoints",
      "outputs": [
        {
          "internalType": "uint256",
          "name": "",
          "type": "uint256"
        }
      ],
      "stateMutability": "view",
      "type": "function"
    },
    {
      "inputs": [
        {
          "internalType": "uint256",
          "name": "",
          "type": "uint256"
        }
      ],
      "name": "judokas",
      "outputs": [
        {
          "internalType": "uint256",
          "name": "id",
          "type": "uint256"
        },
        {
          "internalType": "string",
          "name": "name",
          "type": "string"
        },
        {
          "internalType": "address",
          "name": "walletAddress",
          "type": "address"
        },
        {
          "internalType": "enum JudoSystem.BeltLevel",
          "name": "beltLevel",
          "type": "uint8"
        },
        {
          "internalType": "uint256",
          "name": "dateOfBirth",
          "type": "uint256"
        },
        {
          "internalType": "enum JudoSystem.Gender",
          "name": "gender",
          "type": "uint8"
        },
        {
          "internalType": "string",
          "name": "email",
          "type": "string"
        },
        {
          "internalType": "string",
          "name": "phoneNumber",
          "type": "string"
        }
      ],
      "stateMutability": "view",
      "type": "function"
    },
    {
      "inputs": [
        {
          "internalType": "string",
          "name": "_name",
          "type": "string"
        },
        {
          "internalType": "address",
          "name": "_walletAddress",
          "type": "address"
        },
        {
          "internalType": "uint256",
          "name": "_dateOfBirth",
          "type": "uint256"
        },
        {
          "internalType": "uint8",
          "name": "_gender",
          "type": "uint8"
        },
        {
          "internalType": "string",
          "name": "_email",
          "type": "string"
        },
        {
          "internalType": "string",
          "name": "_phoneNumber",
          "type": "string"
        }
      ],
      "name": "registerBlackBelt",
      "outputs": [],
      "stateMutability": "nonpayable",
      "type": "function"
    },
    {
      "inputs": [
        {
          "internalType": "string",
          "name": "_name",
          "type": "string"
        },
        {
          "internalType": "address",
          "name": "_walletAddress",
          "type": "address"
        },
        {
          "internalType": "uint256",
          "name": "_dateOfBirth",
          "type": "uint256"
        },
        {
          "internalType": "uint8",
          "name": "_gender",
          "type": "uint8"
        },
        {
          "internalType": "string",
          "name": "_email",
          "type": "string"
        },
        {
          "internalType": "string",
          "name": "_phoneNumber",
          "type": "string"
        }
      ],
      "name": "registerJudoka",
      "outputs": [],
      "stateMutability": "nonpayable",
      "type": "function"
    },
    {
      "inputs": [
        {
          "internalType": "uint256",
          "name": "_id",
          "type": "uint256"
        }
      ],
      "name": "getJudokaInfo",
      "outputs": [
        {
          "components": [
            {
              "internalType": "uint256",
              "name": "id",
              "type": "uint256"
            },
            {
              "internalType": "string",
              "name": "name",
              "type": "string"
            },
            {
              "internalType": "address",
              "name": "walletAddress",
              "type": "address"
            },
            {
              "internalType": "enum JudoSystem.BeltLevel",
              "name": "beltLevel",
              "type": "uint8"
            },
            {
              "internalType": "uint256",
              "name": "dateOfBirth",
              "type": "uint256"
            },
            {
              "internalType": "enum JudoSystem.Gender",
              "name": "gender",
              "type": "uint8"
            },
            {
              "internalType": "string",
              "name": "email",
              "type": "string"
            },
            {
              "internalType": "string",
              "name": "phoneNumber",
              "type": "string"
            }
          ],
          "internalType": "struct JudoSystem.Judoka",
          "name": "",
          "type": "tuple"
        }
      ],
      "stateMutability": "view",
      "type": "function"
    },
    {
      "inputs": [
        {
          "internalType": "uint256",
          "name": "_id",
          "type": "uint256"
        }
      ],
      "name": "getBeltLevel",
      "outputs": [
        {
          "internalType": "enum JudoSystem.BeltLevel",
          "name": "",
          "type": "uint8"
        }
      ],
      "stateMutability": "view",
      "type": "function"
    },
    {
      "inputs": [
        {
          "internalType": "uint256",
          "name": "_id",
          "type": "uint256"
        },
        {
          "internalType": "enum JudoSystem.BeltLevel",
          "name": "_newBeltLevel",
          "type": "uint8"
        }
      ],
      "name": "promoteJudoka",
      "outputs": [],
      "stateMutability": "nonpayable",
      "type": "function"
    },
    {
      "inputs": [
        {
          "internalType": "address",
          "name": "_address",
          "type": "address"
        }
      ],
      "name": "isBlackBelt",
      "outputs": [
        {
          "internalType": "bool",
          "name": "",
          "type": "bool"
        }
      ],
      "stateMutability": "view",
      "type": "function"
    },
    {
      "inputs": [
        {
          "internalType": "uint256",
          "name": "_id",
          "type": "uint256"
        },
        {
          "internalType": "address",
          "name": "_sender",
          "type": "address"
        }
      ],
      "name": "isAuthorized",
      "outputs": [
        {
          "internalType": "bool",
          "name": "",
          "type": "bool"
        }
      ],
      "stateMutability": "view",
      "type": "function"
    },
    {
      "inputs": [
        {
          "internalType": "address",
          "name": "_sender",
          "type": "address"
        }
      ],
      "name": "isAdmin",
      "outputs": [
        {
          "internalType": "bool",
          "name": "",
          "type": "bool"
        }
      ],
      "stateMutability": "view",
      "type": "function"
    },
    {
      "inputs": [
        {
          "internalType": "uint256",
          "name": "_id",
          "type": "uint256"
        },
        {
          "internalType": "uint256",
          "name": "_points",
          "type": "uint256"
        }
      ],
      "name": "updateJudokaPoints",
      "outputs": [],
      "stateMutability": "nonpayable",
      "type": "function"
    },
    {
      "inputs": [
        {
          "internalType": "string",
          "name": "_name",
          "type": "string"
        },
        {
          "internalType": "uint256",
          "name": "_date",
          "type": "uint256"
        }
      ],
      "name": "createCompetition",
      "outputs": [],
      "stateMutability": "nonpayable",
      "type": "function"
    },
    {
      "inputs": [
        {
          "internalType": "uint256",
          "name": "_competitionId",
          "type": "uint256"
        },
        {
          "internalType": "address",
          "name": "_participant",
          "type": "address"
        }
      ],
      "name": "addParticipant",
      "outputs": [],
      "stateMutability": "nonpayable",
      "type": "function"
    },
    {
      "inputs": [
        {
          "internalType": "uint256",
          "name": "_competitionId",
          "type": "uint256"
        },
        {
          "internalType": "address",
          "name": "_winner",
          "type": "address"
        },
        {
          "internalType": "uint256",
          "name": "_points",
          "type": "uint256"
        }
      ],
      "name": "recordCompetitionResult",
      "outputs": [],
      "stateMutability": "nonpayable",
      "type": "function"
    }
  ],
  "bytecode": "0x608060405234801561001057600080fd5b5033600660006101000a81548173ffffffffffffffffffffffffffffffffffffffff021916908373ffffffffffffffffffffffffffffffffffffffff16021790555061305c806100616000396000f3fe608060405234801561001057600080fd5b50600436106101215760003560e01c8063609c6d7f116100ad578063a168177011610071578063a16817701461033e578063cab96b701461035c578063ce3824b21461037a578063e9f86f1e146103b1578063f851a440146103e157610121565b8063609c6d7f14610286578063688b96fe146102b65780636c0701fa146102d2578063932d37d2146102ee5780639f6828d91461030a57610121565b80631ef31992116100f45780631ef31992146101aa57806322b9dd90146101da57806324d7806c146101f65780633ab9f6d81461022657806345504a831461025657610121565b806310c1224c1461012657806318d85e53146101565780631b8558dd146101725780631d91d3221461018e575b600080fd5b610140600480360381019061013b91906121ea565b6103ff565b60405161014d9190612902565b60405180910390f35b610170600480360381019061016b9190612361565b6104dd565b005b61018c60048036038101906101879190612428565b610684565b005b6101a860048036038101906101a391906122e4565b610793565b005b6101c460048036038101906101bf9190612338565b610a00565b6040516101d1919061291d565b60405180910390f35b6101f460048036038101906101ef91906123ec565b610a7d565b005b610210600480360381019061020b91906121ea565b610d10565b60405161021d9190612902565b60405180910390f35b610240600480360381019061023b91906121ea565b610d6a565b60405161024d9190612b94565b60405180910390f35b610270600480360381019061026b9190612338565b610d82565b60405161027d9190612b72565b60405180910390f35b6102a0600480360381019061029b9190612361565b6110de565b6040516102ad9190612902565b60405180910390f35b6102d060048036038101906102cb919061239d565b6111a5565b005b6102ec60048036038101906102e79190612213565b6113a9565b005b61030860048036038101906103039190612213565b6117c1565b005b610324600480360381019061031f9190612338565b611be7565b604051610335959493929190612c42565b60405180910390f35b610346611cd2565b6040516103539190612b94565b60405180910390f35b610364611cd8565b6040516103719190612b94565b60405180910390f35b610394600480360381019061038f9190612338565b611cde565b6040516103a8989796959493929190612baf565b60405180910390f35b6103cb60048036038101906103c69190612338565b611ef8565b6040516103d89190612b94565b60405180910390f35b6103e9611f10565b6040516103f691906128e7565b60405180910390f35b600060068081111561043a577f4e487b7100000000000000000000000000000000000000000000000000000000600052602160045260246000fd5b60026000600360008673ffffffffffffffffffffffffffffffffffffffff1673ffffffffffffffffffffffffffffffffffffffff16815260200190815260200160002054815260200190815260200160002060020160149054906101000a900460ff1660068111156104d5577f4e487b7100000000000000000000000000000000000000000000000000000000600052602160045260246000fd5b149050919050565b600660009054906101000a900473ffffffffffffffffffffffffffffffffffffffff1673ffffffffffffffffffffffffffffffffffffffff163373ffffffffffffffffffffffffffffffffffffffff161461056d576040517f08c379a000000000000000000000000000000000000000000000000000000000815260040161056490612ad2565b60405180910390fd5b6005600083815260200190815260200160002060040160009054906101000a900460ff16156105d1576040517f08c379a00000000000000000000000000000000000000000000000000000000081526004016105c890612b52565b60405180910390fd5b60056000838152602001908152602001600020600301819080600181540180825580915050600190039060005260206000200160009091909190916101000a81548173ffffffffffffffffffffffffffffffffffffffff021916908373ffffffffffffffffffffffffffffffffffffffff160217905550817f12246ba2398106df92bc0281a1eece14e5b8516c5c3dab76205391650e39fddb8260405161067891906128e7565b60405180910390a25050565b600660009054906101000a900473ffffffffffffffffffffffffffffffffffffffff1673ffffffffffffffffffffffffffffffffffffffff163373ffffffffffffffffffffffffffffffffffffffff1614610714576040517f08c379a000000000000000000000000000000000000000000000000000000000815260040161070b90612ad2565b60405180910390fd5b60008211801561072657506000548211155b610765576040517f08c379a000000000000000000000000000000000000000000000000000000000815260040161075c90612a32565b60405180910390fd5b806004600084815260200190815260200160002060008282546107889190612d2a565b925050819055505050565b600660009054906101000a900473ffffffffffffffffffffffffffffffffffffffff1673ffffffffffffffffffffffffffffffffffffffff163373ffffffffffffffffffffffffffffffffffffffff1614610823576040517f08c379a000000000000000000000000000000000000000000000000000000000815260040161081a90612a92565b60405180910390fd5b6001600081548092919061083690612e93565b91905055506040518060c001604052806001548152602001838152602001828152602001600067ffffffffffffffff81111561089b577f4e487b7100000000000000000000000000000000000000000000000000000000600052604160045260246000fd5b6040519080825280602002602001820160405280156108c95781602001602082028036833780820191505090505b508152602001600015158152602001600073ffffffffffffffffffffffffffffffffffffffff1681525060056000600154815260200190815260200160002060008201518160000155602082015181600101908051906020019061092e929190611f36565b50604082015181600201556060820151816003019080519060200190610955929190611fbc565b5060808201518160040160006101000a81548160ff02191690831515021790555060a08201518160040160016101000a81548173ffffffffffffffffffffffffffffffffffffffff021916908373ffffffffffffffffffffffffffffffffffffffff1602179055509050506001547f527887ed6033dc7f6637d06840290a881f67a7f6b0b297598a5a88195bba4f6d83836040516109f4929190612a02565b60405180910390a25050565b60008082118015610a1357506000548211155b610a52576040517f08c379a0000000000000000000000000000000000000000000000000000000008152600401610a4990612b32565b60405180910390fd5b6002600083815260200190815260200160002060020160149054906101000a900460ff169050919050565b610a86336103ff565b80610ade5750600660009054906101000a900473ffffffffffffffffffffffffffffffffffffffff1673ffffffffffffffffffffffffffffffffffffffff163373ffffffffffffffffffffffffffffffffffffffff16145b610b1d576040517f08c379a0000000000000000000000000000000000000000000000000000000008152600401610b1490612ab2565b60405180910390fd5b600082118015610b2f57506000548211155b610b6e576040517f08c379a0000000000000000000000000000000000000000000000000000000008152600401610b6590612b32565b60405180910390fd5b6002600083815260200190815260200160002060020160149054906101000a900460ff166006811115610bca577f4e487b7100000000000000000000000000000000000000000000000000000000600052602160045260246000fd5b816006811115610c03577f4e487b7100000000000000000000000000000000000000000000000000000000600052602160045260246000fd5b11610c43576040517f08c379a0000000000000000000000000000000000000000000000000000000008152600401610c3a90612a52565b60405180910390fd5b60006002600084815260200190815260200160002060020160149054906101000a900460ff169050816002600085815260200190815260200160002060020160146101000a81548160ff02191690836006811115610cca577f4e487b7100000000000000000000000000000000000000000000000000000000600052602160045260246000fd5b0217905550827f01ae96fe1baf9d2d284e6a11b7ab2a76e1c8b047b807650660b4370d50462f23828442604051610d0393929190612938565b60405180910390a2505050565b6000600660009054906101000a900473ffffffffffffffffffffffffffffffffffffffff1673ffffffffffffffffffffffffffffffffffffffff168273ffffffffffffffffffffffffffffffffffffffff16149050919050565b60036020528060005260406000206000915090505481565b610d8a612046565b600260008381526020019081526020016000206040518061010001604052908160008201548152602001600182018054610dc390612e61565b80601f0160208091040260200160405190810160405280929190818152602001828054610def90612e61565b8015610e3c5780601f10610e1157610100808354040283529160200191610e3c565b820191906000526020600020905b815481529060010190602001808311610e1f57829003601f168201915b505050505081526020016002820160009054906101000a900473ffffffffffffffffffffffffffffffffffffffff1673ffffffffffffffffffffffffffffffffffffffff1673ffffffffffffffffffffffffffffffffffffffff1681526020016002820160149054906101000a900460ff166006811115610ee6577f4e487b7100000000000000000000000000000000000000000000000000000000600052602160045260246000fd5b6006811115610f1e577f4e487b7100000000000000000000000000000000000000000000000000000000600052602160045260246000fd5b8152602001600382015481526020016004820160009054906101000a900460ff166001811115610f77577f4e487b7100000000000000000000000000000000000000000000000000000000600052602160045260246000fd5b6001811115610faf577f4e487b7100000000000000000000000000000000000000000000000000000000600052602160045260246000fd5b8152602001600582018054610fc390612e61565b80601f0160208091040260200160405190810160405280929190818152602001828054610fef90612e61565b801561103c5780601f106110115761010080835404028352916020019161103c565b820191906000526020600020905b81548152906001019060200180831161101f57829003601f168201915b5050505050815260200160068201805461105590612e61565b80601f016020809104026020016040519081016040528092919081815260200182805461108190612e61565b80156110ce5780601f106110a3576101008083540402835291602001916110ce565b820191906000526020600020905b8154815290600101906020018083116110b157829003601f168201915b5050505050815250509050919050565b60006002600084815260200190815260200160002060020160009054906101000a900473ffffffffffffffffffffffffffffffffffffffff1673ffffffffffffffffffffffffffffffffffffffff168273ffffffffffffffffffffffffffffffffffffffff16148061119d5750600660009054906101000a900473ffffffffffffffffffffffffffffffffffffffff1673ffffffffffffffffffffffffffffffffffffffff168273ffffffffffffffffffffffffffffffffffffffff16145b905092915050565b600660009054906101000a900473ffffffffffffffffffffffffffffffffffffffff1673ffffffffffffffffffffffffffffffffffffffff163373ffffffffffffffffffffffffffffffffffffffff1614611235576040517f08c379a000000000000000000000000000000000000000000000000000000000815260040161122c90612ad2565b60405180910390fd5b6005600084815260200190815260200160002060040160009054906101000a900460ff1615611299576040517f08c379a000000000000000000000000000000000000000000000000000000000815260040161129090612b52565b60405180910390fd5b60016005600085815260200190815260200160002060040160006101000a81548160ff021916908315150217905550816005600085815260200190815260200160002060040160016101000a81548173ffffffffffffffffffffffffffffffffffffffff021916908373ffffffffffffffffffffffffffffffffffffffff1602179055506000600360008473ffffffffffffffffffffffffffffffffffffffff1673ffffffffffffffffffffffffffffffffffffffff16815260200190815260200160002054905061136b8183610684565b837fb12769583ec97131a112680edebe2952456622eed3a7ee9dfb1f985ee16394578460405161139b91906128e7565b60405180910390a250505050565b600073ffffffffffffffffffffffffffffffffffffffff168573ffffffffffffffffffffffffffffffffffffffff161415611419576040517f08c379a000000000000000000000000000000000000000000000000000000000815260040161141090612b12565b60405180910390fd5b6000600360008773ffffffffffffffffffffffffffffffffffffffff1673ffffffffffffffffffffffffffffffffffffffff168152602001908152602001600020541461149b576040517f08c379a000000000000000000000000000000000000000000000000000000000815260040161149290612af2565b60405180910390fd5b60008360ff1660018111156114d9577f4e487b7100000000000000000000000000000000000000000000000000000000600052602160045260246000fd5b90506000808154809291906114ed90612e93565b919050555060405180610100016040528060005481526020018881526020018773ffffffffffffffffffffffffffffffffffffffff168152602001600680811115611561577f4e487b7100000000000000000000000000000000000000000000000000000000600052602160045260246000fd5b81526020018681526020018260018111156115a5577f4e487b7100000000000000000000000000000000000000000000000000000000600052602160045260246000fd5b81526020018481526020018381525060026000805481526020019081526020016000206000820151816000015560208201518160010190805190602001906115ee929190611f36565b5060408201518160020160006101000a81548173ffffffffffffffffffffffffffffffffffffffff021916908373ffffffffffffffffffffffffffffffffffffffff16021790555060608201518160020160146101000a81548160ff02191690836006811115611687577f4e487b7100000000000000000000000000000000000000000000000000000000600052602160045260246000fd5b02179055506080820151816003015560a08201518160040160006101000a81548160ff021916908360018111156116e7577f4e487b7100000000000000000000000000000000000000000000000000000000600052602160045260246000fd5b021790555060c0820151816005019080519060200190611708929190611f36565b5060e0820151816006019080519060200190611725929190611f36565b50905050600054600360008873ffffffffffffffffffffffffffffffffffffffff1673ffffffffffffffffffffffffffffffffffffffff168152602001908152602001600020819055506000547f1aa2daf79773d4b03f8c5c647ce687b708b9b0ed394bc1abeb4490ae92f407998888600089868989426040516117b098979695949392919061296f565b60405180910390a250505050505050565b600660009054906101000a900473ffffffffffffffffffffffffffffffffffffffff1673ffffffffffffffffffffffffffffffffffffffff163373ffffffffffffffffffffffffffffffffffffffff1614611851576040517f08c379a000000000000000000000000000000000000000000000000000000000815260040161184890612a72565b60405180910390fd5b600073ffffffffffffffffffffffffffffffffffffffff168573ffffffffffffffffffffffffffffffffffffffff1614156118c1576040517f08c379a00000000000000000000000000000000000000000000000000000000081526004016118b890612b12565b60405180910390fd5b60008360ff1660018111156118ff577f4e487b7100000000000000000000000000000000000000000000000000000000600052602160045260246000fd5b905060008081548092919061191390612e93565b919050555060405180610100016040528060005481526020018881526020018773ffffffffffffffffffffffffffffffffffffffff168152602001600680811115611987577f4e487b7100000000000000000000000000000000000000000000000000000000600052602160045260246000fd5b81526020018681526020018260018111156119cb577f4e487b7100000000000000000000000000000000000000000000000000000000600052602160045260246000fd5b8152602001848152602001838152506002600080548152602001908152602001600020600082015181600001556020820151816001019080519060200190611a14929190611f36565b5060408201518160020160006101000a81548173ffffffffffffffffffffffffffffffffffffffff021916908373ffffffffffffffffffffffffffffffffffffffff16021790555060608201518160020160146101000a81548160ff02191690836006811115611aad577f4e487b7100000000000000000000000000000000000000000000000000000000600052602160045260246000fd5b02179055506080820151816003015560a08201518160040160006101000a81548160ff02191690836001811115611b0d577f4e487b7100000000000000000000000000000000000000000000000000000000600052602160045260246000fd5b021790555060c0820151816005019080519060200190611b2e929190611f36565b5060e0820151816006019080519060200190611b4b929190611f36565b50905050600054600360008873ffffffffffffffffffffffffffffffffffffffff1673ffffffffffffffffffffffffffffffffffffffff168152602001908152602001600020819055506000547f1aa2daf79773d4b03f8c5c647ce687b708b9b0ed394bc1abeb4490ae92f40799888860068986898942604051611bd698979695949392919061296f565b60405180910390a250505050505050565b6005602052806000526040600020600091509050806000015490806001018054611c1090612e61565b80601f0160208091040260200160405190810160405280929190818152602001828054611c3c90612e61565b8015611c895780601f10611c5e57610100808354040283529160200191611c89565b820191906000526020600020905b815481529060010190602001808311611c6c57829003601f168201915b5050505050908060020154908060040160009054906101000a900460ff16908060040160019054906101000a900473ffffffffffffffffffffffffffffffffffffffff16905085565b60015481565b60005481565b6002602052806000526040600020600091509050806000015490806001018054611d0790612e61565b80601f0160208091040260200160405190810160405280929190818152602001828054611d3390612e61565b8015611d805780601f10611d5557610100808354040283529160200191611d80565b820191906000526020600020905b815481529060010190602001808311611d6357829003601f168201915b5050505050908060020160009054906101000a900473ffffffffffffffffffffffffffffffffffffffff16908060020160149054906101000a900460ff16908060030154908060040160009054906101000a900460ff1690806005018054611de790612e61565b80601f0160208091040260200160405190810160405280929190818152602001828054611e1390612e61565b8015611e605780601f10611e3557610100808354040283529160200191611e60565b820191906000526020600020905b815481529060010190602001808311611e4357829003601f168201915b505050505090806006018054611e7590612e61565b80601f0160208091040260200160405190810160405280929190818152602001828054611ea190612e61565b8015611eee5780601f10611ec357610100808354040283529160200191611eee565b820191906000526020600020905b815481529060010190602001808311611ed157829003601f168201915b5050505050905088565b60046020528060005260406000206000915090505481565b600660009054906101000a900473ffffffffffffffffffffffffffffffffffffffff1681565b828054611f4290612e61565b90600052602060002090601f016020900481019282611f645760008555611fab565b82601f10611f7d57805160ff1916838001178555611fab565b82800160010185558215611fab579182015b82811115611faa578251825591602001919060010190611f8f565b5b509050611fb89190612111565b5090565b828054828255906000526020600020908101928215612035579160200282015b828111156120345782518260006101000a81548173ffffffffffffffffffffffffffffffffffffffff021916908373ffffffffffffffffffffffffffffffffffffffff16021790555091602001919060010190611fdc565b5b5090506120429190612111565b5090565b6040518061010001604052806000815260200160608152602001600073ffffffffffffffffffffffffffffffffffffffff168152602001600060068111156120b7577f4e487b7100000000000000000000000000000000000000000000000000000000600052602160045260246000fd5b815260200160008152602001600060018111156120fd577f4e487b7100000000000000000000000000000000000000000000000000000000600052602160045260246000fd5b815260200160608152602001606081525090565b5b8082111561212a576000816000905550600101612112565b5090565b600061214161213c84612ccd565b612c9c565b90508281526020810184848401111561215957600080fd5b612164848285612e1f565b509392505050565b60008135905061217b81612fd1565b92915050565b60008135905061219081612fe8565b92915050565b600082601f8301126121a757600080fd5b81356121b784826020860161212e565b91505092915050565b6000813590506121cf81612ff8565b92915050565b6000813590506121e48161300f565b92915050565b6000602082840312156121fc57600080fd5b600061220a8482850161216c565b91505092915050565b60008060008060008060c0878903121561222c57600080fd5b600087013567ffffffffffffffff81111561224657600080fd5b61225289828a01612196565b965050602061226389828a0161216c565b955050604061227489828a016121c0565b945050606061228589828a016121d5565b935050608087013567ffffffffffffffff8111156122a257600080fd5b6122ae89828a01612196565b92505060a087013567ffffffffffffffff8111156122cb57600080fd5b6122d789828a01612196565b9150509295509295509295565b600080604083850312156122f757600080fd5b600083013567ffffffffffffffff81111561231157600080fd5b61231d85828601612196565b925050602061232e858286016121c0565b9150509250929050565b60006020828403121561234a57600080fd5b6000612358848285016121c0565b91505092915050565b6000806040838503121561237457600080fd5b6000612382858286016121c0565b92505060206123938582860161216c565b9150509250929050565b6000806000606084860312156123b257600080fd5b60006123c0868287016121c0565b93505060206123d18682870161216c565b92505060406123e2868287016121c0565b9150509250925092565b600080604083850312156123ff57600080fd5b600061240d858286016121c0565b925050602061241e85828601612181565b9150509250929050565b6000806040838503121561243b57600080fd5b6000612449858286016121c0565b925050602061245a858286016121c0565b9150509250929050565b61246d81612d80565b82525050565b61247c81612d80565b82525050565b61248b81612d92565b82525050565b61249a81612dfb565b82525050565b6124a981612dfb565b82525050565b6124b881612e0d565b82525050565b6124c781612e0d565b82525050565b60006124d882612cfd565b6124e28185612d08565b93506124f2818560208601612e2e565b6124fb81612f98565b840191505092915050565b600061251182612cfd565b61251b8185612d19565b935061252b818560208601612e2e565b61253481612f98565b840191505092915050565b600061254c601183612d19565b91507f496e76616c6964204a75646f6b612049440000000000000000000000000000006000830152602082019050919050565b600061258c601883612d19565b91507f4e6577206c6576656c206d7573742062652068696768657200000000000000006000830152602082019050919050565b60006125cc601e83612d19565b91507f4f6e6c792061646d696e2063616e2061646420626c61636b2062656c747300006000830152602082019050919050565b600061260c601f83612d19565b91507f4f6e6c792061646d696e2063616e2061646420636f6d7065746974696f6e73006000830152602082019050919050565b600061264c602d83612d19565b91507f4f6e6c7920626c61636b2062656c7473206f722061646d696e2063616e20707260008301527f6f6d6f7465206a75646f6b6173000000000000000000000000000000000000006020830152604082019050919050565b60006126b2602283612d19565b91507f4f6e6c792061646d696e2063616e20706572666f726d2074686973206163746960008301527f6f6e0000000000000000000000000000000000000000000000000000000000006020830152604082019050919050565b6000612718601983612d19565b91507f4a75646f6b6120616c72656164792072656769737465726564000000000000006000830152602082019050919050565b6000612758601683612d19565b91507f496e76616c69642077616c6c65742061646472657373000000000000000000006000830152602082019050919050565b6000612798601683612d19565b91507f4a75646f6b6120646f6573206e6f742065786973742e000000000000000000006000830152602082019050919050565b60006127d8601d83612d19565b91507f436f6d7065746974696f6e20616c726561647920636f6d706c657465640000006000830152602082019050919050565b60006101008301600083015161282460008601826128c9565b506020830151848203602086015261283c82826124cd565b91505060408301516128516040860182612464565b5060608301516128646060860182612491565b50608083015161287760808601826128c9565b5060a083015161288a60a08601826124af565b5060c083015184820360c08601526128a282826124cd565b91505060e083015184820360e08601526128bc82826124cd565b9150508091505092915050565b6128d281612de4565b82525050565b6128e181612de4565b82525050565b60006020820190506128fc6000830184612473565b92915050565b60006020820190506129176000830184612482565b92915050565b600060208201905061293260008301846124a0565b92915050565b600060608201905061294d60008301866124a0565b61295a60208301856124a0565b61296760408301846128d8565b949350505050565b600061010082019050818103600083015261298a818b612506565b9050612999602083018a612473565b6129a660408301896124a0565b6129b360608301886128d8565b6129c060808301876124be565b81810360a08301526129d28186612506565b905081810360c08301526129e68185612506565b90506129f560e08301846128d8565b9998505050505050505050565b60006040820190508181036000830152612a1c8185612506565b9050612a2b60208301846128d8565b9392505050565b60006020820190508181036000830152612a4b8161253f565b9050919050565b60006020820190508181036000830152612a6b8161257f565b9050919050565b60006020820190508181036000830152612a8b816125bf565b9050919050565b60006020820190508181036000830152612aab816125ff565b9050919050565b60006020820190508181036000830152612acb8161263f565b9050919050565b60006020820190508181036000830152612aeb816126a5565b9050919050565b60006020820190508181036000830152612b0b8161270b565b9050919050565b60006020820190508181036000830152612b2b8161274b565b9050919050565b60006020820190508181036000830152612b4b8161278b565b9050919050565b60006020820190508181036000830152612b6b816127cb565b9050919050565b60006020820190508181036000830152612b8c818461280b565b905092915050565b6000602082019050612ba960008301846128d8565b92915050565b600061010082019050612bc5600083018b6128d8565b8181036020830152612bd7818a612506565b9050612be66040830189612473565b612bf360608301886124a0565b612c0060808301876128d8565b612c0d60a08301866124be565b81810360c0830152612c1f8185612506565b905081810360e0830152612c338184612506565b90509998505050505050505050565b600060a082019050612c5760008301886128d8565b8181036020830152612c698187612506565b9050612c7860408301866128d8565b612c856060830185612482565b612c926080830184612473565b9695505050505050565b6000604051905081810181811067ffffffffffffffff82111715612cc357612cc2612f69565b5b8060405250919050565b600067ffffffffffffffff821115612ce857612ce7612f69565b5b601f19601f8301169050602081019050919050565b600081519050919050565b600082825260208201905092915050565b600082825260208201905092915050565b6000612d3582612de4565b9150612d4083612de4565b9250827fffffffffffffffffffffffffffffffffffffffffffffffffffffffffffffffff03821115612d7557612d74612edc565b5b828201905092915050565b6000612d8b82612dc4565b9050919050565b60008115159050919050565b6000819050612dac82612fa9565b919050565b6000819050612dbf82612fbd565b919050565b600073ffffffffffffffffffffffffffffffffffffffff82169050919050565b6000819050919050565b600060ff82169050919050565b6000612e0682612d9e565b9050919050565b6000612e1882612db1565b9050919050565b82818337600083830152505050565b60005b83811015612e4c578082015181840152602081019050612e31565b83811115612e5b576000848401525b50505050565b60006002820490506001821680612e7957607f821691505b60208210811415612e8d57612e8c612f3a565b5b50919050565b6000612e9e82612de4565b91507fffffffffffffffffffffffffffffffffffffffffffffffffffffffffffffffff821415612ed157612ed0612edc565b5b600182019050919050565b7f4e487b7100000000000000000000000000000000000000000000000000000000600052601160045260246000fd5b7f4e487b7100000000000000000000000000000000000000000000000000000000600052602160045260246000fd5b7f4e487b7100000000000000000000000000000000000000000000000000000000600052602260045260246000fd5b7f4e487b7100000000000000000000000000000000000000000000000000000000600052604160045260246000fd5b6000601f19601f8301169050919050565b60078110612fba57612fb9612f0b565b5b50565b60028110612fce57612fcd612f0b565b5b50565b612fda81612d80565b8114612fe557600080fd5b50565b60078110612ff557600080fd5b50565b61300181612de4565b811461300c57600080fd5b50565b61301881612dee565b811461302357600080fd5b5056fea2646970667358221220b93cc83dd3760d7b79685650afc0ee50ec2969e9a89ef3f1d6d2242ccf3e488364736f6c63430008000033",
  "immutableReferences": {},
  "source": "// SPDX-License-Identifier: MIT\r\npragma solidity ^0.8.0;\r\n\r\ncontract JudoSystem {\r\n    enum BeltLevel { White, Yellow, Orange, Green, Blue, Brown, Black }\r\n    enum Gender { Male, Female }\r\n\r\n    struct Judoka {\r\n        uint256 id;\r\n        string name;\r\n        address walletAddress;\r\n        BeltLevel beltLevel;\r\n        uint256 dateOfBirth;\r\n        Gender gender;\r\n        string email;\r\n        string phoneNumber;\r\n    }\r\n\r\n    struct Competition {\r\n        uint256 id;\r\n        string name;\r\n        uint256 date;\r\n        address[] participants;\r\n        bool completed;\r\n        address winner;\r\n    }\r\n\r\n    struct BeltLevelChange {\r\n        BeltLevel oldBeltLevel;\r\n        BeltLevel newBeltLevel;\r\n        uint256 timestamp;\r\n    }\r\n\r\n    uint256 public judokaCount;\r\n    uint256 public competitionCount;\r\n    mapping(uint256 => Judoka) public judokas;\r\n    mapping(address => uint256) public judokaIds;\r\n    mapping(uint256 => uint256) public judokaPoints;\r\n    mapping(uint256 => Competition) public competitions;\r\n    address public admin;\r\n\r\n    event JudokaRegistered(uint256 indexed id, string name, address walletAddress, BeltLevel beltLevel, uint256 dateOfBirth, Gender gender, string email, string phoneNumber, uint256 timestamp);\r\n    event BeltLevelUpdated(uint256 indexed id, BeltLevel oldBeltLevel, BeltLevel newBeltLevel, uint256 timestamp);\r\n    event CompetitionCreated(uint256 indexed id, string name, uint256 date);\r\n    event ParticipantAdded(uint256 indexed competitionId, address participant);\r\n    event CompetitionResultRecorded(uint256 indexed competitionId, address winner);\r\n\r\n    constructor() {\r\n        admin = msg.sender;\r\n    }\r\n\r\n    modifier onlyAdmin() {\r\n        require(msg.sender == admin, \"Only admin can perform this action\");\r\n        _;\r\n    }\r\n\r\n    // Functions from JudoBeltSystem\r\nfunction registerBlackBelt(\r\n    string memory _name, \r\n    address _walletAddress, \r\n    uint256 _dateOfBirth, \r\n    uint8 _gender,\r\n    string memory _email, \r\n    string memory _phoneNumber\r\n) public {\r\n    require(msg.sender == admin, \"Only admin can add black belts\");\r\n    require(_walletAddress != address(0), \"Invalid wallet address\");\r\n\r\n    Gender gender = Gender(_gender);\r\n    judokaCount++;\r\n    judokas[judokaCount] = Judoka({\r\n        id: judokaCount,\r\n        name: _name,\r\n        walletAddress: _walletAddress,\r\n        beltLevel: BeltLevel.Black,\r\n        dateOfBirth: _dateOfBirth,\r\n        gender: gender,\r\n        email: _email,\r\n        phoneNumber: _phoneNumber\r\n        // No need to initialize the array fields here\r\n    });\r\n\r\n    judokaIds[_walletAddress] = judokaCount;\r\n    emit JudokaRegistered(\r\n        judokaCount, \r\n        _name, \r\n        _walletAddress, \r\n        BeltLevel.Black, \r\n        _dateOfBirth,\r\n        gender, \r\n        _email, \r\n        _phoneNumber,\r\n        block.timestamp\r\n    );\r\n}\r\n\r\n\r\n\r\nfunction registerJudoka(\r\n    string memory _name, \r\n    address _walletAddress, \r\n    uint256 _dateOfBirth, \r\n    uint8 _gender, \r\n    string memory _email, \r\n    string memory _phoneNumber\r\n) public {\r\n        require(_walletAddress != address(0), \"Invalid wallet address\");\r\n        require(judokaIds[_walletAddress] == 0, \"Judoka already registered\");\r\n\r\n    Gender gender = Gender(_gender);\r\n    judokaCount++;\r\n    judokas[judokaCount] = Judoka({\r\n        id: judokaCount,\r\n        name: _name,\r\n        walletAddress: _walletAddress,\r\n        beltLevel: BeltLevel.Black,\r\n        dateOfBirth: _dateOfBirth,\r\n        gender: gender,\r\n        email: _email,\r\n        phoneNumber: _phoneNumber\r\n        // No need to initialize the array fields here\r\n    });\r\n\r\n\r\n        judokaIds[_walletAddress] = judokaCount;\r\n        emit JudokaRegistered(\r\n            judokaCount, \r\n            _name, \r\n            _walletAddress, \r\n            BeltLevel.White, \r\n            _dateOfBirth,\r\n            gender, \r\n            _email, \r\n            _phoneNumber,\r\n            block.timestamp\r\n        );\r\n    }\r\n\r\n\r\n    function getJudokaInfo(uint256 _id) public view returns (Judoka memory) {\r\n        return judokas[_id];\r\n    }\r\n\r\n    function getBeltLevel(uint256 _id) public view returns (BeltLevel) {\r\n        require(_id > 0 && _id <= judokaCount, \"Judoka does not exist.\");\r\n        return judokas[_id].beltLevel;\r\n    }\r\n\r\n    function promoteJudoka(uint256 _id, BeltLevel _newBeltLevel) public {\r\n        require(\r\n            isBlackBelt(msg.sender) || msg.sender == admin,\r\n            \"Only black belts or admin can promote judokas\"\r\n        );\r\n        require(_id > 0 && _id <= judokaCount, \"Judoka does not exist.\");\r\n        require(\r\n            _newBeltLevel > judokas[_id].beltLevel,\r\n            \"New level must be higher\"\r\n        );\r\n\r\n        BeltLevel oldBeltLevel = judokas[_id].beltLevel;\r\n        judokas[_id].beltLevel = _newBeltLevel;\r\n        emit BeltLevelUpdated(_id, oldBeltLevel, _newBeltLevel, block.timestamp);\r\n    }\r\n\r\n    function isBlackBelt(address _address) public view returns(bool) {\r\n        return judokas[judokaIds[_address]].beltLevel == BeltLevel.Black;\r\n    }\r\n\r\n    function isAuthorized(uint256 _id, address _sender) public view returns(bool) {\r\n        return _sender == judokas[_id].walletAddress || _sender == admin;\r\n    }\r\n\r\n    function isAdmin(address _sender) public view returns(bool) {\r\n        return _sender == admin;\r\n    }\r\n\r\n    function updateJudokaPoints(uint256 _id, uint256 _points) public onlyAdmin {\r\n        require(_id > 0 && _id <= judokaCount, \"Invalid Judoka ID\");\r\n        judokaPoints[_id] += _points;\r\n    }\r\n\r\n    // Functions from JudoCompetition\r\n    function createCompetition(\r\n        string memory _name, \r\n        uint256 _date\r\n        ) public {\r\n        require(msg.sender == admin, \"Only admin can add competitions\");\r\n        //require(_walletAddress != address(0), \"Invalid wallet address\");\r\n\r\n\r\n        competitionCount++;\r\n        competitions[competitionCount] = Competition(\r\n            competitionCount, \r\n            _name, \r\n            _date, \r\n            new address[](0), \r\n            false, \r\n            address(0));\r\n        emit CompetitionCreated(competitionCount, _name, _date);\r\n    }\r\n\r\n\r\n    function addParticipant(uint256 _competitionId, address _participant) public onlyAdmin {\r\n        require(!competitions[_competitionId].completed, \"Competition already completed\");\r\n        competitions[_competitionId].participants.push(_participant);\r\n        emit ParticipantAdded(_competitionId, _participant);\r\n    }\r\n\r\n    function recordCompetitionResult(uint256 _competitionId, address _winner, uint256 _points) public onlyAdmin {\r\n        require(!competitions[_competitionId].completed, \"Competition already completed\");\r\n        competitions[_competitionId].completed = true;\r\n        competitions[_competitionId].winner = _winner;\r\n\r\n        uint256 winnerId = judokaIds[_winner];\r\n        updateJudokaPoints(winnerId, _points);\r\n\r\n        emit CompetitionResultRecorded(_competitionId, _winner);\r\n    }\r\n}\r\n",
  "sourcePath": "C:\\Users\\marti\\Documents\\projects\\judo-dapp\\contracts\\JudoSystem.sol",
  "compiler": {
    "name": "solc",
    "version": "0.8.0+commit.c7dfd78e.Emscripten.clang"
  },
  "schemaVersion": "3.4.16",
  "updatedAt": "2024-03-27T09:08:06.786Z",
  "devdoc": {
    "kind": "dev",
    "methods": {},
    "version": 1
  },
  "userdoc": {
    "kind": "user",
    "methods": {},
    "version": 1
  }
}