{
  "contractName": "JudoUserRegistration",
  "abi": [
    {
      "inputs": [
        {
          "internalType": "address",
          "name": "_storageAddress",
          "type": "address"
        }
      ],
      "stateMutability": "nonpayable",
      "type": "constructor"
    },
    {
      "inputs": [
        {
          "internalType": "address",
          "name": "userAddress",
          "type": "address"
        },
        {
          "internalType": "enum JudoBeltStorage.BeltLevel",
          "name": "belt",
          "type": "uint8"
        }
      ],
      "name": "registerUser",
      "outputs": [],
      "stateMutability": "nonpayable",
      "type": "function"
    }
  ],
  "bytecode": "0x608060405234801561001057600080fd5b5060405161038f38038061038f8339818101604052810190610032919061008d565b806000806101000a81548173ffffffffffffffffffffffffffffffffffffffff021916908373ffffffffffffffffffffffffffffffffffffffff160217905550506100ff565b600081519050610087816100e8565b92915050565b60006020828403121561009f57600080fd5b60006100ad84828501610078565b91505092915050565b60006100c1826100c8565b9050919050565b600073ffffffffffffffffffffffffffffffffffffffff82169050919050565b6100f1816100b6565b81146100fc57600080fd5b50565b6102818061010e6000396000f3fe608060405234801561001057600080fd5b506004361061002b5760003560e01c80639e9fa09714610030575b600080fd5b61004a60048036038101906100459190610107565b61004c565b005b60008054906101000a900473ffffffffffffffffffffffffffffffffffffffff1673ffffffffffffffffffffffffffffffffffffffff1663d53f325083836040518363ffffffff1660e01b81526004016100a7929190610161565b600060405180830381600087803b1580156100c157600080fd5b505af11580156100d5573d6000803e3d6000fd5b505050505050565b6000813590506100ec81610224565b92915050565b6000813590506101018161023b565b92915050565b6000806040838503121561011a57600080fd5b6000610128858286016100dd565b9250506020610139858286016100f2565b9150509250929050565b61014c8161018a565b82525050565b61015b816101cf565b82525050565b60006040820190506101766000830185610143565b6101836020830184610152565b9392505050565b6000610195826101af565b9050919050565b60008190506101aa82610210565b919050565b600073ffffffffffffffffffffffffffffffffffffffff82169050919050565b60006101da8261019c565b9050919050565b7f4e487b7100000000000000000000000000000000000000000000000000000000600052602160045260246000fd5b60078110610221576102206101e1565b5b50565b61022d8161018a565b811461023857600080fd5b50565b6007811061024857600080fd5b5056fea2646970667358221220a346163f1aeb5aa97d938ec668aedf21d3dfaca87cae7e9c41b71cb93b10122e64736f6c63430008000033",
  "immutableReferences": {},
  "source": "// SPDX-License-Identifier: MIT\r\npragma solidity ^0.8.0;\r\n\r\nimport \"./JudoBeltStorage.sol\";\r\n\r\ncontract JudoUserRegistration {\r\n    JudoBeltStorage private storageContract;\r\n\r\n    constructor(address _storageAddress) {\r\n        storageContract = JudoBeltStorage(_storageAddress);\r\n    }\r\n\r\n    function registerUser(address userAddress, JudoBeltStorage.BeltLevel belt) public {\r\n        // Ensure that only authorized users (like admins or senseis) can register new users\r\n        storageContract.setBeltLevel(userAddress, belt);\r\n    }\r\n}\r\n",
  "sourcePath": "C:\\Users\\marti\\Documents\\projects\\judo-dapp\\contracts\\JudoUserRegistration.sol",
  "compiler": {
    "name": "solc",
    "version": "0.8.0+commit.c7dfd78e.Emscripten.clang"
  },
  "schemaVersion": "3.4.16",
  "updatedAt": "2024-01-04T10:39:42.748Z",
  "networkType": "ethereum",
  "devdoc": {
    "kind": "dev",
    "methods": {},
    "version": 1
  },
  "userdoc": {
    "kind": "user",
    "methods": {},
    "version": 1
  }
}