{
  "contractName": "JudoBeltStorage",
  "abi": [
    {
      "inputs": [],
      "stateMutability": "nonpayable",
      "type": "constructor"
    },
    {
      "inputs": [
        {
          "internalType": "address",
          "name": "judoka",
          "type": "address"
        },
        {
          "internalType": "enum JudoBeltStorage.BeltLevel",
          "name": "belt",
          "type": "uint8"
        }
      ],
      "name": "setBeltLevel",
      "outputs": [],
      "stateMutability": "nonpayable",
      "type": "function"
    },
    {
      "inputs": [
        {
          "internalType": "address",
          "name": "judoka",
          "type": "address"
        }
      ],
      "name": "getBeltLevel",
      "outputs": [
        {
          "internalType": "enum JudoBeltStorage.BeltLevel",
          "name": "",
          "type": "uint8"
        }
      ],
      "stateMutability": "view",
      "type": "function",
      "constant": true
    },
    {
      "inputs": [
        {
          "internalType": "address",
          "name": "newAdmin",
          "type": "address"
        }
      ],
      "name": "transferAdminship",
      "outputs": [],
      "stateMutability": "nonpayable",
      "type": "function"
    }
  ],
  "bytecode": "0x608060405234801561001057600080fd5b5033600160006101000a81548173ffffffffffffffffffffffffffffffffffffffff021916908373ffffffffffffffffffffffffffffffffffffffff16021790555061053e806100616000396000f3fe608060405234801561001057600080fd5b50600436106100415760003560e01c80635be7cc1614610046578063d53f325014610062578063e00e27131461007e575b600080fd5b610060600480360381019061005b9190610321565b6100ae565b005b61007c6004803603810190610077919061034a565b610182565b005b61009860048036038101906100939190610321565b6102a2565b6040516100a591906103fb565b60405180910390f35b600160009054906101000a900473ffffffffffffffffffffffffffffffffffffffff1673ffffffffffffffffffffffffffffffffffffffff163373ffffffffffffffffffffffffffffffffffffffff161461013e576040517f08c379a000000000000000000000000000000000000000000000000000000000815260040161013590610416565b60405180910390fd5b80600160006101000a81548173ffffffffffffffffffffffffffffffffffffffff021916908373ffffffffffffffffffffffffffffffffffffffff16021790555050565b600160009054906101000a900473ffffffffffffffffffffffffffffffffffffffff1673ffffffffffffffffffffffffffffffffffffffff163373ffffffffffffffffffffffffffffffffffffffff1614610212576040517f08c379a000000000000000000000000000000000000000000000000000000000815260040161020990610416565b60405180910390fd5b806000808473ffffffffffffffffffffffffffffffffffffffff1673ffffffffffffffffffffffffffffffffffffffff16815260200190815260200160002060006101000a81548160ff02191690836006811115610299577f4e487b7100000000000000000000000000000000000000000000000000000000600052602160045260246000fd5b02179055505050565b60008060008373ffffffffffffffffffffffffffffffffffffffff1673ffffffffffffffffffffffffffffffffffffffff16815260200190815260200160002060009054906101000a900460ff169050919050565b600081359050610306816104e1565b92915050565b60008135905061031b816104f8565b92915050565b60006020828403121561033357600080fd5b6000610341848285016102f7565b91505092915050565b6000806040838503121561035d57600080fd5b600061036b858286016102f7565b925050602061037c8582860161030c565b9150509250929050565b61038f8161048c565b82525050565b60006103a2602283610436565b91507f4f6e6c792061646d696e2063616e20706572666f726d2074686973206163746960008301527f6f6e0000000000000000000000000000000000000000000000000000000000006020830152604082019050919050565b60006020820190506104106000830184610386565b92915050565b6000602082019050818103600083015261042f81610395565b9050919050565b600082825260208201905092915050565b60006104528261046c565b9050919050565b6000819050610467826104cd565b919050565b600073ffffffffffffffffffffffffffffffffffffffff82169050919050565b600061049782610459565b9050919050565b7f4e487b7100000000000000000000000000000000000000000000000000000000600052602160045260246000fd5b600781106104de576104dd61049e565b5b50565b6104ea81610447565b81146104f557600080fd5b50565b6007811061050557600080fd5b5056fea264697066735822122054a673432dd1f4131c3529625184dfbb9df77f31dccb70d7a60df7a2c69d54cd64736f6c63430008000033",
  "immutableReferences": {},
  "source": "// SPDX-License-Identifier: MIT\r\npragma solidity ^0.8.0;\r\n\r\ncontract JudoBeltStorage {\r\n    enum BeltLevel { White, Yellow, Orange, Green, Blue, Brown, Black }\r\n\r\n    mapping(address => BeltLevel) private judokaBelts;\r\n\r\n    address admin; // The address of the admin, likely the deployer initially\r\n\r\n    modifier onlyAdmin() {\r\n        require(msg.sender == admin, \"Only admin can perform this action\");\r\n        _;\r\n    }\r\n\r\n    constructor() {\r\n        admin = msg.sender; // Assign the deployer as the initial admin\r\n    }\r\n\r\n    function setBeltLevel(address judoka, BeltLevel belt) external onlyAdmin {\r\n        judokaBelts[judoka] = belt;\r\n    }\r\n\r\n    function getBeltLevel(address judoka) external view returns (BeltLevel) {\r\n        return judokaBelts[judoka];\r\n    }\r\n\r\n    function transferAdminship(address newAdmin) external onlyAdmin {\r\n        admin = newAdmin;\r\n    }\r\n}\r\n",
  "sourcePath": "C:\\Users\\marti\\Documents\\projects\\judo-dapp\\contracts\\JudoBeltStorage.sol",
  "compiler": {
    "name": "solc",
    "version": "0.8.0+commit.c7dfd78e.Emscripten.clang"
  },
  "schemaVersion": "3.4.16",
  "updatedAt": "2024-01-04T10:39:42.744Z",
  "networkType": "ethereum",
  "devdoc": {
    "kind": "dev",
    "methods": {},
    "version": 1
  },
  "userdoc": {
    "kind": "user",
    "methods": {},
    "version": 1
  }
}