{
  "contractName": "JudokaRegistration",
  "abi": [
    {
      "inputs": [
        {
          "internalType": "address",
          "name": "_beltStorageAddress",
          "type": "address"
        }
      ],
      "stateMutability": "nonpayable",
      "type": "constructor"
    },
    {
      "anonymous": false,
      "inputs": [
        {
          "indexed": true,
          "internalType": "uint256",
          "name": "id",
          "type": "uint256"
        },
        {
          "indexed": false,
          "internalType": "string",
          "name": "name",
          "type": "string"
        },
        {
          "indexed": false,
          "internalType": "address",
          "name": "walletAddress",
          "type": "address"
        }
      ],
      "name": "JudokaRegistered",
      "type": "event"
    },
    {
      "inputs": [
        {
          "internalType": "string",
          "name": "_name",
          "type": "string"
        },
        {
          "internalType": "address",
          "name": "_walletAddress",
          "type": "address"
        }
      ],
      "name": "registerJudoka",
      "outputs": [],
      "stateMutability": "nonpayable",
      "type": "function"
    }
  ],
  "bytecode": "0x608060405234801561001057600080fd5b5060405161074f38038061074f8339818101604052810190610032919061008d565b806000806101000a81548173ffffffffffffffffffffffffffffffffffffffff021916908373ffffffffffffffffffffffffffffffffffffffff160217905550506100ff565b600081519050610087816100e8565b92915050565b60006020828403121561009f57600080fd5b60006100ad84828501610078565b91505092915050565b60006100c1826100c8565b9050919050565b600073ffffffffffffffffffffffffffffffffffffffff82169050919050565b6100f1816100b6565b81146100fc57600080fd5b50565b6106418061010e6000396000f3fe608060405234801561001057600080fd5b506004361061002b5760003560e01c80632eedc46514610030575b600080fd5b61004a60048036038101906100459190610332565b61004c565b005b60008060009054906101000a900473ffffffffffffffffffffffffffffffffffffffff1673ffffffffffffffffffffffffffffffffffffffff16633ab9f6d8836040518263ffffffff1660e01b81526004016100a89190610437565b60206040518083038186803b1580156100c057600080fd5b505afa1580156100d4573d6000803e3d6000fd5b505050506040513d601f19601f820116820180604052508101906100f89190610386565b14610138576040517f08c379a000000000000000000000000000000000000000000000000000000000815260040161012f90610482565b60405180910390fd5b60008054906101000a900473ffffffffffffffffffffffffffffffffffffffff1673ffffffffffffffffffffffffffffffffffffffff1663bcc5702183836040518363ffffffff1660e01b8152600401610193929190610452565b600060405180830381600087803b1580156101ad57600080fd5b505af11580156101c1573d6000803e3d6000fd5b5050505060008054906101000a900473ffffffffffffffffffffffffffffffffffffffff1673ffffffffffffffffffffffffffffffffffffffff1663cab96b706040518163ffffffff1660e01b815260040160206040518083038186803b15801561022b57600080fd5b505afa15801561023f573d6000803e3d6000fd5b505050506040513d601f19601f820116820180604052508101906102639190610386565b7ff0edaffed649676c08338ac90e5b9757a0fa2f3f22aa72523d873176bffe3d278383604051610294929190610452565b60405180910390a25050565b60006102b36102ae846104d3565b6104a2565b9050828152602081018484840111156102cb57600080fd5b6102d684828561055b565b509392505050565b6000813590506102ed816105dd565b92915050565b600082601f83011261030457600080fd5b81356103148482602086016102a0565b91505092915050565b60008151905061032c816105f4565b92915050565b6000806040838503121561034557600080fd5b600083013567ffffffffffffffff81111561035f57600080fd5b61036b858286016102f3565b925050602061037c858286016102de565b9150509250929050565b60006020828403121561039857600080fd5b60006103a68482850161031d565b91505092915050565b6103b88161051f565b82525050565b60006103c982610503565b6103d3818561050e565b93506103e381856020860161056a565b6103ec816105cc565b840191505092915050565b600061040460198361050e565b91507f57616c6c657420616c72656164792072656769737465726564000000000000006000830152602082019050919050565b600060208201905061044c60008301846103af565b92915050565b6000604082019050818103600083015261046c81856103be565b905061047b60208301846103af565b9392505050565b6000602082019050818103600083015261049b816103f7565b9050919050565b6000604051905081810181811067ffffffffffffffff821117156104c9576104c861059d565b5b8060405250919050565b600067ffffffffffffffff8211156104ee576104ed61059d565b5b601f19601f8301169050602081019050919050565b600081519050919050565b600082825260208201905092915050565b600061052a82610531565b9050919050565b600073ffffffffffffffffffffffffffffffffffffffff82169050919050565b6000819050919050565b82818337600083830152505050565b60005b8381101561058857808201518184015260208101905061056d565b83811115610597576000848401525b50505050565b7f4e487b7100000000000000000000000000000000000000000000000000000000600052604160045260246000fd5b6000601f19601f8301169050919050565b6105e68161051f565b81146105f157600080fd5b50565b6105fd81610551565b811461060857600080fd5b5056fea264697066735822122017519e87a26735c4f8cf99b2d81d128940fe9e80a60c857e3f7d5f0462e6f07c64736f6c63430008000033",
  "immutableReferences": {},
  "source": "// SPDX-License-Identifier: MIT\r\npragma solidity ^0.8.0;\r\n\r\nimport \"./JudoBeltStorage.sol\";\r\n\r\ncontract JudokaRegistration {\r\n    JudoBeltStorage private beltStorage;\r\n\r\n    event JudokaRegistered(uint256 indexed id, string name, address walletAddress);\r\n\r\n    constructor(address _beltStorageAddress) {\r\n        beltStorage = JudoBeltStorage(_beltStorageAddress);\r\n    }\r\n\r\n    function registerJudoka(string memory _name, address _walletAddress) public {\r\n        // Ensure that the wallet address is not already registered\r\n        require(beltStorage.judokaIds(_walletAddress) == 0, \"Wallet already registered\");\r\n        // Call the public function in JudoBeltStorage to add a new judoka\r\n        beltStorage.addJudoka(_name, _walletAddress);\r\n        emit JudokaRegistered(beltStorage.judokaCount(), _name, _walletAddress);\r\n    }\r\n}\r\n",
  "sourcePath": "C:\\Users\\marti\\Documents\\projects\\judo-dapp\\contracts\\JudokaRegistration.sol",
  "compiler": {
    "name": "solc",
    "version": "0.8.0+commit.c7dfd78e.Emscripten.clang"
  },
  "schemaVersion": "3.4.16",
  "updatedAt": "2024-01-16T09:41:30.006Z",
  "networkType": "ethereum",
  "devdoc": {
    "kind": "dev",
    "methods": {},
    "version": 1
  },
  "userdoc": {
    "kind": "user",
    "methods": {},
    "version": 1
  }
}