{
  "contractName": "JudoSystem",
  "abi": [
    {
      "inputs": [],
      "stateMutability": "nonpayable",
      "type": "constructor"
    },
    {
      "anonymous": false,
      "inputs": [
        {
          "indexed": true,
          "internalType": "uint256",
          "name": "id",
          "type": "uint256"
        },
        {
          "indexed": false,
          "internalType": "enum JudoSystem.BeltLevel",
          "name": "oldBeltLevel",
          "type": "uint8"
        },
        {
          "indexed": false,
          "internalType": "enum JudoSystem.BeltLevel",
          "name": "newBeltLevel",
          "type": "uint8"
        },
        {
          "indexed": false,
          "internalType": "uint256",
          "name": "timestamp",
          "type": "uint256"
        }
      ],
      "name": "BeltLevelUpdated",
      "type": "event"
    },
    {
      "anonymous": false,
      "inputs": [
        {
          "indexed": true,
          "internalType": "uint256",
          "name": "id",
          "type": "uint256"
        },
        {
          "indexed": false,
          "internalType": "string",
          "name": "name",
          "type": "string"
        },
        {
          "indexed": false,
          "internalType": "uint256",
          "name": "date",
          "type": "uint256"
        }
      ],
      "name": "CompetitionCreated",
      "type": "event"
    },
    {
      "anonymous": false,
      "inputs": [
        {
          "indexed": true,
          "internalType": "uint256",
          "name": "competitionId",
          "type": "uint256"
        },
        {
          "indexed": false,
          "internalType": "address",
          "name": "firstPlace",
          "type": "address"
        },
        {
          "indexed": false,
          "internalType": "address",
          "name": "secondPlace",
          "type": "address"
        },
        {
          "indexed": false,
          "internalType": "address",
          "name": "thirdPlace",
          "type": "address"
        },
        {
          "indexed": false,
          "internalType": "address",
          "name": "fourthPlace",
          "type": "address"
        }
      ],
      "name": "CompetitionResultRecorded",
      "type": "event"
    },
    {
      "anonymous": false,
      "inputs": [
        {
          "indexed": true,
          "internalType": "uint256",
          "name": "id",
          "type": "uint256"
        },
        {
          "indexed": false,
          "internalType": "uint256",
          "name": "age",
          "type": "uint256"
        },
        {
          "indexed": false,
          "internalType": "uint256",
          "name": "weight",
          "type": "uint256"
        },
        {
          "indexed": false,
          "internalType": "enum JudoSystem.AgeCategory",
          "name": "ageCategory",
          "type": "uint8"
        },
        {
          "indexed": false,
          "internalType": "enum JudoSystem.WeightCategory",
          "name": "weightCategory",
          "type": "uint8"
        }
      ],
      "name": "DebugInfo",
      "type": "event"
    },
    {
      "anonymous": false,
      "inputs": [
        {
          "indexed": true,
          "internalType": "uint256",
          "name": "id",
          "type": "uint256"
        },
        {
          "indexed": false,
          "internalType": "string",
          "name": "email",
          "type": "string"
        },
        {
          "indexed": false,
          "internalType": "string",
          "name": "phoneNumber",
          "type": "string"
        }
      ],
      "name": "JudokaContactUpdated",
      "type": "event"
    },
    {
      "anonymous": false,
      "inputs": [
        {
          "indexed": true,
          "internalType": "uint256",
          "name": "id",
          "type": "uint256"
        },
        {
          "indexed": false,
          "internalType": "string",
          "name": "name",
          "type": "string"
        },
        {
          "indexed": false,
          "internalType": "address",
          "name": "walletAddress",
          "type": "address"
        },
        {
          "indexed": false,
          "internalType": "enum JudoSystem.BeltLevel",
          "name": "beltLevel",
          "type": "uint8"
        },
        {
          "indexed": false,
          "internalType": "uint256",
          "name": "dateOfBirth",
          "type": "uint256"
        },
        {
          "indexed": false,
          "internalType": "enum JudoSystem.Gender",
          "name": "gender",
          "type": "uint8"
        },
        {
          "indexed": false,
          "internalType": "string",
          "name": "email",
          "type": "string"
        },
        {
          "indexed": false,
          "internalType": "string",
          "name": "phoneNumber",
          "type": "string"
        },
        {
          "indexed": false,
          "internalType": "uint256",
          "name": "age",
          "type": "uint256"
        },
        {
          "indexed": false,
          "internalType": "uint256",
          "name": "weight",
          "type": "uint256"
        },
        {
          "indexed": false,
          "internalType": "string",
          "name": "club",
          "type": "string"
        },
        {
          "indexed": false,
          "internalType": "enum JudoSystem.AgeCategory",
          "name": "ageCategory",
          "type": "uint8"
        },
        {
          "indexed": false,
          "internalType": "enum JudoSystem.WeightCategory",
          "name": "weightCategory",
          "type": "uint8"
        },
        {
          "indexed": false,
          "internalType": "uint256",
          "name": "timestamp",
          "type": "uint256"
        }
      ],
      "name": "JudokaRegistered",
      "type": "event"
    },
    {
      "anonymous": false,
      "inputs": [
        {
          "indexed": true,
          "internalType": "uint256",
          "name": "competitionId",
          "type": "uint256"
        },
        {
          "indexed": false,
          "internalType": "address",
          "name": "participant",
          "type": "address"
        }
      ],
      "name": "ParticipantAdded",
      "type": "event"
    },
    {
      "inputs": [],
      "name": "admin",
      "outputs": [
        {
          "internalType": "address",
          "name": "",
          "type": "address"
        }
      ],
      "stateMutability": "view",
      "type": "function",
      "constant": true
    },
    {
      "inputs": [
        {
          "internalType": "address",
          "name": "",
          "type": "address"
        }
      ],
      "name": "blackBeltAdmins",
      "outputs": [
        {
          "internalType": "bool",
          "name": "",
          "type": "bool"
        }
      ],
      "stateMutability": "view",
      "type": "function",
      "constant": true
    },
    {
      "inputs": [],
      "name": "competitionCount",
      "outputs": [
        {
          "internalType": "uint256",
          "name": "",
          "type": "uint256"
        }
      ],
      "stateMutability": "view",
      "type": "function",
      "constant": true
    },
    {
      "inputs": [
        {
          "internalType": "uint256",
          "name": "",
          "type": "uint256"
        }
      ],
      "name": "competitions",
      "outputs": [
        {
          "internalType": "uint256",
          "name": "id",
          "type": "uint256"
        },
        {
          "internalType": "string",
          "name": "name",
          "type": "string"
        },
        {
          "components": [
            {
              "internalType": "uint8",
              "name": "day",
              "type": "uint8"
            },
            {
              "internalType": "uint8",
              "name": "month",
              "type": "uint8"
            },
            {
              "internalType": "uint16",
              "name": "year",
              "type": "uint16"
            }
          ],
          "internalType": "struct JudoSystem.Date",
          "name": "date",
          "type": "tuple"
        },
        {
          "internalType": "bool",
          "name": "completed",
          "type": "bool"
        },
        {
          "components": [
            {
              "internalType": "address",
              "name": "firstPlace",
              "type": "address"
            },
            {
              "internalType": "address",
              "name": "secondPlace",
              "type": "address"
            },
            {
              "internalType": "address",
              "name": "thirdPlace",
              "type": "address"
            },
            {
              "internalType": "address",
              "name": "fourthPlace",
              "type": "address"
            }
          ],
          "internalType": "struct JudoSystem.CompetitionResult",
          "name": "results",
          "type": "tuple"
        }
      ],
      "stateMutability": "view",
      "type": "function",
      "constant": true
    },
    {
      "inputs": [],
      "name": "judokaCount",
      "outputs": [
        {
          "internalType": "uint256",
          "name": "",
          "type": "uint256"
        }
      ],
      "stateMutability": "view",
      "type": "function",
      "constant": true
    },
    {
      "inputs": [
        {
          "internalType": "address",
          "name": "",
          "type": "address"
        }
      ],
      "name": "judokaIds",
      "outputs": [
        {
          "internalType": "uint256",
          "name": "",
          "type": "uint256"
        }
      ],
      "stateMutability": "view",
      "type": "function",
      "constant": true
    },
    {
      "inputs": [
        {
          "internalType": "uint256",
          "name": "",
          "type": "uint256"
        }
      ],
      "name": "judokaPoints",
      "outputs": [
        {
          "internalType": "uint256",
          "name": "",
          "type": "uint256"
        }
      ],
      "stateMutability": "view",
      "type": "function",
      "constant": true
    },
    {
      "inputs": [
        {
          "internalType": "uint256",
          "name": "",
          "type": "uint256"
        }
      ],
      "name": "judokasBasic",
      "outputs": [
        {
          "internalType": "uint256",
          "name": "id",
          "type": "uint256"
        },
        {
          "internalType": "string",
          "name": "name",
          "type": "string"
        },
        {
          "internalType": "address",
          "name": "walletAddress",
          "type": "address"
        },
        {
          "internalType": "enum JudoSystem.BeltLevel",
          "name": "beltLevel",
          "type": "uint8"
        },
        {
          "components": [
            {
              "internalType": "uint8",
              "name": "day",
              "type": "uint8"
            },
            {
              "internalType": "uint8",
              "name": "month",
              "type": "uint8"
            },
            {
              "internalType": "uint16",
              "name": "year",
              "type": "uint16"
            }
          ],
          "internalType": "struct JudoSystem.Date",
          "name": "birthDate",
          "type": "tuple"
        },
        {
          "internalType": "enum JudoSystem.Gender",
          "name": "gender",
          "type": "uint8"
        }
      ],
      "stateMutability": "view",
      "type": "function",
      "constant": true
    },
    {
      "inputs": [
        {
          "internalType": "uint256",
          "name": "",
          "type": "uint256"
        }
      ],
      "name": "judokasContact",
      "outputs": [
        {
          "internalType": "string",
          "name": "email",
          "type": "string"
        },
        {
          "internalType": "string",
          "name": "phoneNumber",
          "type": "string"
        }
      ],
      "stateMutability": "view",
      "type": "function",
      "constant": true
    },
    {
      "inputs": [
        {
          "internalType": "uint256",
          "name": "",
          "type": "uint256"
        }
      ],
      "name": "judokasPhysical",
      "outputs": [
        {
          "internalType": "uint256",
          "name": "age",
          "type": "uint256"
        },
        {
          "internalType": "uint256",
          "name": "weight",
          "type": "uint256"
        },
        {
          "internalType": "string",
          "name": "club",
          "type": "string"
        },
        {
          "internalType": "enum JudoSystem.AgeCategory",
          "name": "ageCategory",
          "type": "uint8"
        },
        {
          "internalType": "enum JudoSystem.WeightCategory",
          "name": "weightCategory",
          "type": "uint8"
        }
      ],
      "stateMutability": "view",
      "type": "function",
      "constant": true
    },
    {
      "inputs": [
        {
          "internalType": "address",
          "name": "_address",
          "type": "address"
        }
      ],
      "name": "isAdmin",
      "outputs": [
        {
          "internalType": "bool",
          "name": "",
          "type": "bool"
        }
      ],
      "stateMutability": "view",
      "type": "function",
      "constant": true
    },
    {
      "inputs": [
        {
          "internalType": "uint16",
          "name": "_birthYear",
          "type": "uint16"
        }
      ],
      "name": "packDateForJudoka",
      "outputs": [
        {
          "internalType": "uint32",
          "name": "",
          "type": "uint32"
        }
      ],
      "stateMutability": "pure",
      "type": "function",
      "constant": true
    },
    {
      "inputs": [
        {
          "internalType": "uint8",
          "name": "_month",
          "type": "uint8"
        },
        {
          "internalType": "uint8",
          "name": "_day",
          "type": "uint8"
        }
      ],
      "name": "packDateForCompetition",
      "outputs": [
        {
          "internalType": "uint16",
          "name": "",
          "type": "uint16"
        }
      ],
      "stateMutability": "pure",
      "type": "function",
      "constant": true
    },
    {
      "inputs": [
        {
          "internalType": "uint256",
          "name": "_age",
          "type": "uint256"
        }
      ],
      "name": "getAgeCategory",
      "outputs": [
        {
          "internalType": "enum JudoSystem.AgeCategory",
          "name": "",
          "type": "uint8"
        }
      ],
      "stateMutability": "pure",
      "type": "function",
      "constant": true
    },
    {
      "inputs": [
        {
          "internalType": "uint256",
          "name": "_weight",
          "type": "uint256"
        }
      ],
      "name": "getWeightCategory",
      "outputs": [
        {
          "internalType": "enum JudoSystem.WeightCategory",
          "name": "",
          "type": "uint8"
        }
      ],
      "stateMutability": "pure",
      "type": "function",
      "constant": true
    },
    {
      "inputs": [
        {
          "components": [
            {
              "internalType": "uint8",
              "name": "day",
              "type": "uint8"
            },
            {
              "internalType": "uint8",
              "name": "month",
              "type": "uint8"
            },
            {
              "internalType": "uint16",
              "name": "year",
              "type": "uint16"
            }
          ],
          "internalType": "struct JudoSystem.Date",
          "name": "_birthDate",
          "type": "tuple"
        }
      ],
      "name": "calculateAge",
      "outputs": [
        {
          "internalType": "uint256",
          "name": "",
          "type": "uint256"
        }
      ],
      "stateMutability": "view",
      "type": "function",
      "constant": true
    },
    {
      "inputs": [
        {
          "internalType": "uint32",
          "name": "_packedDate",
          "type": "uint32"
        }
      ],
      "name": "unpackDate",
      "outputs": [
        {
          "internalType": "uint16",
          "name": "year",
          "type": "uint16"
        },
        {
          "internalType": "uint8",
          "name": "month",
          "type": "uint8"
        },
        {
          "internalType": "uint8",
          "name": "day",
          "type": "uint8"
        }
      ],
      "stateMutability": "pure",
      "type": "function",
      "constant": true
    },
    {
      "inputs": [
        {
          "internalType": "string",
          "name": "_name",
          "type": "string"
        },
        {
          "internalType": "address",
          "name": "_walletAddress",
          "type": "address"
        },
        {
          "components": [
            {
              "internalType": "uint8",
              "name": "day",
              "type": "uint8"
            },
            {
              "internalType": "uint8",
              "name": "month",
              "type": "uint8"
            },
            {
              "internalType": "uint16",
              "name": "year",
              "type": "uint16"
            }
          ],
          "internalType": "struct JudoSystem.Date",
          "name": "_birthDate",
          "type": "tuple"
        },
        {
          "internalType": "enum JudoSystem.Gender",
          "name": "_gender",
          "type": "uint8"
        },
        {
          "internalType": "uint256",
          "name": "_weight",
          "type": "uint256"
        },
        {
          "internalType": "string",
          "name": "_club",
          "type": "string"
        }
      ],
      "name": "registerJudoka",
      "outputs": [],
      "stateMutability": "nonpayable",
      "type": "function"
    },
    {
      "inputs": [
        {
          "internalType": "uint256",
          "name": "_id",
          "type": "uint256"
        }
      ],
      "name": "getJudokaDOB",
      "outputs": [
        {
          "internalType": "uint16",
          "name": "year",
          "type": "uint16"
        },
        {
          "internalType": "uint8",
          "name": "month",
          "type": "uint8"
        },
        {
          "internalType": "uint8",
          "name": "day",
          "type": "uint8"
        }
      ],
      "stateMutability": "view",
      "type": "function",
      "constant": true
    },
    {
      "inputs": [
        {
          "internalType": "uint256",
          "name": "_id",
          "type": "uint256"
        },
        {
          "internalType": "string",
          "name": "_email",
          "type": "string"
        },
        {
          "internalType": "string",
          "name": "_phoneNumber",
          "type": "string"
        }
      ],
      "name": "updateJudokaContactDetails",
      "outputs": [],
      "stateMutability": "nonpayable",
      "type": "function"
    },
    {
      "inputs": [
        {
          "internalType": "uint256",
          "name": "_id",
          "type": "uint256"
        }
      ],
      "name": "getJudokaInfo",
      "outputs": [
        {
          "components": [
            {
              "components": [
                {
                  "internalType": "uint256",
                  "name": "id",
                  "type": "uint256"
                },
                {
                  "internalType": "string",
                  "name": "name",
                  "type": "string"
                },
                {
                  "internalType": "address",
                  "name": "walletAddress",
                  "type": "address"
                },
                {
                  "internalType": "enum JudoSystem.BeltLevel",
                  "name": "beltLevel",
                  "type": "uint8"
                },
                {
                  "components": [
                    {
                      "internalType": "uint8",
                      "name": "day",
                      "type": "uint8"
                    },
                    {
                      "internalType": "uint8",
                      "name": "month",
                      "type": "uint8"
                    },
                    {
                      "internalType": "uint16",
                      "name": "year",
                      "type": "uint16"
                    }
                  ],
                  "internalType": "struct JudoSystem.Date",
                  "name": "birthDate",
                  "type": "tuple"
                },
                {
                  "internalType": "enum JudoSystem.Gender",
                  "name": "gender",
                  "type": "uint8"
                }
              ],
              "internalType": "struct JudoSystem.JudokaBasic",
              "name": "basic",
              "type": "tuple"
            },
            {
              "components": [
                {
                  "internalType": "string",
                  "name": "email",
                  "type": "string"
                },
                {
                  "internalType": "string",
                  "name": "phoneNumber",
                  "type": "string"
                }
              ],
              "internalType": "struct JudoSystem.JudokaContact",
              "name": "contact",
              "type": "tuple"
            },
            {
              "components": [
                {
                  "internalType": "uint256",
                  "name": "age",
                  "type": "uint256"
                },
                {
                  "internalType": "uint256",
                  "name": "weight",
                  "type": "uint256"
                },
                {
                  "internalType": "string",
                  "name": "club",
                  "type": "string"
                },
                {
                  "internalType": "enum JudoSystem.AgeCategory",
                  "name": "ageCategory",
                  "type": "uint8"
                },
                {
                  "internalType": "enum JudoSystem.WeightCategory",
                  "name": "weightCategory",
                  "type": "uint8"
                }
              ],
              "internalType": "struct JudoSystem.JudokaPhysical",
              "name": "physical",
              "type": "tuple"
            }
          ],
          "internalType": "struct JudoSystem.FullJudokaInfo",
          "name": "",
          "type": "tuple"
        }
      ],
      "stateMutability": "view",
      "type": "function",
      "constant": true
    },
    {
      "inputs": [
        {
          "internalType": "uint256",
          "name": "_id",
          "type": "uint256"
        }
      ],
      "name": "getBeltLevel",
      "outputs": [
        {
          "internalType": "enum JudoSystem.BeltLevel",
          "name": "",
          "type": "uint8"
        }
      ],
      "stateMutability": "view",
      "type": "function",
      "constant": true
    },
    {
      "inputs": [
        {
          "internalType": "uint256",
          "name": "_id",
          "type": "uint256"
        },
        {
          "internalType": "enum JudoSystem.BeltLevel",
          "name": "_newBeltLevel",
          "type": "uint8"
        }
      ],
      "name": "promoteJudoka",
      "outputs": [],
      "stateMutability": "nonpayable",
      "type": "function"
    },
    {
      "inputs": [
        {
          "internalType": "address",
          "name": "_address",
          "type": "address"
        }
      ],
      "name": "isBlackBelt",
      "outputs": [
        {
          "internalType": "bool",
          "name": "",
          "type": "bool"
        }
      ],
      "stateMutability": "view",
      "type": "function",
      "constant": true
    },
    {
      "inputs": [
        {
          "internalType": "uint256",
          "name": "_id",
          "type": "uint256"
        },
        {
          "internalType": "address",
          "name": "_sender",
          "type": "address"
        }
      ],
      "name": "isAuthorized",
      "outputs": [
        {
          "internalType": "bool",
          "name": "",
          "type": "bool"
        }
      ],
      "stateMutability": "view",
      "type": "function",
      "constant": true
    },
    {
      "inputs": [
        {
          "internalType": "uint256",
          "name": "_id",
          "type": "uint256"
        },
        {
          "internalType": "uint256",
          "name": "_points",
          "type": "uint256"
        }
      ],
      "name": "updateJudokaPoints",
      "outputs": [],
      "stateMutability": "nonpayable",
      "type": "function"
    },
    {
      "inputs": [
        {
          "internalType": "string",
          "name": "_name",
          "type": "string"
        },
        {
          "internalType": "uint8",
          "name": "_day",
          "type": "uint8"
        },
        {
          "internalType": "uint8",
          "name": "_month",
          "type": "uint8"
        },
        {
          "internalType": "uint16",
          "name": "_year",
          "type": "uint16"
        }
      ],
      "name": "createCompetition",
      "outputs": [],
      "stateMutability": "nonpayable",
      "type": "function"
    },
    {
      "inputs": [
        {
          "internalType": "uint256",
          "name": "_competitionId",
          "type": "uint256"
        },
        {
          "internalType": "address",
          "name": "_participant",
          "type": "address"
        }
      ],
      "name": "addParticipant",
      "outputs": [],
      "stateMutability": "nonpayable",
      "type": "function"
    },
    {
      "inputs": [
        {
          "internalType": "uint256",
          "name": "_competitionId",
          "type": "uint256"
        },
        {
          "internalType": "address",
          "name": "_firstPlace",
          "type": "address"
        },
        {
          "internalType": "address",
          "name": "_secondPlace",
          "type": "address"
        },
        {
          "internalType": "address",
          "name": "_thirdPlace",
          "type": "address"
        },
        {
          "internalType": "address",
          "name": "_fourthPlace",
          "type": "address"
        },
        {
          "internalType": "uint256",
          "name": "_firstPlacePoints",
          "type": "uint256"
        },
        {
          "internalType": "uint256",
          "name": "_secondPlacePoints",
          "type": "uint256"
        },
        {
          "internalType": "uint256",
          "name": "_thirdPlacePoints",
          "type": "uint256"
        },
        {
          "internalType": "uint256",
          "name": "_fourthPlacePoints",
          "type": "uint256"
        }
      ],
      "name": "recordCompetitionResult",
      "outputs": [],
      "stateMutability": "nonpayable",
      "type": "function"
    }
  ],
  "bytecode": "0x608060405234801561001057600080fd5b5033600960006101000a81548173ffffffffffffffffffffffffffffffffffffffff021916908373ffffffffffffffffffffffffffffffffffffffff1602179055506001600560003373ffffffffffffffffffffffffffffffffffffffff1673ffffffffffffffffffffffffffffffffffffffff16815260200190815260200160002060006101000a81548160ff021916908315150217905550614cbc806100b96000396000f3fe608060405234801561001057600080fd5b50600436106101cf5760003560e01c8063609c6d7f11610104578063cab96b70116100a2578063e7651d1f11610071578063e7651d1f146105e5578063e9f86f1e14610616578063f215bb0814610646578063f851a44014610676576101cf565b8063cab96b7014610533578063ccf28e8614610551578063d7984a2914610581578063d8c1eb54146105b5576101cf565b806397a3e66a116100de57806397a3e66a1461047c5780639daa52fd146104b15780639f6828d9146104e1578063a168177014610515576101cf565b8063609c6d7f146104145780636794a7ec146104445780636af8bf7514610460576101cf565b806322b9dd90116101715780633ab9f6d81161014b5780633ab9f6d81461035057806345504a831461038057806345f88af7146103b057806358fa0840146103e2576101cf565b806322b9dd90146102e857806324d7806c1461030457806338897f9a14610334576101cf565b806318d85e53116101ad57806318d85e53146102505780631b3ea3511461026c5780631b8558dd1461029c5780631ef31992146102b8576101cf565b8063080d3634146101d457806310c1224c1461020457806316ac952a14610234575b600080fd5b6101ee60048036038101906101e991906135f4565b610694565b6040516101fb91906146be565b60405180910390f35b61021e6004803603810190610219919061346d565b6106a2565b60405161022b9190614166565b60405180910390f35b61024e60048036038101906102499190613496565b610780565b005b61026a60048036038101906102659190613646565b610dba565b005b610286600480360381019061028191906135cb565b610f19565b6040516102939190614585565b60405180910390f35b6102b660048036038101906102b19190613803565b610f61565b005b6102d260048036038101906102cd919061361d565b611028565b6040516102df919061419c565b60405180910390f35b61030260048036038101906102fd9190613748565b6110a5565b005b61031e6004803603810190610319919061346d565b6113e7565b60405161032b9190614166565b60405180910390f35b61034e60048036038101906103499190613682565b611495565b005b61036a6004803603810190610365919061346d565b611b1b565b6040516103779190614585565b60405180910390f35b61039a6004803603810190610395919061361d565b611b33565b6040516103a79190614511565b60405180910390f35b6103ca60048036038101906103c5919061361d565b61214b565b6040516103d99392919061454e565b60405180910390f35b6103fc60048036038101906103f7919061383f565b6121ae565b60405161040b9392919061454e565b60405180910390f35b61042e60048036038101906104299190613646565b6121dd565b60405161043b9190614166565b60405180910390f35b61045e60048036038101906104599190613550565b6122a4565b005b61047a60048036038101906104759190613784565b6126db565b005b6104966004803603810190610491919061361d565b612884565b6040516104a8969594939291906145a0565b60405180910390f35b6104cb60048036038101906104c69190613868565b6129e6565b6040516104d89190614533565b60405180910390f35b6104fb60048036038101906104f6919061361d565b612a01565b60405161050c959493929190614609565b60405180910390f35b61051d612c92565b60405161052a9190614585565b60405180910390f35b61053b612c98565b6040516105489190614585565b60405180910390f35b61056b6004803603810190610566919061346d565b612c9e565b6040516105789190614166565b60405180910390f35b61059b6004803603810190610596919061361d565b612cbe565b6040516105ac959493929190614664565b60405180910390f35b6105cf60048036038101906105ca919061361d565b612d96565b6040516105dc91906141ee565b60405180910390f35b6105ff60048036038101906105fa919061361d565b612e0e565b60405161060d9291906142ea565b60405180910390f35b610630600480360381019061062b919061361d565b612f42565b60405161063d9190614585565b60405180910390f35b610660600480360381019061065b919061361d565b612f5a565b60405161066d9190614181565b60405180910390f35b61067e612fe6565b60405161068b9190614106565b60405180910390f35b60008161ffff169050919050565b60006006808111156106dd577f4e487b7100000000000000000000000000000000000000000000000000000000600052602160045260246000fd5b60066000600260008673ffffffffffffffffffffffffffffffffffffffff1673ffffffffffffffffffffffffffffffffffffffff16815260200190815260200160002054815260200190815260200160002060020160149054906101000a900460ff166006811115610778577f4e487b7100000000000000000000000000000000000000000000000000000000600052602160045260246000fd5b149050919050565b600073ffffffffffffffffffffffffffffffffffffffff168573ffffffffffffffffffffffffffffffffffffffff1614156107f0576040517f08c379a00000000000000000000000000000000000000000000000000000000081526004016107e790614471565b60405180910390fd5b6000600260008773ffffffffffffffffffffffffffffffffffffffff1673ffffffffffffffffffffffffffffffffffffffff1681526020019081526020016000205414610872576040517f08c379a000000000000000000000000000000000000000000000000000000000815260040161086990614451565b60405180910390fd5b600061087d85610f19565b9050600061088a82612f5a565b9050600061089785612d96565b90506000808154809291906108ab90614a5e565b91905055506040518060c0016040528060005481526020018a81526020018973ffffffffffffffffffffffffffffffffffffffff1681526020016000600681111561091f577f4e487b7100000000000000000000000000000000000000000000000000000000600052602160045260246000fd5b8152602001888152602001876001811115610963577f4e487b7100000000000000000000000000000000000000000000000000000000600052602160045260246000fd5b81525060066000805481526020019081526020016000206000820151816000015560208201518160010190805190602001906109a092919061300c565b5060408201518160020160006101000a81548173ffffffffffffffffffffffffffffffffffffffff021916908373ffffffffffffffffffffffffffffffffffffffff16021790555060608201518160020160146101000a81548160ff02191690836006811115610a39577f4e487b7100000000000000000000000000000000000000000000000000000000600052602160045260246000fd5b021790555060808201518160030160008201518160000160006101000a81548160ff021916908360ff16021790555060208201518160000160016101000a81548160ff021916908360ff16021790555060408201518160000160026101000a81548161ffff021916908361ffff160217905550505060a08201518160040160006101000a81548160ff02191690836001811115610aff577f4e487b7100000000000000000000000000000000000000000000000000000000600052602160045260246000fd5b021790555090505060405180604001604052806040518060200160405280600081525081526020016040518060200160405280600081525081525060076000805481526020019081526020016000206000820151816000019080519060200190610b6a92919061300c565b506020820151816001019080519060200190610b8792919061300c565b509050506040518060a00160405280848152602001868152602001858152602001836004811115610be1577f4e487b7100000000000000000000000000000000000000000000000000000000600052602160045260246000fd5b8152602001826006811115610c1f577f4e487b7100000000000000000000000000000000000000000000000000000000600052602160045260246000fd5b815250600860008054815260200190815260200160002060008201518160000155602082015181600101556040820151816002019080519060200190610c6692919061300c565b5060608201518160030160006101000a81548160ff02191690836004811115610cb8577f4e487b7100000000000000000000000000000000000000000000000000000000600052602160045260246000fd5b021790555060808201518160030160016101000a81548160ff02191690836006811115610d0e577f4e487b7100000000000000000000000000000000000000000000000000000000600052602160045260246000fd5b0217905550905050600054600260008a73ffffffffffffffffffffffffffffffffffffffff1673ffffffffffffffffffffffffffffffffffffffff168152602001908152602001600020819055506000547f91b08635671aac60e9f3dda55c450b1170d8c93ab4e68fc5737cc03948f7d4598a8a60008b604001518b898c8c8b8b42604051610da79b9a99989796959493929190614209565b60405180910390a2505050505050505050565b610dc3336113e7565b610e02576040517f08c379a0000000000000000000000000000000000000000000000000000000008152600401610df990614431565b60405180910390fd5b6004600083815260200190815260200160002060040160009054906101000a900460ff1615610e66576040517f08c379a0000000000000000000000000000000000000000000000000000000008152600401610e5d906144d1565b60405180910390fd5b60046000838152602001908152602001600020600301819080600181540180825580915050600190039060005260206000200160009091909190916101000a81548173ffffffffffffffffffffffffffffffffffffffff021916908373ffffffffffffffffffffffffffffffffffffffff160217905550817f12246ba2398106df92bc0281a1eece14e5b8516c5c3dab76205391650e39fddb82604051610f0d9190614106565b60405180910390a25050565b6000806301e1338042610f2c91906147f5565b9050826040015161ffff168111610f44576000610f59565b826040015161ffff1681610f58919061489d565b5b915050919050565b610f6a336113e7565b610fa9576040517f08c379a0000000000000000000000000000000000000000000000000000000008152600401610fa090614431565b60405180910390fd5b600082118015610fbb57506000548211155b610ffa576040517f08c379a0000000000000000000000000000000000000000000000000000000008152600401610ff190614371565b60405180910390fd5b8060036000848152602001908152602001600020600082825461101d919061479f565b925050819055505050565b6000808211801561103b57506000548211155b61107a576040517f08c379a0000000000000000000000000000000000000000000000000000000008152600401611071906144b1565b60405180910390fd5b6006600083815260200190815260200160002060020160149054906101000a900460ff169050919050565b6110ae336113e7565b6110ed576040517f08c379a00000000000000000000000000000000000000000000000000000000081526004016110e490614431565b60405180910390fd5b6000821180156110ff57506000548211155b61113e576040517f08c379a0000000000000000000000000000000000000000000000000000000008152600401611135906144b1565b60405180910390fd5b6006600083815260200190815260200160002060020160149054906101000a900460ff16600681111561119a577f4e487b7100000000000000000000000000000000000000000000000000000000600052602160045260246000fd5b8160068111156111d3577f4e487b7100000000000000000000000000000000000000000000000000000000600052602160045260246000fd5b11611213576040517f08c379a000000000000000000000000000000000000000000000000000000000815260040161120a90614391565b60405180910390fd5b60006006600084815260200190815260200160002060020160149054906101000a900460ff169050816006600085815260200190815260200160002060020160146101000a81548160ff0219169083600681111561129a577f4e487b7100000000000000000000000000000000000000000000000000000000600052602160045260246000fd5b02179055506006808111156112d8577f4e487b7100000000000000000000000000000000000000000000000000000000600052602160045260246000fd5b826006811115611311577f4e487b7100000000000000000000000000000000000000000000000000000000600052602160045260246000fd5b14156113a6576001600560006006600087815260200190815260200160002060020160009054906101000a900473ffffffffffffffffffffffffffffffffffffffff1673ffffffffffffffffffffffffffffffffffffffff1673ffffffffffffffffffffffffffffffffffffffff16815260200190815260200160002060006101000a81548160ff0219169083151502179055505b827f01ae96fe1baf9d2d284e6a11b7ab2a76e1c8b047b807650660b4370d50462f238284426040516113da939291906141b7565b60405180910390a2505050565b6000600960009054906101000a900473ffffffffffffffffffffffffffffffffffffffff1673ffffffffffffffffffffffffffffffffffffffff168273ffffffffffffffffffffffffffffffffffffffff16148061148e5750600560008373ffffffffffffffffffffffffffffffffffffffff1673ffffffffffffffffffffffffffffffffffffffff16815260200190815260200160002060009054906101000a900460ff165b9050919050565b61149e336113e7565b6114dd576040517f08c379a00000000000000000000000000000000000000000000000000000000081526004016114d490614431565b60405180910390fd5b600460008a815260200190815260200160002060040160009054906101000a900460ff1615611541576040517f08c379a0000000000000000000000000000000000000000000000000000000008152600401611538906144d1565b60405180910390fd5b6000600460008b8152602001908152602001600020600301805490501161159d576040517f08c379a0000000000000000000000000000000000000000000000000000000008152600401611594906143d1565b60405180910390fd5b6000600260008a73ffffffffffffffffffffffffffffffffffffffff1673ffffffffffffffffffffffffffffffffffffffff168152602001908152602001600020541415611620576040517f08c379a000000000000000000000000000000000000000000000000000000000815260040161161790614491565b60405180910390fd5b6000600260008973ffffffffffffffffffffffffffffffffffffffff1673ffffffffffffffffffffffffffffffffffffffff1681526020019081526020016000205414156116a3576040517f08c379a000000000000000000000000000000000000000000000000000000000815260040161169a90614411565b60405180910390fd5b6000600260008873ffffffffffffffffffffffffffffffffffffffff1673ffffffffffffffffffffffffffffffffffffffff168152602001908152602001600020541415611726576040517f08c379a000000000000000000000000000000000000000000000000000000000815260040161171d90614351565b60405180910390fd5b6000600260008773ffffffffffffffffffffffffffffffffffffffff1673ffffffffffffffffffffffffffffffffffffffff1681526020019081526020016000205414156117a9576040517f08c379a00000000000000000000000000000000000000000000000000000000081526004016117a0906143b1565b60405180910390fd5b6001600460008b815260200190815260200160002060040160006101000a81548160ff02191690831515021790555060405180608001604052808973ffffffffffffffffffffffffffffffffffffffff1681526020018873ffffffffffffffffffffffffffffffffffffffff1681526020018773ffffffffffffffffffffffffffffffffffffffff1681526020018673ffffffffffffffffffffffffffffffffffffffff16815250600460008b815260200190815260200160002060050160008201518160000160006101000a81548173ffffffffffffffffffffffffffffffffffffffff021916908373ffffffffffffffffffffffffffffffffffffffff16021790555060208201518160010160006101000a81548173ffffffffffffffffffffffffffffffffffffffff021916908373ffffffffffffffffffffffffffffffffffffffff16021790555060408201518160020160006101000a81548173ffffffffffffffffffffffffffffffffffffffff021916908373ffffffffffffffffffffffffffffffffffffffff16021790555060608201518160030160006101000a81548173ffffffffffffffffffffffffffffffffffffffff021916908373ffffffffffffffffffffffffffffffffffffffff16021790555090505060008411156119d9576119d8600260008a73ffffffffffffffffffffffffffffffffffffffff1673ffffffffffffffffffffffffffffffffffffffff1681526020019081526020016000205485610f61565b5b6000831115611a2c57611a2b600260008973ffffffffffffffffffffffffffffffffffffffff1673ffffffffffffffffffffffffffffffffffffffff1681526020019081526020016000205484610f61565b5b6000821115611a7f57611a7e600260008873ffffffffffffffffffffffffffffffffffffffff1673ffffffffffffffffffffffffffffffffffffffff1681526020019081526020016000205483610f61565b5b6000811115611ad257611ad1600260008773ffffffffffffffffffffffffffffffffffffffff1673ffffffffffffffffffffffffffffffffffffffff1681526020019081526020016000205482610f61565b5b887f19974ab114e4d06de9fa6a18e214db804b1d2a9b1acb21496207e2deafbbb9dc89898989604051611b089493929190614121565b60405180910390a2505050505050505050565b60026020528060005260406000206000915090505481565b611b3b613092565b600082118015611b4d57506000548211155b611b8c576040517f08c379a0000000000000000000000000000000000000000000000000000000008152600401611b83906144b1565b60405180910390fd5b6040518060600160405280600660008581526020019081526020016000206040518060c001604052908160008201548152602001600182018054611bcf90614a2c565b80601f0160208091040260200160405190810160405280929190818152602001828054611bfb90614a2c565b8015611c485780601f10611c1d57610100808354040283529160200191611c48565b820191906000526020600020905b815481529060010190602001808311611c2b57829003601f168201915b505050505081526020016002820160009054906101000a900473ffffffffffffffffffffffffffffffffffffffff1673ffffffffffffffffffffffffffffffffffffffff1673ffffffffffffffffffffffffffffffffffffffff1681526020016002820160149054906101000a900460ff166006811115611cf2577f4e487b7100000000000000000000000000000000000000000000000000000000600052602160045260246000fd5b6006811115611d2a577f4e487b7100000000000000000000000000000000000000000000000000000000600052602160045260246000fd5b8152602001600382016040518060600160405290816000820160009054906101000a900460ff1660ff1660ff1681526020016000820160019054906101000a900460ff1660ff1660ff1681526020016000820160029054906101000a900461ffff1661ffff1661ffff168152505081526020016004820160009054906101000a900460ff166001811115611de7577f4e487b7100000000000000000000000000000000000000000000000000000000600052602160045260246000fd5b6001811115611e1f577f4e487b7100000000000000000000000000000000000000000000000000000000600052602160045260246000fd5b81525050815260200160076000858152602001908152602001600020604051806040016040529081600082018054611e5690614a2c565b80601f0160208091040260200160405190810160405280929190818152602001828054611e8290614a2c565b8015611ecf5780601f10611ea457610100808354040283529160200191611ecf565b820191906000526020600020905b815481529060010190602001808311611eb257829003601f168201915b50505050508152602001600182018054611ee890614a2c565b80601f0160208091040260200160405190810160405280929190818152602001828054611f1490614a2c565b8015611f615780601f10611f3657610100808354040283529160200191611f61565b820191906000526020600020905b815481529060010190602001808311611f4457829003601f168201915b5050505050815250508152602001600860008581526020019081526020016000206040518060a00160405290816000820154815260200160018201548152602001600282018054611fb190614a2c565b80601f0160208091040260200160405190810160405280929190818152602001828054611fdd90614a2c565b801561202a5780601f10611fff5761010080835404028352916020019161202a565b820191906000526020600020905b81548152906001019060200180831161200d57829003601f168201915b505050505081526020016003820160009054906101000a900460ff16600481111561207e577f4e487b7100000000000000000000000000000000000000000000000000000000600052602160045260246000fd5b60048111156120b6577f4e487b7100000000000000000000000000000000000000000000000000000000600052602160045260246000fd5b81526020016003820160019054906101000a900460ff166006811115612105577f4e487b7100000000000000000000000000000000000000000000000000000000600052602160045260246000fd5b600681111561213d577f4e487b7100000000000000000000000000000000000000000000000000000000600052602160045260246000fd5b815250508152509050919050565b6000806000806006600086815260200190815260200160002060030190508060000160029054906101000a900461ffff1693508060000160019054906101000a900460ff1692508060000160009054906101000a900460ff169150509193909250565b600080600060108463ffffffff16901c925060ff60088563ffffffff16901c16915060ff841690509193909250565b60006006600084815260200190815260200160002060020160009054906101000a900473ffffffffffffffffffffffffffffffffffffffff1673ffffffffffffffffffffffffffffffffffffffff168273ffffffffffffffffffffffffffffffffffffffff16148061229c5750600960009054906101000a900473ffffffffffffffffffffffffffffffffffffffff1673ffffffffffffffffffffffffffffffffffffffff168273ffffffffffffffffffffffffffffffffffffffff16145b905092915050565b6122ad336113e7565b6122ec576040517f08c379a00000000000000000000000000000000000000000000000000000000081526004016122e390614431565b60405180910390fd5b600060405180606001604052808560ff1681526020018460ff1681526020018361ffff16815250905060006040518060800160405280600073ffffffffffffffffffffffffffffffffffffffff168152602001600073ffffffffffffffffffffffffffffffffffffffff168152602001600073ffffffffffffffffffffffffffffffffffffffff168152602001600073ffffffffffffffffffffffffffffffffffffffff168152509050600160008154809291906123a990614a5e565b91905055506040518060c001604052806001548152602001878152602001838152602001600067ffffffffffffffff81111561240e577f4e487b7100000000000000000000000000000000000000000000000000000000600052604160045260246000fd5b60405190808252806020026020018201604052801561243c5781602001602082028036833780820191505090505b5081526020016000151581526020018281525060046000600154815260200190815260200160002060008201518160000155602082015181600101908051906020019061248a92919061300c565b5060408201518160020160008201518160000160006101000a81548160ff021916908360ff16021790555060208201518160000160016101000a81548160ff021916908360ff16021790555060408201518160000160026101000a81548161ffff021916908361ffff160217905550505060608201518160030190805190602001906125179291906130c5565b5060808201518160040160006101000a81548160ff02191690831515021790555060a08201518160050160008201518160000160006101000a81548173ffffffffffffffffffffffffffffffffffffffff021916908373ffffffffffffffffffffffffffffffffffffffff16021790555060208201518160010160006101000a81548173ffffffffffffffffffffffffffffffffffffffff021916908373ffffffffffffffffffffffffffffffffffffffff16021790555060408201518160020160006101000a81548173ffffffffffffffffffffffffffffffffffffffff021916908373ffffffffffffffffffffffffffffffffffffffff16021790555060608201518160030160006101000a81548173ffffffffffffffffffffffffffffffffffffffff021916908373ffffffffffffffffffffffffffffffffffffffff16021790555050509050506001547f527887ed6033dc7f6637d06840290a881f67a7f6b0b297598a5a88195bba4f6d878760ff166064886126989190614862565b60ff16612710886126a99190614826565b6126b39190614767565b6126bd9190614767565b6040516126cb929190614321565b60405180910390a2505050505050565b6000831180156126ed57506000548311155b61272c576040517f08c379a0000000000000000000000000000000000000000000000000000000008152600401612723906143f1565b60405180910390fd5b6006600084815260200190815260200160002060020160009054906101000a900473ffffffffffffffffffffffffffffffffffffffff1673ffffffffffffffffffffffffffffffffffffffff163373ffffffffffffffffffffffffffffffffffffffff1614806127a157506127a0336113e7565b5b6127e0576040517f08c379a00000000000000000000000000000000000000000000000000000000081526004016127d7906144f1565b60405180910390fd5b60405180604001604052808381526020018281525060076000858152602001908152602001600020600082015181600001908051906020019061282492919061300c565b50602082015181600101908051906020019061284192919061300c565b50905050827f3a2df04b3034672d2c2b1dad7a1a514a04aa7bca1f226958091c379b472dadbf83836040516128779291906142ea565b60405180910390a2505050565b60066020528060005260406000206000915090508060000154908060010180546128ad90614a2c565b80601f01602080910402602001604051908101604052809291908181526020018280546128d990614a2c565b80156129265780601f106128fb57610100808354040283529160200191612926565b820191906000526020600020905b81548152906001019060200180831161290957829003601f168201915b5050505050908060020160009054906101000a900473ffffffffffffffffffffffffffffffffffffffff16908060020160149054906101000a900460ff1690806003016040518060600160405290816000820160009054906101000a900460ff1660ff1660ff1681526020016000820160019054906101000a900460ff1660ff1660ff1681526020016000820160029054906101000a900461ffff1661ffff1661ffff1681525050908060040160009054906101000a900460ff16905086565b60008160ff1660088460ff1661ffff16901b17905092915050565b6004602052806000526040600020600091509050806000015490806001018054612a2a90614a2c565b80601f0160208091040260200160405190810160405280929190818152602001828054612a5690614a2c565b8015612aa35780601f10612a7857610100808354040283529160200191612aa3565b820191906000526020600020905b815481529060010190602001808311612a8657829003601f168201915b505050505090806002016040518060600160405290816000820160009054906101000a900460ff1660ff1660ff1681526020016000820160019054906101000a900460ff1660ff1660ff1681526020016000820160029054906101000a900461ffff1661ffff1661ffff1681525050908060040160009054906101000a900460ff1690806005016040518060800160405290816000820160009054906101000a900473ffffffffffffffffffffffffffffffffffffffff1673ffffffffffffffffffffffffffffffffffffffff1673ffffffffffffffffffffffffffffffffffffffff1681526020016001820160009054906101000a900473ffffffffffffffffffffffffffffffffffffffff1673ffffffffffffffffffffffffffffffffffffffff1673ffffffffffffffffffffffffffffffffffffffff1681526020016002820160009054906101000a900473ffffffffffffffffffffffffffffffffffffffff1673ffffffffffffffffffffffffffffffffffffffff1673ffffffffffffffffffffffffffffffffffffffff1681526020016003820160009054906101000a900473ffffffffffffffffffffffffffffffffffffffff1673ffffffffffffffffffffffffffffffffffffffff1673ffffffffffffffffffffffffffffffffffffffff1681525050905085565b60015481565b60005481565b60056020528060005260406000206000915054906101000a900460ff1681565b6008602052806000526040600020600091509050806000015490806001015490806002018054612ced90614a2c565b80601f0160208091040260200160405190810160405280929190818152602001828054612d1990614a2c565b8015612d665780601f10612d3b57610100808354040283529160200191612d66565b820191906000526020600020905b815481529060010190602001808311612d4957829003601f168201915b5050505050908060030160009054906101000a900460ff16908060030160019054906101000a900460ff16905085565b6000603c821015612daa5760009050612e09565b6042821015612dbc5760019050612e09565b6049821015612dce5760029050612e09565b6051821015612de05760039050612e09565b605a821015612df25760049050612e09565b6064821015612e045760059050612e09565b600690505b919050565b6007602052806000526040600020600091509050806000018054612e3190614a2c565b80601f0160208091040260200160405190810160405280929190818152602001828054612e5d90614a2c565b8015612eaa5780601f10612e7f57610100808354040283529160200191612eaa565b820191906000526020600020905b815481529060010190602001808311612e8d57829003601f168201915b505050505090806001018054612ebf90614a2c565b80601f0160208091040260200160405190810160405280929190818152602001828054612eeb90614a2c565b8015612f385780601f10612f0d57610100808354040283529160200191612f38565b820191906000526020600020905b815481529060010190602001808311612f1b57829003601f168201915b5050505050905082565b60036020528060005260406000206000915090505481565b6000600d8210158015612f6e5750600e8211155b15612f7c5760009050612fe1565b600f8210158015612f8e575060118211155b15612f9c5760019050612fe1565b60128210158015612fae575060148211155b15612fbc5760029050612fe1565b60158210158015612fce5750601e8211155b15612fdc5760039050612fe1565b600490505b919050565b600960009054906101000a900473ffffffffffffffffffffffffffffffffffffffff1681565b82805461301890614a2c565b90600052602060002090601f01602090048101928261303a5760008555613081565b82601f1061305357805160ff1916838001178555613081565b82800160010185558215613081579182015b82811115613080578251825591602001919060010190613065565b5b50905061308e919061314f565b5090565b60405180606001604052806130a561316c565b81526020016130b261322e565b81526020016130bf613248565b81525090565b82805482825590600052602060002090810192821561313e579160200282015b8281111561313d5782518260006101000a81548173ffffffffffffffffffffffffffffffffffffffff021916908373ffffffffffffffffffffffffffffffffffffffff160217905550916020019190600101906130e5565b5b50905061314b919061314f565b5090565b5b80821115613168576000816000905550600101613150565b5090565b6040518060c001604052806000815260200160608152602001600073ffffffffffffffffffffffffffffffffffffffff168152602001600060068111156131dc577f4e487b7100000000000000000000000000000000000000000000000000000000600052602160045260246000fd5b81526020016131e96132e7565b815260200160006001811115613228577f4e487b7100000000000000000000000000000000000000000000000000000000600052602160045260246000fd5b81525090565b604051806040016040528060608152602001606081525090565b6040518060a00160405280600081526020016000815260200160608152602001600060048111156132a2577f4e487b7100000000000000000000000000000000000000000000000000000000600052602160045260246000fd5b8152602001600060068111156132e1577f4e487b7100000000000000000000000000000000000000000000000000000000600052602160045260246000fd5b81525090565b6040518060600160405280600060ff168152602001600060ff168152602001600061ffff1681525090565b60006133256133208461470a565b6146d9565b90508281526020810184848401111561333d57600080fd5b6133488482856149ea565b509392505050565b60008135905061335f81614bf3565b92915050565b60008135905061337481614c0a565b92915050565b60008135905061338981614c1a565b92915050565b600082601f8301126133a057600080fd5b81356133b0848260208601613312565b91505092915050565b6000606082840312156133cb57600080fd5b6133d560606146d9565b905060006133e584828501613458565b60008301525060206133f984828501613458565b602083015250604061340d84828501613419565b60408301525092915050565b60008135905061342881614c2a565b92915050565b60008135905061343d81614c41565b92915050565b60008135905061345281614c58565b92915050565b60008135905061346781614c6f565b92915050565b60006020828403121561347f57600080fd5b600061348d84828501613350565b91505092915050565b60008060008060008061010087890312156134b057600080fd5b600087013567ffffffffffffffff8111156134ca57600080fd5b6134d689828a0161338f565b96505060206134e789828a01613350565b95505060406134f889828a016133b9565b94505060a061350989828a0161337a565b93505060c061351a89828a0161342e565b92505060e087013567ffffffffffffffff81111561353757600080fd5b61354389828a0161338f565b9150509295509295509295565b6000806000806080858703121561356657600080fd5b600085013567ffffffffffffffff81111561358057600080fd5b61358c8782880161338f565b945050602061359d87828801613458565b93505060406135ae87828801613458565b92505060606135bf87828801613419565b91505092959194509250565b6000606082840312156135dd57600080fd5b60006135eb848285016133b9565b91505092915050565b60006020828403121561360657600080fd5b600061361484828501613419565b91505092915050565b60006020828403121561362f57600080fd5b600061363d8482850161342e565b91505092915050565b6000806040838503121561365957600080fd5b60006136678582860161342e565b925050602061367885828601613350565b9150509250929050565b60008060008060008060008060006101208a8c0312156136a157600080fd5b60006136af8c828d0161342e565b99505060206136c08c828d01613350565b98505060406136d18c828d01613350565b97505060606136e28c828d01613350565b96505060806136f38c828d01613350565b95505060a06137048c828d0161342e565b94505060c06137158c828d0161342e565b93505060e06137268c828d0161342e565b9250506101006137388c828d0161342e565b9150509295985092959850929598565b6000806040838503121561375b57600080fd5b60006137698582860161342e565b925050602061377a85828601613365565b9150509250929050565b60008060006060848603121561379957600080fd5b60006137a78682870161342e565b935050602084013567ffffffffffffffff8111156137c457600080fd5b6137d08682870161338f565b925050604084013567ffffffffffffffff8111156137ed57600080fd5b6137f98682870161338f565b9150509250925092565b6000806040838503121561381657600080fd5b60006138248582860161342e565b92505060206138358582860161342e565b9150509250929050565b60006020828403121561385157600080fd5b600061385f84828501613443565b91505092915050565b6000806040838503121561387b57600080fd5b600061388985828601613458565b925050602061389a85828601613458565b9150509250929050565b6138ad816148d1565b82525050565b6138bc816148d1565b82525050565b6138cb816148e3565b82525050565b6138da81614990565b82525050565b6138e981614990565b82525050565b6138f8816149a2565b82525050565b613907816149a2565b82525050565b613916816149b4565b82525050565b613925816149b4565b82525050565b613934816149c6565b82525050565b613943816149c6565b82525050565b60006139548261473a565b61395e8185614745565b935061396e8185602086016149f9565b61397781614b92565b840191505092915050565b600061398d8261473a565b6139978185614756565b93506139a78185602086016149f9565b6139b081614b92565b840191505092915050565b60006139c8602183614756565b91507f546869726420706c6163652077696e6e6572206e6f742072656769737465726560008301527f64000000000000000000000000000000000000000000000000000000000000006020830152604082019050919050565b6000613a2e601183614756565b91507f496e76616c6964204a75646f6b612049440000000000000000000000000000006000830152602082019050919050565b6000613a6e601883614756565b91507f4e6577206c6576656c206d7573742062652068696768657200000000000000006000830152602082019050919050565b6000613aae602283614756565b91507f466f7572746820706c6163652077696e6e6572206e6f7420726567697374657260008301527f65640000000000000000000000000000000000000000000000000000000000006020830152604082019050919050565b6000613b14601e83614756565b91507f4e6f207061727469636970616e747320696e20636f6d7065746974696f6e00006000830152602082019050919050565b6000613b54601583614756565b91507f4a75646f6b6120646f6573206e6f7420657869737400000000000000000000006000830152602082019050919050565b6000613b94602283614756565b91507f5365636f6e6420706c6163652077696e6e6572206e6f7420726567697374657260008301527f65640000000000000000000000000000000000000000000000000000000000006020830152604082019050919050565b6000613bfa602283614756565b91507f4f6e6c792061646d696e2063616e20706572666f726d2074686973206163746960008301527f6f6e0000000000000000000000000000000000000000000000000000000000006020830152604082019050919050565b6000613c60601983614756565b91507f4a75646f6b6120616c72656164792072656769737465726564000000000000006000830152602082019050919050565b6000613ca0600083614756565b9150600082019050919050565b6000613cba601683614756565b91507f496e76616c69642077616c6c65742061646472657373000000000000000000006000830152602082019050919050565b6000613cfa602183614756565b91507f466972737420706c6163652077696e6e6572206e6f742072656769737465726560008301527f64000000000000000000000000000000000000000000000000000000000000006020830152604082019050919050565b6000613d60601683614756565b91507f4a75646f6b6120646f6573206e6f742065786973742e000000000000000000006000830152602082019050919050565b6000613da0601d83614756565b91507f436f6d7065746974696f6e20616c726561647920636f6d706c657465640000006000830152602082019050919050565b6000613de0600e83614756565b91507f4e6f7420617574686f72697a65640000000000000000000000000000000000006000830152602082019050919050565b608082016000820151613e2960008501826138a4565b506020820151613e3c60208501826138a4565b506040820151613e4f60408501826138a4565b506060820151613e6260608501826138a4565b50505050565b606082016000820151613e7e60008501826140e8565b506020820151613e9160208501826140e8565b506040820151613ea4604085018261408e565b50505050565b606082016000820151613ec060008501826140e8565b506020820151613ed360208501826140e8565b506040820151613ee6604085018261408e565b50505050565b60006060830160008301518482036000860152613f098282613f4a565b91505060208301518482036020860152613f238282613fd4565b91505060408301518482036040860152613f3d8282614018565b9150508091505092915050565b600061010083016000830151613f6360008601826140bb565b5060208301518482036020860152613f7b8282613949565b9150506040830151613f9060408601826138a4565b506060830151613fa360608601826138ef565b506080830151613fb66080860182613e68565b5060a0830151613fc960e086018261390d565b508091505092915050565b60006040830160008301518482036000860152613ff18282613949565b9150506020830151848203602086015261400b8282613949565b9150508091505092915050565b600060a08301600083015161403060008601826140bb565b50602083015161404360208601826140bb565b506040830151848203604086015261405b8282613949565b915050606083015161407060608601826138d1565b506080830151614083608086018261392b565b508091505092915050565b6140978161493b565b82525050565b6140a68161493b565b82525050565b6140b5816149d8565b82525050565b6140c481614969565b82525050565b6140d381614969565b82525050565b6140e281614973565b82525050565b6140f181614983565b82525050565b61410081614983565b82525050565b600060208201905061411b60008301846138b3565b92915050565b600060808201905061413660008301876138b3565b61414360208301866138b3565b61415060408301856138b3565b61415d60608301846138b3565b95945050505050565b600060208201905061417b60008301846138c2565b92915050565b600060208201905061419660008301846138e0565b92915050565b60006020820190506141b160008301846138fe565b92915050565b60006060820190506141cc60008301866138fe565b6141d960208301856138fe565b6141e660408301846140ca565b949350505050565b6000602082019050614203600083018461393a565b92915050565b60006101a0820190508181036000830152614224818e613982565b9050614233602083018d6138b3565b614240604083018c6138fe565b61424d606083018b6140ac565b61425a608083018a61391c565b81810360a083015261426b81613c93565b905081810360c083015261427e81613c93565b905061428d60e08301896140ca565b61429b6101008301886140ca565b8181036101208301526142ae8187613982565b90506142be6101408301866138e0565b6142cc61016083018561393a565b6142da6101808301846140ca565b9c9b505050505050505050505050565b600060408201905081810360008301526143048185613982565b905081810360208301526143188184613982565b90509392505050565b6000604082019050818103600083015261433b8185613982565b905061434a60208301846140ac565b9392505050565b6000602082019050818103600083015261436a816139bb565b9050919050565b6000602082019050818103600083015261438a81613a21565b9050919050565b600060208201905081810360008301526143aa81613a61565b9050919050565b600060208201905081810360008301526143ca81613aa1565b9050919050565b600060208201905081810360008301526143ea81613b07565b9050919050565b6000602082019050818103600083015261440a81613b47565b9050919050565b6000602082019050818103600083015261442a81613b87565b9050919050565b6000602082019050818103600083015261444a81613bed565b9050919050565b6000602082019050818103600083015261446a81613c53565b9050919050565b6000602082019050818103600083015261448a81613cad565b9050919050565b600060208201905081810360008301526144aa81613ced565b9050919050565b600060208201905081810360008301526144ca81613d53565b9050919050565b600060208201905081810360008301526144ea81613d93565b9050919050565b6000602082019050818103600083015261450a81613dd3565b9050919050565b6000602082019050818103600083015261452b8184613eec565b905092915050565b6000602082019050614548600083018461409d565b92915050565b6000606082019050614563600083018661409d565b61457060208301856140f7565b61457d60408301846140f7565b949350505050565b600060208201905061459a60008301846140ca565b92915050565b6000610100820190506145b660008301896140ca565b81810360208301526145c88188613982565b90506145d760408301876138b3565b6145e460608301866138fe565b6145f16080830185613eaa565b6145fe60e083018461391c565b979650505050505050565b60006101408201905061461f60008301886140ca565b81810360208301526146318187613982565b90506146406040830186613eaa565b61464d60a08301856138c2565b61465a60c0830184613e13565b9695505050505050565b600060a08201905061467960008301886140ca565b61468660208301876140ca565b81810360408301526146988186613982565b90506146a760608301856138e0565b6146b4608083018461393a565b9695505050505050565b60006020820190506146d360008301846140d9565b92915050565b6000604051905081810181811067ffffffffffffffff82111715614700576146ff614b63565b5b8060405250919050565b600067ffffffffffffffff82111561472557614724614b63565b5b601f19601f8301169050602081019050919050565b600081519050919050565b600082825260208201905092915050565b600082825260208201905092915050565b60006147728261493b565b915061477d8361493b565b92508261ffff0382111561479457614793614aa7565b5b828201905092915050565b60006147aa82614969565b91506147b583614969565b9250827fffffffffffffffffffffffffffffffffffffffffffffffffffffffffffffffff038211156147ea576147e9614aa7565b5b828201905092915050565b600061480082614969565b915061480b83614969565b92508261481b5761481a614ad6565b5b828204905092915050565b60006148318261493b565b915061483c8361493b565b92508161ffff048311821515161561485757614856614aa7565b5b828202905092915050565b600061486d82614983565b915061487883614983565b92508160ff048311821515161561489257614891614aa7565b5b828202905092915050565b60006148a882614969565b91506148b383614969565b9250828210156148c6576148c5614aa7565b5b828203905092915050565b60006148dc82614949565b9050919050565b60008115159050919050565b60008190506148fd82614ba3565b919050565b600081905061491082614bb7565b919050565b600081905061492382614bcb565b919050565b600081905061493682614bdf565b919050565b600061ffff82169050919050565b600073ffffffffffffffffffffffffffffffffffffffff82169050919050565b6000819050919050565b600063ffffffff82169050919050565b600060ff82169050919050565b600061499b826148ef565b9050919050565b60006149ad82614902565b9050919050565b60006149bf82614915565b9050919050565b60006149d182614928565b9050919050565b60006149e38261493b565b9050919050565b82818337600083830152505050565b60005b83811015614a175780820151818401526020810190506149fc565b83811115614a26576000848401525b50505050565b60006002820490506001821680614a4457607f821691505b60208210811415614a5857614a57614b34565b5b50919050565b6000614a6982614969565b91507fffffffffffffffffffffffffffffffffffffffffffffffffffffffffffffffff821415614a9c57614a9b614aa7565b5b600182019050919050565b7f4e487b7100000000000000000000000000000000000000000000000000000000600052601160045260246000fd5b7f4e487b7100000000000000000000000000000000000000000000000000000000600052601260045260246000fd5b7f4e487b7100000000000000000000000000000000000000000000000000000000600052602160045260246000fd5b7f4e487b7100000000000000000000000000000000000000000000000000000000600052602260045260246000fd5b7f4e487b7100000000000000000000000000000000000000000000000000000000600052604160045260246000fd5b6000601f19601f8301169050919050565b60058110614bb457614bb3614b05565b5b50565b60078110614bc857614bc7614b05565b5b50565b60028110614bdc57614bdb614b05565b5b50565b60078110614bf057614bef614b05565b5b50565b614bfc816148d1565b8114614c0757600080fd5b50565b60078110614c1757600080fd5b50565b60028110614c2757600080fd5b50565b614c338161493b565b8114614c3e57600080fd5b50565b614c4a81614969565b8114614c5557600080fd5b50565b614c6181614973565b8114614c6c57600080fd5b50565b614c7881614983565b8114614c8357600080fd5b5056fea26469706673582212201e483dcef486f693dfc345835005d38fecaa49dd1ff94c0fe7e690825593c09a64736f6c63430008000033",
  "immutableReferences": {},
  "source": "// SPDX-License-Identifier: MIT\r\npragma solidity ^0.8.0;\r\n\r\ncontract JudoSystem {\r\n    enum BeltLevel { White, Yellow, Orange, Green, Blue, Brown, Black }\r\n    enum Gender { Male, Female }\r\n    enum AgeCategory { Juveniles, Cadets, Juniors, Seniors, Veterans }\r\n    enum WeightCategory { Under60, Under66, Under73, Under81, Under90, Under100, Over100 }\r\n\r\n    struct JudokaBasic {\r\n        uint256 id;\r\n        string name;\r\n        address walletAddress;\r\n        BeltLevel beltLevel;\r\n        Date birthDate;\r\n        Gender gender;\r\n    }\r\n\r\n    struct Date {\r\n        uint8 day;\r\n        uint8 month;\r\n        uint16 year;\r\n    }\r\n\r\n    struct JudokaContact {\r\n        string email;\r\n        string phoneNumber;\r\n    }\r\n\r\n    struct JudokaPhysical {\r\n        uint256 age;\r\n        uint256 weight;\r\n        string club;\r\n        AgeCategory ageCategory;\r\n        WeightCategory weightCategory;\r\n    }\r\n\r\n    struct FullJudokaInfo {\r\n        JudokaBasic basic;\r\n        JudokaContact contact;\r\n        JudokaPhysical physical;\r\n    }\r\n\r\n    struct CompetitionResult {\r\n        address firstPlace;\r\n        address secondPlace;\r\n        address thirdPlace;\r\n        address fourthPlace;\r\n    }\r\n\r\n    struct Competition {\r\n        uint256 id;\r\n        string name;\r\n        Date date;\r\n        address[] participants;\r\n        bool completed;\r\n        CompetitionResult results;\r\n    }\r\n\r\n    struct BeltLevelChange {\r\n        BeltLevel oldBeltLevel;\r\n        BeltLevel newBeltLevel;\r\n        uint256 timestamp;\r\n    }\r\n\r\n    uint256 public judokaCount;\r\n    uint256 public competitionCount;\r\n    mapping(address => uint256) public judokaIds;\r\n    mapping(uint256 => uint256) public judokaPoints;\r\n    mapping(uint256 => Competition) public competitions;\r\n    mapping(address => bool) public blackBeltAdmins;\r\n    mapping(uint256 => JudokaBasic) public judokasBasic;\r\n    mapping(uint256 => JudokaContact) public judokasContact;\r\n    mapping(uint256 => JudokaPhysical) public judokasPhysical;\r\n\r\n    address public admin;\r\n\r\n    event JudokaRegistered(uint256 indexed id, string name, address walletAddress, BeltLevel beltLevel, uint256 dateOfBirth, Gender gender, string email, string phoneNumber, uint256 age, uint256 weight, string club, AgeCategory ageCategory, WeightCategory weightCategory, uint256 timestamp);\r\n    event BeltLevelUpdated(uint256 indexed id, BeltLevel oldBeltLevel, BeltLevel newBeltLevel, uint256 timestamp);\r\n    event CompetitionCreated(uint256 indexed id, string name, uint256 date);\r\n    event ParticipantAdded(uint256 indexed competitionId, address participant);\r\n    event CompetitionResultRecorded(uint256 indexed competitionId, address firstPlace, address secondPlace, address thirdPlace, address fourthPlace);\r\n    event JudokaContactUpdated(uint256 indexed id, string email, string phoneNumber);\r\n    event DebugInfo(uint256 indexed id, uint256 age, uint256 weight, AgeCategory ageCategory, WeightCategory weightCategory);\r\n\r\n    \r\n    constructor() {\r\n        admin = msg.sender;\r\n        blackBeltAdmins[msg.sender] = true;\r\n    }\r\n\r\n    modifier onlyAdmin() {\r\n        require(isAdmin(msg.sender), \"Only admin can perform this action\");\r\n        _;\r\n    }\r\n\r\n    function isAdmin(address _address) public view returns (bool) {\r\n    return _address == admin || blackBeltAdmins[_address];\r\n    }\r\n\r\n    // Utility functions for date packing and unpacking\r\n    function packDateForJudoka(uint16 _birthYear) public pure returns (uint32) {\r\n        // Since only year is relevant for judokas, we simplify this function\r\n        return uint32(_birthYear);\r\n    }\r\n\r\n    function packDateForCompetition(uint8 _month, uint8 _day) public pure returns (uint16) {\r\n        // Correct packing for competition dates\r\n        return (uint16(_month) << 8) | uint16(_day);\r\n    }\r\n\r\n    function getAgeCategory(uint256 _age) public pure returns (AgeCategory) {\r\n        if (_age >= 13 && _age <= 14) {\r\n            return AgeCategory.Juveniles;\r\n        } else if (_age >= 15 && _age <= 17) {\r\n            return AgeCategory.Cadets;\r\n        } else if (_age >= 18 && _age <= 20) {\r\n            return AgeCategory.Juniors;\r\n        } else if (_age >= 21 && _age <= 30) {\r\n            return AgeCategory.Seniors;\r\n        } else {\r\n            return AgeCategory.Veterans;\r\n        }\r\n    }\r\n\r\n    function getWeightCategory(uint256 _weight) public pure returns (WeightCategory) {\r\n        if (_weight < 60) {\r\n            return WeightCategory.Under60;\r\n        } else if (_weight < 66) {\r\n            return WeightCategory.Under66;\r\n        } else if (_weight < 73) {\r\n            return WeightCategory.Under73;\r\n        } else if (_weight < 81) {\r\n            return WeightCategory.Under81;\r\n        } else if (_weight < 90) {\r\n            return WeightCategory.Under90;\r\n        } else if (_weight < 100) {\r\n            return WeightCategory.Under100;\r\n        } else {\r\n            return WeightCategory.Over100;\r\n        }\r\n    }\r\n\r\n    function calculateAge(Date memory _birthDate) public view returns (uint256) {\r\n        uint256 currentYear = block.timestamp / 365 days; // Get current year from timestamp\r\n        return currentYear > _birthDate.year ? currentYear - _birthDate.year : 0;\r\n    }\r\n\r\n    // Function to unpack date from uint32 format\r\n    function unpackDate(uint32 _packedDate) public pure returns (uint16 year, uint8 month, uint8 day) {\r\n        year = uint16(_packedDate >> 16);\r\n        month = uint8(_packedDate >> 8 & 0xFF);\r\n        day = uint8(_packedDate & 0xFF);\r\n    }\r\n\r\n\r\n// Correct usage in registerJudoka (and similar adjustment in other relevant functions)\r\nfunction registerJudoka(\r\n        string memory _name, \r\n        address _walletAddress, \r\n        Date memory _birthDate,\r\n        Gender _gender,\r\n        uint256 _weight,\r\n        string memory _club\r\n    ) public {\r\n        require(_walletAddress != address(0), \"Invalid wallet address\");\r\n        require(judokaIds[_walletAddress] == 0, \"Judoka already registered\");\r\n\r\n        uint256 age = calculateAge(_birthDate);\r\n\r\n        AgeCategory ageCategory = getAgeCategory(age);\r\n        WeightCategory weightCategory = getWeightCategory(_weight);\r\n\r\n        judokaCount++;\r\n        judokasBasic[judokaCount] = JudokaBasic({\r\n            id: judokaCount,\r\n            name: _name,\r\n            walletAddress: _walletAddress,\r\n            beltLevel: BeltLevel.White,\r\n            birthDate: _birthDate,\r\n            gender: _gender\r\n        });\r\n\r\n        judokasContact[judokaCount] = JudokaContact({\r\n            email: '',\r\n            phoneNumber: ''\r\n        });\r\n\r\n        judokasPhysical[judokaCount] = JudokaPhysical({\r\n            age: age,\r\n            weight: _weight,\r\n            club: _club,\r\n            ageCategory: ageCategory,\r\n            weightCategory: weightCategory\r\n        });\r\n\r\n        judokaIds[_walletAddress] = judokaCount;\r\n\r\n        emit JudokaRegistered(\r\n            judokaCount, _name, _walletAddress, BeltLevel.White, _birthDate.year, _gender, '', '', age, _weight, _club, ageCategory, weightCategory, block.timestamp\r\n        );\r\n    }\r\n\r\n\r\nfunction getJudokaDOB(uint256 _id) public view returns (uint16 year, uint8 month, uint8 day) {\r\n    Date storage birthDate = judokasBasic[_id].birthDate;\r\n    year = birthDate.year;\r\n    month = birthDate.month;\r\n    day = birthDate.day;\r\n}\r\n\r\n\r\nfunction updateJudokaContactDetails(\r\n    uint256 _id,\r\n    string memory _email,\r\n    string memory _phoneNumber\r\n) public {\r\n    require(_id > 0 && _id <= judokaCount, \"Judoka does not exist\");\r\n    require(msg.sender == judokasBasic[_id].walletAddress || isAdmin(msg.sender), \"Not authorized\");\r\n\r\n    judokasContact[_id] = JudokaContact({\r\n        email: _email,\r\n        phoneNumber: _phoneNumber\r\n    });\r\n\r\n    emit JudokaContactUpdated(_id, _email, _phoneNumber);\r\n    }\r\n\r\n    function getJudokaInfo(uint256 _id) public view returns (FullJudokaInfo memory) {\r\n        require(_id > 0 && _id <= judokaCount, \"Judoka does not exist.\");\r\n        return FullJudokaInfo({\r\n            basic: judokasBasic[_id],\r\n            contact: judokasContact[_id],\r\n            physical: judokasPhysical[_id]\r\n        });\r\n    }\r\n\r\n    function getBeltLevel(uint256 _id) public view returns (BeltLevel) {\r\n        require(_id > 0 && _id <= judokaCount, \"Judoka does not exist.\");\r\n        return judokasBasic[_id].beltLevel;\r\n    }\r\n\r\n    function promoteJudoka(uint256 _id, BeltLevel _newBeltLevel) public onlyAdmin {\r\n        require(_id > 0 && _id <= judokaCount, \"Judoka does not exist.\");\r\n        require(_newBeltLevel > judokasBasic[_id].beltLevel, \"New level must be higher\");\r\n\r\n        BeltLevel oldBeltLevel = judokasBasic[_id].beltLevel;\r\n        judokasBasic[_id].beltLevel = _newBeltLevel;\r\n\r\n        if (_newBeltLevel == BeltLevel.Black) {\r\n            blackBeltAdmins[judokasBasic[_id].walletAddress] = true;\r\n        }\r\n\r\n        emit BeltLevelUpdated(_id, oldBeltLevel, _newBeltLevel, block.timestamp);\r\n    }\r\n\r\n    function isBlackBelt(address _address) public view returns (bool) {\r\n        return judokasBasic[judokaIds[_address]].beltLevel == BeltLevel.Black;\r\n    }\r\n\r\n    function isAuthorized(uint256 _id, address _sender) public view returns (bool) {\r\n        return _sender == judokasBasic[_id].walletAddress || _sender == admin;\r\n    }\r\n\r\n    function updateJudokaPoints(uint256 _id, uint256 _points) public onlyAdmin {\r\n        require(_id > 0 && _id <= judokaCount, \"Invalid Judoka ID\");\r\n        judokaPoints[_id] += _points;\r\n    }\r\n\r\n// Function to create a competition correctly handling the packed date\r\nfunction createCompetition(\r\n    string memory _name,\r\n    uint8 _day,\r\n    uint8 _month,\r\n    uint16 _year // Assuming you want to store the full date\r\n) public onlyAdmin {\r\n    // Create the date structure for the competition\r\n        Date memory competitionDate = Date({\r\n        day: _day,\r\n        month: _month,\r\n        year: _year\r\n    });\r\n\r\n    // Default results structure\r\n    CompetitionResult memory defaultResults = CompetitionResult({\r\n        firstPlace: address(0),\r\n        secondPlace: address(0),\r\n        thirdPlace: address(0),\r\n        fourthPlace: address(0)\r\n    });\r\n\r\n    // Increment the competition counter and set up the new competition\r\n    competitionCount++;\r\n    competitions[competitionCount] = Competition({\r\n        id: competitionCount,\r\n        name: _name,\r\n        date: competitionDate,\r\n        participants: new address[](0) ,\r\n        completed: false,\r\n        results: defaultResults\r\n    });\r\n\r\n    // Emit the competition creation event\r\n    emit CompetitionCreated(competitionCount, _name, _year * 10000 + _month * 100 + _day); // Example packed date format for the event\r\n    }\r\n\r\n\r\n    function addParticipant(uint256 _competitionId, address _participant) public onlyAdmin {\r\n        require(!competitions[_competitionId].completed, \"Competition already completed\");\r\n        competitions[_competitionId].participants.push(_participant);\r\n        emit ParticipantAdded(_competitionId, _participant);\r\n    }\r\n\r\n    function recordCompetitionResult(\r\n        uint256 _competitionId, \r\n        address _firstPlace, \r\n        address _secondPlace, \r\n        address _thirdPlace, \r\n        address _fourthPlace,\r\n        uint256 _firstPlacePoints,\r\n        uint256 _secondPlacePoints,\r\n        uint256 _thirdPlacePoints,\r\n        uint256 _fourthPlacePoints\r\n    ) public onlyAdmin {\r\n        require(!competitions[_competitionId].completed, \"Competition already completed\");\r\n        require(competitions[_competitionId].participants.length > 0, \"No participants in competition\");\r\n\r\n        require(judokaIds[_firstPlace] != 0, \"First place winner not registered\");\r\n        require(judokaIds[_secondPlace] != 0, \"Second place winner not registered\");\r\n        require(judokaIds[_thirdPlace] != 0, \"Third place winner not registered\");\r\n        require(judokaIds[_fourthPlace] != 0, \"Fourth place winner not registered\");\r\n\r\n        competitions[_competitionId].completed = true;\r\n        competitions[_competitionId].results = CompetitionResult({\r\n            firstPlace: _firstPlace,\r\n            secondPlace: _secondPlace,\r\n            thirdPlace: _thirdPlace,\r\n            fourthPlace: _fourthPlace\r\n        });\r\n\r\n        if (_firstPlacePoints > 0) {\r\n            updateJudokaPoints(judokaIds[_firstPlace], _firstPlacePoints);\r\n        }\r\n        if (_secondPlacePoints > 0) {\r\n            updateJudokaPoints(judokaIds[_secondPlace], _secondPlacePoints);\r\n        }\r\n        if (_thirdPlacePoints > 0) {\r\n            updateJudokaPoints(judokaIds[_thirdPlace], _thirdPlacePoints);\r\n        }\r\n        if (_fourthPlacePoints > 0) {\r\n            updateJudokaPoints(judokaIds[_fourthPlace], _fourthPlacePoints);\r\n        }\r\n\r\n        emit CompetitionResultRecorded(_competitionId, _firstPlace, _secondPlace, _thirdPlace, _fourthPlace);\r\n    }\r\n}\r\n",
  "sourcePath": "C:\\Users\\marti\\Documents\\projects\\judo-dapp\\contracts\\JudoSystem.sol",
  "compiler": {
    "name": "solc",
    "version": "0.8.0+commit.c7dfd78e.Emscripten.clang"
  },
  "schemaVersion": "3.4.16",
  "updatedAt": "2024-04-23T09:50:09.740Z",
  "networkType": "ethereum",
  "devdoc": {
    "kind": "dev",
    "methods": {},
    "version": 1
  },
  "userdoc": {
    "kind": "user",
    "methods": {},
    "version": 1
  }
}