{
  "contractName": "JudoBeltStorage",
  "abi": [
    {
      "inputs": [],
      "stateMutability": "nonpayable",
      "type": "constructor"
    },
    {
      "inputs": [],
      "name": "admin",
      "outputs": [
        {
          "internalType": "address",
          "name": "",
          "type": "address"
        }
      ],
      "stateMutability": "view",
      "type": "function",
      "constant": true
    },
    {
      "inputs": [
        {
          "internalType": "address",
          "name": "",
          "type": "address"
        }
      ],
      "name": "senseis",
      "outputs": [
        {
          "internalType": "bool",
          "name": "",
          "type": "bool"
        }
      ],
      "stateMutability": "view",
      "type": "function",
      "constant": true
    },
    {
      "inputs": [
        {
          "internalType": "address",
          "name": "judoka",
          "type": "address"
        },
        {
          "internalType": "enum JudoBeltStorage.BeltLevel",
          "name": "belt",
          "type": "uint8"
        }
      ],
      "name": "setBeltLevel",
      "outputs": [],
      "stateMutability": "nonpayable",
      "type": "function"
    },
    {
      "inputs": [
        {
          "internalType": "address",
          "name": "judoka",
          "type": "address"
        }
      ],
      "name": "getBeltLevel",
      "outputs": [
        {
          "internalType": "enum JudoBeltStorage.BeltLevel",
          "name": "",
          "type": "uint8"
        }
      ],
      "stateMutability": "view",
      "type": "function",
      "constant": true
    },
    {
      "inputs": [
        {
          "internalType": "address[]",
          "name": "senseiAddresses",
          "type": "address[]"
        }
      ],
      "name": "initializeSenseis",
      "outputs": [],
      "stateMutability": "nonpayable",
      "type": "function"
    },
    {
      "inputs": [
        {
          "internalType": "address",
          "name": "newAdmin",
          "type": "address"
        }
      ],
      "name": "transferAdminship",
      "outputs": [],
      "stateMutability": "nonpayable",
      "type": "function"
    }
  ],
  "bytecode": "0x608060405234801561001057600080fd5b5033600260006101000a81548173ffffffffffffffffffffffffffffffffffffffff021916908373ffffffffffffffffffffffffffffffffffffffff160217905550610a84806100616000396000f3fe608060405234801561001057600080fd5b50600436106100625760003560e01c80635be7cc1614610067578063a83a559814610083578063c84dd84d1461009f578063d53f3250146100cf578063e00e2713146100eb578063f851a4401461011b575b600080fd5b610081600480360381019061007c9190610740565b610139565b005b61009d600480360381019061009891906107a5565b61020d565b005b6100b960048036038101906100b49190610740565b610441565b6040516100c69190610898565b60405180910390f35b6100e960048036038101906100e49190610769565b610461565b005b61010560048036038101906101009190610740565b610651565b60405161011291906108b3565b60405180910390f35b6101236106a6565b604051610130919061087d565b60405180910390f35b600260009054906101000a900473ffffffffffffffffffffffffffffffffffffffff1673ffffffffffffffffffffffffffffffffffffffff163373ffffffffffffffffffffffffffffffffffffffff16146101c9576040517f08c379a00000000000000000000000000000000000000000000000000000000081526004016101c0906108ce565b60405180910390fd5b80600260006101000a81548173ffffffffffffffffffffffffffffffffffffffff021916908373ffffffffffffffffffffffffffffffffffffffff16021790555050565b600260009054906101000a900473ffffffffffffffffffffffffffffffffffffffff1673ffffffffffffffffffffffffffffffffffffffff163373ffffffffffffffffffffffffffffffffffffffff161461029d576040517f08c379a0000000000000000000000000000000000000000000000000000000008152600401610294906108ce565b60405180910390fd5b60005b8282905081101561043c5760018060008585858181106102e9577f4e487b7100000000000000000000000000000000000000000000000000000000600052603260045260246000fd5b90506020020160208101906102fe9190610740565b73ffffffffffffffffffffffffffffffffffffffff1673ffffffffffffffffffffffffffffffffffffffff16815260200190815260200160002060006101000a81548160ff021916908315150217905550600660008085858581811061038d577f4e487b7100000000000000000000000000000000000000000000000000000000600052603260045260246000fd5b90506020020160208101906103a29190610740565b73ffffffffffffffffffffffffffffffffffffffff1673ffffffffffffffffffffffffffffffffffffffff16815260200190815260200160002060006101000a81548160ff02191690836006811115610424577f4e487b7100000000000000000000000000000000000000000000000000000000600052602160045260246000fd5b021790555080806104349061096c565b9150506102a0565b505050565b60016020528060005260406000206000915054906101000a900460ff1681565b600260009054906101000a900473ffffffffffffffffffffffffffffffffffffffff1673ffffffffffffffffffffffffffffffffffffffff163373ffffffffffffffffffffffffffffffffffffffff16146104f1576040517f08c379a00000000000000000000000000000000000000000000000000000000081526004016104e8906108ce565b60405180910390fd5b806000808473ffffffffffffffffffffffffffffffffffffffff1673ffffffffffffffffffffffffffffffffffffffff16815260200190815260200160002060006101000a81548160ff02191690836006811115610578577f4e487b7100000000000000000000000000000000000000000000000000000000600052602160045260246000fd5b02179055506006808111156105b6577f4e487b7100000000000000000000000000000000000000000000000000000000600052602160045260246000fd5b8160068111156105ef577f4e487b7100000000000000000000000000000000000000000000000000000000600052602160045260246000fd5b141561064d5760018060008473ffffffffffffffffffffffffffffffffffffffff1673ffffffffffffffffffffffffffffffffffffffff16815260200190815260200160002060006101000a81548160ff0219169083151502179055505b5050565b60008060008373ffffffffffffffffffffffffffffffffffffffff1673ffffffffffffffffffffffffffffffffffffffff16815260200190815260200160002060009054906101000a900460ff169050919050565b600260009054906101000a900473ffffffffffffffffffffffffffffffffffffffff1681565b6000813590506106db81610a27565b92915050565b60008083601f8401126106f357600080fd5b8235905067ffffffffffffffff81111561070c57600080fd5b60208301915083602082028301111561072457600080fd5b9250929050565b60008135905061073a81610a3e565b92915050565b60006020828403121561075257600080fd5b6000610760848285016106cc565b91505092915050565b6000806040838503121561077c57600080fd5b600061078a858286016106cc565b925050602061079b8582860161072b565b9150509250929050565b600080602083850312156107b857600080fd5b600083013567ffffffffffffffff8111156107d257600080fd5b6107de858286016106e1565b92509250509250929050565b6107f3816108ff565b82525050565b61080281610911565b82525050565b6108118161095a565b82525050565b60006108246022836108ee565b91507f4f6e6c792061646d696e2063616e20706572666f726d2074686973206163746960008301527f6f6e0000000000000000000000000000000000000000000000000000000000006020830152604082019050919050565b600060208201905061089260008301846107ea565b92915050565b60006020820190506108ad60008301846107f9565b92915050565b60006020820190506108c86000830184610808565b92915050565b600060208201905081810360008301526108e781610817565b9050919050565b600082825260208201905092915050565b600061090a82610930565b9050919050565b60008115159050919050565b600081905061092b82610a13565b919050565b600073ffffffffffffffffffffffffffffffffffffffff82169050919050565b6000819050919050565b60006109658261091d565b9050919050565b600061097782610950565b91507fffffffffffffffffffffffffffffffffffffffffffffffffffffffffffffffff8214156109aa576109a96109b5565b5b600182019050919050565b7f4e487b7100000000000000000000000000000000000000000000000000000000600052601160045260246000fd5b7f4e487b7100000000000000000000000000000000000000000000000000000000600052602160045260246000fd5b60078110610a2457610a236109e4565b5b50565b610a30816108ff565b8114610a3b57600080fd5b50565b60078110610a4b57600080fd5b5056fea2646970667358221220010968e34e092c0456238cc3d521d3ceaa26f6cb3a9804bc8678ccd7e47fc26164736f6c63430008000033",
  "immutableReferences": {},
  "source": "// SPDX-License-Identifier: MIT\r\npragma solidity ^0.8.0;\r\n\r\ncontract JudoBeltStorage {\r\n    enum BeltLevel { White, Yellow, Orange, Green, Blue, Brown, Black }\r\n    mapping(address => BeltLevel) private judokaBelts;\r\n    mapping(address => bool) public senseis;\r\n\r\n    address public admin;\r\n\r\n    modifier onlyAdmin() {\r\n        require(msg.sender == admin, \"Only admin can perform this action\");\r\n        _;\r\n    }\r\n\r\n    constructor() {\r\n        admin = msg.sender;\r\n    }\r\n\r\n    function setBeltLevel(address judoka, BeltLevel belt) external onlyAdmin {\r\n        judokaBelts[judoka] = belt;\r\n        if(belt == BeltLevel.Black) {\r\n            senseis[judoka] = true;\r\n        }\r\n    }\r\n\r\n    function getBeltLevel(address judoka) external view returns (BeltLevel) {\r\n        return judokaBelts[judoka];\r\n    }\r\n\r\n    function initializeSenseis(address[] calldata senseiAddresses) external onlyAdmin {\r\n        for(uint i = 0; i < senseiAddresses.length; i++) {\r\n            senseis[senseiAddresses[i]] = true;\r\n            judokaBelts[senseiAddresses[i]] = BeltLevel.Black;\r\n        }\r\n    }\r\n\r\n    function transferAdminship(address newAdmin) external onlyAdmin {\r\n        admin = newAdmin;\r\n    }\r\n}\r\n",
  "sourcePath": "C:\\Users\\marti\\Documents\\projects\\judo-dapp\\contracts\\JudoBeltStorage.sol",
  "compiler": {
    "name": "solc",
    "version": "0.8.0+commit.c7dfd78e.Emscripten.clang"
  },
  "schemaVersion": "3.4.16",
  "updatedAt": "2024-01-05T11:58:32.387Z",
  "networkType": "ethereum",
  "devdoc": {
    "kind": "dev",
    "methods": {},
    "version": 1
  },
  "userdoc": {
    "kind": "user",
    "methods": {},
    "version": 1
  }
}