{
  "contractName": "JudoSystem",
  "abi": [
    {
      "inputs": [],
      "stateMutability": "nonpayable",
      "type": "constructor"
    },
    {
      "anonymous": false,
      "inputs": [
        {
          "indexed": true,
          "internalType": "uint256",
          "name": "id",
          "type": "uint256"
        },
        {
          "indexed": false,
          "internalType": "enum JudoSystem.BeltLevel",
          "name": "oldBeltLevel",
          "type": "uint8"
        },
        {
          "indexed": false,
          "internalType": "enum JudoSystem.BeltLevel",
          "name": "newBeltLevel",
          "type": "uint8"
        },
        {
          "indexed": false,
          "internalType": "uint256",
          "name": "timestamp",
          "type": "uint256"
        }
      ],
      "name": "BeltLevelUpdated",
      "type": "event"
    },
    {
      "anonymous": false,
      "inputs": [
        {
          "indexed": true,
          "internalType": "uint256",
          "name": "id",
          "type": "uint256"
        },
        {
          "indexed": false,
          "internalType": "string",
          "name": "name",
          "type": "string"
        },
        {
          "indexed": false,
          "internalType": "uint256",
          "name": "date",
          "type": "uint256"
        }
      ],
      "name": "CompetitionCreated",
      "type": "event"
    },
    {
      "anonymous": false,
      "inputs": [
        {
          "indexed": true,
          "internalType": "uint256",
          "name": "competitionId",
          "type": "uint256"
        },
        {
          "indexed": false,
          "internalType": "address",
          "name": "firstPlace",
          "type": "address"
        },
        {
          "indexed": false,
          "internalType": "address",
          "name": "secondPlace",
          "type": "address"
        },
        {
          "indexed": false,
          "internalType": "address",
          "name": "thirdPlace",
          "type": "address"
        },
        {
          "indexed": false,
          "internalType": "address",
          "name": "fourthPlace",
          "type": "address"
        }
      ],
      "name": "CompetitionResultRecorded",
      "type": "event"
    },
    {
      "anonymous": false,
      "inputs": [
        {
          "indexed": true,
          "internalType": "uint256",
          "name": "id",
          "type": "uint256"
        },
        {
          "indexed": false,
          "internalType": "string",
          "name": "name",
          "type": "string"
        },
        {
          "indexed": false,
          "internalType": "address",
          "name": "walletAddress",
          "type": "address"
        },
        {
          "indexed": false,
          "internalType": "enum JudoSystem.BeltLevel",
          "name": "beltLevel",
          "type": "uint8"
        },
        {
          "indexed": false,
          "internalType": "uint256",
          "name": "dateOfBirth",
          "type": "uint256"
        },
        {
          "indexed": false,
          "internalType": "enum JudoSystem.Gender",
          "name": "gender",
          "type": "uint8"
        },
        {
          "indexed": false,
          "internalType": "string",
          "name": "email",
          "type": "string"
        },
        {
          "indexed": false,
          "internalType": "string",
          "name": "phoneNumber",
          "type": "string"
        },
        {
          "indexed": false,
          "internalType": "uint256",
          "name": "timestamp",
          "type": "uint256"
        }
      ],
      "name": "JudokaRegistered",
      "type": "event"
    },
    {
      "anonymous": false,
      "inputs": [
        {
          "indexed": true,
          "internalType": "uint256",
          "name": "competitionId",
          "type": "uint256"
        },
        {
          "indexed": false,
          "internalType": "address",
          "name": "participant",
          "type": "address"
        }
      ],
      "name": "ParticipantAdded",
      "type": "event"
    },
    {
      "inputs": [],
      "name": "admin",
      "outputs": [
        {
          "internalType": "address",
          "name": "",
          "type": "address"
        }
      ],
      "stateMutability": "view",
      "type": "function",
      "constant": true
    },
    {
      "inputs": [
        {
          "internalType": "address",
          "name": "",
          "type": "address"
        }
      ],
      "name": "blackBeltAdmins",
      "outputs": [
        {
          "internalType": "bool",
          "name": "",
          "type": "bool"
        }
      ],
      "stateMutability": "view",
      "type": "function",
      "constant": true
    },
    {
      "inputs": [],
      "name": "competitionCount",
      "outputs": [
        {
          "internalType": "uint256",
          "name": "",
          "type": "uint256"
        }
      ],
      "stateMutability": "view",
      "type": "function",
      "constant": true
    },
    {
      "inputs": [
        {
          "internalType": "uint256",
          "name": "",
          "type": "uint256"
        }
      ],
      "name": "competitions",
      "outputs": [
        {
          "internalType": "uint256",
          "name": "id",
          "type": "uint256"
        },
        {
          "internalType": "string",
          "name": "name",
          "type": "string"
        },
        {
          "internalType": "uint256",
          "name": "date",
          "type": "uint256"
        },
        {
          "internalType": "bool",
          "name": "completed",
          "type": "bool"
        },
        {
          "components": [
            {
              "internalType": "address",
              "name": "firstPlace",
              "type": "address"
            },
            {
              "internalType": "address",
              "name": "secondPlace",
              "type": "address"
            },
            {
              "internalType": "address",
              "name": "thirdPlace",
              "type": "address"
            },
            {
              "internalType": "address",
              "name": "fourthPlace",
              "type": "address"
            }
          ],
          "internalType": "struct JudoSystem.CompetitionResult",
          "name": "results",
          "type": "tuple"
        }
      ],
      "stateMutability": "view",
      "type": "function",
      "constant": true
    },
    {
      "inputs": [],
      "name": "judokaCount",
      "outputs": [
        {
          "internalType": "uint256",
          "name": "",
          "type": "uint256"
        }
      ],
      "stateMutability": "view",
      "type": "function",
      "constant": true
    },
    {
      "inputs": [
        {
          "internalType": "address",
          "name": "",
          "type": "address"
        }
      ],
      "name": "judokaIds",
      "outputs": [
        {
          "internalType": "uint256",
          "name": "",
          "type": "uint256"
        }
      ],
      "stateMutability": "view",
      "type": "function",
      "constant": true
    },
    {
      "inputs": [
        {
          "internalType": "uint256",
          "name": "",
          "type": "uint256"
        }
      ],
      "name": "judokaPoints",
      "outputs": [
        {
          "internalType": "uint256",
          "name": "",
          "type": "uint256"
        }
      ],
      "stateMutability": "view",
      "type": "function",
      "constant": true
    },
    {
      "inputs": [
        {
          "internalType": "uint256",
          "name": "",
          "type": "uint256"
        }
      ],
      "name": "judokas",
      "outputs": [
        {
          "internalType": "uint256",
          "name": "id",
          "type": "uint256"
        },
        {
          "internalType": "string",
          "name": "name",
          "type": "string"
        },
        {
          "internalType": "address",
          "name": "walletAddress",
          "type": "address"
        },
        {
          "internalType": "enum JudoSystem.BeltLevel",
          "name": "beltLevel",
          "type": "uint8"
        },
        {
          "internalType": "uint256",
          "name": "dateOfBirth",
          "type": "uint256"
        },
        {
          "internalType": "enum JudoSystem.Gender",
          "name": "gender",
          "type": "uint8"
        },
        {
          "internalType": "string",
          "name": "email",
          "type": "string"
        },
        {
          "internalType": "string",
          "name": "phoneNumber",
          "type": "string"
        },
        {
          "internalType": "uint256",
          "name": "age",
          "type": "uint256"
        },
        {
          "internalType": "uint256",
          "name": "weight",
          "type": "uint256"
        },
        {
          "internalType": "string",
          "name": "club",
          "type": "string"
        }
      ],
      "stateMutability": "view",
      "type": "function",
      "constant": true
    },
    {
      "inputs": [
        {
          "internalType": "string",
          "name": "_name",
          "type": "string"
        },
        {
          "internalType": "address",
          "name": "_walletAddress",
          "type": "address"
        },
        {
          "internalType": "uint256",
          "name": "_dateOfBirth",
          "type": "uint256"
        },
        {
          "internalType": "uint8",
          "name": "_gender",
          "type": "uint8"
        },
        {
          "internalType": "string",
          "name": "_email",
          "type": "string"
        },
        {
          "internalType": "string",
          "name": "_phoneNumber",
          "type": "string"
        },
        {
          "internalType": "uint256",
          "name": "_age",
          "type": "uint256"
        },
        {
          "internalType": "uint256",
          "name": "_weight",
          "type": "uint256"
        },
        {
          "internalType": "string",
          "name": "_club",
          "type": "string"
        }
      ],
      "name": "registerJudoka",
      "outputs": [],
      "stateMutability": "nonpayable",
      "type": "function"
    },
    {
      "inputs": [
        {
          "internalType": "address",
          "name": "_sender",
          "type": "address"
        }
      ],
      "name": "isAdmin",
      "outputs": [
        {
          "internalType": "bool",
          "name": "",
          "type": "bool"
        }
      ],
      "stateMutability": "view",
      "type": "function",
      "constant": true
    },
    {
      "inputs": [
        {
          "internalType": "uint256",
          "name": "_id",
          "type": "uint256"
        }
      ],
      "name": "getJudokaInfo",
      "outputs": [
        {
          "components": [
            {
              "internalType": "uint256",
              "name": "id",
              "type": "uint256"
            },
            {
              "internalType": "string",
              "name": "name",
              "type": "string"
            },
            {
              "internalType": "address",
              "name": "walletAddress",
              "type": "address"
            },
            {
              "internalType": "enum JudoSystem.BeltLevel",
              "name": "beltLevel",
              "type": "uint8"
            },
            {
              "internalType": "uint256",
              "name": "dateOfBirth",
              "type": "uint256"
            },
            {
              "internalType": "enum JudoSystem.Gender",
              "name": "gender",
              "type": "uint8"
            },
            {
              "internalType": "string",
              "name": "email",
              "type": "string"
            },
            {
              "internalType": "string",
              "name": "phoneNumber",
              "type": "string"
            },
            {
              "internalType": "uint256",
              "name": "age",
              "type": "uint256"
            },
            {
              "internalType": "uint256",
              "name": "weight",
              "type": "uint256"
            },
            {
              "internalType": "string",
              "name": "club",
              "type": "string"
            }
          ],
          "internalType": "struct JudoSystem.Judoka",
          "name": "",
          "type": "tuple"
        }
      ],
      "stateMutability": "view",
      "type": "function",
      "constant": true
    },
    {
      "inputs": [
        {
          "internalType": "uint256",
          "name": "_id",
          "type": "uint256"
        }
      ],
      "name": "getBeltLevel",
      "outputs": [
        {
          "internalType": "enum JudoSystem.BeltLevel",
          "name": "",
          "type": "uint8"
        }
      ],
      "stateMutability": "view",
      "type": "function",
      "constant": true
    },
    {
      "inputs": [
        {
          "internalType": "uint256",
          "name": "_id",
          "type": "uint256"
        },
        {
          "internalType": "enum JudoSystem.BeltLevel",
          "name": "_newBeltLevel",
          "type": "uint8"
        }
      ],
      "name": "promoteJudoka",
      "outputs": [],
      "stateMutability": "nonpayable",
      "type": "function"
    },
    {
      "inputs": [
        {
          "internalType": "address",
          "name": "_address",
          "type": "address"
        }
      ],
      "name": "isBlackBelt",
      "outputs": [
        {
          "internalType": "bool",
          "name": "",
          "type": "bool"
        }
      ],
      "stateMutability": "view",
      "type": "function",
      "constant": true
    },
    {
      "inputs": [
        {
          "internalType": "uint256",
          "name": "_id",
          "type": "uint256"
        },
        {
          "internalType": "address",
          "name": "_sender",
          "type": "address"
        }
      ],
      "name": "isAuthorized",
      "outputs": [
        {
          "internalType": "bool",
          "name": "",
          "type": "bool"
        }
      ],
      "stateMutability": "view",
      "type": "function",
      "constant": true
    },
    {
      "inputs": [
        {
          "internalType": "uint256",
          "name": "_id",
          "type": "uint256"
        },
        {
          "internalType": "uint256",
          "name": "_points",
          "type": "uint256"
        }
      ],
      "name": "updateJudokaPoints",
      "outputs": [],
      "stateMutability": "nonpayable",
      "type": "function"
    },
    {
      "inputs": [
        {
          "internalType": "string",
          "name": "_name",
          "type": "string"
        },
        {
          "internalType": "uint256",
          "name": "_date",
          "type": "uint256"
        }
      ],
      "name": "createCompetition",
      "outputs": [],
      "stateMutability": "nonpayable",
      "type": "function"
    },
    {
      "inputs": [
        {
          "internalType": "uint256",
          "name": "_competitionId",
          "type": "uint256"
        },
        {
          "internalType": "address",
          "name": "_participant",
          "type": "address"
        }
      ],
      "name": "addParticipant",
      "outputs": [],
      "stateMutability": "nonpayable",
      "type": "function"
    },
    {
      "inputs": [
        {
          "internalType": "uint256",
          "name": "_competitionId",
          "type": "uint256"
        },
        {
          "internalType": "address",
          "name": "_firstPlace",
          "type": "address"
        },
        {
          "internalType": "address",
          "name": "_secondPlace",
          "type": "address"
        },
        {
          "internalType": "address",
          "name": "_thirdPlace",
          "type": "address"
        },
        {
          "internalType": "address",
          "name": "_fourthPlace",
          "type": "address"
        },
        {
          "internalType": "uint256",
          "name": "_firstPlacePoints",
          "type": "uint256"
        },
        {
          "internalType": "uint256",
          "name": "_secondPlacePoints",
          "type": "uint256"
        },
        {
          "internalType": "uint256",
          "name": "_thirdPlacePoints",
          "type": "uint256"
        },
        {
          "internalType": "uint256",
          "name": "_fourthPlacePoints",
          "type": "uint256"
        }
      ],
      "name": "recordCompetitionResult",
      "outputs": [],
      "stateMutability": "nonpayable",
      "type": "function"
    }
  ],
  "bytecode": "0x608060405234801561001057600080fd5b5033600760006101000a81548173ffffffffffffffffffffffffffffffffffffffff021916908373ffffffffffffffffffffffffffffffffffffffff1602179055506001600660003373ffffffffffffffffffffffffffffffffffffffff1673ffffffffffffffffffffffffffffffffffffffff16815260200190815260200160002060006101000a81548160ff021916908315150217905550613901806100b96000396000f3fe608060405234801561001057600080fd5b50600436106101215760003560e01c806345504a83116100ad578063cab96b7011610071578063cab96b7014610340578063ccf28e861461035e578063ce3824b21461038e578063e9f86f1e146103c8578063f851a440146103f857610121565b806345504a8314610272578063609c6d7f146102a25780637d5d952c146102d25780639f6828d9146102ee578063a16817701461032257610121565b80631ef31992116100f45780631ef31992146101aa57806322b9dd90146101da57806324d7806c146101f657806338897f9a146102265780633ab9f6d81461024257610121565b806310c1224c1461012657806318d85e53146101565780631b8558dd146101725780631d91d3221461018e575b600080fd5b610140600480360381019061013b919061271c565b610416565b60405161014d9190613112565b60405180910390f35b610170600480360381019061016b91906128e8565b6104f4565b005b61018c60048036038101906101879190612a26565b610653565b005b6101a860048036038101906101a3919061286b565b61071a565b005b6101c460048036038101906101bf91906128bf565b610ad2565b6040516101d1919061312d565b60405180910390f35b6101f460048036038101906101ef91906129ea565b610b4f565b005b610210600480360381019061020b919061271c565b610e91565b60405161021d9190613112565b60405180910390f35b610240600480360381019061023b9190612924565b610f3f565b005b61025c6004803603810190610257919061271c565b6115c5565b6040516102699190613404565b60405180910390f35b61028c600480360381019061028791906128bf565b6115dd565b60405161029991906133e2565b60405180910390f35b6102bc60048036038101906102b791906128e8565b6119df565b6040516102c99190613112565b60405180910390f35b6102ec60048036038101906102e79190612745565b611aa6565b005b610308600480360381019061030391906128bf565b611f08565b6040516103199594939291906134e6565b60405180910390f35b61032a612135565b6040516103379190613404565b60405180910390f35b61034861213b565b6040516103559190613404565b60405180910390f35b6103786004803603810190610373919061271c565b612141565b6040516103859190613112565b60405180910390f35b6103a860048036038101906103a391906128bf565b612161565b6040516103bf9b9a9998979695949392919061341f565b60405180910390f35b6103e260048036038101906103dd91906128bf565b612415565b6040516103ef9190613404565b60405180910390f35b61040061242d565b60405161040d91906130b2565b60405180910390f35b6000600680811115610451577f4e487b7100000000000000000000000000000000000000000000000000000000600052602160045260246000fd5b60026000600360008673ffffffffffffffffffffffffffffffffffffffff1673ffffffffffffffffffffffffffffffffffffffff16815260200190815260200160002054815260200190815260200160002060020160149054906101000a900460ff1660068111156104ec577f4e487b7100000000000000000000000000000000000000000000000000000000600052602160045260246000fd5b149050919050565b6104fd33610e91565b61053c576040517f08c379a000000000000000000000000000000000000000000000000000000000815260040161053390613322565b60405180910390fd5b6005600083815260200190815260200160002060040160009054906101000a900460ff16156105a0576040517f08c379a0000000000000000000000000000000000000000000000000000000008152600401610597906133c2565b60405180910390fd5b60056000838152602001908152602001600020600301819080600181540180825580915050600190039060005260206000200160009091909190916101000a81548173ffffffffffffffffffffffffffffffffffffffff021916908373ffffffffffffffffffffffffffffffffffffffff160217905550817f12246ba2398106df92bc0281a1eece14e5b8516c5c3dab76205391650e39fddb8260405161064791906130b2565b60405180910390a25050565b61065c33610e91565b61069b576040517f08c379a000000000000000000000000000000000000000000000000000000000815260040161069290613322565b60405180910390fd5b6000821180156106ad57506000548211155b6106ec576040517f08c379a00000000000000000000000000000000000000000000000000000000081526004016106e390613262565b60405180910390fd5b8060046000848152602001908152602001600020600082825461070f91906135cf565b925050819055505050565b600760009054906101000a900473ffffffffffffffffffffffffffffffffffffffff1673ffffffffffffffffffffffffffffffffffffffff163373ffffffffffffffffffffffffffffffffffffffff16146107aa576040517f08c379a00000000000000000000000000000000000000000000000000000000081526004016107a1906132c2565b60405180910390fd5b60006040518060800160405280600073ffffffffffffffffffffffffffffffffffffffff168152602001600073ffffffffffffffffffffffffffffffffffffffff168152602001600073ffffffffffffffffffffffffffffffffffffffff168152602001600073ffffffffffffffffffffffffffffffffffffffff1681525090506001600081548092919061083e90613738565b91905055506040518060c001604052806001548152602001848152602001838152602001600067ffffffffffffffff8111156108a3577f4e487b7100000000000000000000000000000000000000000000000000000000600052604160045260246000fd5b6040519080825280602002602001820160405280156108d15781602001602082028036833780820191505090505b5081526020016000151581526020018281525060056000600154815260200190815260200160002060008201518160000155602082015181600101908051906020019061091f929190612453565b506040820151816002015560608201518160030190805190602001906109469291906124d9565b5060808201518160040160006101000a81548160ff02191690831515021790555060a08201518160050160008201518160000160006101000a81548173ffffffffffffffffffffffffffffffffffffffff021916908373ffffffffffffffffffffffffffffffffffffffff16021790555060208201518160010160006101000a81548173ffffffffffffffffffffffffffffffffffffffff021916908373ffffffffffffffffffffffffffffffffffffffff16021790555060408201518160020160006101000a81548173ffffffffffffffffffffffffffffffffffffffff021916908373ffffffffffffffffffffffffffffffffffffffff16021790555060608201518160030160006101000a81548173ffffffffffffffffffffffffffffffffffffffff021916908373ffffffffffffffffffffffffffffffffffffffff16021790555050509050506001547f527887ed6033dc7f6637d06840290a881f67a7f6b0b297598a5a88195bba4f6d8484604051610ac5929190613212565b60405180910390a2505050565b60008082118015610ae557506000548211155b610b24576040517f08c379a0000000000000000000000000000000000000000000000000000000008152600401610b1b906133a2565b60405180910390fd5b6002600083815260200190815260200160002060020160149054906101000a900460ff169050919050565b610b5833610e91565b610b97576040517f08c379a0000000000000000000000000000000000000000000000000000000008152600401610b8e90613322565b60405180910390fd5b600082118015610ba957506000548211155b610be8576040517f08c379a0000000000000000000000000000000000000000000000000000000008152600401610bdf906133a2565b60405180910390fd5b6002600083815260200190815260200160002060020160149054906101000a900460ff166006811115610c44577f4e487b7100000000000000000000000000000000000000000000000000000000600052602160045260246000fd5b816006811115610c7d577f4e487b7100000000000000000000000000000000000000000000000000000000600052602160045260246000fd5b11610cbd576040517f08c379a0000000000000000000000000000000000000000000000000000000008152600401610cb490613282565b60405180910390fd5b60006002600084815260200190815260200160002060020160149054906101000a900460ff169050816002600085815260200190815260200160002060020160146101000a81548160ff02191690836006811115610d44577f4e487b7100000000000000000000000000000000000000000000000000000000600052602160045260246000fd5b0217905550600680811115610d82577f4e487b7100000000000000000000000000000000000000000000000000000000600052602160045260246000fd5b826006811115610dbb577f4e487b7100000000000000000000000000000000000000000000000000000000600052602160045260246000fd5b1415610e50576001600660006002600087815260200190815260200160002060020160009054906101000a900473ffffffffffffffffffffffffffffffffffffffff1673ffffffffffffffffffffffffffffffffffffffff1673ffffffffffffffffffffffffffffffffffffffff16815260200190815260200160002060006101000a81548160ff0219169083151502179055505b827f01ae96fe1baf9d2d284e6a11b7ab2a76e1c8b047b807650660b4370d50462f23828442604051610e8493929190613148565b60405180910390a2505050565b6000600760009054906101000a900473ffffffffffffffffffffffffffffffffffffffff1673ffffffffffffffffffffffffffffffffffffffff168273ffffffffffffffffffffffffffffffffffffffff161480610f385750600660008373ffffffffffffffffffffffffffffffffffffffff1673ffffffffffffffffffffffffffffffffffffffff16815260200190815260200160002060009054906101000a900460ff165b9050919050565b610f4833610e91565b610f87576040517f08c379a0000000000000000000000000000000000000000000000000000000008152600401610f7e90613322565b60405180910390fd5b600560008a815260200190815260200160002060040160009054906101000a900460ff1615610feb576040517f08c379a0000000000000000000000000000000000000000000000000000000008152600401610fe2906133c2565b60405180910390fd5b6000600560008b81526020019081526020016000206003018054905011611047576040517f08c379a000000000000000000000000000000000000000000000000000000000815260040161103e906132e2565b60405180910390fd5b6000600360008a73ffffffffffffffffffffffffffffffffffffffff1673ffffffffffffffffffffffffffffffffffffffff1681526020019081526020016000205414156110ca576040517f08c379a00000000000000000000000000000000000000000000000000000000081526004016110c190613382565b60405180910390fd5b6000600360008973ffffffffffffffffffffffffffffffffffffffff1673ffffffffffffffffffffffffffffffffffffffff16815260200190815260200160002054141561114d576040517f08c379a000000000000000000000000000000000000000000000000000000000815260040161114490613302565b60405180910390fd5b6000600360008873ffffffffffffffffffffffffffffffffffffffff1673ffffffffffffffffffffffffffffffffffffffff1681526020019081526020016000205414156111d0576040517f08c379a00000000000000000000000000000000000000000000000000000000081526004016111c790613242565b60405180910390fd5b6000600360008773ffffffffffffffffffffffffffffffffffffffff1673ffffffffffffffffffffffffffffffffffffffff168152602001908152602001600020541415611253576040517f08c379a000000000000000000000000000000000000000000000000000000000815260040161124a906132a2565b60405180910390fd5b6001600560008b815260200190815260200160002060040160006101000a81548160ff02191690831515021790555060405180608001604052808973ffffffffffffffffffffffffffffffffffffffff1681526020018873ffffffffffffffffffffffffffffffffffffffff1681526020018773ffffffffffffffffffffffffffffffffffffffff1681526020018673ffffffffffffffffffffffffffffffffffffffff16815250600560008b815260200190815260200160002060050160008201518160000160006101000a81548173ffffffffffffffffffffffffffffffffffffffff021916908373ffffffffffffffffffffffffffffffffffffffff16021790555060208201518160010160006101000a81548173ffffffffffffffffffffffffffffffffffffffff021916908373ffffffffffffffffffffffffffffffffffffffff16021790555060408201518160020160006101000a81548173ffffffffffffffffffffffffffffffffffffffff021916908373ffffffffffffffffffffffffffffffffffffffff16021790555060608201518160030160006101000a81548173ffffffffffffffffffffffffffffffffffffffff021916908373ffffffffffffffffffffffffffffffffffffffff160217905550905050600084111561148357611482600360008a73ffffffffffffffffffffffffffffffffffffffff1673ffffffffffffffffffffffffffffffffffffffff1681526020019081526020016000205485610653565b5b60008311156114d6576114d5600360008973ffffffffffffffffffffffffffffffffffffffff1673ffffffffffffffffffffffffffffffffffffffff1681526020019081526020016000205484610653565b5b600082111561152957611528600360008873ffffffffffffffffffffffffffffffffffffffff1673ffffffffffffffffffffffffffffffffffffffff1681526020019081526020016000205483610653565b5b600081111561157c5761157b600360008773ffffffffffffffffffffffffffffffffffffffff1673ffffffffffffffffffffffffffffffffffffffff1681526020019081526020016000205482610653565b5b887f19974ab114e4d06de9fa6a18e214db804b1d2a9b1acb21496207e2deafbbb9dc898989896040516115b294939291906130cd565b60405180910390a2505050505050505050565b60036020528060005260406000206000915090505481565b6115e5612563565b60026000838152602001908152602001600020604051806101600160405290816000820154815260200160018201805461161e90613706565b80601f016020809104026020016040519081016040528092919081815260200182805461164a90613706565b80156116975780601f1061166c57610100808354040283529160200191611697565b820191906000526020600020905b81548152906001019060200180831161167a57829003601f168201915b505050505081526020016002820160009054906101000a900473ffffffffffffffffffffffffffffffffffffffff1673ffffffffffffffffffffffffffffffffffffffff1673ffffffffffffffffffffffffffffffffffffffff1681526020016002820160149054906101000a900460ff166006811115611741577f4e487b7100000000000000000000000000000000000000000000000000000000600052602160045260246000fd5b6006811115611779577f4e487b7100000000000000000000000000000000000000000000000000000000600052602160045260246000fd5b8152602001600382015481526020016004820160009054906101000a900460ff1660018111156117d2577f4e487b7100000000000000000000000000000000000000000000000000000000600052602160045260246000fd5b600181111561180a577f4e487b7100000000000000000000000000000000000000000000000000000000600052602160045260246000fd5b815260200160058201805461181e90613706565b80601f016020809104026020016040519081016040528092919081815260200182805461184a90613706565b80156118975780601f1061186c57610100808354040283529160200191611897565b820191906000526020600020905b81548152906001019060200180831161187a57829003601f168201915b505050505081526020016006820180546118b090613706565b80601f01602080910402602001604051908101604052809291908181526020018280546118dc90613706565b80156119295780601f106118fe57610100808354040283529160200191611929565b820191906000526020600020905b81548152906001019060200180831161190c57829003601f168201915b50505050508152602001600782015481526020016008820154815260200160098201805461195690613706565b80601f016020809104026020016040519081016040528092919081815260200182805461198290613706565b80156119cf5780601f106119a4576101008083540402835291602001916119cf565b820191906000526020600020905b8154815290600101906020018083116119b257829003601f168201915b5050505050815250509050919050565b60006002600084815260200190815260200160002060020160009054906101000a900473ffffffffffffffffffffffffffffffffffffffff1673ffffffffffffffffffffffffffffffffffffffff168273ffffffffffffffffffffffffffffffffffffffff161480611a9e5750600760009054906101000a900473ffffffffffffffffffffffffffffffffffffffff1673ffffffffffffffffffffffffffffffffffffffff168273ffffffffffffffffffffffffffffffffffffffff16145b905092915050565b600073ffffffffffffffffffffffffffffffffffffffff168873ffffffffffffffffffffffffffffffffffffffff161415611b16576040517f08c379a0000000000000000000000000000000000000000000000000000000008152600401611b0d90613362565b60405180910390fd5b6000600360008a73ffffffffffffffffffffffffffffffffffffffff1673ffffffffffffffffffffffffffffffffffffffff1681526020019081526020016000205414611b98576040517f08c379a0000000000000000000000000000000000000000000000000000000008152600401611b8f90613342565b60405180910390fd5b60008660ff166001811115611bd6577f4e487b7100000000000000000000000000000000000000000000000000000000600052602160045260246000fd5b9050600080815480929190611bea90613738565b919050555060405180610160016040528060005481526020018b81526020018a73ffffffffffffffffffffffffffffffffffffffff16815260200160006006811115611c5f577f4e487b7100000000000000000000000000000000000000000000000000000000600052602160045260246000fd5b8152602001898152602001826001811115611ca3577f4e487b7100000000000000000000000000000000000000000000000000000000600052602160045260246000fd5b8152602001878152602001868152602001858152602001848152602001838152506002600080548152602001908152602001600020600082015181600001556020820151816001019080519060200190611cfe929190612453565b5060408201518160020160006101000a81548173ffffffffffffffffffffffffffffffffffffffff021916908373ffffffffffffffffffffffffffffffffffffffff16021790555060608201518160020160146101000a81548160ff02191690836006811115611d97577f4e487b7100000000000000000000000000000000000000000000000000000000600052602160045260246000fd5b02179055506080820151816003015560a08201518160040160006101000a81548160ff02191690836001811115611df7577f4e487b7100000000000000000000000000000000000000000000000000000000600052602160045260246000fd5b021790555060c0820151816005019080519060200190611e18929190612453565b5060e0820151816006019080519060200190611e35929190612453565b5061010082015181600701556101208201518160080155610140820151816009019080519060200190611e69929190612453565b50905050600054600360008b73ffffffffffffffffffffffffffffffffffffffff1673ffffffffffffffffffffffffffffffffffffffff168152602001908152602001600020819055506000547f1aa2daf79773d4b03f8c5c647ce687b708b9b0ed394bc1abeb4490ae92f407998b8b60008c868c8c42604051611ef498979695949392919061317f565b60405180910390a250505050505050505050565b6005602052806000526040600020600091509050806000015490806001018054611f3190613706565b80601f0160208091040260200160405190810160405280929190818152602001828054611f5d90613706565b8015611faa5780601f10611f7f57610100808354040283529160200191611faa565b820191906000526020600020905b815481529060010190602001808311611f8d57829003601f168201915b5050505050908060020154908060040160009054906101000a900460ff1690806005016040518060800160405290816000820160009054906101000a900473ffffffffffffffffffffffffffffffffffffffff1673ffffffffffffffffffffffffffffffffffffffff1673ffffffffffffffffffffffffffffffffffffffff1681526020016001820160009054906101000a900473ffffffffffffffffffffffffffffffffffffffff1673ffffffffffffffffffffffffffffffffffffffff1673ffffffffffffffffffffffffffffffffffffffff1681526020016002820160009054906101000a900473ffffffffffffffffffffffffffffffffffffffff1673ffffffffffffffffffffffffffffffffffffffff1673ffffffffffffffffffffffffffffffffffffffff1681526020016003820160009054906101000a900473ffffffffffffffffffffffffffffffffffffffff1673ffffffffffffffffffffffffffffffffffffffff1673ffffffffffffffffffffffffffffffffffffffff1681525050905085565b60015481565b60005481565b60066020528060005260406000206000915054906101000a900460ff1681565b600260205280600052604060002060009150905080600001549080600101805461218a90613706565b80601f01602080910402602001604051908101604052809291908181526020018280546121b690613706565b80156122035780601f106121d857610100808354040283529160200191612203565b820191906000526020600020905b8154815290600101906020018083116121e657829003601f168201915b5050505050908060020160009054906101000a900473ffffffffffffffffffffffffffffffffffffffff16908060020160149054906101000a900460ff16908060030154908060040160009054906101000a900460ff169080600501805461226a90613706565b80601f016020809104026020016040519081016040528092919081815260200182805461229690613706565b80156122e35780601f106122b8576101008083540402835291602001916122e3565b820191906000526020600020905b8154815290600101906020018083116122c657829003601f168201915b5050505050908060060180546122f890613706565b80601f016020809104026020016040519081016040528092919081815260200182805461232490613706565b80156123715780601f1061234657610100808354040283529160200191612371565b820191906000526020600020905b81548152906001019060200180831161235457829003601f168201915b50505050509080600701549080600801549080600901805461239290613706565b80601f01602080910402602001604051908101604052809291908181526020018280546123be90613706565b801561240b5780601f106123e05761010080835404028352916020019161240b565b820191906000526020600020905b8154815290600101906020018083116123ee57829003601f168201915b505050505090508b565b60046020528060005260406000206000915090505481565b600760009054906101000a900473ffffffffffffffffffffffffffffffffffffffff1681565b82805461245f90613706565b90600052602060002090601f01602090048101928261248157600085556124c8565b82601f1061249a57805160ff19168380011785556124c8565b828001600101855582156124c8579182015b828111156124c75782518255916020019190600101906124ac565b5b5090506124d59190612643565b5090565b828054828255906000526020600020908101928215612552579160200282015b828111156125515782518260006101000a81548173ffffffffffffffffffffffffffffffffffffffff021916908373ffffffffffffffffffffffffffffffffffffffff160217905550916020019190600101906124f9565b5b50905061255f9190612643565b5090565b6040518061016001604052806000815260200160608152602001600073ffffffffffffffffffffffffffffffffffffffff168152602001600060068111156125d4577f4e487b7100000000000000000000000000000000000000000000000000000000600052602160045260246000fd5b8152602001600081526020016000600181111561261a577f4e487b7100000000000000000000000000000000000000000000000000000000600052602160045260246000fd5b815260200160608152602001606081526020016000815260200160008152602001606081525090565b5b8082111561265c576000816000905550600101612644565b5090565b600061267361266e84613572565b613541565b90508281526020810184848401111561268b57600080fd5b6126968482856136c4565b509392505050565b6000813590506126ad81613876565b92915050565b6000813590506126c28161388d565b92915050565b600082601f8301126126d957600080fd5b81356126e9848260208601612660565b91505092915050565b6000813590506127018161389d565b92915050565b600081359050612716816138b4565b92915050565b60006020828403121561272e57600080fd5b600061273c8482850161269e565b91505092915050565b60008060008060008060008060006101208a8c03121561276457600080fd5b60008a013567ffffffffffffffff81111561277e57600080fd5b61278a8c828d016126c8565b995050602061279b8c828d0161269e565b98505060406127ac8c828d016126f2565b97505060606127bd8c828d01612707565b96505060808a013567ffffffffffffffff8111156127da57600080fd5b6127e68c828d016126c8565b95505060a08a013567ffffffffffffffff81111561280357600080fd5b61280f8c828d016126c8565b94505060c06128208c828d016126f2565b93505060e06128318c828d016126f2565b9250506101008a013567ffffffffffffffff81111561284f57600080fd5b61285b8c828d016126c8565b9150509295985092959850929598565b6000806040838503121561287e57600080fd5b600083013567ffffffffffffffff81111561289857600080fd5b6128a4858286016126c8565b92505060206128b5858286016126f2565b9150509250929050565b6000602082840312156128d157600080fd5b60006128df848285016126f2565b91505092915050565b600080604083850312156128fb57600080fd5b6000612909858286016126f2565b925050602061291a8582860161269e565b9150509250929050565b60008060008060008060008060006101208a8c03121561294357600080fd5b60006129518c828d016126f2565b99505060206129628c828d0161269e565b98505060406129738c828d0161269e565b97505060606129848c828d0161269e565b96505060806129958c828d0161269e565b95505060a06129a68c828d016126f2565b94505060c06129b78c828d016126f2565b93505060e06129c88c828d016126f2565b9250506101006129da8c828d016126f2565b9150509295985092959850929598565b600080604083850312156129fd57600080fd5b6000612a0b858286016126f2565b9250506020612a1c858286016126b3565b9150509250929050565b60008060408385031215612a3957600080fd5b6000612a47858286016126f2565b9250506020612a58858286016126f2565b9150509250929050565b612a6b81613625565b82525050565b612a7a81613625565b82525050565b612a8981613637565b82525050565b612a98816136a0565b82525050565b612aa7816136a0565b82525050565b612ab6816136b2565b82525050565b612ac5816136b2565b82525050565b6000612ad6826135a2565b612ae081856135ad565b9350612af08185602086016136d3565b612af98161383d565b840191505092915050565b6000612b0f826135a2565b612b1981856135be565b9350612b298185602086016136d3565b612b328161383d565b840191505092915050565b6000612b4a6021836135be565b91507f546869726420706c6163652077696e6e6572206e6f742072656769737465726560008301527f64000000000000000000000000000000000000000000000000000000000000006020830152604082019050919050565b6000612bb06011836135be565b91507f496e76616c6964204a75646f6b612049440000000000000000000000000000006000830152602082019050919050565b6000612bf06018836135be565b91507f4e6577206c6576656c206d7573742062652068696768657200000000000000006000830152602082019050919050565b6000612c306022836135be565b91507f466f7572746820706c6163652077696e6e6572206e6f7420726567697374657260008301527f65640000000000000000000000000000000000000000000000000000000000006020830152604082019050919050565b6000612c96601f836135be565b91507f4f6e6c792061646d696e2063616e2061646420636f6d7065746974696f6e73006000830152602082019050919050565b6000612cd6601e836135be565b91507f4e6f207061727469636970616e747320696e20636f6d7065746974696f6e00006000830152602082019050919050565b6000612d166022836135be565b91507f5365636f6e6420706c6163652077696e6e6572206e6f7420726567697374657260008301527f65640000000000000000000000000000000000000000000000000000000000006020830152604082019050919050565b6000612d7c6022836135be565b91507f4f6e6c792061646d696e2063616e20706572666f726d2074686973206163746960008301527f6f6e0000000000000000000000000000000000000000000000000000000000006020830152604082019050919050565b6000612de26019836135be565b91507f4a75646f6b6120616c72656164792072656769737465726564000000000000006000830152602082019050919050565b6000612e226016836135be565b91507f496e76616c69642077616c6c65742061646472657373000000000000000000006000830152602082019050919050565b6000612e626021836135be565b91507f466972737420706c6163652077696e6e6572206e6f742072656769737465726560008301527f64000000000000000000000000000000000000000000000000000000000000006020830152604082019050919050565b6000612ec86016836135be565b91507f4a75646f6b6120646f6573206e6f742065786973742e000000000000000000006000830152602082019050919050565b6000612f08601d836135be565b91507f436f6d7065746974696f6e20616c726561647920636f6d706c657465640000006000830152602082019050919050565b608082016000820151612f516000850182612a62565b506020820151612f646020850182612a62565b506040820151612f776040850182612a62565b506060820151612f8a6060850182612a62565b50505050565b600061016083016000830151612fa96000860182613094565b5060208301518482036020860152612fc18282612acb565b9150506040830151612fd66040860182612a62565b506060830151612fe96060860182612a8f565b506080830151612ffc6080860182613094565b5060a083015161300f60a0860182612aad565b5060c083015184820360c08601526130278282612acb565b91505060e083015184820360e08601526130418282612acb565b915050610100830151613058610100860182613094565b5061012083015161306d610120860182613094565b506101408301518482036101408601526130878282612acb565b9150508091505092915050565b61309d81613689565b82525050565b6130ac81613689565b82525050565b60006020820190506130c76000830184612a71565b92915050565b60006080820190506130e26000830187612a71565b6130ef6020830186612a71565b6130fc6040830185612a71565b6131096060830184612a71565b95945050505050565b60006020820190506131276000830184612a80565b92915050565b60006020820190506131426000830184612a9e565b92915050565b600060608201905061315d6000830186612a9e565b61316a6020830185612a9e565b61317760408301846130a3565b949350505050565b600061010082019050818103600083015261319a818b612b04565b90506131a9602083018a612a71565b6131b66040830189612a9e565b6131c360608301886130a3565b6131d06080830187612abc565b81810360a08301526131e28186612b04565b905081810360c08301526131f68185612b04565b905061320560e08301846130a3565b9998505050505050505050565b6000604082019050818103600083015261322c8185612b04565b905061323b60208301846130a3565b9392505050565b6000602082019050818103600083015261325b81612b3d565b9050919050565b6000602082019050818103600083015261327b81612ba3565b9050919050565b6000602082019050818103600083015261329b81612be3565b9050919050565b600060208201905081810360008301526132bb81612c23565b9050919050565b600060208201905081810360008301526132db81612c89565b9050919050565b600060208201905081810360008301526132fb81612cc9565b9050919050565b6000602082019050818103600083015261331b81612d09565b9050919050565b6000602082019050818103600083015261333b81612d6f565b9050919050565b6000602082019050818103600083015261335b81612dd5565b9050919050565b6000602082019050818103600083015261337b81612e15565b9050919050565b6000602082019050818103600083015261339b81612e55565b9050919050565b600060208201905081810360008301526133bb81612ebb565b9050919050565b600060208201905081810360008301526133db81612efb565b9050919050565b600060208201905081810360008301526133fc8184612f90565b905092915050565b600060208201905061341960008301846130a3565b92915050565b600061016082019050613435600083018e6130a3565b8181036020830152613447818d612b04565b9050613456604083018c612a71565b613463606083018b612a9e565b613470608083018a6130a3565b61347d60a0830189612abc565b81810360c083015261348f8188612b04565b905081810360e08301526134a38187612b04565b90506134b36101008301866130a3565b6134c16101208301856130a3565b8181036101408301526134d48184612b04565b90509c9b505050505050505050505050565b6000610100820190506134fc60008301886130a3565b818103602083015261350e8187612b04565b905061351d60408301866130a3565b61352a6060830185612a80565b6135376080830184612f3b565b9695505050505050565b6000604051905081810181811067ffffffffffffffff821117156135685761356761380e565b5b8060405250919050565b600067ffffffffffffffff82111561358d5761358c61380e565b5b601f19601f8301169050602081019050919050565b600081519050919050565b600082825260208201905092915050565b600082825260208201905092915050565b60006135da82613689565b91506135e583613689565b9250827fffffffffffffffffffffffffffffffffffffffffffffffffffffffffffffffff0382111561361a57613619613781565b5b828201905092915050565b600061363082613669565b9050919050565b60008115159050919050565b60008190506136518261384e565b919050565b600081905061366482613862565b919050565b600073ffffffffffffffffffffffffffffffffffffffff82169050919050565b6000819050919050565b600060ff82169050919050565b60006136ab82613643565b9050919050565b60006136bd82613656565b9050919050565b82818337600083830152505050565b60005b838110156136f15780820151818401526020810190506136d6565b83811115613700576000848401525b50505050565b6000600282049050600182168061371e57607f821691505b60208210811415613732576137316137df565b5b50919050565b600061374382613689565b91507fffffffffffffffffffffffffffffffffffffffffffffffffffffffffffffffff82141561377657613775613781565b5b600182019050919050565b7f4e487b7100000000000000000000000000000000000000000000000000000000600052601160045260246000fd5b7f4e487b7100000000000000000000000000000000000000000000000000000000600052602160045260246000fd5b7f4e487b7100000000000000000000000000000000000000000000000000000000600052602260045260246000fd5b7f4e487b7100000000000000000000000000000000000000000000000000000000600052604160045260246000fd5b6000601f19601f8301169050919050565b6007811061385f5761385e6137b0565b5b50565b60028110613873576138726137b0565b5b50565b61387f81613625565b811461388a57600080fd5b50565b6007811061389a57600080fd5b50565b6138a681613689565b81146138b157600080fd5b50565b6138bd81613693565b81146138c857600080fd5b5056fea2646970667358221220614b84ff9d2ced09b97fbecb3cac1ceb9caee152a0d6eb1b65614b8a967ef46464736f6c63430008000033",
  "immutableReferences": {},
  "source": "// SPDX-License-Identifier: MIT\r\npragma solidity ^0.8.0;\r\n\r\ncontract JudoSystem {\r\n    enum BeltLevel { White, Yellow, Orange, Green, Blue, Brown, Black }\r\n    enum Gender { Male, Female }\r\n\r\n    struct Judoka {\r\n        uint256 id;\r\n        string name;\r\n        address walletAddress;\r\n        BeltLevel beltLevel;\r\n        uint256 dateOfBirth;\r\n        Gender gender;\r\n        string email;\r\n        string phoneNumber;\r\n        uint256 age;\r\n        uint256 weight;\r\n        string club;\r\n    }\r\n\r\n    struct CompetitionResult {\r\n        address firstPlace;\r\n        address secondPlace;\r\n        address thirdPlace;\r\n        address fourthPlace;\r\n    }\r\n\r\n    struct Competition {\r\n        uint256 id;\r\n        string name;\r\n        uint256 date;\r\n        address[] participants;\r\n        bool completed;\r\n        CompetitionResult results;\r\n    }\r\n\r\n    struct BeltLevelChange {\r\n        BeltLevel oldBeltLevel;\r\n        BeltLevel newBeltLevel;\r\n        uint256 timestamp;\r\n    }\r\n\r\n    uint256 public judokaCount;\r\n    uint256 public competitionCount;\r\n    mapping(uint256 => Judoka) public judokas;\r\n    mapping(address => uint256) public judokaIds;\r\n    mapping(uint256 => uint256) public judokaPoints;\r\n    mapping(uint256 => Competition) public competitions;\r\n    mapping(address => bool) public blackBeltAdmins;\r\n    address public admin;\r\n    \r\n    event JudokaRegistered(uint256 indexed id, string name, address walletAddress, BeltLevel beltLevel, uint256 dateOfBirth, Gender gender, string email, string phoneNumber, uint256 timestamp);\r\n    event BeltLevelUpdated(uint256 indexed id, BeltLevel oldBeltLevel, BeltLevel newBeltLevel, uint256 timestamp);\r\n    event CompetitionCreated(uint256 indexed id, string name, uint256 date);\r\n    event ParticipantAdded(uint256 indexed competitionId, address participant);\r\n    event CompetitionResultRecorded(uint256 indexed competitionId, address firstPlace, address secondPlace, address thirdPlace, address fourthPlace);\r\n\r\n    constructor() {\r\n        admin = msg.sender;\r\n        blackBeltAdmins[msg.sender] = true;\r\n    }\r\n\r\n    modifier onlyAdmin() {\r\n        require(isAdmin(msg.sender), \"Only admin can perform this action\");\r\n        _;\r\n    }\r\n\r\n    function registerJudoka(\r\n    string memory _name, \r\n    address _walletAddress, \r\n    uint256 _dateOfBirth, \r\n    uint8 _gender, \r\n    string memory _email, \r\n    string memory _phoneNumber,\r\n    uint256 _age,\r\n    uint256 _weight,\r\n    string memory _club\r\n) public {\r\n    require(_walletAddress != address(0), \"Invalid wallet address\");\r\n    require(judokaIds[_walletAddress] == 0, \"Judoka already registered\");\r\n\r\n    Gender gender = Gender(_gender);\r\n    judokaCount++;\r\n    judokas[judokaCount] = Judoka({\r\n        id: judokaCount,\r\n        name: _name,\r\n        walletAddress: _walletAddress,\r\n        beltLevel: BeltLevel.White, // All judokas start as White Belt\r\n        dateOfBirth: _dateOfBirth,\r\n        gender: gender,\r\n        email: _email,\r\n        phoneNumber: _phoneNumber,\r\n        age: _age,\r\n        weight: _weight,\r\n        club: _club\r\n    });\r\n\r\n    judokaIds[_walletAddress] = judokaCount;\r\n    emit JudokaRegistered(\r\n        judokaCount, \r\n        _name, \r\n        _walletAddress, \r\n        BeltLevel.White, \r\n        _dateOfBirth,\r\n        gender, \r\n        _email, \r\n        _phoneNumber,\r\n        block.timestamp\r\n    );\r\n}\r\n\r\n\r\n    function isAdmin(address _sender) public view returns(bool) {\r\n        return _sender == admin || blackBeltAdmins[_sender];\r\n    }\r\n    \r\n    function getJudokaInfo(uint256 _id) public view returns (Judoka memory) {\r\n        return judokas[_id];\r\n    }\r\n\r\n    function getBeltLevel(uint256 _id) public view returns (BeltLevel) {\r\n        require(_id > 0 && _id <= judokaCount, \"Judoka does not exist.\");\r\n        return judokas[_id].beltLevel;\r\n    }\r\n\r\n    function promoteJudoka(uint256 _id, BeltLevel _newBeltLevel) public onlyAdmin {\r\n    require(_id > 0 && _id <= judokaCount, \"Judoka does not exist.\");\r\n    require(_newBeltLevel > judokas[_id].beltLevel, \"New level must be higher\");\r\n\r\n    BeltLevel oldBeltLevel = judokas[_id].beltLevel;\r\n    judokas[_id].beltLevel = _newBeltLevel;\r\n\r\n    // Grant admin privileges if promoted to Black Belt\r\n    if(_newBeltLevel == BeltLevel.Black) {\r\n        blackBeltAdmins[judokas[_id].walletAddress] = true;\r\n    }\r\n\r\n    emit BeltLevelUpdated(_id, oldBeltLevel, _newBeltLevel, block.timestamp);\r\n}\r\n\r\n\r\n    function isBlackBelt(address _address) public view returns(bool) {\r\n        return judokas[judokaIds[_address]].beltLevel == BeltLevel.Black;\r\n    }\r\n\r\n    function isAuthorized(uint256 _id, address _sender) public view returns(bool) {\r\n        return _sender == judokas[_id].walletAddress || _sender == admin;\r\n    }\r\n\r\n    function updateJudokaPoints(uint256 _id, uint256 _points) public onlyAdmin {\r\n        require(_id > 0 && _id <= judokaCount, \"Invalid Judoka ID\");\r\n        judokaPoints[_id] += _points;\r\n    }\r\n\r\n    // Functions from JudoCompetition\r\nfunction createCompetition(\r\n    string memory _name, \r\n    uint256 _date\r\n) public {\r\n    require(msg.sender == admin, \"Only admin can add competitions\");\r\n\r\n    CompetitionResult memory defaultResults = CompetitionResult({\r\n        firstPlace: address(0),\r\n        secondPlace: address(0),\r\n        thirdPlace: address(0),\r\n        fourthPlace: address(0)\r\n    });\r\n\r\n    competitionCount++;\r\n    competitions[competitionCount] = Competition({\r\n        id: competitionCount,\r\n        name: _name,\r\n        date: _date,\r\n        participants: new address[](0) ,\r\n        completed: false,\r\n        results: defaultResults\r\n    });\r\n    emit CompetitionCreated(competitionCount, _name, _date);\r\n}\r\n\r\n    function addParticipant(uint256 _competitionId, address _participant) public onlyAdmin {\r\n        require(!competitions[_competitionId].completed, \"Competition already completed\");\r\n        competitions[_competitionId].participants.push(_participant);\r\n        emit ParticipantAdded(_competitionId, _participant);\r\n    }\r\n\r\n    function recordCompetitionResult(\r\n        uint256 _competitionId, \r\n        address _firstPlace, \r\n        address _secondPlace, \r\n        address _thirdPlace, \r\n        address _fourthPlace,\r\n        uint256 _firstPlacePoints,\r\n        uint256 _secondPlacePoints,\r\n        uint256 _thirdPlacePoints,\r\n        uint256 _fourthPlacePoints\r\n    ) public onlyAdmin {\r\n        require(!competitions[_competitionId].completed, \"Competition already completed\");\r\n        require(competitions[_competitionId].participants.length > 0, \"No participants in competition\");\r\n\r\n        require(judokaIds[_firstPlace] != 0, \"First place winner not registered\");\r\n        require(judokaIds[_secondPlace] != 0, \"Second place winner not registered\");\r\n        require(judokaIds[_thirdPlace] != 0, \"Third place winner not registered\");\r\n        require(judokaIds[_fourthPlace] != 0, \"Fourth place winner not registered\");\r\n\r\n        competitions[_competitionId].completed = true;\r\n        competitions[_competitionId].results = CompetitionResult(_firstPlace, _secondPlace, _thirdPlace, _fourthPlace);\r\n\r\n        if(_firstPlacePoints > 0) {\r\n            updateJudokaPoints(judokaIds[_firstPlace], _firstPlacePoints);\r\n        }\r\n        if(_secondPlacePoints > 0) {\r\n            updateJudokaPoints(judokaIds[_secondPlace], _secondPlacePoints);\r\n        }\r\n        if(_thirdPlacePoints > 0) {\r\n            updateJudokaPoints(judokaIds[_thirdPlace], _thirdPlacePoints);\r\n        }\r\n        if(_fourthPlacePoints > 0) {\r\n            updateJudokaPoints(judokaIds[_fourthPlace], _fourthPlacePoints);\r\n        }\r\n\r\n        emit CompetitionResultRecorded(_competitionId, _firstPlace, _secondPlace, _thirdPlace, _fourthPlace);\r\n    }\r\n}",
  "sourcePath": "C:\\Users\\marti\\Documents\\projects\\judo-dapp\\contracts\\JudoSystem.sol",
  "compiler": {
    "name": "solc",
    "version": "0.8.0+commit.c7dfd78e.Emscripten.clang"
  },
  "schemaVersion": "3.4.16",
  "updatedAt": "2024-04-10T12:53:48.340Z",
  "networkType": "ethereum",
  "devdoc": {
    "kind": "dev",
    "methods": {},
    "version": 1
  },
  "userdoc": {
    "kind": "user",
    "methods": {},
    "version": 1
  }
}