{
  "contractName": "JudoSystem",
  "abi": [
    {
      "inputs": [],
      "stateMutability": "nonpayable",
      "type": "constructor"
    },
    {
      "anonymous": false,
      "inputs": [
        {
          "indexed": true,
          "internalType": "uint256",
          "name": "id",
          "type": "uint256"
        },
        {
          "indexed": false,
          "internalType": "enum JudoSystem.BeltLevel",
          "name": "oldBeltLevel",
          "type": "uint8"
        },
        {
          "indexed": false,
          "internalType": "enum JudoSystem.BeltLevel",
          "name": "newBeltLevel",
          "type": "uint8"
        },
        {
          "indexed": false,
          "internalType": "uint256",
          "name": "timestamp",
          "type": "uint256"
        }
      ],
      "name": "BeltLevelUpdated",
      "type": "event"
    },
    {
      "anonymous": false,
      "inputs": [
        {
          "indexed": true,
          "internalType": "uint256",
          "name": "id",
          "type": "uint256"
        },
        {
          "indexed": false,
          "internalType": "string",
          "name": "name",
          "type": "string"
        },
        {
          "indexed": false,
          "internalType": "uint256",
          "name": "date",
          "type": "uint256"
        }
      ],
      "name": "CompetitionCreated",
      "type": "event"
    },
    {
      "anonymous": false,
      "inputs": [
        {
          "indexed": true,
          "internalType": "uint256",
          "name": "competitionId",
          "type": "uint256"
        },
        {
          "indexed": false,
          "internalType": "address",
          "name": "firstPlace",
          "type": "address"
        },
        {
          "indexed": false,
          "internalType": "address",
          "name": "secondPlace",
          "type": "address"
        },
        {
          "indexed": false,
          "internalType": "address",
          "name": "thirdPlace",
          "type": "address"
        },
        {
          "indexed": false,
          "internalType": "address",
          "name": "fourthPlace",
          "type": "address"
        }
      ],
      "name": "CompetitionResultRecorded",
      "type": "event"
    },
    {
      "anonymous": false,
      "inputs": [
        {
          "indexed": true,
          "internalType": "uint256",
          "name": "id",
          "type": "uint256"
        },
        {
          "indexed": false,
          "internalType": "string",
          "name": "name",
          "type": "string"
        },
        {
          "indexed": false,
          "internalType": "address",
          "name": "walletAddress",
          "type": "address"
        },
        {
          "indexed": false,
          "internalType": "enum JudoSystem.BeltLevel",
          "name": "beltLevel",
          "type": "uint8"
        },
        {
          "indexed": false,
          "internalType": "uint256",
          "name": "dateOfBirth",
          "type": "uint256"
        },
        {
          "indexed": false,
          "internalType": "enum JudoSystem.Gender",
          "name": "gender",
          "type": "uint8"
        },
        {
          "indexed": false,
          "internalType": "string",
          "name": "email",
          "type": "string"
        },
        {
          "indexed": false,
          "internalType": "string",
          "name": "phoneNumber",
          "type": "string"
        },
        {
          "indexed": false,
          "internalType": "uint256",
          "name": "age",
          "type": "uint256"
        },
        {
          "indexed": false,
          "internalType": "uint256",
          "name": "weight",
          "type": "uint256"
        },
        {
          "indexed": false,
          "internalType": "string",
          "name": "club",
          "type": "string"
        },
        {
          "indexed": false,
          "internalType": "enum JudoSystem.AgeCategory",
          "name": "ageCategory",
          "type": "uint8"
        },
        {
          "indexed": false,
          "internalType": "enum JudoSystem.WeightCategory",
          "name": "weightCategory",
          "type": "uint8"
        },
        {
          "indexed": false,
          "internalType": "uint256",
          "name": "timestamp",
          "type": "uint256"
        }
      ],
      "name": "JudokaRegistered",
      "type": "event"
    },
    {
      "anonymous": false,
      "inputs": [
        {
          "indexed": true,
          "internalType": "uint256",
          "name": "competitionId",
          "type": "uint256"
        },
        {
          "indexed": false,
          "internalType": "address",
          "name": "participant",
          "type": "address"
        }
      ],
      "name": "ParticipantAdded",
      "type": "event"
    },
    {
      "inputs": [],
      "name": "admin",
      "outputs": [
        {
          "internalType": "address",
          "name": "",
          "type": "address"
        }
      ],
      "stateMutability": "view",
      "type": "function",
      "constant": true
    },
    {
      "inputs": [
        {
          "internalType": "address",
          "name": "",
          "type": "address"
        }
      ],
      "name": "blackBeltAdmins",
      "outputs": [
        {
          "internalType": "bool",
          "name": "",
          "type": "bool"
        }
      ],
      "stateMutability": "view",
      "type": "function",
      "constant": true
    },
    {
      "inputs": [],
      "name": "competitionCount",
      "outputs": [
        {
          "internalType": "uint256",
          "name": "",
          "type": "uint256"
        }
      ],
      "stateMutability": "view",
      "type": "function",
      "constant": true
    },
    {
      "inputs": [
        {
          "internalType": "uint256",
          "name": "",
          "type": "uint256"
        }
      ],
      "name": "competitions",
      "outputs": [
        {
          "internalType": "uint256",
          "name": "id",
          "type": "uint256"
        },
        {
          "internalType": "string",
          "name": "name",
          "type": "string"
        },
        {
          "internalType": "uint256",
          "name": "date",
          "type": "uint256"
        },
        {
          "internalType": "bool",
          "name": "completed",
          "type": "bool"
        },
        {
          "components": [
            {
              "internalType": "address",
              "name": "firstPlace",
              "type": "address"
            },
            {
              "internalType": "address",
              "name": "secondPlace",
              "type": "address"
            },
            {
              "internalType": "address",
              "name": "thirdPlace",
              "type": "address"
            },
            {
              "internalType": "address",
              "name": "fourthPlace",
              "type": "address"
            }
          ],
          "internalType": "struct JudoSystem.CompetitionResult",
          "name": "results",
          "type": "tuple"
        }
      ],
      "stateMutability": "view",
      "type": "function",
      "constant": true
    },
    {
      "inputs": [],
      "name": "judokaCount",
      "outputs": [
        {
          "internalType": "uint256",
          "name": "",
          "type": "uint256"
        }
      ],
      "stateMutability": "view",
      "type": "function",
      "constant": true
    },
    {
      "inputs": [
        {
          "internalType": "address",
          "name": "",
          "type": "address"
        }
      ],
      "name": "judokaIds",
      "outputs": [
        {
          "internalType": "uint256",
          "name": "",
          "type": "uint256"
        }
      ],
      "stateMutability": "view",
      "type": "function",
      "constant": true
    },
    {
      "inputs": [
        {
          "internalType": "uint256",
          "name": "",
          "type": "uint256"
        }
      ],
      "name": "judokaPoints",
      "outputs": [
        {
          "internalType": "uint256",
          "name": "",
          "type": "uint256"
        }
      ],
      "stateMutability": "view",
      "type": "function",
      "constant": true
    },
    {
      "inputs": [
        {
          "internalType": "uint256",
          "name": "",
          "type": "uint256"
        }
      ],
      "name": "judokasBasic",
      "outputs": [
        {
          "internalType": "uint256",
          "name": "id",
          "type": "uint256"
        },
        {
          "internalType": "string",
          "name": "name",
          "type": "string"
        },
        {
          "internalType": "address",
          "name": "walletAddress",
          "type": "address"
        },
        {
          "internalType": "enum JudoSystem.BeltLevel",
          "name": "beltLevel",
          "type": "uint8"
        },
        {
          "internalType": "uint256",
          "name": "dateOfBirth",
          "type": "uint256"
        },
        {
          "internalType": "enum JudoSystem.Gender",
          "name": "gender",
          "type": "uint8"
        }
      ],
      "stateMutability": "view",
      "type": "function",
      "constant": true
    },
    {
      "inputs": [
        {
          "internalType": "uint256",
          "name": "",
          "type": "uint256"
        }
      ],
      "name": "judokasContact",
      "outputs": [
        {
          "internalType": "string",
          "name": "email",
          "type": "string"
        },
        {
          "internalType": "string",
          "name": "phoneNumber",
          "type": "string"
        }
      ],
      "stateMutability": "view",
      "type": "function",
      "constant": true
    },
    {
      "inputs": [
        {
          "internalType": "uint256",
          "name": "",
          "type": "uint256"
        }
      ],
      "name": "judokasPhysical",
      "outputs": [
        {
          "internalType": "uint256",
          "name": "age",
          "type": "uint256"
        },
        {
          "internalType": "uint256",
          "name": "weight",
          "type": "uint256"
        },
        {
          "internalType": "string",
          "name": "club",
          "type": "string"
        },
        {
          "internalType": "enum JudoSystem.AgeCategory",
          "name": "ageCategory",
          "type": "uint8"
        },
        {
          "internalType": "enum JudoSystem.WeightCategory",
          "name": "weightCategory",
          "type": "uint8"
        }
      ],
      "stateMutability": "view",
      "type": "function",
      "constant": true
    },
    {
      "inputs": [
        {
          "internalType": "uint256",
          "name": "_dateOfBirth",
          "type": "uint256"
        }
      ],
      "name": "getAgeCategory",
      "outputs": [
        {
          "internalType": "enum JudoSystem.AgeCategory",
          "name": "",
          "type": "uint8"
        }
      ],
      "stateMutability": "view",
      "type": "function",
      "constant": true
    },
    {
      "inputs": [
        {
          "internalType": "uint256",
          "name": "_weight",
          "type": "uint256"
        }
      ],
      "name": "getWeightCategory",
      "outputs": [
        {
          "internalType": "enum JudoSystem.WeightCategory",
          "name": "",
          "type": "uint8"
        }
      ],
      "stateMutability": "pure",
      "type": "function",
      "constant": true
    },
    {
      "inputs": [
        {
          "internalType": "uint256",
          "name": "_dateOfBirth",
          "type": "uint256"
        }
      ],
      "name": "calculateAge",
      "outputs": [
        {
          "internalType": "uint256",
          "name": "",
          "type": "uint256"
        }
      ],
      "stateMutability": "view",
      "type": "function",
      "constant": true
    },
    {
      "inputs": [
        {
          "internalType": "string",
          "name": "_name",
          "type": "string"
        },
        {
          "internalType": "address",
          "name": "_walletAddress",
          "type": "address"
        },
        {
          "internalType": "uint256",
          "name": "_dateOfBirth",
          "type": "uint256"
        },
        {
          "internalType": "enum JudoSystem.Gender",
          "name": "_gender",
          "type": "uint8"
        }
      ],
      "name": "registerJudoka",
      "outputs": [],
      "stateMutability": "nonpayable",
      "type": "function"
    },
    {
      "inputs": [
        {
          "internalType": "uint256",
          "name": "_id",
          "type": "uint256"
        },
        {
          "internalType": "string",
          "name": "_email",
          "type": "string"
        },
        {
          "internalType": "string",
          "name": "_phoneNumber",
          "type": "string"
        },
        {
          "internalType": "uint256",
          "name": "_weight",
          "type": "uint256"
        },
        {
          "internalType": "string",
          "name": "_club",
          "type": "string"
        }
      ],
      "name": "updateJudokaDetails",
      "outputs": [],
      "stateMutability": "nonpayable",
      "type": "function"
    },
    {
      "inputs": [
        {
          "internalType": "address",
          "name": "_sender",
          "type": "address"
        }
      ],
      "name": "isAdmin",
      "outputs": [
        {
          "internalType": "bool",
          "name": "",
          "type": "bool"
        }
      ],
      "stateMutability": "view",
      "type": "function",
      "constant": true
    },
    {
      "inputs": [
        {
          "internalType": "uint256",
          "name": "_id",
          "type": "uint256"
        }
      ],
      "name": "getJudokaInfo",
      "outputs": [
        {
          "components": [
            {
              "components": [
                {
                  "internalType": "uint256",
                  "name": "id",
                  "type": "uint256"
                },
                {
                  "internalType": "string",
                  "name": "name",
                  "type": "string"
                },
                {
                  "internalType": "address",
                  "name": "walletAddress",
                  "type": "address"
                },
                {
                  "internalType": "enum JudoSystem.BeltLevel",
                  "name": "beltLevel",
                  "type": "uint8"
                },
                {
                  "internalType": "uint256",
                  "name": "dateOfBirth",
                  "type": "uint256"
                },
                {
                  "internalType": "enum JudoSystem.Gender",
                  "name": "gender",
                  "type": "uint8"
                }
              ],
              "internalType": "struct JudoSystem.JudokaBasic",
              "name": "basic",
              "type": "tuple"
            },
            {
              "components": [
                {
                  "internalType": "string",
                  "name": "email",
                  "type": "string"
                },
                {
                  "internalType": "string",
                  "name": "phoneNumber",
                  "type": "string"
                }
              ],
              "internalType": "struct JudoSystem.JudokaContact",
              "name": "contact",
              "type": "tuple"
            },
            {
              "components": [
                {
                  "internalType": "uint256",
                  "name": "age",
                  "type": "uint256"
                },
                {
                  "internalType": "uint256",
                  "name": "weight",
                  "type": "uint256"
                },
                {
                  "internalType": "string",
                  "name": "club",
                  "type": "string"
                },
                {
                  "internalType": "enum JudoSystem.AgeCategory",
                  "name": "ageCategory",
                  "type": "uint8"
                },
                {
                  "internalType": "enum JudoSystem.WeightCategory",
                  "name": "weightCategory",
                  "type": "uint8"
                }
              ],
              "internalType": "struct JudoSystem.JudokaPhysical",
              "name": "physical",
              "type": "tuple"
            }
          ],
          "internalType": "struct JudoSystem.FullJudokaInfo",
          "name": "",
          "type": "tuple"
        }
      ],
      "stateMutability": "view",
      "type": "function",
      "constant": true
    },
    {
      "inputs": [
        {
          "internalType": "uint256",
          "name": "_id",
          "type": "uint256"
        }
      ],
      "name": "getBeltLevel",
      "outputs": [
        {
          "internalType": "enum JudoSystem.BeltLevel",
          "name": "",
          "type": "uint8"
        }
      ],
      "stateMutability": "view",
      "type": "function",
      "constant": true
    },
    {
      "inputs": [
        {
          "internalType": "uint256",
          "name": "_id",
          "type": "uint256"
        },
        {
          "internalType": "enum JudoSystem.BeltLevel",
          "name": "_newBeltLevel",
          "type": "uint8"
        }
      ],
      "name": "promoteJudoka",
      "outputs": [],
      "stateMutability": "nonpayable",
      "type": "function"
    },
    {
      "inputs": [
        {
          "internalType": "address",
          "name": "_address",
          "type": "address"
        }
      ],
      "name": "isBlackBelt",
      "outputs": [
        {
          "internalType": "bool",
          "name": "",
          "type": "bool"
        }
      ],
      "stateMutability": "view",
      "type": "function",
      "constant": true
    },
    {
      "inputs": [
        {
          "internalType": "uint256",
          "name": "_id",
          "type": "uint256"
        },
        {
          "internalType": "address",
          "name": "_sender",
          "type": "address"
        }
      ],
      "name": "isAuthorized",
      "outputs": [
        {
          "internalType": "bool",
          "name": "",
          "type": "bool"
        }
      ],
      "stateMutability": "view",
      "type": "function",
      "constant": true
    },
    {
      "inputs": [
        {
          "internalType": "uint256",
          "name": "_id",
          "type": "uint256"
        },
        {
          "internalType": "uint256",
          "name": "_points",
          "type": "uint256"
        }
      ],
      "name": "updateJudokaPoints",
      "outputs": [],
      "stateMutability": "nonpayable",
      "type": "function"
    },
    {
      "inputs": [
        {
          "internalType": "string",
          "name": "_name",
          "type": "string"
        },
        {
          "internalType": "uint256",
          "name": "_date",
          "type": "uint256"
        }
      ],
      "name": "createCompetition",
      "outputs": [],
      "stateMutability": "nonpayable",
      "type": "function"
    },
    {
      "inputs": [
        {
          "internalType": "uint256",
          "name": "_competitionId",
          "type": "uint256"
        },
        {
          "internalType": "address",
          "name": "_participant",
          "type": "address"
        }
      ],
      "name": "addParticipant",
      "outputs": [],
      "stateMutability": "nonpayable",
      "type": "function"
    },
    {
      "inputs": [
        {
          "internalType": "uint256",
          "name": "_competitionId",
          "type": "uint256"
        },
        {
          "internalType": "address",
          "name": "_firstPlace",
          "type": "address"
        },
        {
          "internalType": "address",
          "name": "_secondPlace",
          "type": "address"
        },
        {
          "internalType": "address",
          "name": "_thirdPlace",
          "type": "address"
        },
        {
          "internalType": "address",
          "name": "_fourthPlace",
          "type": "address"
        },
        {
          "internalType": "uint256",
          "name": "_firstPlacePoints",
          "type": "uint256"
        },
        {
          "internalType": "uint256",
          "name": "_secondPlacePoints",
          "type": "uint256"
        },
        {
          "internalType": "uint256",
          "name": "_thirdPlacePoints",
          "type": "uint256"
        },
        {
          "internalType": "uint256",
          "name": "_fourthPlacePoints",
          "type": "uint256"
        }
      ],
      "name": "recordCompetitionResult",
      "outputs": [],
      "stateMutability": "nonpayable",
      "type": "function"
    }
  ],
  "bytecode": "0x608060405234801561001057600080fd5b5033600960006101000a81548173ffffffffffffffffffffffffffffffffffffffff021916908373ffffffffffffffffffffffffffffffffffffffff1602179055506001600560003373ffffffffffffffffffffffffffffffffffffffff1673ffffffffffffffffffffffffffffffffffffffff16815260200190815260200160002060006101000a81548160ff0219169083151502179055506144fc806100b96000396000f3fe608060405234801561001057600080fd5b50600436106101735760003560e01c80638309f82c116100de578063ccf28e8611610097578063e7651d1f11610071578063e7651d1f146104c5578063e9f86f1e146104f6578063f215bb0814610526578063f851a4401461055657610173565b8063ccf28e8614610431578063d7984a2914610461578063d8c1eb541461049557610173565b80638309f82c1461034057806385cc8bfb1461035c57806397a3e66a1461038c5780639f6828d9146103c1578063a1681770146103f5578063cab96b701461041357610173565b806324d7806c1161013057806324d7806c1461024857806327460dbe1461027857806338897f9a146102945780633ab9f6d8146102b057806345504a83146102e0578063609c6d7f1461031057610173565b806310c1224c1461017857806318d85e53146101a85780631b8558dd146101c45780631d91d322146101e05780631ef31992146101fc57806322b9dd901461022c575b600080fd5b610192600480360381019061018d9190613049565b610574565b60405161019f9190613b55565b60405180910390f35b6101c260048036038101906101bd919061316a565b610652565b005b6101de60048036038101906101d99190613367565b6107b1565b005b6101fa60048036038101906101f591906130ed565b610878565b005b61021660048036038101906102119190613141565b610be8565b6040516102239190613b8b565b60405180910390f35b6102466004803603810190610241919061326c565b610c65565b005b610262600480360381019061025d9190613049565b610fa7565b60405161026f9190613b55565b60405180910390f35b610292600480360381019061028d9190613072565b611055565b005b6102ae60048036038101906102a991906131a6565b61162a565b005b6102ca60048036038101906102c59190613049565b611cb0565b6040516102d79190613f00565b60405180910390f35b6102fa60048036038101906102f59190613141565b611cc8565b6040516103079190613ede565b60405180910390f35b61032a6004803603810190610325919061316a565b61227c565b6040516103379190613b55565b60405180910390f35b61035a600480360381019061035591906132a8565b612343565b005b61037660048036038101906103719190613141565b6125c6565b6040516103839190613f00565b60405180910390f35b6103a660048036038101906103a19190613141565b612602565b6040516103b896959493929190613f1b565b60405180910390f35b6103db60048036038101906103d69190613141565b612700565b6040516103ec959493929190613f83565b60405180910390f35b6103fd61292d565b60405161040a9190613f00565b60405180910390f35b61041b612933565b6040516104289190613f00565b60405180910390f35b61044b60048036038101906104469190613049565b612939565b6040516104589190613b55565b60405180910390f35b61047b60048036038101906104769190613141565b612959565b60405161048c959493929190613fde565b60405180910390f35b6104af60048036038101906104aa9190613141565b612a31565b6040516104bc9190613bdd565b60405180910390f35b6104df60048036038101906104da9190613141565b612aa9565b6040516104ed929190613cd7565b60405180910390f35b610510600480360381019061050b9190613141565b612bdd565b60405161051d9190613f00565b60405180910390f35b610540600480360381019061053b9190613141565b612bf5565b60405161054d9190613b70565b60405180910390f35b61055e612c92565b60405161056b9190613af5565b60405180910390f35b60006006808111156105af577f4e487b7100000000000000000000000000000000000000000000000000000000600052602160045260246000fd5b60066000600260008673ffffffffffffffffffffffffffffffffffffffff1673ffffffffffffffffffffffffffffffffffffffff16815260200190815260200160002054815260200190815260200160002060020160149054906101000a900460ff16600681111561064a577f4e487b7100000000000000000000000000000000000000000000000000000000600052602160045260246000fd5b149050919050565b61065b33610fa7565b61069a576040517f08c379a000000000000000000000000000000000000000000000000000000000815260040161069190613e1e565b60405180910390fd5b6004600083815260200190815260200160002060040160009054906101000a900460ff16156106fe576040517f08c379a00000000000000000000000000000000000000000000000000000000081526004016106f590613ebe565b60405180910390fd5b60046000838152602001908152602001600020600301819080600181540180825580915050600190039060005260206000200160009091909190916101000a81548173ffffffffffffffffffffffffffffffffffffffff021916908373ffffffffffffffffffffffffffffffffffffffff160217905550817f12246ba2398106df92bc0281a1eece14e5b8516c5c3dab76205391650e39fddb826040516107a59190613af5565b60405180910390a25050565b6107ba33610fa7565b6107f9576040517f08c379a00000000000000000000000000000000000000000000000000000000081526004016107f090613e1e565b60405180910390fd5b60008211801561080b57506000548211155b61084a576040517f08c379a000000000000000000000000000000000000000000000000000000000815260040161084190613d5e565b60405180910390fd5b8060036000848152602001908152602001600020600082825461086d91906140c6565b925050819055505050565b61088133610fa7565b6108c0576040517f08c379a00000000000000000000000000000000000000000000000000000000081526004016108b790613e1e565b60405180910390fd5b60006040518060800160405280600073ffffffffffffffffffffffffffffffffffffffff168152602001600073ffffffffffffffffffffffffffffffffffffffff168152602001600073ffffffffffffffffffffffffffffffffffffffff168152602001600073ffffffffffffffffffffffffffffffffffffffff16815250905060016000815480929190610954906142e3565b91905055506040518060c001604052806001548152602001848152602001838152602001600067ffffffffffffffff8111156109b9577f4e487b7100000000000000000000000000000000000000000000000000000000600052604160045260246000fd5b6040519080825280602002602001820160405280156109e75781602001602082028036833780820191505090505b50815260200160001515815260200182815250600460006001548152602001908152602001600020600082015181600001556020820151816001019080519060200190610a35929190612cb8565b50604082015181600201556060820151816003019080519060200190610a5c929190612d3e565b5060808201518160040160006101000a81548160ff02191690831515021790555060a08201518160050160008201518160000160006101000a81548173ffffffffffffffffffffffffffffffffffffffff021916908373ffffffffffffffffffffffffffffffffffffffff16021790555060208201518160010160006101000a81548173ffffffffffffffffffffffffffffffffffffffff021916908373ffffffffffffffffffffffffffffffffffffffff16021790555060408201518160020160006101000a81548173ffffffffffffffffffffffffffffffffffffffff021916908373ffffffffffffffffffffffffffffffffffffffff16021790555060608201518160030160006101000a81548173ffffffffffffffffffffffffffffffffffffffff021916908373ffffffffffffffffffffffffffffffffffffffff16021790555050509050506001547f527887ed6033dc7f6637d06840290a881f67a7f6b0b297598a5a88195bba4f6d8484604051610bdb929190613d0e565b60405180910390a2505050565b60008082118015610bfb57506000548211155b610c3a576040517f08c379a0000000000000000000000000000000000000000000000000000000008152600401610c3190613e9e565b60405180910390fd5b6006600083815260200190815260200160002060020160149054906101000a900460ff169050919050565b610c6e33610fa7565b610cad576040517f08c379a0000000000000000000000000000000000000000000000000000000008152600401610ca490613e1e565b60405180910390fd5b600082118015610cbf57506000548211155b610cfe576040517f08c379a0000000000000000000000000000000000000000000000000000000008152600401610cf590613e9e565b60405180910390fd5b6006600083815260200190815260200160002060020160149054906101000a900460ff166006811115610d5a577f4e487b7100000000000000000000000000000000000000000000000000000000600052602160045260246000fd5b816006811115610d93577f4e487b7100000000000000000000000000000000000000000000000000000000600052602160045260246000fd5b11610dd3576040517f08c379a0000000000000000000000000000000000000000000000000000000008152600401610dca90613d7e565b60405180910390fd5b60006006600084815260200190815260200160002060020160149054906101000a900460ff169050816006600085815260200190815260200160002060020160146101000a81548160ff02191690836006811115610e5a577f4e487b7100000000000000000000000000000000000000000000000000000000600052602160045260246000fd5b0217905550600680811115610e98577f4e487b7100000000000000000000000000000000000000000000000000000000600052602160045260246000fd5b826006811115610ed1577f4e487b7100000000000000000000000000000000000000000000000000000000600052602160045260246000fd5b1415610f66576001600560006006600087815260200190815260200160002060020160009054906101000a900473ffffffffffffffffffffffffffffffffffffffff1673ffffffffffffffffffffffffffffffffffffffff1673ffffffffffffffffffffffffffffffffffffffff16815260200190815260200160002060006101000a81548160ff0219169083151502179055505b827f01ae96fe1baf9d2d284e6a11b7ab2a76e1c8b047b807650660b4370d50462f23828442604051610f9a93929190613ba6565b60405180910390a2505050565b6000600960009054906101000a900473ffffffffffffffffffffffffffffffffffffffff1673ffffffffffffffffffffffffffffffffffffffff168273ffffffffffffffffffffffffffffffffffffffff16148061104e5750600560008373ffffffffffffffffffffffffffffffffffffffff1673ffffffffffffffffffffffffffffffffffffffff16815260200190815260200160002060009054906101000a900460ff165b9050919050565b600073ffffffffffffffffffffffffffffffffffffffff168373ffffffffffffffffffffffffffffffffffffffff1614156110c5576040517f08c379a00000000000000000000000000000000000000000000000000000000081526004016110bc90613e5e565b60405180910390fd5b6000600260008573ffffffffffffffffffffffffffffffffffffffff1673ffffffffffffffffffffffffffffffffffffffff1681526020019081526020016000205414611147576040517f08c379a000000000000000000000000000000000000000000000000000000000815260040161113e90613e3e565b60405180910390fd5b600080815480929190611159906142e3565b91905055506040518060c0016040528060005481526020018581526020018473ffffffffffffffffffffffffffffffffffffffff168152602001600060068111156111cd577f4e487b7100000000000000000000000000000000000000000000000000000000600052602160045260246000fd5b8152602001838152602001826001811115611211577f4e487b7100000000000000000000000000000000000000000000000000000000600052602160045260246000fd5b815250600660008054815260200190815260200160002060008201518160000155602082015181600101908051906020019061124e929190612cb8565b5060408201518160020160006101000a81548173ffffffffffffffffffffffffffffffffffffffff021916908373ffffffffffffffffffffffffffffffffffffffff16021790555060608201518160020160146101000a81548160ff021916908360068111156112e7577f4e487b7100000000000000000000000000000000000000000000000000000000600052602160045260246000fd5b02179055506080820151816003015560a08201518160040160006101000a81548160ff02191690836001811115611347577f4e487b7100000000000000000000000000000000000000000000000000000000600052602160045260246000fd5b0217905550905050604051806040016040528060405180602001604052806000815250815260200160405180602001604052806000815250815250600760008054815260200190815260200160002060008201518160000190805190602001906113b2929190612cb8565b5060208201518160010190805190602001906113cf929190612cb8565b509050506040518060a001604052806113e7846125c6565b81526020016000815260200160405180602001604052806000815250815260200161141184612bf5565b6004811115611449577f4e487b7100000000000000000000000000000000000000000000000000000000600052602160045260246000fd5b815260200160006006811115611488577f4e487b7100000000000000000000000000000000000000000000000000000000600052602160045260246000fd5b8152506008600080548152602001908152602001600020600082015181600001556020820151816001015560408201518160020190805190602001906114cf929190612cb8565b5060608201518160030160006101000a81548160ff02191690836004811115611521577f4e487b7100000000000000000000000000000000000000000000000000000000600052602160045260246000fd5b021790555060808201518160030160016101000a81548160ff02191690836006811115611577577f4e487b7100000000000000000000000000000000000000000000000000000000600052602160045260246000fd5b0217905550905050600054600260008573ffffffffffffffffffffffffffffffffffffffff1673ffffffffffffffffffffffffffffffffffffffff168152602001908152602001600020819055506000547f91b08635671aac60e9f3dda55c450b1170d8c93ab4e68fc5737cc03948f7d4598585600086866115f8896125c6565b60006116038b612bf5565b60004260405161161c9a99989796959493929190613bf8565b60405180910390a250505050565b61163333610fa7565b611672576040517f08c379a000000000000000000000000000000000000000000000000000000000815260040161166990613e1e565b60405180910390fd5b600460008a815260200190815260200160002060040160009054906101000a900460ff16156116d6576040517f08c379a00000000000000000000000000000000000000000000000000000000081526004016116cd90613ebe565b60405180910390fd5b6000600460008b81526020019081526020016000206003018054905011611732576040517f08c379a000000000000000000000000000000000000000000000000000000000815260040161172990613dbe565b60405180910390fd5b6000600260008a73ffffffffffffffffffffffffffffffffffffffff1673ffffffffffffffffffffffffffffffffffffffff1681526020019081526020016000205414156117b5576040517f08c379a00000000000000000000000000000000000000000000000000000000081526004016117ac90613e7e565b60405180910390fd5b6000600260008973ffffffffffffffffffffffffffffffffffffffff1673ffffffffffffffffffffffffffffffffffffffff168152602001908152602001600020541415611838576040517f08c379a000000000000000000000000000000000000000000000000000000000815260040161182f90613dfe565b60405180910390fd5b6000600260008873ffffffffffffffffffffffffffffffffffffffff1673ffffffffffffffffffffffffffffffffffffffff1681526020019081526020016000205414156118bb576040517f08c379a00000000000000000000000000000000000000000000000000000000081526004016118b290613d3e565b60405180910390fd5b6000600260008773ffffffffffffffffffffffffffffffffffffffff1673ffffffffffffffffffffffffffffffffffffffff16815260200190815260200160002054141561193e576040517f08c379a000000000000000000000000000000000000000000000000000000000815260040161193590613d9e565b60405180910390fd5b6001600460008b815260200190815260200160002060040160006101000a81548160ff02191690831515021790555060405180608001604052808973ffffffffffffffffffffffffffffffffffffffff1681526020018873ffffffffffffffffffffffffffffffffffffffff1681526020018773ffffffffffffffffffffffffffffffffffffffff1681526020018673ffffffffffffffffffffffffffffffffffffffff16815250600460008b815260200190815260200160002060050160008201518160000160006101000a81548173ffffffffffffffffffffffffffffffffffffffff021916908373ffffffffffffffffffffffffffffffffffffffff16021790555060208201518160010160006101000a81548173ffffffffffffffffffffffffffffffffffffffff021916908373ffffffffffffffffffffffffffffffffffffffff16021790555060408201518160020160006101000a81548173ffffffffffffffffffffffffffffffffffffffff021916908373ffffffffffffffffffffffffffffffffffffffff16021790555060608201518160030160006101000a81548173ffffffffffffffffffffffffffffffffffffffff021916908373ffffffffffffffffffffffffffffffffffffffff1602179055509050506000841115611b6e57611b6d600260008a73ffffffffffffffffffffffffffffffffffffffff1673ffffffffffffffffffffffffffffffffffffffff16815260200190815260200160002054856107b1565b5b6000831115611bc157611bc0600260008973ffffffffffffffffffffffffffffffffffffffff1673ffffffffffffffffffffffffffffffffffffffff16815260200190815260200160002054846107b1565b5b6000821115611c1457611c13600260008873ffffffffffffffffffffffffffffffffffffffff1673ffffffffffffffffffffffffffffffffffffffff16815260200190815260200160002054836107b1565b5b6000811115611c6757611c66600260008773ffffffffffffffffffffffffffffffffffffffff1673ffffffffffffffffffffffffffffffffffffffff16815260200190815260200160002054826107b1565b5b887f19974ab114e4d06de9fa6a18e214db804b1d2a9b1acb21496207e2deafbbb9dc89898989604051611c9d9493929190613b10565b60405180910390a2505050505050505050565b60026020528060005260406000206000915090505481565b611cd0612dc8565b600082118015611ce257506000548211155b611d21576040517f08c379a0000000000000000000000000000000000000000000000000000000008152600401611d1890613e9e565b60405180910390fd5b6040518060600160405280600660008581526020019081526020016000206040518060c001604052908160008201548152602001600182018054611d64906142b1565b80601f0160208091040260200160405190810160405280929190818152602001828054611d90906142b1565b8015611ddd5780601f10611db257610100808354040283529160200191611ddd565b820191906000526020600020905b815481529060010190602001808311611dc057829003601f168201915b505050505081526020016002820160009054906101000a900473ffffffffffffffffffffffffffffffffffffffff1673ffffffffffffffffffffffffffffffffffffffff1673ffffffffffffffffffffffffffffffffffffffff1681526020016002820160149054906101000a900460ff166006811115611e87577f4e487b7100000000000000000000000000000000000000000000000000000000600052602160045260246000fd5b6006811115611ebf577f4e487b7100000000000000000000000000000000000000000000000000000000600052602160045260246000fd5b8152602001600382015481526020016004820160009054906101000a900460ff166001811115611f18577f4e487b7100000000000000000000000000000000000000000000000000000000600052602160045260246000fd5b6001811115611f50577f4e487b7100000000000000000000000000000000000000000000000000000000600052602160045260246000fd5b81525050815260200160076000858152602001908152602001600020604051806040016040529081600082018054611f87906142b1565b80601f0160208091040260200160405190810160405280929190818152602001828054611fb3906142b1565b80156120005780601f10611fd557610100808354040283529160200191612000565b820191906000526020600020905b815481529060010190602001808311611fe357829003601f168201915b50505050508152602001600182018054612019906142b1565b80601f0160208091040260200160405190810160405280929190818152602001828054612045906142b1565b80156120925780601f1061206757610100808354040283529160200191612092565b820191906000526020600020905b81548152906001019060200180831161207557829003601f168201915b5050505050815250508152602001600860008581526020019081526020016000206040518060a001604052908160008201548152602001600182015481526020016002820180546120e2906142b1565b80601f016020809104026020016040519081016040528092919081815260200182805461210e906142b1565b801561215b5780601f106121305761010080835404028352916020019161215b565b820191906000526020600020905b81548152906001019060200180831161213e57829003601f168201915b505050505081526020016003820160009054906101000a900460ff1660048111156121af577f4e487b7100000000000000000000000000000000000000000000000000000000600052602160045260246000fd5b60048111156121e7577f4e487b7100000000000000000000000000000000000000000000000000000000600052602160045260246000fd5b81526020016003820160019054906101000a900460ff166006811115612236577f4e487b7100000000000000000000000000000000000000000000000000000000600052602160045260246000fd5b600681111561226e577f4e487b7100000000000000000000000000000000000000000000000000000000600052602160045260246000fd5b815250508152509050919050565b60006006600084815260200190815260200160002060020160009054906101000a900473ffffffffffffffffffffffffffffffffffffffff1673ffffffffffffffffffffffffffffffffffffffff168273ffffffffffffffffffffffffffffffffffffffff16148061233b5750600960009054906101000a900473ffffffffffffffffffffffffffffffffffffffff1673ffffffffffffffffffffffffffffffffffffffff168273ffffffffffffffffffffffffffffffffffffffff16145b905092915050565b60008511801561235557506000548511155b612394576040517f08c379a000000000000000000000000000000000000000000000000000000000815260040161238b90613dde565b60405180910390fd5b6040518060400160405280858152602001848152506007600087815260200190815260200160002060008201518160000190805190602001906123d8929190612cb8565b5060208201518160010190805190602001906123f5929190612cb8565b509050506040518060a001604052806008600088815260200190815260200160002060000154815260200183815260200182815260200161244b6006600089815260200190815260200160002060030154612bf5565b6004811115612483577f4e487b7100000000000000000000000000000000000000000000000000000000600052602160045260246000fd5b815260200161249184612a31565b60068111156124c9577f4e487b7100000000000000000000000000000000000000000000000000000000600052602160045260246000fd5b815250600860008781526020019081526020016000206000820151816000015560208201518160010155604082015181600201908051906020019061250f929190612cb8565b5060608201518160030160006101000a81548160ff02191690836004811115612561577f4e487b7100000000000000000000000000000000000000000000000000000000600052602160045260246000fd5b021790555060808201518160030160016101000a81548160ff021916908360068111156125b7577f4e487b7100000000000000000000000000000000000000000000000000000000600052602160045260246000fd5b02179055509050505050505050565b6000428211156125d957600090506125fd565b60006301e187e090508083426125ef919061414d565b6125f9919061411c565b9150505b919050565b600660205280600052604060002060009150905080600001549080600101805461262b906142b1565b80601f0160208091040260200160405190810160405280929190818152602001828054612657906142b1565b80156126a45780601f10612679576101008083540402835291602001916126a4565b820191906000526020600020905b81548152906001019060200180831161268757829003601f168201915b5050505050908060020160009054906101000a900473ffffffffffffffffffffffffffffffffffffffff16908060020160149054906101000a900460ff16908060030154908060040160009054906101000a900460ff16905086565b6004602052806000526040600020600091509050806000015490806001018054612729906142b1565b80601f0160208091040260200160405190810160405280929190818152602001828054612755906142b1565b80156127a25780601f10612777576101008083540402835291602001916127a2565b820191906000526020600020905b81548152906001019060200180831161278557829003601f168201915b5050505050908060020154908060040160009054906101000a900460ff1690806005016040518060800160405290816000820160009054906101000a900473ffffffffffffffffffffffffffffffffffffffff1673ffffffffffffffffffffffffffffffffffffffff1673ffffffffffffffffffffffffffffffffffffffff1681526020016001820160009054906101000a900473ffffffffffffffffffffffffffffffffffffffff1673ffffffffffffffffffffffffffffffffffffffff1673ffffffffffffffffffffffffffffffffffffffff1681526020016002820160009054906101000a900473ffffffffffffffffffffffffffffffffffffffff1673ffffffffffffffffffffffffffffffffffffffff1673ffffffffffffffffffffffffffffffffffffffff1681526020016003820160009054906101000a900473ffffffffffffffffffffffffffffffffffffffff1673ffffffffffffffffffffffffffffffffffffffff1673ffffffffffffffffffffffffffffffffffffffff1681525050905085565b60015481565b60005481565b60056020528060005260406000206000915054906101000a900460ff1681565b6008602052806000526040600020600091509050806000015490806001015490806002018054612988906142b1565b80601f01602080910402602001604051908101604052809291908181526020018280546129b4906142b1565b8015612a015780601f106129d657610100808354040283529160200191612a01565b820191906000526020600020905b8154815290600101906020018083116129e457829003601f168201915b5050505050908060030160009054906101000a900460ff16908060030160019054906101000a900460ff16905085565b6000603c821015612a455760009050612aa4565b6042821015612a575760019050612aa4565b6049821015612a695760029050612aa4565b6051821015612a7b5760039050612aa4565b605a821015612a8d5760049050612aa4565b6064821015612a9f5760059050612aa4565b600690505b919050565b6007602052806000526040600020600091509050806000018054612acc906142b1565b80601f0160208091040260200160405190810160405280929190818152602001828054612af8906142b1565b8015612b455780601f10612b1a57610100808354040283529160200191612b45565b820191906000526020600020905b815481529060010190602001808311612b2857829003601f168201915b505050505090806001018054612b5a906142b1565b80601f0160208091040260200160405190810160405280929190818152602001828054612b86906142b1565b8015612bd35780601f10612ba857610100808354040283529160200191612bd3565b820191906000526020600020905b815481529060010190602001808311612bb657829003601f168201915b5050505050905082565b60036020528060005260406000206000915090505481565b600080612c01836125c6565b9050600d8110158015612c155750600e8111155b15612c24576000915050612c8d565b600f8110158015612c36575060118111155b15612c45576001915050612c8d565b60128110158015612c57575060148111155b15612c66576002915050612c8d565b60158110158015612c785750601e8111155b15612c87576003915050612c8d565b60049150505b919050565b600960009054906101000a900473ffffffffffffffffffffffffffffffffffffffff1681565b828054612cc4906142b1565b90600052602060002090601f016020900481019282612ce65760008555612d2d565b82601f10612cff57805160ff1916838001178555612d2d565b82800160010185558215612d2d579182015b82811115612d2c578251825591602001919060010190612d11565b5b509050612d3a9190612dfb565b5090565b828054828255906000526020600020908101928215612db7579160200282015b82811115612db65782518260006101000a81548173ffffffffffffffffffffffffffffffffffffffff021916908373ffffffffffffffffffffffffffffffffffffffff16021790555091602001919060010190612d5e565b5b509050612dc49190612dfb565b5090565b6040518060600160405280612ddb612e18565b8152602001612de8612ed4565b8152602001612df5612eee565b81525090565b5b80821115612e14576000816000905550600101612dfc565b5090565b6040518060c001604052806000815260200160608152602001600073ffffffffffffffffffffffffffffffffffffffff16815260200160006006811115612e88577f4e487b7100000000000000000000000000000000000000000000000000000000600052602160045260246000fd5b81526020016000815260200160006001811115612ece577f4e487b7100000000000000000000000000000000000000000000000000000000600052602160045260246000fd5b81525090565b604051806040016040528060608152602001606081525090565b6040518060a0016040528060008152602001600081526020016060815260200160006004811115612f48577f4e487b7100000000000000000000000000000000000000000000000000000000600052602160045260246000fd5b815260200160006006811115612f87577f4e487b7100000000000000000000000000000000000000000000000000000000600052602160045260246000fd5b81525090565b6000612fa0612f9b84614069565b614038565b905082815260208101848484011115612fb857600080fd5b612fc384828561426f565b509392505050565b600081359050612fda81614478565b92915050565b600081359050612fef8161448f565b92915050565b6000813590506130048161449f565b92915050565b600082601f83011261301b57600080fd5b813561302b848260208601612f8d565b91505092915050565b600081359050613043816144af565b92915050565b60006020828403121561305b57600080fd5b600061306984828501612fcb565b91505092915050565b6000806000806080858703121561308857600080fd5b600085013567ffffffffffffffff8111156130a257600080fd5b6130ae8782880161300a565b94505060206130bf87828801612fcb565b93505060406130d087828801613034565b92505060606130e187828801612ff5565b91505092959194509250565b6000806040838503121561310057600080fd5b600083013567ffffffffffffffff81111561311a57600080fd5b6131268582860161300a565b925050602061313785828601613034565b9150509250929050565b60006020828403121561315357600080fd5b600061316184828501613034565b91505092915050565b6000806040838503121561317d57600080fd5b600061318b85828601613034565b925050602061319c85828601612fcb565b9150509250929050565b60008060008060008060008060006101208a8c0312156131c557600080fd5b60006131d38c828d01613034565b99505060206131e48c828d01612fcb565b98505060406131f58c828d01612fcb565b97505060606132068c828d01612fcb565b96505060806132178c828d01612fcb565b95505060a06132288c828d01613034565b94505060c06132398c828d01613034565b93505060e061324a8c828d01613034565b92505061010061325c8c828d01613034565b9150509295985092959850929598565b6000806040838503121561327f57600080fd5b600061328d85828601613034565b925050602061329e85828601612fe0565b9150509250929050565b600080600080600060a086880312156132c057600080fd5b60006132ce88828901613034565b955050602086013567ffffffffffffffff8111156132eb57600080fd5b6132f78882890161300a565b945050604086013567ffffffffffffffff81111561331457600080fd5b6133208882890161300a565b935050606061333188828901613034565b925050608086013567ffffffffffffffff81111561334e57600080fd5b61335a8882890161300a565b9150509295509295909350565b6000806040838503121561337a57600080fd5b600061338885828601613034565b925050602061339985828601613034565b9150509250929050565b6133ac81614181565b82525050565b6133bb81614181565b82525050565b6133ca81614193565b82525050565b6133d981614215565b82525050565b6133e881614215565b82525050565b6133f781614227565b82525050565b61340681614227565b82525050565b61341581614239565b82525050565b61342481614239565b82525050565b6134338161424b565b82525050565b6134428161424b565b82525050565b6134518161425d565b82525050565b600061346282614099565b61346c81856140a4565b935061347c81856020860161427e565b61348581614417565b840191505092915050565b600061349b82614099565b6134a581856140b5565b93506134b581856020860161427e565b6134be81614417565b840191505092915050565b60006134d66021836140b5565b91507f546869726420706c6163652077696e6e6572206e6f742072656769737465726560008301527f64000000000000000000000000000000000000000000000000000000000000006020830152604082019050919050565b600061353c6011836140b5565b91507f496e76616c6964204a75646f6b612049440000000000000000000000000000006000830152602082019050919050565b600061357c6018836140b5565b91507f4e6577206c6576656c206d7573742062652068696768657200000000000000006000830152602082019050919050565b60006135bc6022836140b5565b91507f466f7572746820706c6163652077696e6e6572206e6f7420726567697374657260008301527f65640000000000000000000000000000000000000000000000000000000000006020830152604082019050919050565b6000613622601e836140b5565b91507f4e6f207061727469636970616e747320696e20636f6d7065746974696f6e00006000830152602082019050919050565b60006136626015836140b5565b91507f4a75646f6b6120646f6573206e6f7420657869737400000000000000000000006000830152602082019050919050565b60006136a26022836140b5565b91507f5365636f6e6420706c6163652077696e6e6572206e6f7420726567697374657260008301527f65640000000000000000000000000000000000000000000000000000000000006020830152604082019050919050565b60006137086022836140b5565b91507f4f6e6c792061646d696e2063616e20706572666f726d2074686973206163746960008301527f6f6e0000000000000000000000000000000000000000000000000000000000006020830152604082019050919050565b600061376e6019836140b5565b91507f4a75646f6b6120616c72656164792072656769737465726564000000000000006000830152602082019050919050565b60006137ae6000836140b5565b9150600082019050919050565b60006137c86016836140b5565b91507f496e76616c69642077616c6c65742061646472657373000000000000000000006000830152602082019050919050565b60006138086021836140b5565b91507f466972737420706c6163652077696e6e6572206e6f742072656769737465726560008301527f64000000000000000000000000000000000000000000000000000000000000006020830152604082019050919050565b600061386e6016836140b5565b91507f4a75646f6b6120646f6573206e6f742065786973742e000000000000000000006000830152602082019050919050565b60006138ae601d836140b5565b91507f436f6d7065746974696f6e20616c726561647920636f6d706c657465640000006000830152602082019050919050565b6080820160008201516138f760008501826133a3565b50602082015161390a60208501826133a3565b50604082015161391d60408501826133a3565b50606082015161393060608501826133a3565b50505050565b600060608301600083015184820360008601526139538282613994565b9150506020830151848203602086015261396d8282613a1d565b915050604083015184820360408601526139878282613a61565b9150508091505092915050565b600060c0830160008301516139ac6000860182613ad7565b50602083015184820360208601526139c48282613457565b91505060408301516139d960408601826133a3565b5060608301516139ec60608601826133ee565b5060808301516139ff6080860182613ad7565b5060a0830151613a1260a086018261340c565b508091505092915050565b60006040830160008301518482036000860152613a3a8282613457565b91505060208301518482036020860152613a548282613457565b9150508091505092915050565b600060a083016000830151613a796000860182613ad7565b506020830151613a8c6020860182613ad7565b5060408301518482036040860152613aa48282613457565b9150506060830151613ab960608601826133d0565b506080830151613acc608086018261342a565b508091505092915050565b613ae08161420b565b82525050565b613aef8161420b565b82525050565b6000602082019050613b0a60008301846133b2565b92915050565b6000608082019050613b2560008301876133b2565b613b3260208301866133b2565b613b3f60408301856133b2565b613b4c60608301846133b2565b95945050505050565b6000602082019050613b6a60008301846133c1565b92915050565b6000602082019050613b8560008301846133df565b92915050565b6000602082019050613ba060008301846133fd565b92915050565b6000606082019050613bbb60008301866133fd565b613bc860208301856133fd565b613bd56040830184613ae6565b949350505050565b6000602082019050613bf26000830184613439565b92915050565b60006101a0820190508181036000830152613c13818d613490565b9050613c22602083018c6133b2565b613c2f604083018b6133fd565b613c3c606083018a613ae6565b613c49608083018961341b565b81810360a0830152613c5a816137a1565b905081810360c0830152613c6d816137a1565b9050613c7c60e0830188613ae6565b613c8a610100830187613448565b818103610120830152613c9c816137a1565b9050613cac6101408301866133df565b613cba610160830185613439565b613cc8610180830184613ae6565b9b9a5050505050505050505050565b60006040820190508181036000830152613cf18185613490565b90508181036020830152613d058184613490565b90509392505050565b60006040820190508181036000830152613d288185613490565b9050613d376020830184613ae6565b9392505050565b60006020820190508181036000830152613d57816134c9565b9050919050565b60006020820190508181036000830152613d778161352f565b9050919050565b60006020820190508181036000830152613d978161356f565b9050919050565b60006020820190508181036000830152613db7816135af565b9050919050565b60006020820190508181036000830152613dd781613615565b9050919050565b60006020820190508181036000830152613df781613655565b9050919050565b60006020820190508181036000830152613e1781613695565b9050919050565b60006020820190508181036000830152613e37816136fb565b9050919050565b60006020820190508181036000830152613e5781613761565b9050919050565b60006020820190508181036000830152613e77816137bb565b9050919050565b60006020820190508181036000830152613e97816137fb565b9050919050565b60006020820190508181036000830152613eb781613861565b9050919050565b60006020820190508181036000830152613ed7816138a1565b9050919050565b60006020820190508181036000830152613ef88184613936565b905092915050565b6000602082019050613f156000830184613ae6565b92915050565b600060c082019050613f306000830189613ae6565b8181036020830152613f428188613490565b9050613f5160408301876133b2565b613f5e60608301866133fd565b613f6b6080830185613ae6565b613f7860a083018461341b565b979650505050505050565b600061010082019050613f996000830188613ae6565b8181036020830152613fab8187613490565b9050613fba6040830186613ae6565b613fc760608301856133c1565b613fd460808301846138e1565b9695505050505050565b600060a082019050613ff36000830188613ae6565b6140006020830187613ae6565b81810360408301526140128186613490565b905061402160608301856133df565b61402e6080830184613439565b9695505050505050565b6000604051905081810181811067ffffffffffffffff8211171561405f5761405e6143e8565b5b8060405250919050565b600067ffffffffffffffff821115614084576140836143e8565b5b601f19601f8301169050602081019050919050565b600081519050919050565b600082825260208201905092915050565b600082825260208201905092915050565b60006140d18261420b565b91506140dc8361420b565b9250827fffffffffffffffffffffffffffffffffffffffffffffffffffffffffffffffff038211156141115761411061432c565b5b828201905092915050565b60006141278261420b565b91506141328361420b565b9250826141425761414161435b565b5b828204905092915050565b60006141588261420b565b91506141638361420b565b9250828210156141765761417561432c565b5b828203905092915050565b600061418c826141eb565b9050919050565b60008115159050919050565b60008190506141ad82614428565b919050565b60008190506141c08261443c565b919050565b60008190506141d382614450565b919050565b60008190506141e682614464565b919050565b600073ffffffffffffffffffffffffffffffffffffffff82169050919050565b6000819050919050565b60006142208261419f565b9050919050565b6000614232826141b2565b9050919050565b6000614244826141c5565b9050919050565b6000614256826141d8565b9050919050565b60006142688261420b565b9050919050565b82818337600083830152505050565b60005b8381101561429c578082015181840152602081019050614281565b838111156142ab576000848401525b50505050565b600060028204905060018216806142c957607f821691505b602082108114156142dd576142dc6143b9565b5b50919050565b60006142ee8261420b565b91507fffffffffffffffffffffffffffffffffffffffffffffffffffffffffffffffff8214156143215761432061432c565b5b600182019050919050565b7f4e487b7100000000000000000000000000000000000000000000000000000000600052601160045260246000fd5b7f4e487b7100000000000000000000000000000000000000000000000000000000600052601260045260246000fd5b7f4e487b7100000000000000000000000000000000000000000000000000000000600052602160045260246000fd5b7f4e487b7100000000000000000000000000000000000000000000000000000000600052602260045260246000fd5b7f4e487b7100000000000000000000000000000000000000000000000000000000600052604160045260246000fd5b6000601f19601f8301169050919050565b600581106144395761443861438a565b5b50565b6007811061444d5761444c61438a565b5b50565b600281106144615761446061438a565b5b50565b600781106144755761447461438a565b5b50565b61448181614181565b811461448c57600080fd5b50565b6007811061449c57600080fd5b50565b600281106144ac57600080fd5b50565b6144b88161420b565b81146144c357600080fd5b5056fea2646970667358221220740299a64e295c73b7fd9d51df713364b80bdb8424b5a416535c0137cd450d4764736f6c63430008000033",
  "immutableReferences": {},
  "source": "// SPDX-License-Identifier: MIT\r\npragma solidity ^0.8.0;\r\n\r\ncontract JudoSystem {\r\n    enum BeltLevel { White, Yellow, Orange, Green, Blue, Brown, Black }\r\n    enum Gender { Male, Female }\r\n    enum AgeCategory { Juveniles, Cadets, Juniors, Seniors, Veterans }\r\n    enum WeightCategory { Under60, Under66, Under73, Under81, Under90, Under100, Over100 }\r\n\r\n    struct JudokaBasic {\r\n        uint256 id;\r\n        string name;\r\n        address walletAddress;\r\n        BeltLevel beltLevel;\r\n        uint256 dateOfBirth;\r\n        Gender gender;\r\n    }\r\n\r\n    struct JudokaContact {\r\n        string email;\r\n        string phoneNumber;\r\n    }\r\n\r\n    struct JudokaPhysical {\r\n        uint256 age;\r\n        uint256 weight;\r\n        string club;\r\n        AgeCategory ageCategory;\r\n        WeightCategory weightCategory;\r\n    }\r\n\r\n    struct FullJudokaInfo {\r\n        JudokaBasic basic;\r\n        JudokaContact contact;\r\n        JudokaPhysical physical;\r\n    }\r\n\r\n    struct CompetitionResult {\r\n        address firstPlace;\r\n        address secondPlace;\r\n        address thirdPlace;\r\n        address fourthPlace;\r\n    }\r\n\r\n    struct Competition {\r\n        uint256 id;\r\n        string name;\r\n        uint256 date;\r\n        address[] participants;\r\n        bool completed;\r\n        CompetitionResult results;\r\n    }\r\n\r\n    struct BeltLevelChange {\r\n        BeltLevel oldBeltLevel;\r\n        BeltLevel newBeltLevel;\r\n        uint256 timestamp;\r\n    }\r\n\r\n    uint256 public judokaCount;\r\n    uint256 public competitionCount;\r\n    mapping(address => uint256) public judokaIds;\r\n    mapping(uint256 => uint256) public judokaPoints;\r\n    mapping(uint256 => Competition) public competitions;\r\n    mapping(address => bool) public blackBeltAdmins;\r\n    mapping(uint256 => JudokaBasic) public judokasBasic;\r\n    mapping(uint256 => JudokaContact) public judokasContact;\r\n    mapping(uint256 => JudokaPhysical) public judokasPhysical;\r\n\r\n    address public admin;\r\n\r\n    event JudokaRegistered(uint256 indexed id, string name, address walletAddress, BeltLevel beltLevel, uint256 dateOfBirth, Gender gender, string email, string phoneNumber, uint256 age, uint256 weight, string club, AgeCategory ageCategory, WeightCategory weightCategory, uint256 timestamp);\r\n    event BeltLevelUpdated(uint256 indexed id, BeltLevel oldBeltLevel, BeltLevel newBeltLevel, uint256 timestamp);\r\n    event CompetitionCreated(uint256 indexed id, string name, uint256 date);\r\n    event ParticipantAdded(uint256 indexed competitionId, address participant);\r\n    event CompetitionResultRecorded(uint256 indexed competitionId, address firstPlace, address secondPlace, address thirdPlace, address fourthPlace);\r\n\r\n    constructor() {\r\n        admin = msg.sender;\r\n        blackBeltAdmins[msg.sender] = true;\r\n    }\r\n\r\n    modifier onlyAdmin() {\r\n        require(isAdmin(msg.sender), \"Only admin can perform this action\");\r\n        _;\r\n    }\r\n\r\n    function getAgeCategory(uint256 _dateOfBirth) public view returns (AgeCategory) {\r\n        uint256 age = calculateAge(_dateOfBirth);\r\n        if (age >= 13 && age <= 14) {\r\n            return AgeCategory.Juveniles;\r\n        } else if (age >= 15 && age <= 17) {\r\n            return AgeCategory.Cadets;\r\n        } else if (age >= 18 && age <= 20) {\r\n            return AgeCategory.Juniors;\r\n        } else if (age >= 21 && age <= 30) {\r\n            return AgeCategory.Seniors;\r\n        } else {\r\n            return AgeCategory.Veterans;\r\n        }\r\n    }\r\n\r\n    function getWeightCategory(uint256 _weight) public pure returns (WeightCategory) {\r\n        if (_weight < 60) {\r\n            return WeightCategory.Under60;\r\n        } else if (_weight < 66) {\r\n            return WeightCategory.Under66;\r\n        } else if (_weight < 73) {\r\n            return WeightCategory.Under73;\r\n        } else if (_weight < 81) {\r\n            return WeightCategory.Under81;\r\n        } else if (_weight < 90) {\r\n            return WeightCategory.Under90;\r\n        } else if (_weight < 100) {\r\n            return WeightCategory.Under100;\r\n        } else {\r\n            return WeightCategory.Over100;\r\n        }\r\n    }\r\n\r\n    function calculateAge(uint256 _dateOfBirth) public view returns (uint256) {\r\n        if (_dateOfBirth > block.timestamp) {\r\n            return 0;\r\n        }\r\n        uint256 secondsPerYear = 365.25 * 24 * 60 * 60;\r\n        return (block.timestamp - _dateOfBirth) / secondsPerYear;\r\n    }\r\n\r\n    function registerJudoka(\r\n        string memory _name, \r\n        address _walletAddress, \r\n        uint256 _dateOfBirth, \r\n        Gender _gender\r\n    ) public {\r\n        require(_walletAddress != address(0), \"Invalid wallet address\");\r\n        require(judokaIds[_walletAddress] == 0, \"Judoka already registered\");\r\n\r\n        judokaCount++;\r\n\r\n        judokasBasic[judokaCount] = JudokaBasic({\r\n            id: judokaCount,\r\n            name: _name,\r\n            walletAddress: _walletAddress,\r\n            beltLevel: BeltLevel.White,\r\n            dateOfBirth: _dateOfBirth,\r\n            gender: _gender\r\n        });\r\n\r\n        judokasContact[judokaCount] = JudokaContact({\r\n            email: '',\r\n            phoneNumber: ''\r\n        });\r\n\r\n        judokasPhysical[judokaCount] = JudokaPhysical({\r\n            age: calculateAge(_dateOfBirth),\r\n            weight: 0,\r\n            club: '',\r\n            ageCategory: getAgeCategory(_dateOfBirth), \r\n            weightCategory: WeightCategory.Under60\r\n        });\r\n\r\n        judokaIds[_walletAddress] = judokaCount;\r\n        emit JudokaRegistered(judokaCount, _name, _walletAddress, BeltLevel.White, _dateOfBirth, _gender, '', '', calculateAge(_dateOfBirth), 0, '', getAgeCategory(_dateOfBirth), WeightCategory.Under60, block.timestamp);\r\n    }\r\n\r\n    function updateJudokaDetails(\r\n        uint256 _id,\r\n        string memory _email,\r\n        string memory _phoneNumber,\r\n        uint256 _weight,\r\n        string memory _club\r\n    ) public {\r\n        require(_id > 0 && _id <= judokaCount, \"Judoka does not exist\");\r\n\r\n        judokasContact[_id] = JudokaContact({\r\n            email: _email,\r\n            phoneNumber: _phoneNumber\r\n        });\r\n\r\n        judokasPhysical[_id] = JudokaPhysical({\r\n            age: judokasPhysical[_id].age,\r\n            weight: _weight,\r\n            club: _club,\r\n            ageCategory: getAgeCategory(judokasBasic[_id].dateOfBirth),\r\n            weightCategory: getWeightCategory(_weight)\r\n        });\r\n    }\r\n\r\n    function isAdmin(address _sender) public view returns (bool) {\r\n        return _sender == admin || blackBeltAdmins[_sender];\r\n    }\r\n\r\n    function getJudokaInfo(uint256 _id) public view returns (FullJudokaInfo memory) {\r\n        require(_id > 0 && _id <= judokaCount, \"Judoka does not exist.\");\r\n        return FullJudokaInfo({\r\n            basic: judokasBasic[_id],\r\n            contact: judokasContact[_id],\r\n            physical: judokasPhysical[_id]\r\n        });\r\n    }\r\n\r\n    function getBeltLevel(uint256 _id) public view returns (BeltLevel) {\r\n        require(_id > 0 && _id <= judokaCount, \"Judoka does not exist.\");\r\n        return judokasBasic[_id].beltLevel;\r\n    }\r\n\r\n    function promoteJudoka(uint256 _id, BeltLevel _newBeltLevel) public onlyAdmin {\r\n        require(_id > 0 && _id <= judokaCount, \"Judoka does not exist.\");\r\n        require(_newBeltLevel > judokasBasic[_id].beltLevel, \"New level must be higher\");\r\n\r\n        BeltLevel oldBeltLevel = judokasBasic[_id].beltLevel;\r\n        judokasBasic[_id].beltLevel = _newBeltLevel;\r\n\r\n        if (_newBeltLevel == BeltLevel.Black) {\r\n            blackBeltAdmins[judokasBasic[_id].walletAddress] = true;\r\n        }\r\n\r\n        emit BeltLevelUpdated(_id, oldBeltLevel, _newBeltLevel, block.timestamp);\r\n    }\r\n\r\n    function isBlackBelt(address _address) public view returns (bool) {\r\n        return judokasBasic[judokaIds[_address]].beltLevel == BeltLevel.Black;\r\n    }\r\n\r\n    function isAuthorized(uint256 _id, address _sender) public view returns (bool) {\r\n        return _sender == judokasBasic[_id].walletAddress || _sender == admin;\r\n    }\r\n\r\n    function updateJudokaPoints(uint256 _id, uint256 _points) public onlyAdmin {\r\n        require(_id > 0 && _id <= judokaCount, \"Invalid Judoka ID\");\r\n        judokaPoints[_id] += _points;\r\n    }\r\n\r\n    function createCompetition(\r\n        string memory _name, \r\n        uint256 _date\r\n    ) public onlyAdmin {\r\n        CompetitionResult memory defaultResults = CompetitionResult({\r\n            firstPlace: address(0),\r\n            secondPlace: address(0),\r\n            thirdPlace: address(0),\r\n            fourthPlace: address(0)\r\n        });\r\n\r\n        competitionCount++;\r\n        competitions[competitionCount] = Competition({\r\n            id: competitionCount,\r\n            name: _name,\r\n            date: _date,\r\n            participants: new address[](0)  ,\r\n            completed: false,\r\n            results: defaultResults\r\n        });\r\n\r\n        emit CompetitionCreated(competitionCount, _name, _date);\r\n    }\r\n\r\n    function addParticipant(uint256 _competitionId, address _participant) public onlyAdmin {\r\n        require(!competitions[_competitionId].completed, \"Competition already completed\");\r\n        competitions[_competitionId].participants.push(_participant);\r\n        emit ParticipantAdded(_competitionId, _participant);\r\n    }\r\n\r\n    function recordCompetitionResult(\r\n        uint256 _competitionId, \r\n        address _firstPlace, \r\n        address _secondPlace, \r\n        address _thirdPlace, \r\n        address _fourthPlace,\r\n        uint256 _firstPlacePoints,\r\n        uint256 _secondPlacePoints,\r\n        uint256 _thirdPlacePoints,\r\n        uint256 _fourthPlacePoints\r\n    ) public onlyAdmin {\r\n        require(!competitions[_competitionId].completed, \"Competition already completed\");\r\n        require(competitions[_competitionId].participants.length > 0, \"No participants in competition\");\r\n\r\n        require(judokaIds[_firstPlace] != 0, \"First place winner not registered\");\r\n        require(judokaIds[_secondPlace] != 0, \"Second place winner not registered\");\r\n        require(judokaIds[_thirdPlace] != 0, \"Third place winner not registered\");\r\n        require(judokaIds[_fourthPlace] != 0, \"Fourth place winner not registered\");\r\n\r\n        competitions[_competitionId].completed = true;\r\n        competitions[_competitionId].results = CompetitionResult({\r\n            firstPlace: _firstPlace,\r\n            secondPlace: _secondPlace,\r\n            thirdPlace: _thirdPlace,\r\n            fourthPlace: _fourthPlace\r\n        });\r\n\r\n        if (_firstPlacePoints > 0) {\r\n            updateJudokaPoints(judokaIds[_firstPlace], _firstPlacePoints);\r\n        }\r\n        if (_secondPlacePoints > 0) {\r\n            updateJudokaPoints(judokaIds[_secondPlace], _secondPlacePoints);\r\n        }\r\n        if (_thirdPlacePoints > 0) {\r\n            updateJudokaPoints(judokaIds[_thirdPlace], _thirdPlacePoints);\r\n        }\r\n        if (_fourthPlacePoints > 0) {\r\n            updateJudokaPoints(judokaIds[_fourthPlace], _fourthPlacePoints);\r\n        }\r\n\r\n        emit CompetitionResultRecorded(_competitionId, _firstPlace, _secondPlace, _thirdPlace, _fourthPlace);\r\n    }\r\n}\r\n",
  "sourcePath": "C:\\Users\\marti\\Documents\\projects\\judo-dapp\\contracts\\JudoSystem.sol",
  "compiler": {
    "name": "solc",
    "version": "0.8.0+commit.c7dfd78e.Emscripten.clang"
  },
  "schemaVersion": "3.4.16",
  "updatedAt": "2024-04-10T16:28:05.779Z",
  "networkType": "ethereum",
  "devdoc": {
    "kind": "dev",
    "methods": {},
    "version": 1
  },
  "userdoc": {
    "kind": "user",
    "methods": {},
    "version": 1
  }
}