{
  "contractName": "JudoBeltSystem",
  "abi": [
    {
      "inputs": [
        {
          "internalType": "address[]",
          "name": "senseiWallets",
          "type": "address[]"
        }
      ],
      "stateMutability": "nonpayable",
      "type": "constructor"
    },
    {
      "anonymous": false,
      "inputs": [
        {
          "indexed": true,
          "internalType": "address",
          "name": "wallet",
          "type": "address"
        },
        {
          "indexed": false,
          "internalType": "enum JudoBeltSystem.BeltLevel",
          "name": "belt",
          "type": "uint8"
        }
      ],
      "name": "UserPromoted",
      "type": "event"
    },
    {
      "anonymous": false,
      "inputs": [
        {
          "indexed": true,
          "internalType": "address",
          "name": "wallet",
          "type": "address"
        },
        {
          "indexed": false,
          "internalType": "enum JudoBeltSystem.BeltLevel",
          "name": "belt",
          "type": "uint8"
        }
      ],
      "name": "UserRegistered",
      "type": "event"
    },
    {
      "inputs": [
        {
          "internalType": "address",
          "name": "",
          "type": "address"
        }
      ],
      "name": "users",
      "outputs": [
        {
          "internalType": "enum JudoBeltSystem.BeltLevel",
          "name": "belt",
          "type": "uint8"
        },
        {
          "internalType": "bool",
          "name": "isSensei",
          "type": "bool"
        }
      ],
      "stateMutability": "view",
      "type": "function",
      "constant": true
    },
    {
      "inputs": [
        {
          "internalType": "enum JudoBeltSystem.BeltLevel",
          "name": "initialBelt",
          "type": "uint8"
        }
      ],
      "name": "registerUser",
      "outputs": [],
      "stateMutability": "nonpayable",
      "type": "function"
    },
    {
      "inputs": [
        {
          "internalType": "address",
          "name": "studentWallet",
          "type": "address"
        },
        {
          "internalType": "enum JudoBeltSystem.BeltLevel",
          "name": "newBelt",
          "type": "uint8"
        }
      ],
      "name": "promoteStudent",
      "outputs": [],
      "stateMutability": "nonpayable",
      "type": "function"
    },
    {
      "inputs": [
        {
          "internalType": "address",
          "name": "studentWallet",
          "type": "address"
        }
      ],
      "name": "getBeltLevel",
      "outputs": [
        {
          "internalType": "enum JudoBeltSystem.BeltLevel",
          "name": "",
          "type": "uint8"
        }
      ],
      "stateMutability": "view",
      "type": "function",
      "constant": true
    }
  ],
  "bytecode": "0x60806040523480156200001157600080fd5b5060405162001093380380620010938339818101604052810190620000379190620002f7565b60005b81518110156200023657604051806040016040528060068081111562000089577f4e487b7100000000000000000000000000000000000000000000000000000000600052602160045260246000fd5b815260200160011515815250600080848481518110620000d2577f4e487b7100000000000000000000000000000000000000000000000000000000600052603260045260246000fd5b602002602001015173ffffffffffffffffffffffffffffffffffffffff1673ffffffffffffffffffffffffffffffffffffffff16815260200190815260200160002060008201518160000160006101000a81548160ff0219169083600681111562000166577f4e487b7100000000000000000000000000000000000000000000000000000000600052602160045260246000fd5b021790555060208201518160000160016101000a81548160ff021916908315150217905550905050818181518110620001c8577f4e487b7100000000000000000000000000000000000000000000000000000000600052603260045260246000fd5b602002602001015173ffffffffffffffffffffffffffffffffffffffff167f8e18574f8a7333e6a87112742a55853a643e2f0550f4e1a3a2c3f1bb2994441d60066040516200021891906200034d565b60405180910390a280806200022d9062000434565b9150506200003a565b505062000540565b6000620002556200024f846200039e565b6200036a565b905080838252602082019050828560208602820111156200027557600080fd5b60005b85811015620002a957816200028e8882620002b3565b84526020840193506020830192505060018101905062000278565b5050509392505050565b600081519050620002c48162000526565b92915050565b600082601f830112620002dc57600080fd5b8151620002ee8482602086016200023e565b91505092915050565b6000602082840312156200030a57600080fd5b600082015167ffffffffffffffff8111156200032557600080fd5b6200033384828501620002ca565b91505092915050565b620003478162000420565b82525050565b60006020820190506200036460008301846200033c565b92915050565b6000604051905081810181811067ffffffffffffffff82111715620003945762000393620004e0565b5b8060405250919050565b600067ffffffffffffffff821115620003bc57620003bb620004e0565b5b602082029050602081019050919050565b6000620003da82620003f6565b9050919050565b6000819050620003f1826200050f565b919050565b600073ffffffffffffffffffffffffffffffffffffffff82169050919050565b6000819050919050565b60006200042d82620003e1565b9050919050565b6000620004418262000416565b91507fffffffffffffffffffffffffffffffffffffffffffffffffffffffffffffffff82141562000477576200047662000482565b5b600182019050919050565b7f4e487b7100000000000000000000000000000000000000000000000000000000600052601160045260246000fd5b7f4e487b7100000000000000000000000000000000000000000000000000000000600052602160045260246000fd5b7f4e487b7100000000000000000000000000000000000000000000000000000000600052604160045260246000fd5b60078110620005235762000522620004b1565b5b50565b6200053181620003cd565b81146200053d57600080fd5b50565b610b4380620005506000396000f3fe608060405234801561001057600080fd5b506004361061004c5760003560e01c806302b8c8cd14610051578063917dcb9d1461006d578063a87430ba14610089578063e00e2713146100ba575b600080fd5b61006b600480360381019061006691906107d8565b6100ea565b005b6100876004803603810190610082919061079c565b610343565b005b6100a3600480360381019061009e9190610773565b6106b3565b6040516100b1929190610986565b60405180910390f35b6100d460048036038101906100cf9190610773565b6106f1565b6040516100e1919061096b565b60405180910390f35b60006006811115610124577f4e487b7100000000000000000000000000000000000000000000000000000000600052602160045260246000fd5b6000803373ffffffffffffffffffffffffffffffffffffffff1673ffffffffffffffffffffffffffffffffffffffff16815260200190815260200160002060000160009054906101000a900460ff1660068111156101ab577f4e487b7100000000000000000000000000000000000000000000000000000000600052602160045260246000fd5b146101eb576040517f08c379a00000000000000000000000000000000000000000000000000000000081526004016101e290610a0f565b60405180910390fd5b604051806040016040528082600681111561022f577f4e487b7100000000000000000000000000000000000000000000000000000000600052602160045260246000fd5b8152602001600015158152506000803373ffffffffffffffffffffffffffffffffffffffff1673ffffffffffffffffffffffffffffffffffffffff16815260200190815260200160002060008201518160000160006101000a81548160ff021916908360068111156102ca577f4e487b7100000000000000000000000000000000000000000000000000000000600052602160045260246000fd5b021790555060208201518160000160016101000a81548160ff0219169083151502179055509050503373ffffffffffffffffffffffffffffffffffffffff167f8e18574f8a7333e6a87112742a55853a643e2f0550f4e1a3a2c3f1bb2994441d82604051610338919061096b565b60405180910390a250565b6000803373ffffffffffffffffffffffffffffffffffffffff1673ffffffffffffffffffffffffffffffffffffffff16815260200190815260200160002060000160019054906101000a900460ff166103d1576040517f08c379a00000000000000000000000000000000000000000000000000000000081526004016103c8906109af565b60405180910390fd5b60068081111561040a577f4e487b7100000000000000000000000000000000000000000000000000000000600052602160045260246000fd5b6000808473ffffffffffffffffffffffffffffffffffffffff1673ffffffffffffffffffffffffffffffffffffffff16815260200190815260200160002060000160009054906101000a900460ff166006811115610491577f4e487b7100000000000000000000000000000000000000000000000000000000600052602160045260246000fd5b14156104d2576040517f08c379a00000000000000000000000000000000000000000000000000000000081526004016104c9906109cf565b60405180910390fd5b80600681111561050b577f4e487b7100000000000000000000000000000000000000000000000000000000600052602160045260246000fd5b6000808473ffffffffffffffffffffffffffffffffffffffff1673ffffffffffffffffffffffffffffffffffffffff16815260200190815260200160002060000160009054906101000a900460ff166006811115610592577f4e487b7100000000000000000000000000000000000000000000000000000000600052602160045260246000fd5b106105d2576040517f08c379a00000000000000000000000000000000000000000000000000000000081526004016105c9906109ef565b60405180910390fd5b806000808473ffffffffffffffffffffffffffffffffffffffff1673ffffffffffffffffffffffffffffffffffffffff16815260200190815260200160002060000160006101000a81548160ff0219169083600681111561065c577f4e487b7100000000000000000000000000000000000000000000000000000000600052602160045260246000fd5b02179055508173ffffffffffffffffffffffffffffffffffffffff167fe840852d2d0eb0760d8f8992fa54f5540fa7b60ee6b4b96823fd0b02393c2c73826040516106a7919061096b565b60405180910390a25050565b60006020528060005260406000206000915090508060000160009054906101000a900460ff16908060000160019054906101000a900460ff16905082565b60008060008373ffffffffffffffffffffffffffffffffffffffff1673ffffffffffffffffffffffffffffffffffffffff16815260200190815260200160002060000160009054906101000a900460ff169050919050565b60008135905061075881610ae6565b92915050565b60008135905061076d81610afd565b92915050565b60006020828403121561078557600080fd5b600061079384828501610749565b91505092915050565b600080604083850312156107af57600080fd5b60006107bd85828601610749565b92505060206107ce8582860161075e565b9150509250929050565b6000602082840312156107ea57600080fd5b60006107f88482850161075e565b91505092915050565b61080a81610a52565b82525050565b61081981610a91565b82525050565b600061082c602683610a2f565b91507f4f6e6c7920612073656e7365692063616e20706572666f726d2074686973206160008301527f6374696f6e2e00000000000000000000000000000000000000000000000000006020830152604082019050919050565b6000610892601c83610a2f565b91507f43616e6e6f742070726f6d6f7465206120626c61636b2062656c742e000000006000830152602082019050919050565b60006108d2602883610a2f565b91507f43616e6e6f742064656d6f7465206f722073746179206174207468652073616d60008301527f65206c6576656c2e0000000000000000000000000000000000000000000000006020830152604082019050919050565b6000610938601b83610a2f565b91507f5573657220697320616c726561647920726567697374657265642e00000000006000830152602082019050919050565b60006020820190506109806000830184610810565b92915050565b600060408201905061099b6000830185610810565b6109a86020830184610801565b9392505050565b600060208201905081810360008301526109c88161081f565b9050919050565b600060208201905081810360008301526109e881610885565b9050919050565b60006020820190508181036000830152610a08816108c5565b9050919050565b60006020820190508181036000830152610a288161092b565b9050919050565b600082825260208201905092915050565b6000610a4b82610a71565b9050919050565b60008115159050919050565b6000819050610a6c82610ad2565b919050565b600073ffffffffffffffffffffffffffffffffffffffff82169050919050565b6000610a9c82610a5e565b9050919050565b7f4e487b7100000000000000000000000000000000000000000000000000000000600052602160045260246000fd5b60078110610ae357610ae2610aa3565b5b50565b610aef81610a40565b8114610afa57600080fd5b50565b60078110610b0a57600080fd5b5056fea264697066735822122007ed1e6516877cd608da29c060d78d6581f817abd83006eca004f1e39296957964736f6c63430008000033",
  "immutableReferences": {},
  "source": "// SPDX-License-Identifier: MIT\r\npragma solidity ^0.8.0;\r\n\r\ncontract JudoBeltSystem {\r\n    enum BeltLevel { White, Yellow, Orange, Green, Blue, Brown, Black }\r\n\r\n    struct User {\r\n        BeltLevel belt;\r\n        bool isSensei;\r\n    }\r\n\r\n    mapping(address => User) public users;\r\n\r\n    event UserRegistered(address indexed wallet, BeltLevel belt);\r\n    event UserPromoted(address indexed wallet, BeltLevel belt);\r\n\r\n    // Modifier to check if the caller is a sensei (black belt)\r\n    modifier onlySensei() {\r\n        require(users[msg.sender].isSensei, \"Only a sensei can perform this action.\");\r\n        _;\r\n    }\r\n\r\n    // Constructor to set the initial senseis during contract deployment\r\n    constructor(address[] memory senseiWallets) {\r\n        for (uint256 i = 0; i < senseiWallets.length; i++) {\r\n            users[senseiWallets[i]] = User({\r\n                belt: BeltLevel.Black,\r\n                isSensei: true\r\n            });\r\n            emit UserRegistered(senseiWallets[i], BeltLevel.Black);\r\n        }\r\n    }\r\n\r\n    // Register a new user with their selected belt level\r\n    function registerUser(BeltLevel initialBelt) external {\r\n        require(users[msg.sender].belt == BeltLevel.White, \"User is already registered.\");\r\n        users[msg.sender] = User({\r\n            belt: initialBelt,\r\n            isSensei: false\r\n        });\r\n        emit UserRegistered(msg.sender, initialBelt);\r\n    }\r\n\r\n    // Promote a student to the selected new belt level\r\n    function promoteStudent(address studentWallet, BeltLevel newBelt) external onlySensei {\r\n        require(users[studentWallet].belt != BeltLevel.Black, \"Cannot promote a black belt.\");\r\n        require(users[studentWallet].belt < newBelt, \"Cannot demote or stay at the same level.\");\r\n        users[studentWallet].belt = newBelt;\r\n        emit UserPromoted(studentWallet, newBelt);\r\n    }\r\n\r\n    // Get the belt level of a student\r\n    function getBeltLevel(address studentWallet) external view returns (BeltLevel) {\r\n        return users[studentWallet].belt;\r\n    }\r\n}\r\n",
  "sourcePath": "C:\\Users\\marti\\Documents\\projects\\judo-dapp\\contracts\\JudoBeltSystem.sol",
  "compiler": {
    "name": "solc",
    "version": "0.8.0+commit.c7dfd78e.Emscripten.clang"
  },
  "schemaVersion": "3.4.14",
  "updatedAt": "2023-07-27T21:45:58.452Z",
  "networkType": "ethereum",
  "devdoc": {
    "kind": "dev",
    "methods": {},
    "version": 1
  },
  "userdoc": {
    "kind": "user",
    "methods": {},
    "version": 1
  }
}