{
  "contractName": "JudoBeltSystem",
  "abi": [
    {
      "inputs": [],
      "stateMutability": "nonpayable",
      "type": "constructor"
    },
    {
      "anonymous": false,
      "inputs": [
        {
          "indexed": true,
          "internalType": "uint256",
          "name": "id",
          "type": "uint256"
        },
        {
          "indexed": false,
          "internalType": "enum JudoBeltSystem.BeltLevel",
          "name": "newBeltLevel",
          "type": "uint8"
        }
      ],
      "name": "BeltLevelUpdated",
      "type": "event"
    },
    {
      "anonymous": false,
      "inputs": [
        {
          "indexed": true,
          "internalType": "uint256",
          "name": "id",
          "type": "uint256"
        },
        {
          "indexed": false,
          "internalType": "string",
          "name": "name",
          "type": "string"
        },
        {
          "indexed": false,
          "internalType": "address",
          "name": "walletAddress",
          "type": "address"
        },
        {
          "indexed": false,
          "internalType": "enum JudoBeltSystem.BeltLevel",
          "name": "beltLevel",
          "type": "uint8"
        }
      ],
      "name": "JudokaRegistered",
      "type": "event"
    },
    {
      "inputs": [],
      "name": "admin",
      "outputs": [
        {
          "internalType": "address",
          "name": "",
          "type": "address"
        }
      ],
      "stateMutability": "view",
      "type": "function",
      "constant": true
    },
    {
      "inputs": [],
      "name": "judokaCount",
      "outputs": [
        {
          "internalType": "uint256",
          "name": "",
          "type": "uint256"
        }
      ],
      "stateMutability": "view",
      "type": "function",
      "constant": true
    },
    {
      "inputs": [
        {
          "internalType": "address",
          "name": "",
          "type": "address"
        }
      ],
      "name": "judokaIds",
      "outputs": [
        {
          "internalType": "uint256",
          "name": "",
          "type": "uint256"
        }
      ],
      "stateMutability": "view",
      "type": "function",
      "constant": true
    },
    {
      "inputs": [
        {
          "internalType": "uint256",
          "name": "",
          "type": "uint256"
        }
      ],
      "name": "judokas",
      "outputs": [
        {
          "internalType": "uint256",
          "name": "id",
          "type": "uint256"
        },
        {
          "internalType": "string",
          "name": "name",
          "type": "string"
        },
        {
          "internalType": "address",
          "name": "walletAddress",
          "type": "address"
        },
        {
          "internalType": "enum JudoBeltSystem.BeltLevel",
          "name": "beltLevel",
          "type": "uint8"
        }
      ],
      "stateMutability": "view",
      "type": "function",
      "constant": true
    },
    {
      "inputs": [
        {
          "internalType": "string",
          "name": "_name",
          "type": "string"
        },
        {
          "internalType": "address",
          "name": "_walletAddress",
          "type": "address"
        }
      ],
      "name": "registerBlackBelt",
      "outputs": [],
      "stateMutability": "nonpayable",
      "type": "function"
    },
    {
      "inputs": [
        {
          "internalType": "string",
          "name": "_name",
          "type": "string"
        },
        {
          "internalType": "address",
          "name": "_walletAddress",
          "type": "address"
        }
      ],
      "name": "registerJudoka",
      "outputs": [],
      "stateMutability": "nonpayable",
      "type": "function"
    },
    {
      "inputs": [
        {
          "internalType": "uint256",
          "name": "_id",
          "type": "uint256"
        }
      ],
      "name": "getBeltLevel",
      "outputs": [
        {
          "internalType": "enum JudoBeltSystem.BeltLevel",
          "name": "",
          "type": "uint8"
        }
      ],
      "stateMutability": "view",
      "type": "function",
      "constant": true
    },
    {
      "inputs": [
        {
          "internalType": "uint256",
          "name": "_id",
          "type": "uint256"
        },
        {
          "internalType": "enum JudoBeltSystem.BeltLevel",
          "name": "_newBeltLevel",
          "type": "uint8"
        }
      ],
      "name": "promoteJudoka",
      "outputs": [],
      "stateMutability": "nonpayable",
      "type": "function"
    },
    {
      "inputs": [
        {
          "internalType": "address",
          "name": "_address",
          "type": "address"
        }
      ],
      "name": "isBlackBelt",
      "outputs": [
        {
          "internalType": "bool",
          "name": "",
          "type": "bool"
        }
      ],
      "stateMutability": "view",
      "type": "function",
      "constant": true
    }
  ],
  "bytecode": "0x608060405234801561001057600080fd5b5033600360006101000a81548173ffffffffffffffffffffffffffffffffffffffff021916908373ffffffffffffffffffffffffffffffffffffffff160217905550611541806100616000396000f3fe608060405234801561001057600080fd5b50600436106100935760003560e01c80632eedc465116100665780632eedc465146101305780633ab9f6d81461014c578063cab96b701461017c578063ce3824b21461019a578063f851a440146101cd57610093565b806310c1224c14610098578063179dafc5146100c85780631ef31992146100e457806322b9dd9014610114575b600080fd5b6100b260048036038101906100ad9190610d92565b6101eb565b6040516100bf91906110aa565b60405180910390f35b6100e260048036038101906100dd9190610dbb565b6102c9565b005b6100fe60048036038101906100f99190610e0f565b6105b5565b60405161010b91906110c5565b60405180910390f35b61012e60048036038101906101299190610e38565b610632565b005b61014a60048036038101906101459190610dbb565b610840565b005b61016660048036038101906101619190610d92565b610b1f565b60405161017391906111de565b60405180910390f35b610184610b37565b60405161019191906111de565b60405180910390f35b6101b460048036038101906101af9190610e0f565b610b3d565b6040516101c494939291906111f9565b60405180910390f35b6101d5610c22565b6040516101e2919061108f565b60405180910390f35b6000600680811115610226577f4e487b7100000000000000000000000000000000000000000000000000000000600052602160045260246000fd5b60016000600260008673ffffffffffffffffffffffffffffffffffffffff1673ffffffffffffffffffffffffffffffffffffffff16815260200190815260200160002054815260200190815260200160002060020160149054906101000a900460ff1660068111156102c1577f4e487b7100000000000000000000000000000000000000000000000000000000600052602160045260246000fd5b149050919050565b600360009054906101000a900473ffffffffffffffffffffffffffffffffffffffff1673ffffffffffffffffffffffffffffffffffffffff163373ffffffffffffffffffffffffffffffffffffffff1614610359576040517f08c379a00000000000000000000000000000000000000000000000000000000081526004016103509061113e565b60405180910390fd5b600073ffffffffffffffffffffffffffffffffffffffff168173ffffffffffffffffffffffffffffffffffffffff1614156103c9576040517f08c379a00000000000000000000000000000000000000000000000000000000081526004016103c09061119e565b60405180910390fd5b6000808154809291906103db906113a3565b9190505550604051806080016040528060005481526020018381526020018273ffffffffffffffffffffffffffffffffffffffff16815260200160068081111561044e577f4e487b7100000000000000000000000000000000000000000000000000000000600052602160045260246000fd5b815250600160008054815260200190815260200160002060008201518160000155602082015181600101908051906020019061048b929190610c48565b5060408201518160020160006101000a81548173ffffffffffffffffffffffffffffffffffffffff021916908373ffffffffffffffffffffffffffffffffffffffff16021790555060608201518160020160146101000a81548160ff02191690836006811115610524577f4e487b7100000000000000000000000000000000000000000000000000000000600052602160045260246000fd5b0217905550905050600054600260008373ffffffffffffffffffffffffffffffffffffffff1673ffffffffffffffffffffffffffffffffffffffff168152602001908152602001600020819055506000547f027ac653ce0c6c0daf3073682ad41b63e111ca61aeba1d624e52ac8bf2764767838360066040516105a9939291906110e0565b60405180910390a25050565b600080821180156105c857506000548211155b610607576040517f08c379a00000000000000000000000000000000000000000000000000000000081526004016105fe906111be565b60405180910390fd5b6001600083815260200190815260200160002060020160149054906101000a900460ff169050919050565b61063b336101eb565b61067a576040517f08c379a00000000000000000000000000000000000000000000000000000000081526004016106719061115e565b60405180910390fd5b60008211801561068c57506000548211155b6106cb576040517f08c379a00000000000000000000000000000000000000000000000000000000081526004016106c2906111be565b60405180910390fd5b6001600083815260200190815260200160002060020160149054906101000a900460ff166006811115610727577f4e487b7100000000000000000000000000000000000000000000000000000000600052602160045260246000fd5b816006811115610760577f4e487b7100000000000000000000000000000000000000000000000000000000600052602160045260246000fd5b116107a0576040517f08c379a00000000000000000000000000000000000000000000000000000000081526004016107979061111e565b60405180910390fd5b806001600084815260200190815260200160002060020160146101000a81548160ff021916908360068111156107ff577f4e487b7100000000000000000000000000000000000000000000000000000000600052602160045260246000fd5b0217905550817f27ea931272f731cd09006c3599956a7b38be986b07aff1ed24fbd60e1ab4ff998260405161083491906110c5565b60405180910390a25050565b600073ffffffffffffffffffffffffffffffffffffffff168173ffffffffffffffffffffffffffffffffffffffff1614156108b0576040517f08c379a00000000000000000000000000000000000000000000000000000000081526004016108a79061119e565b60405180910390fd5b6000600260008373ffffffffffffffffffffffffffffffffffffffff1673ffffffffffffffffffffffffffffffffffffffff1681526020019081526020016000205414610932576040517f08c379a00000000000000000000000000000000000000000000000000000000081526004016109299061117e565b60405180910390fd5b600080815480929190610944906113a3565b9190505550604051806080016040528060005481526020018381526020018273ffffffffffffffffffffffffffffffffffffffff168152602001600060068111156109b8577f4e487b7100000000000000000000000000000000000000000000000000000000600052602160045260246000fd5b81525060016000805481526020019081526020016000206000820151816000015560208201518160010190805190602001906109f5929190610c48565b5060408201518160020160006101000a81548173ffffffffffffffffffffffffffffffffffffffff021916908373ffffffffffffffffffffffffffffffffffffffff16021790555060608201518160020160146101000a81548160ff02191690836006811115610a8e577f4e487b7100000000000000000000000000000000000000000000000000000000600052602160045260246000fd5b0217905550905050600054600260008373ffffffffffffffffffffffffffffffffffffffff1673ffffffffffffffffffffffffffffffffffffffff168152602001908152602001600020819055506000547f027ac653ce0c6c0daf3073682ad41b63e111ca61aeba1d624e52ac8bf276476783836000604051610b13939291906110e0565b60405180910390a25050565b60026020528060005260406000206000915090505481565b60005481565b6001602052806000526040600020600091509050806000015490806001018054610b6690611371565b80601f0160208091040260200160405190810160405280929190818152602001828054610b9290611371565b8015610bdf5780601f10610bb457610100808354040283529160200191610bdf565b820191906000526020600020905b815481529060010190602001808311610bc257829003601f168201915b5050505050908060020160009054906101000a900473ffffffffffffffffffffffffffffffffffffffff16908060020160149054906101000a900460ff16905084565b600360009054906101000a900473ffffffffffffffffffffffffffffffffffffffff1681565b828054610c5490611371565b90600052602060002090601f016020900481019282610c765760008555610cbd565b82601f10610c8f57805160ff1916838001178555610cbd565b82800160010185558215610cbd579182015b82811115610cbc578251825591602001919060010190610ca1565b5b509050610cca9190610cce565b5090565b5b80821115610ce7576000816000905550600101610ccf565b5090565b6000610cfe610cf984611276565b611245565b905082815260208101848484011115610d1657600080fd5b610d2184828561132f565b509392505050565b600081359050610d38816114cd565b92915050565b600081359050610d4d816114e4565b92915050565b600082601f830112610d6457600080fd5b8135610d74848260208601610ceb565b91505092915050565b600081359050610d8c816114f4565b92915050565b600060208284031215610da457600080fd5b6000610db284828501610d29565b91505092915050565b60008060408385031215610dce57600080fd5b600083013567ffffffffffffffff811115610de857600080fd5b610df485828601610d53565b9250506020610e0585828601610d29565b9150509250929050565b600060208284031215610e2157600080fd5b6000610e2f84828501610d7d565b91505092915050565b60008060408385031215610e4b57600080fd5b6000610e5985828601610d7d565b9250506020610e6a85828601610d3e565b9150509250929050565b610e7d816112c2565b82525050565b610e8c816112d4565b82525050565b610e9b8161131d565b82525050565b6000610eac826112a6565b610eb681856112b1565b9350610ec681856020860161133e565b610ecf816114a8565b840191505092915050565b6000610ee76018836112b1565b91507f4e6577206c6576656c206d7573742062652068696768657200000000000000006000830152602082019050919050565b6000610f27601e836112b1565b91507f4f6e6c792061646d696e2063616e2061646420626c61636b2062656c747300006000830152602082019050919050565b6000610f676024836112b1565b91507f4f6e6c7920626c61636b2062656c74732063616e2070726f6d6f7465206a756460008301527f6f6b6173000000000000000000000000000000000000000000000000000000006020830152604082019050919050565b6000610fcd6019836112b1565b91507f4a75646f6b6120616c72656164792072656769737465726564000000000000006000830152602082019050919050565b600061100d6016836112b1565b91507f496e76616c69642077616c6c65742061646472657373000000000000000000006000830152602082019050919050565b600061104d6016836112b1565b91507f4a75646f6b6120646f6573206e6f742065786973742e000000000000000000006000830152602082019050919050565b61108981611313565b82525050565b60006020820190506110a46000830184610e74565b92915050565b60006020820190506110bf6000830184610e83565b92915050565b60006020820190506110da6000830184610e92565b92915050565b600060608201905081810360008301526110fa8186610ea1565b90506111096020830185610e74565b6111166040830184610e92565b949350505050565b6000602082019050818103600083015261113781610eda565b9050919050565b6000602082019050818103600083015261115781610f1a565b9050919050565b6000602082019050818103600083015261117781610f5a565b9050919050565b6000602082019050818103600083015261119781610fc0565b9050919050565b600060208201905081810360008301526111b781611000565b9050919050565b600060208201905081810360008301526111d781611040565b9050919050565b60006020820190506111f36000830184611080565b92915050565b600060808201905061120e6000830187611080565b81810360208301526112208186610ea1565b905061122f6040830185610e74565b61123c6060830184610e92565b95945050505050565b6000604051905081810181811067ffffffffffffffff8211171561126c5761126b611479565b5b8060405250919050565b600067ffffffffffffffff82111561129157611290611479565b5b601f19601f8301169050602081019050919050565b600081519050919050565b600082825260208201905092915050565b60006112cd826112f3565b9050919050565b60008115159050919050565b60008190506112ee826114b9565b919050565b600073ffffffffffffffffffffffffffffffffffffffff82169050919050565b6000819050919050565b6000611328826112e0565b9050919050565b82818337600083830152505050565b60005b8381101561135c578082015181840152602081019050611341565b8381111561136b576000848401525b50505050565b6000600282049050600182168061138957607f821691505b6020821081141561139d5761139c61144a565b5b50919050565b60006113ae82611313565b91507fffffffffffffffffffffffffffffffffffffffffffffffffffffffffffffffff8214156113e1576113e06113ec565b5b600182019050919050565b7f4e487b7100000000000000000000000000000000000000000000000000000000600052601160045260246000fd5b7f4e487b7100000000000000000000000000000000000000000000000000000000600052602160045260246000fd5b7f4e487b7100000000000000000000000000000000000000000000000000000000600052602260045260246000fd5b7f4e487b7100000000000000000000000000000000000000000000000000000000600052604160045260246000fd5b6000601f19601f8301169050919050565b600781106114ca576114c961141b565b5b50565b6114d6816112c2565b81146114e157600080fd5b50565b600781106114f157600080fd5b50565b6114fd81611313565b811461150857600080fd5b5056fea264697066735822122012c482436bfc90cf6b150c2505b2e5aaede349ab09d52f842e2860cae694e78164736f6c63430008000033",
  "immutableReferences": {},
  "source": "// SPDX-License-Identifier: MIT\r\npragma solidity ^0.8.0;\r\n\r\ncontract JudoBeltSystem {\r\n    enum BeltLevel { White, Yellow, Orange, Green, Blue, Brown, Black }\r\n\r\n    struct Judoka {\r\n        uint256 id;\r\n        string name;\r\n        address walletAddress;\r\n        BeltLevel beltLevel;\r\n    }\r\n\r\n    uint256 public judokaCount;\r\n    mapping(uint256 => Judoka) public judokas;\r\n    mapping(address => uint256) public judokaIds;\r\n    address public admin;\r\n\r\n    event JudokaRegistered(uint256 indexed id, string name, address walletAddress, BeltLevel beltLevel);\r\n    event BeltLevelUpdated(uint256 indexed id, BeltLevel newBeltLevel);\r\n\r\n    constructor() {\r\n        admin = msg.sender;\r\n    }\r\n\r\n    function registerBlackBelt(string memory _name, address _walletAddress) public {\r\n        require(msg.sender == admin, \"Only admin can add black belts\");\r\n        require(_walletAddress != address(0), \"Invalid wallet address\");\r\n        judokaCount++;\r\n        judokas[judokaCount] = Judoka(judokaCount, _name, _walletAddress, BeltLevel.Black);\r\n        judokaIds[_walletAddress] = judokaCount;\r\n        emit JudokaRegistered(judokaCount, _name, _walletAddress, BeltLevel.Black);\r\n    }\r\n\r\n    function registerJudoka(string memory _name, address _walletAddress) public {\r\n        require(_walletAddress != address(0), \"Invalid wallet address\");\r\n        require(judokaIds[_walletAddress] == 0, \"Judoka already registered\");\r\n        judokaCount++;\r\n        judokas[judokaCount] = Judoka(judokaCount, _name, _walletAddress, BeltLevel.White);\r\n        judokaIds[_walletAddress] = judokaCount;\r\n        emit JudokaRegistered(judokaCount, _name, _walletAddress, BeltLevel.White);\r\n    }\r\n\r\n    function getBeltLevel(uint256 _id) public view returns (BeltLevel) {\r\n        require(_id > 0 && _id <= judokaCount, \"Judoka does not exist.\");\r\n        return judokas[_id].beltLevel;\r\n    }\r\n\r\n    function promoteJudoka(uint256 _id, BeltLevel _newBeltLevel) public {\r\n        require(isBlackBelt(msg.sender), \"Only black belts can promote judokas\");\r\n        require(_id > 0 && _id <= judokaCount, \"Judoka does not exist.\");\r\n        require(_newBeltLevel > judokas[_id].beltLevel, \"New level must be higher\");\r\n        judokas[_id].beltLevel = _newBeltLevel;\r\n        emit BeltLevelUpdated(_id, _newBeltLevel);\r\n    }\r\n\r\n    function isBlackBelt(address _address) public view returns(bool) {\r\n        return judokas[judokaIds[_address]].beltLevel == BeltLevel.Black;\r\n    }\r\n}\r\n",
  "sourcePath": "C:\\Users\\marti\\Documents\\projects\\judo-dapp\\contracts\\JudoBeltSystem.sol",
  "compiler": {
    "name": "solc",
    "version": "0.8.0+commit.c7dfd78e.Emscripten.clang"
  },
  "schemaVersion": "3.4.16",
  "updatedAt": "2024-01-19T07:51:13.825Z",
  "networkType": "ethereum",
  "devdoc": {
    "kind": "dev",
    "methods": {},
    "version": 1
  },
  "userdoc": {
    "kind": "user",
    "methods": {},
    "version": 1
  }
}