{
  "contractName": "JudoUserRegistration",
  "abi": [
    {
      "inputs": [
        {
          "internalType": "address",
          "name": "storageAddress",
          "type": "address"
        }
      ],
      "stateMutability": "nonpayable",
      "type": "constructor"
    },
    {
      "inputs": [
        {
          "internalType": "address",
          "name": "user",
          "type": "address"
        }
      ],
      "name": "registerUser",
      "outputs": [],
      "stateMutability": "nonpayable",
      "type": "function"
    }
  ],
  "bytecode": "0x608060405234801561001057600080fd5b506040516105523803806105528339818101604052810190610032919061008d565b806000806101000a81548173ffffffffffffffffffffffffffffffffffffffff021916908373ffffffffffffffffffffffffffffffffffffffff160217905550506100ff565b600081519050610087816100e8565b92915050565b60006020828403121561009f57600080fd5b60006100ad84828501610078565b91505092915050565b60006100c1826100c8565b9050919050565b600073ffffffffffffffffffffffffffffffffffffffff82169050919050565b6100f1816100b6565b81146100fc57600080fd5b50565b6104448061010e6000396000f3fe608060405234801561001057600080fd5b506004361061002b5760003560e01c80632199d5cd14610030575b600080fd5b61004a600480360381019061004591906101ef565b61004c565b005b60008054906101000a900473ffffffffffffffffffffffffffffffffffffffff1673ffffffffffffffffffffffffffffffffffffffff166310c1224c336040518263ffffffff1660e01b81526004016100a591906102c5565b60206040518083038186803b1580156100bd57600080fd5b505afa1580156100d1573d6000803e3d6000fd5b505050506040513d601f19601f820116820180604052508101906100f59190610218565b610134576040517f08c379a000000000000000000000000000000000000000000000000000000000815260040161012b90610309565b60405180910390fd5b60008054906101000a900473ffffffffffffffffffffffffffffffffffffffff1673ffffffffffffffffffffffffffffffffffffffff1663d53f32508260006040518363ffffffff1660e01b81526004016101909291906102e0565b600060405180830381600087803b1580156101aa57600080fd5b505af11580156101be573d6000803e3d6000fd5b5050505050565b6000813590506101d4816103e0565b92915050565b6000815190506101e9816103f7565b92915050565b60006020828403121561020157600080fd5b600061020f848285016101c5565b91505092915050565b60006020828403121561022a57600080fd5b6000610238848285016101da565b91505092915050565b61024a8161033a565b82525050565b6102598161038b565b82525050565b600061026c602383610329565b91507f4f6e6c7920626c61636b2062656c74732063616e20726567697374657220757360008301527f65727300000000000000000000000000000000000000000000000000000000006020830152604082019050919050565b60006020820190506102da6000830184610241565b92915050565b60006040820190506102f56000830185610241565b6103026020830184610250565b9392505050565b600060208201905081810360008301526103228161025f565b9050919050565b600082825260208201905092915050565b60006103458261036b565b9050919050565b60008115159050919050565b6000819050610366826103cc565b919050565b600073ffffffffffffffffffffffffffffffffffffffff82169050919050565b600061039682610358565b9050919050565b7f4e487b7100000000000000000000000000000000000000000000000000000000600052602160045260246000fd5b600781106103dd576103dc61039d565b5b50565b6103e98161033a565b81146103f457600080fd5b50565b6104008161034c565b811461040b57600080fd5b5056fea2646970667358221220232825a5588d151fdcde7b4112d5c724201ce3b6e7d2076e72d8ab312dfc38b464736f6c63430008000033",
  "immutableReferences": {},
  "source": "// SPDX-License-Identifier: MIT\r\npragma solidity ^0.8.0;\r\n\r\nimport \"./JudoBeltStorage.sol\";\r\n\r\ncontract JudoUserRegistration {\r\n    JudoBeltStorage private beltStorage;\r\n\r\n    constructor(address storageAddress) {\r\n        beltStorage = JudoBeltStorage(storageAddress);\r\n    }\r\n\r\n    function registerUser(address user) public {\r\n        require(beltStorage.isBlackBelt(msg.sender), \"Only black belts can register users\");\r\n        beltStorage.setBeltLevel(user, JudoBeltStorage.BeltLevel.White);\r\n    }\r\n}\r\n",
  "sourcePath": "C:\\Users\\marti\\Documents\\projects\\judo-dapp\\contracts\\JudoUserRegistration.sol",
  "compiler": {
    "name": "solc",
    "version": "0.8.0+commit.c7dfd78e.Emscripten.clang"
  },
  "schemaVersion": "3.4.16",
  "updatedAt": "2024-01-12T10:36:48.967Z",
  "networkType": "ethereum",
  "devdoc": {
    "kind": "dev",
    "methods": {},
    "version": 1
  },
  "userdoc": {
    "kind": "user",
    "methods": {},
    "version": 1
  }
}