{
  "contractName": "JudoUserRegistration",
  "abi": [
    {
      "inputs": [
        {
          "internalType": "address",
          "name": "storageAddress",
          "type": "address"
        }
      ],
      "stateMutability": "nonpayable",
      "type": "constructor"
    },
    {
      "inputs": [
        {
          "internalType": "address",
          "name": "user",
          "type": "address"
        }
      ],
      "name": "registerUser",
      "outputs": [],
      "stateMutability": "nonpayable",
      "type": "function"
    }
  ],
  "bytecode": "0x608060405234801561001057600080fd5b506040516105c13803806105c18339818101604052810190610032919061008d565b806000806101000a81548173ffffffffffffffffffffffffffffffffffffffff021916908373ffffffffffffffffffffffffffffffffffffffff160217905550506100ff565b600081519050610087816100e8565b92915050565b60006020828403121561009f57600080fd5b60006100ad84828501610078565b91505092915050565b60006100c1826100c8565b9050919050565b600073ffffffffffffffffffffffffffffffffffffffff82169050919050565b6100f1816100b6565b81146100fc57600080fd5b50565b6104b38061010e6000396000f3fe608060405234801561001057600080fd5b506004361061002b5760003560e01c80632199d5cd14610030575b600080fd5b61004a60048036038101906100459190610263565b61004c565b005b600680811115610085577f4e487b7100000000000000000000000000000000000000000000000000000000600052602160045260246000fd5b60008054906101000a900473ffffffffffffffffffffffffffffffffffffffff1673ffffffffffffffffffffffffffffffffffffffff1663e00e2713336040518263ffffffff1660e01b81526004016100de9190610339565b60206040518083038186803b1580156100f657600080fd5b505afa15801561010a573d6000803e3d6000fd5b505050506040513d601f19601f8201168201806040525081019061012e919061028c565b6006811115610166577f4e487b7100000000000000000000000000000000000000000000000000000000600052602160045260246000fd5b146101a6576040517f08c379a000000000000000000000000000000000000000000000000000000000815260040161019d9061038b565b60405180910390fd5b60008054906101000a900473ffffffffffffffffffffffffffffffffffffffff1673ffffffffffffffffffffffffffffffffffffffff1663919bfdc5826000336040518463ffffffff1660e01b815260040161020493929190610354565b600060405180830381600087803b15801561021e57600080fd5b505af1158015610232573d6000803e3d6000fd5b5050505050565b60008135905061024881610456565b92915050565b60008151905061025d8161046d565b92915050565b60006020828403121561027557600080fd5b600061028384828501610239565b91505092915050565b60006020828403121561029e57600080fd5b60006102ac8482850161024e565b91505092915050565b6102be816103bc565b82525050565b6102cd81610401565b82525050565b60006102e06023836103ab565b91507f4f6e6c7920626c61636b2062656c74732063616e20726567697374657220757360008301527f65727300000000000000000000000000000000000000000000000000000000006020830152604082019050919050565b600060208201905061034e60008301846102b5565b92915050565b600060608201905061036960008301866102b5565b61037660208301856102c4565b61038360408301846102b5565b949350505050565b600060208201905081810360008301526103a4816102d3565b9050919050565b600082825260208201905092915050565b60006103c7826103e1565b9050919050565b60008190506103dc82610442565b919050565b600073ffffffffffffffffffffffffffffffffffffffff82169050919050565b600061040c826103ce565b9050919050565b7f4e487b7100000000000000000000000000000000000000000000000000000000600052602160045260246000fd5b6007811061045357610452610413565b5b50565b61045f816103bc565b811461046a57600080fd5b50565b6007811061047a57600080fd5b5056fea2646970667358221220c71c1897e279780e8b5079ab6823b6527f0d83f51530201c3e32ec6d3bf70d8764736f6c63430008000033",
  "immutableReferences": {},
  "source": "// SPDX-License-Identifier: MIT\r\npragma solidity ^0.8.0;\r\n\r\nimport \"./JudoBeltStorageInterface.sol\";\r\n\r\ncontract JudoUserRegistration {\r\n    IJudoBeltStorage private beltStorage;\r\n\r\n    constructor(address storageAddress) {\r\n        beltStorage = IJudoBeltStorage(storageAddress);\r\n    }\r\n\r\n    function registerUser(address user) public {\r\n        require(beltStorage.getBeltLevel(msg.sender) == IJudoBeltStorage.BeltLevel.Black, \"Only black belts can register users\");\r\n        beltStorage.setBeltLevel(user, IJudoBeltStorage.BeltLevel.White, msg.sender);\r\n    }\r\n}\r\n",
  "sourcePath": "C:\\Users\\marti\\Documents\\projects\\judo-dapp\\contracts\\JudoUserRegistration.sol",
  "compiler": {
    "name": "solc",
    "version": "0.8.0+commit.c7dfd78e.Emscripten.clang"
  },
  "schemaVersion": "3.4.14",
  "updatedAt": "2024-01-11T11:57:22.846Z",
  "devdoc": {
    "kind": "dev",
    "methods": {},
    "version": 1
  },
  "userdoc": {
    "kind": "user",
    "methods": {},
    "version": 1
  }
}