{
  "contractName": "JudoSystem",
  "abi": [
    {
      "inputs": [],
      "stateMutability": "nonpayable",
      "type": "constructor"
    },
    {
      "anonymous": false,
      "inputs": [
        {
          "indexed": true,
          "internalType": "uint256",
          "name": "id",
          "type": "uint256"
        },
        {
          "indexed": false,
          "internalType": "enum JudoSystem.BeltLevel",
          "name": "oldBeltLevel",
          "type": "uint8"
        },
        {
          "indexed": false,
          "internalType": "enum JudoSystem.BeltLevel",
          "name": "newBeltLevel",
          "type": "uint8"
        },
        {
          "indexed": false,
          "internalType": "uint256",
          "name": "timestamp",
          "type": "uint256"
        }
      ],
      "name": "BeltLevelUpdated",
      "type": "event"
    },
    {
      "anonymous": false,
      "inputs": [
        {
          "indexed": true,
          "internalType": "uint256",
          "name": "id",
          "type": "uint256"
        },
        {
          "indexed": false,
          "internalType": "string",
          "name": "name",
          "type": "string"
        },
        {
          "indexed": false,
          "internalType": "uint256",
          "name": "date",
          "type": "uint256"
        }
      ],
      "name": "CompetitionCreated",
      "type": "event"
    },
    {
      "anonymous": false,
      "inputs": [
        {
          "indexed": true,
          "internalType": "uint256",
          "name": "competitionId",
          "type": "uint256"
        },
        {
          "indexed": false,
          "internalType": "address",
          "name": "firstPlace",
          "type": "address"
        },
        {
          "indexed": false,
          "internalType": "address",
          "name": "secondPlace",
          "type": "address"
        },
        {
          "indexed": false,
          "internalType": "address",
          "name": "thirdPlace",
          "type": "address"
        },
        {
          "indexed": false,
          "internalType": "address",
          "name": "fourthPlace",
          "type": "address"
        }
      ],
      "name": "CompetitionResultRecorded",
      "type": "event"
    },
    {
      "anonymous": false,
      "inputs": [
        {
          "indexed": true,
          "internalType": "uint256",
          "name": "id",
          "type": "uint256"
        },
        {
          "indexed": false,
          "internalType": "string",
          "name": "email",
          "type": "string"
        },
        {
          "indexed": false,
          "internalType": "string",
          "name": "phoneNumber",
          "type": "string"
        }
      ],
      "name": "JudokaContactUpdated",
      "type": "event"
    },
    {
      "anonymous": false,
      "inputs": [
        {
          "indexed": true,
          "internalType": "uint256",
          "name": "id",
          "type": "uint256"
        },
        {
          "indexed": false,
          "internalType": "string",
          "name": "name",
          "type": "string"
        },
        {
          "indexed": false,
          "internalType": "address",
          "name": "walletAddress",
          "type": "address"
        },
        {
          "indexed": false,
          "internalType": "enum JudoSystem.BeltLevel",
          "name": "beltLevel",
          "type": "uint8"
        },
        {
          "indexed": false,
          "internalType": "uint256",
          "name": "dateOfBirth",
          "type": "uint256"
        },
        {
          "indexed": false,
          "internalType": "enum JudoSystem.Gender",
          "name": "gender",
          "type": "uint8"
        },
        {
          "indexed": false,
          "internalType": "string",
          "name": "email",
          "type": "string"
        },
        {
          "indexed": false,
          "internalType": "string",
          "name": "phoneNumber",
          "type": "string"
        },
        {
          "indexed": false,
          "internalType": "uint256",
          "name": "age",
          "type": "uint256"
        },
        {
          "indexed": false,
          "internalType": "uint256",
          "name": "weight",
          "type": "uint256"
        },
        {
          "indexed": false,
          "internalType": "string",
          "name": "club",
          "type": "string"
        },
        {
          "indexed": false,
          "internalType": "enum JudoSystem.AgeCategory",
          "name": "ageCategory",
          "type": "uint8"
        },
        {
          "indexed": false,
          "internalType": "enum JudoSystem.WeightCategory",
          "name": "weightCategory",
          "type": "uint8"
        },
        {
          "indexed": false,
          "internalType": "uint256",
          "name": "timestamp",
          "type": "uint256"
        }
      ],
      "name": "JudokaRegistered",
      "type": "event"
    },
    {
      "anonymous": false,
      "inputs": [
        {
          "indexed": true,
          "internalType": "uint256",
          "name": "competitionId",
          "type": "uint256"
        },
        {
          "indexed": false,
          "internalType": "address",
          "name": "participant",
          "type": "address"
        }
      ],
      "name": "ParticipantAdded",
      "type": "event"
    },
    {
      "inputs": [],
      "name": "admin",
      "outputs": [
        {
          "internalType": "address",
          "name": "",
          "type": "address"
        }
      ],
      "stateMutability": "view",
      "type": "function",
      "constant": true
    },
    {
      "inputs": [
        {
          "internalType": "address",
          "name": "",
          "type": "address"
        }
      ],
      "name": "blackBeltAdmins",
      "outputs": [
        {
          "internalType": "bool",
          "name": "",
          "type": "bool"
        }
      ],
      "stateMutability": "view",
      "type": "function",
      "constant": true
    },
    {
      "inputs": [],
      "name": "competitionCount",
      "outputs": [
        {
          "internalType": "uint256",
          "name": "",
          "type": "uint256"
        }
      ],
      "stateMutability": "view",
      "type": "function",
      "constant": true
    },
    {
      "inputs": [
        {
          "internalType": "uint256",
          "name": "",
          "type": "uint256"
        }
      ],
      "name": "competitions",
      "outputs": [
        {
          "internalType": "uint256",
          "name": "id",
          "type": "uint256"
        },
        {
          "internalType": "string",
          "name": "name",
          "type": "string"
        },
        {
          "internalType": "uint256",
          "name": "date",
          "type": "uint256"
        },
        {
          "internalType": "bool",
          "name": "completed",
          "type": "bool"
        },
        {
          "components": [
            {
              "internalType": "address",
              "name": "firstPlace",
              "type": "address"
            },
            {
              "internalType": "address",
              "name": "secondPlace",
              "type": "address"
            },
            {
              "internalType": "address",
              "name": "thirdPlace",
              "type": "address"
            },
            {
              "internalType": "address",
              "name": "fourthPlace",
              "type": "address"
            }
          ],
          "internalType": "struct JudoSystem.CompetitionResult",
          "name": "results",
          "type": "tuple"
        }
      ],
      "stateMutability": "view",
      "type": "function",
      "constant": true
    },
    {
      "inputs": [],
      "name": "judokaCount",
      "outputs": [
        {
          "internalType": "uint256",
          "name": "",
          "type": "uint256"
        }
      ],
      "stateMutability": "view",
      "type": "function",
      "constant": true
    },
    {
      "inputs": [
        {
          "internalType": "address",
          "name": "",
          "type": "address"
        }
      ],
      "name": "judokaIds",
      "outputs": [
        {
          "internalType": "uint256",
          "name": "",
          "type": "uint256"
        }
      ],
      "stateMutability": "view",
      "type": "function",
      "constant": true
    },
    {
      "inputs": [
        {
          "internalType": "uint256",
          "name": "",
          "type": "uint256"
        }
      ],
      "name": "judokaPoints",
      "outputs": [
        {
          "internalType": "uint256",
          "name": "",
          "type": "uint256"
        }
      ],
      "stateMutability": "view",
      "type": "function",
      "constant": true
    },
    {
      "inputs": [
        {
          "internalType": "uint256",
          "name": "",
          "type": "uint256"
        }
      ],
      "name": "judokasBasic",
      "outputs": [
        {
          "internalType": "uint256",
          "name": "id",
          "type": "uint256"
        },
        {
          "internalType": "string",
          "name": "name",
          "type": "string"
        },
        {
          "internalType": "address",
          "name": "walletAddress",
          "type": "address"
        },
        {
          "internalType": "enum JudoSystem.BeltLevel",
          "name": "beltLevel",
          "type": "uint8"
        },
        {
          "internalType": "uint32",
          "name": "dateOfBirth",
          "type": "uint32"
        },
        {
          "internalType": "enum JudoSystem.Gender",
          "name": "gender",
          "type": "uint8"
        }
      ],
      "stateMutability": "view",
      "type": "function",
      "constant": true
    },
    {
      "inputs": [
        {
          "internalType": "uint256",
          "name": "",
          "type": "uint256"
        }
      ],
      "name": "judokasContact",
      "outputs": [
        {
          "internalType": "string",
          "name": "email",
          "type": "string"
        },
        {
          "internalType": "string",
          "name": "phoneNumber",
          "type": "string"
        }
      ],
      "stateMutability": "view",
      "type": "function",
      "constant": true
    },
    {
      "inputs": [
        {
          "internalType": "uint256",
          "name": "",
          "type": "uint256"
        }
      ],
      "name": "judokasPhysical",
      "outputs": [
        {
          "internalType": "uint256",
          "name": "age",
          "type": "uint256"
        },
        {
          "internalType": "uint256",
          "name": "weight",
          "type": "uint256"
        },
        {
          "internalType": "string",
          "name": "club",
          "type": "string"
        },
        {
          "internalType": "enum JudoSystem.AgeCategory",
          "name": "ageCategory",
          "type": "uint8"
        },
        {
          "internalType": "enum JudoSystem.WeightCategory",
          "name": "weightCategory",
          "type": "uint8"
        }
      ],
      "stateMutability": "view",
      "type": "function",
      "constant": true
    },
    {
      "inputs": [
        {
          "internalType": "address",
          "name": "_address",
          "type": "address"
        }
      ],
      "name": "isAdmin",
      "outputs": [
        {
          "internalType": "bool",
          "name": "",
          "type": "bool"
        }
      ],
      "stateMutability": "view",
      "type": "function",
      "constant": true
    },
    {
      "inputs": [
        {
          "internalType": "uint16",
          "name": "year",
          "type": "uint16"
        },
        {
          "internalType": "uint8",
          "name": "month",
          "type": "uint8"
        },
        {
          "internalType": "uint8",
          "name": "day",
          "type": "uint8"
        }
      ],
      "name": "packDate",
      "outputs": [
        {
          "internalType": "uint32",
          "name": "",
          "type": "uint32"
        }
      ],
      "stateMutability": "pure",
      "type": "function",
      "constant": true
    },
    {
      "inputs": [
        {
          "internalType": "uint32",
          "name": "packedDate",
          "type": "uint32"
        }
      ],
      "name": "unpackDate",
      "outputs": [
        {
          "internalType": "uint16",
          "name": "year",
          "type": "uint16"
        },
        {
          "internalType": "uint8",
          "name": "month",
          "type": "uint8"
        },
        {
          "internalType": "uint8",
          "name": "day",
          "type": "uint8"
        }
      ],
      "stateMutability": "pure",
      "type": "function",
      "constant": true
    },
    {
      "inputs": [
        {
          "internalType": "uint256",
          "name": "_age",
          "type": "uint256"
        }
      ],
      "name": "getAgeCategory",
      "outputs": [
        {
          "internalType": "enum JudoSystem.AgeCategory",
          "name": "",
          "type": "uint8"
        }
      ],
      "stateMutability": "pure",
      "type": "function",
      "constant": true
    },
    {
      "inputs": [
        {
          "internalType": "uint256",
          "name": "_weight",
          "type": "uint256"
        }
      ],
      "name": "getWeightCategory",
      "outputs": [
        {
          "internalType": "enum JudoSystem.WeightCategory",
          "name": "",
          "type": "uint8"
        }
      ],
      "stateMutability": "pure",
      "type": "function",
      "constant": true
    },
    {
      "inputs": [
        {
          "internalType": "uint32",
          "name": "_dateOfBirth",
          "type": "uint32"
        }
      ],
      "name": "calculateAge",
      "outputs": [
        {
          "internalType": "uint256",
          "name": "",
          "type": "uint256"
        }
      ],
      "stateMutability": "view",
      "type": "function",
      "constant": true
    },
    {
      "inputs": [
        {
          "internalType": "string",
          "name": "_name",
          "type": "string"
        },
        {
          "internalType": "address",
          "name": "_walletAddress",
          "type": "address"
        },
        {
          "internalType": "uint32",
          "name": "_dateOfBirth",
          "type": "uint32"
        },
        {
          "internalType": "enum JudoSystem.Gender",
          "name": "_gender",
          "type": "uint8"
        },
        {
          "internalType": "uint256",
          "name": "_weight",
          "type": "uint256"
        },
        {
          "internalType": "string",
          "name": "_club",
          "type": "string"
        }
      ],
      "name": "registerJudoka",
      "outputs": [],
      "stateMutability": "nonpayable",
      "type": "function"
    },
    {
      "inputs": [
        {
          "internalType": "uint256",
          "name": "_id",
          "type": "uint256"
        }
      ],
      "name": "getJudokaDOB",
      "outputs": [
        {
          "internalType": "uint16",
          "name": "year",
          "type": "uint16"
        },
        {
          "internalType": "uint8",
          "name": "month",
          "type": "uint8"
        },
        {
          "internalType": "uint8",
          "name": "day",
          "type": "uint8"
        }
      ],
      "stateMutability": "view",
      "type": "function",
      "constant": true
    },
    {
      "inputs": [
        {
          "internalType": "uint256",
          "name": "_id",
          "type": "uint256"
        },
        {
          "internalType": "string",
          "name": "_email",
          "type": "string"
        },
        {
          "internalType": "string",
          "name": "_phoneNumber",
          "type": "string"
        }
      ],
      "name": "updateJudokaContactDetails",
      "outputs": [],
      "stateMutability": "nonpayable",
      "type": "function"
    },
    {
      "inputs": [
        {
          "internalType": "uint256",
          "name": "_id",
          "type": "uint256"
        }
      ],
      "name": "getJudokaInfo",
      "outputs": [
        {
          "components": [
            {
              "components": [
                {
                  "internalType": "uint256",
                  "name": "id",
                  "type": "uint256"
                },
                {
                  "internalType": "string",
                  "name": "name",
                  "type": "string"
                },
                {
                  "internalType": "address",
                  "name": "walletAddress",
                  "type": "address"
                },
                {
                  "internalType": "enum JudoSystem.BeltLevel",
                  "name": "beltLevel",
                  "type": "uint8"
                },
                {
                  "internalType": "uint32",
                  "name": "dateOfBirth",
                  "type": "uint32"
                },
                {
                  "internalType": "enum JudoSystem.Gender",
                  "name": "gender",
                  "type": "uint8"
                }
              ],
              "internalType": "struct JudoSystem.JudokaBasic",
              "name": "basic",
              "type": "tuple"
            },
            {
              "components": [
                {
                  "internalType": "string",
                  "name": "email",
                  "type": "string"
                },
                {
                  "internalType": "string",
                  "name": "phoneNumber",
                  "type": "string"
                }
              ],
              "internalType": "struct JudoSystem.JudokaContact",
              "name": "contact",
              "type": "tuple"
            },
            {
              "components": [
                {
                  "internalType": "uint256",
                  "name": "age",
                  "type": "uint256"
                },
                {
                  "internalType": "uint256",
                  "name": "weight",
                  "type": "uint256"
                },
                {
                  "internalType": "string",
                  "name": "club",
                  "type": "string"
                },
                {
                  "internalType": "enum JudoSystem.AgeCategory",
                  "name": "ageCategory",
                  "type": "uint8"
                },
                {
                  "internalType": "enum JudoSystem.WeightCategory",
                  "name": "weightCategory",
                  "type": "uint8"
                }
              ],
              "internalType": "struct JudoSystem.JudokaPhysical",
              "name": "physical",
              "type": "tuple"
            }
          ],
          "internalType": "struct JudoSystem.FullJudokaInfo",
          "name": "",
          "type": "tuple"
        }
      ],
      "stateMutability": "view",
      "type": "function",
      "constant": true
    },
    {
      "inputs": [
        {
          "internalType": "uint256",
          "name": "_id",
          "type": "uint256"
        }
      ],
      "name": "getBeltLevel",
      "outputs": [
        {
          "internalType": "enum JudoSystem.BeltLevel",
          "name": "",
          "type": "uint8"
        }
      ],
      "stateMutability": "view",
      "type": "function",
      "constant": true
    },
    {
      "inputs": [
        {
          "internalType": "uint256",
          "name": "_id",
          "type": "uint256"
        },
        {
          "internalType": "enum JudoSystem.BeltLevel",
          "name": "_newBeltLevel",
          "type": "uint8"
        }
      ],
      "name": "promoteJudoka",
      "outputs": [],
      "stateMutability": "nonpayable",
      "type": "function"
    },
    {
      "inputs": [
        {
          "internalType": "address",
          "name": "_address",
          "type": "address"
        }
      ],
      "name": "isBlackBelt",
      "outputs": [
        {
          "internalType": "bool",
          "name": "",
          "type": "bool"
        }
      ],
      "stateMutability": "view",
      "type": "function",
      "constant": true
    },
    {
      "inputs": [
        {
          "internalType": "uint256",
          "name": "_id",
          "type": "uint256"
        },
        {
          "internalType": "address",
          "name": "_sender",
          "type": "address"
        }
      ],
      "name": "isAuthorized",
      "outputs": [
        {
          "internalType": "bool",
          "name": "",
          "type": "bool"
        }
      ],
      "stateMutability": "view",
      "type": "function",
      "constant": true
    },
    {
      "inputs": [
        {
          "internalType": "uint256",
          "name": "_id",
          "type": "uint256"
        },
        {
          "internalType": "uint256",
          "name": "_points",
          "type": "uint256"
        }
      ],
      "name": "updateJudokaPoints",
      "outputs": [],
      "stateMutability": "nonpayable",
      "type": "function"
    },
    {
      "inputs": [
        {
          "internalType": "string",
          "name": "_name",
          "type": "string"
        },
        {
          "internalType": "uint256",
          "name": "_date",
          "type": "uint256"
        }
      ],
      "name": "createCompetition",
      "outputs": [],
      "stateMutability": "nonpayable",
      "type": "function"
    },
    {
      "inputs": [
        {
          "internalType": "uint256",
          "name": "_competitionId",
          "type": "uint256"
        },
        {
          "internalType": "address",
          "name": "_participant",
          "type": "address"
        }
      ],
      "name": "addParticipant",
      "outputs": [],
      "stateMutability": "nonpayable",
      "type": "function"
    },
    {
      "inputs": [
        {
          "internalType": "uint256",
          "name": "_competitionId",
          "type": "uint256"
        },
        {
          "internalType": "address",
          "name": "_firstPlace",
          "type": "address"
        },
        {
          "internalType": "address",
          "name": "_secondPlace",
          "type": "address"
        },
        {
          "internalType": "address",
          "name": "_thirdPlace",
          "type": "address"
        },
        {
          "internalType": "address",
          "name": "_fourthPlace",
          "type": "address"
        },
        {
          "internalType": "uint256",
          "name": "_firstPlacePoints",
          "type": "uint256"
        },
        {
          "internalType": "uint256",
          "name": "_secondPlacePoints",
          "type": "uint256"
        },
        {
          "internalType": "uint256",
          "name": "_thirdPlacePoints",
          "type": "uint256"
        },
        {
          "internalType": "uint256",
          "name": "_fourthPlacePoints",
          "type": "uint256"
        }
      ],
      "name": "recordCompetitionResult",
      "outputs": [],
      "stateMutability": "nonpayable",
      "type": "function"
    }
  ],
  "bytecode": "0x608060405234801561001057600080fd5b5033600960006101000a81548173ffffffffffffffffffffffffffffffffffffffff021916908373ffffffffffffffffffffffffffffffffffffffff1602179055506001600560003373ffffffffffffffffffffffffffffffffffffffff1673ffffffffffffffffffffffffffffffffffffffff16815260200190815260200160002060006101000a81548160ff021916908315150217905550614936806100b96000396000f3fe608060405234801561001057600080fd5b50600436106101c45760003560e01c80636af8bf75116100f9578063d7984a2911610097578063e7651d1f11610071578063e7651d1f146105aa578063e9f86f1e146105db578063f215bb081461060b578063f851a4401461063b576101c4565b8063d7984a2914610516578063d8c1eb541461054a578063e1ad19461461057a576101c4565b8063a1681770116100d3578063a16817701461047a578063a4fadf8314610498578063cab96b70146104c8578063ccf28e86146104e6576101c4565b80636af8bf75146103f557806397a3e66a146104115780639f6828d914610446576101c4565b806338897f9a1161016657806345f88af71161014057806345f88af71461034557806358fa0840146103775780636052e47a146103a9578063609c6d7f146103c5576101c4565b806338897f9a146102c95780633ab9f6d8146102e557806345504a8314610315576101c4565b80631d91d322116101a25780631d91d322146102315780631ef319921461024d57806322b9dd901461027d57806324d7806c14610299576101c4565b806310c1224c146101c957806318d85e53146101f95780631b8558dd14610215575b600080fd5b6101e360048036038101906101de91906131f1565b610659565b6040516101f09190613def565b60405180910390f35b610213600480360381019061020e919061339f565b610737565b005b61022f600480360381019061022a919061355c565b610896565b005b61024b600480360381019061024691906132d3565b61095d565b005b61026760048036038101906102629190613376565b610ccd565b6040516102749190613e25565b60405180910390f35b610297600480360381019061029291906134a1565b610d4a565b005b6102b360048036038101906102ae91906131f1565b61108c565b6040516102c09190613def565b60405180910390f35b6102e360048036038101906102de91906133db565b61113a565b005b6102ff60048036038101906102fa91906131f1565b6117c0565b60405161030c91906141f3565b60405180910390f35b61032f600480360381019061032a9190613376565b6117d8565b60405161033c919061419a565b60405180910390f35b61035f600480360381019061035a9190613376565b611da8565b60405161036e939291906141bc565b60405180910390f35b610391600480360381019061038c9190613598565b611def565b6040516103a0939291906141bc565b60405180910390f35b6103c360048036038101906103be919061321a565b611e34565b005b6103df60048036038101906103da919061339f565b612427565b6040516103ec9190613def565b60405180910390f35b61040f600480360381019061040a91906134dd565b6124ee565b005b61042b60048036038101906104269190613376565b612697565b60405161043d9695949392919061420e565b60405180910390f35b610460600480360381019061045b9190613376565b6127a5565b604051610471959493929190614276565b60405180910390f35b6104826129d2565b60405161048f91906141f3565b60405180910390f35b6104b260048036038101906104ad9190613327565b6129d8565b6040516104bf919061432b565b60405180910390f35b6104d0612a06565b6040516104dd91906141f3565b60405180910390f35b61050060048036038101906104fb91906131f1565b612a0c565b60405161050d9190613def565b60405180910390f35b610530600480360381019061052b9190613376565b612a2c565b6040516105419594939291906142d1565b60405180910390f35b610564600480360381019061055f9190613376565b612b04565b6040516105719190613e77565b60405180910390f35b610594600480360381019061058f9190613598565b612b7c565b6040516105a191906141f3565b60405180910390f35b6105c460048036038101906105bf9190613376565b612c1d565b6040516105d2929190613f73565b60405180910390f35b6105f560048036038101906105f09190613376565b612d51565b60405161060291906141f3565b60405180910390f35b61062560048036038101906106209190613376565b612d69565b6040516106329190613e0a565b60405180910390f35b610643612df5565b6040516106509190613d8f565b60405180910390f35b6000600680811115610694577f4e487b7100000000000000000000000000000000000000000000000000000000600052602160045260246000fd5b60066000600260008673ffffffffffffffffffffffffffffffffffffffff1673ffffffffffffffffffffffffffffffffffffffff16815260200190815260200160002054815260200190815260200160002060020160149054906101000a900460ff16600681111561072f577f4e487b7100000000000000000000000000000000000000000000000000000000600052602160045260246000fd5b149050919050565b6107403361108c565b61077f576040517f08c379a0000000000000000000000000000000000000000000000000000000008152600401610776906140ba565b60405180910390fd5b6004600083815260200190815260200160002060040160009054906101000a900460ff16156107e3576040517f08c379a00000000000000000000000000000000000000000000000000000000081526004016107da9061415a565b60405180910390fd5b60046000838152602001908152602001600020600301819080600181540180825580915050600190039060005260206000200160009091909190916101000a81548173ffffffffffffffffffffffffffffffffffffffff021916908373ffffffffffffffffffffffffffffffffffffffff160217905550817f12246ba2398106df92bc0281a1eece14e5b8516c5c3dab76205391650e39fddb8260405161088a9190613d8f565b60405180910390a25050565b61089f3361108c565b6108de576040517f08c379a00000000000000000000000000000000000000000000000000000000081526004016108d5906140ba565b60405180910390fd5b6000821180156108f057506000548211155b61092f576040517f08c379a000000000000000000000000000000000000000000000000000000000815260040161092690613ffa565b60405180910390fd5b8060036000848152602001908152602001600020600082825461095291906143d4565b925050819055505050565b6109663361108c565b6109a5576040517f08c379a000000000000000000000000000000000000000000000000000000000815260040161099c906140ba565b60405180910390fd5b60006040518060800160405280600073ffffffffffffffffffffffffffffffffffffffff168152602001600073ffffffffffffffffffffffffffffffffffffffff168152602001600073ffffffffffffffffffffffffffffffffffffffff168152602001600073ffffffffffffffffffffffffffffffffffffffff16815250905060016000815480929190610a39906146a7565b91905055506040518060c001604052806001548152602001848152602001838152602001600067ffffffffffffffff811115610a9e577f4e487b7100000000000000000000000000000000000000000000000000000000600052604160045260246000fd5b604051908082528060200260200182016040528015610acc5781602001602082028036833780820191505090505b50815260200160001515815260200182815250600460006001548152602001908152602001600020600082015181600001556020820151816001019080519060200190610b1a929190612e1b565b50604082015181600201556060820151816003019080519060200190610b41929190612ea1565b5060808201518160040160006101000a81548160ff02191690831515021790555060a08201518160050160008201518160000160006101000a81548173ffffffffffffffffffffffffffffffffffffffff021916908373ffffffffffffffffffffffffffffffffffffffff16021790555060208201518160010160006101000a81548173ffffffffffffffffffffffffffffffffffffffff021916908373ffffffffffffffffffffffffffffffffffffffff16021790555060408201518160020160006101000a81548173ffffffffffffffffffffffffffffffffffffffff021916908373ffffffffffffffffffffffffffffffffffffffff16021790555060608201518160030160006101000a81548173ffffffffffffffffffffffffffffffffffffffff021916908373ffffffffffffffffffffffffffffffffffffffff16021790555050509050506001547f527887ed6033dc7f6637d06840290a881f67a7f6b0b297598a5a88195bba4f6d8484604051610cc0929190613faa565b60405180910390a2505050565b60008082118015610ce057506000548211155b610d1f576040517f08c379a0000000000000000000000000000000000000000000000000000000008152600401610d169061413a565b60405180910390fd5b6006600083815260200190815260200160002060020160149054906101000a900460ff169050919050565b610d533361108c565b610d92576040517f08c379a0000000000000000000000000000000000000000000000000000000008152600401610d89906140ba565b60405180910390fd5b600082118015610da457506000548211155b610de3576040517f08c379a0000000000000000000000000000000000000000000000000000000008152600401610dda9061413a565b60405180910390fd5b6006600083815260200190815260200160002060020160149054906101000a900460ff166006811115610e3f577f4e487b7100000000000000000000000000000000000000000000000000000000600052602160045260246000fd5b816006811115610e78577f4e487b7100000000000000000000000000000000000000000000000000000000600052602160045260246000fd5b11610eb8576040517f08c379a0000000000000000000000000000000000000000000000000000000008152600401610eaf9061401a565b60405180910390fd5b60006006600084815260200190815260200160002060020160149054906101000a900460ff169050816006600085815260200190815260200160002060020160146101000a81548160ff02191690836006811115610f3f577f4e487b7100000000000000000000000000000000000000000000000000000000600052602160045260246000fd5b0217905550600680811115610f7d577f4e487b7100000000000000000000000000000000000000000000000000000000600052602160045260246000fd5b826006811115610fb6577f4e487b7100000000000000000000000000000000000000000000000000000000600052602160045260246000fd5b141561104b576001600560006006600087815260200190815260200160002060020160009054906101000a900473ffffffffffffffffffffffffffffffffffffffff1673ffffffffffffffffffffffffffffffffffffffff1673ffffffffffffffffffffffffffffffffffffffff16815260200190815260200160002060006101000a81548160ff0219169083151502179055505b827f01ae96fe1baf9d2d284e6a11b7ab2a76e1c8b047b807650660b4370d50462f2382844260405161107f93929190613e40565b60405180910390a2505050565b6000600960009054906101000a900473ffffffffffffffffffffffffffffffffffffffff1673ffffffffffffffffffffffffffffffffffffffff168273ffffffffffffffffffffffffffffffffffffffff1614806111335750600560008373ffffffffffffffffffffffffffffffffffffffff1673ffffffffffffffffffffffffffffffffffffffff16815260200190815260200160002060009054906101000a900460ff165b9050919050565b6111433361108c565b611182576040517f08c379a0000000000000000000000000000000000000000000000000000000008152600401611179906140ba565b60405180910390fd5b600460008a815260200190815260200160002060040160009054906101000a900460ff16156111e6576040517f08c379a00000000000000000000000000000000000000000000000000000000081526004016111dd9061415a565b60405180910390fd5b6000600460008b81526020019081526020016000206003018054905011611242576040517f08c379a00000000000000000000000000000000000000000000000000000000081526004016112399061405a565b60405180910390fd5b6000600260008a73ffffffffffffffffffffffffffffffffffffffff1673ffffffffffffffffffffffffffffffffffffffff1681526020019081526020016000205414156112c5576040517f08c379a00000000000000000000000000000000000000000000000000000000081526004016112bc9061411a565b60405180910390fd5b6000600260008973ffffffffffffffffffffffffffffffffffffffff1673ffffffffffffffffffffffffffffffffffffffff168152602001908152602001600020541415611348576040517f08c379a000000000000000000000000000000000000000000000000000000000815260040161133f9061409a565b60405180910390fd5b6000600260008873ffffffffffffffffffffffffffffffffffffffff1673ffffffffffffffffffffffffffffffffffffffff1681526020019081526020016000205414156113cb576040517f08c379a00000000000000000000000000000000000000000000000000000000081526004016113c290613fda565b60405180910390fd5b6000600260008773ffffffffffffffffffffffffffffffffffffffff1673ffffffffffffffffffffffffffffffffffffffff16815260200190815260200160002054141561144e576040517f08c379a00000000000000000000000000000000000000000000000000000000081526004016114459061403a565b60405180910390fd5b6001600460008b815260200190815260200160002060040160006101000a81548160ff02191690831515021790555060405180608001604052808973ffffffffffffffffffffffffffffffffffffffff1681526020018873ffffffffffffffffffffffffffffffffffffffff1681526020018773ffffffffffffffffffffffffffffffffffffffff1681526020018673ffffffffffffffffffffffffffffffffffffffff16815250600460008b815260200190815260200160002060050160008201518160000160006101000a81548173ffffffffffffffffffffffffffffffffffffffff021916908373ffffffffffffffffffffffffffffffffffffffff16021790555060208201518160010160006101000a81548173ffffffffffffffffffffffffffffffffffffffff021916908373ffffffffffffffffffffffffffffffffffffffff16021790555060408201518160020160006101000a81548173ffffffffffffffffffffffffffffffffffffffff021916908373ffffffffffffffffffffffffffffffffffffffff16021790555060608201518160030160006101000a81548173ffffffffffffffffffffffffffffffffffffffff021916908373ffffffffffffffffffffffffffffffffffffffff160217905550905050600084111561167e5761167d600260008a73ffffffffffffffffffffffffffffffffffffffff1673ffffffffffffffffffffffffffffffffffffffff1681526020019081526020016000205485610896565b5b60008311156116d1576116d0600260008973ffffffffffffffffffffffffffffffffffffffff1673ffffffffffffffffffffffffffffffffffffffff1681526020019081526020016000205484610896565b5b600082111561172457611723600260008873ffffffffffffffffffffffffffffffffffffffff1673ffffffffffffffffffffffffffffffffffffffff1681526020019081526020016000205483610896565b5b600081111561177757611776600260008773ffffffffffffffffffffffffffffffffffffffff1673ffffffffffffffffffffffffffffffffffffffff1681526020019081526020016000205482610896565b5b887f19974ab114e4d06de9fa6a18e214db804b1d2a9b1acb21496207e2deafbbb9dc898989896040516117ad9493929190613daa565b60405180910390a2505050505050505050565b60026020528060005260406000206000915090505481565b6117e0612f2b565b6000821180156117f257506000548211155b611831576040517f08c379a00000000000000000000000000000000000000000000000000000000081526004016118289061413a565b60405180910390fd5b6040518060600160405280600660008581526020019081526020016000206040518060c00160405290816000820154815260200160018201805461187490614675565b80601f01602080910402602001604051908101604052809291908181526020018280546118a090614675565b80156118ed5780601f106118c2576101008083540402835291602001916118ed565b820191906000526020600020905b8154815290600101906020018083116118d057829003601f168201915b505050505081526020016002820160009054906101000a900473ffffffffffffffffffffffffffffffffffffffff1673ffffffffffffffffffffffffffffffffffffffff1673ffffffffffffffffffffffffffffffffffffffff1681526020016002820160149054906101000a900460ff166006811115611997577f4e487b7100000000000000000000000000000000000000000000000000000000600052602160045260246000fd5b60068111156119cf577f4e487b7100000000000000000000000000000000000000000000000000000000600052602160045260246000fd5b81526020016002820160159054906101000a900463ffffffff1663ffffffff1663ffffffff1681526020016002820160199054906101000a900460ff166001811115611a44577f4e487b7100000000000000000000000000000000000000000000000000000000600052602160045260246000fd5b6001811115611a7c577f4e487b7100000000000000000000000000000000000000000000000000000000600052602160045260246000fd5b81525050815260200160076000858152602001908152602001600020604051806040016040529081600082018054611ab390614675565b80601f0160208091040260200160405190810160405280929190818152602001828054611adf90614675565b8015611b2c5780601f10611b0157610100808354040283529160200191611b2c565b820191906000526020600020905b815481529060010190602001808311611b0f57829003601f168201915b50505050508152602001600182018054611b4590614675565b80601f0160208091040260200160405190810160405280929190818152602001828054611b7190614675565b8015611bbe5780601f10611b9357610100808354040283529160200191611bbe565b820191906000526020600020905b815481529060010190602001808311611ba157829003601f168201915b5050505050815250508152602001600860008581526020019081526020016000206040518060a00160405290816000820154815260200160018201548152602001600282018054611c0e90614675565b80601f0160208091040260200160405190810160405280929190818152602001828054611c3a90614675565b8015611c875780601f10611c5c57610100808354040283529160200191611c87565b820191906000526020600020905b815481529060010190602001808311611c6a57829003601f168201915b505050505081526020016003820160009054906101000a900460ff166004811115611cdb577f4e487b7100000000000000000000000000000000000000000000000000000000600052602160045260246000fd5b6004811115611d13577f4e487b7100000000000000000000000000000000000000000000000000000000600052602160045260246000fd5b81526020016003820160019054906101000a900460ff166006811115611d62577f4e487b7100000000000000000000000000000000000000000000000000000000600052602160045260246000fd5b6006811115611d9a577f4e487b7100000000000000000000000000000000000000000000000000000000600052602160045260246000fd5b815250508152509050919050565b6000806000611ddc6006600086815260200190815260200160002060020160159054906101000a900463ffffffff16611def565b8093508194508295505050509193909250565b600080600061271084611e02919061445b565b925060648085611e12919061445b565b611e1c91906146f0565b9150606484611e2b91906146f0565b90509193909250565b600073ffffffffffffffffffffffffffffffffffffffff168573ffffffffffffffffffffffffffffffffffffffff161415611ea4576040517f08c379a0000000000000000000000000000000000000000000000000000000008152600401611e9b906140fa565b60405180910390fd5b6000600260008773ffffffffffffffffffffffffffffffffffffffff1673ffffffffffffffffffffffffffffffffffffffff1681526020019081526020016000205414611f26576040517f08c379a0000000000000000000000000000000000000000000000000000000008152600401611f1d906140da565b60405180910390fd5b6000611f3185612b7c565b90506000611f3e82612d69565b90506000611f4b85612b04565b9050600080815480929190611f5f906146a7565b91905055506040518060c0016040528060005481526020018a81526020018973ffffffffffffffffffffffffffffffffffffffff16815260200160006006811115611fd3577f4e487b7100000000000000000000000000000000000000000000000000000000600052602160045260246000fd5b81526020018863ffffffff16815260200187600181111561201d577f4e487b7100000000000000000000000000000000000000000000000000000000600052602160045260246000fd5b815250600660008054815260200190815260200160002060008201518160000155602082015181600101908051906020019061205a929190612e1b565b5060408201518160020160006101000a81548173ffffffffffffffffffffffffffffffffffffffff021916908373ffffffffffffffffffffffffffffffffffffffff16021790555060608201518160020160146101000a81548160ff021916908360068111156120f3577f4e487b7100000000000000000000000000000000000000000000000000000000600052602160045260246000fd5b021790555060808201518160020160156101000a81548163ffffffff021916908363ffffffff16021790555060a08201518160020160196101000a81548160ff02191690836001811115612170577f4e487b7100000000000000000000000000000000000000000000000000000000600052602160045260246000fd5b0217905550905050604051806040016040528060405180602001604052806000815250815260200160405180602001604052806000815250815250600760008054815260200190815260200160002060008201518160000190805190602001906121db929190612e1b565b5060208201518160010190805190602001906121f8929190612e1b565b509050506040518060a00160405280848152602001868152602001858152602001836004811115612252577f4e487b7100000000000000000000000000000000000000000000000000000000600052602160045260246000fd5b8152602001826006811115612290577f4e487b7100000000000000000000000000000000000000000000000000000000600052602160045260246000fd5b8152506008600080548152602001908152602001600020600082015181600001556020820151816001015560408201518160020190805190602001906122d7929190612e1b565b5060608201518160030160006101000a81548160ff02191690836004811115612329577f4e487b7100000000000000000000000000000000000000000000000000000000600052602160045260246000fd5b021790555060808201518160030160016101000a81548160ff0219169083600681111561237f577f4e487b7100000000000000000000000000000000000000000000000000000000600052602160045260246000fd5b0217905550905050600054600260008a73ffffffffffffffffffffffffffffffffffffffff1673ffffffffffffffffffffffffffffffffffffffff168152602001908152602001600020819055506000547f91b08635671aac60e9f3dda55c450b1170d8c93ab4e68fc5737cc03948f7d4598a8a60008b8b898c8c8b8b426040516124149b9a99989796959493929190613e92565b60405180910390a2505050505050505050565b60006006600084815260200190815260200160002060020160009054906101000a900473ffffffffffffffffffffffffffffffffffffffff1673ffffffffffffffffffffffffffffffffffffffff168273ffffffffffffffffffffffffffffffffffffffff1614806124e65750600960009054906101000a900473ffffffffffffffffffffffffffffffffffffffff1673ffffffffffffffffffffffffffffffffffffffff168273ffffffffffffffffffffffffffffffffffffffff16145b905092915050565b60008311801561250057506000548311155b61253f576040517f08c379a00000000000000000000000000000000000000000000000000000000081526004016125369061407a565b60405180910390fd5b6006600084815260200190815260200160002060020160009054906101000a900473ffffffffffffffffffffffffffffffffffffffff1673ffffffffffffffffffffffffffffffffffffffff163373ffffffffffffffffffffffffffffffffffffffff1614806125b457506125b33361108c565b5b6125f3576040517f08c379a00000000000000000000000000000000000000000000000000000000081526004016125ea9061417a565b60405180910390fd5b604051806040016040528083815260200182815250600760008581526020019081526020016000206000820151816000019080519060200190612637929190612e1b565b506020820151816001019080519060200190612654929190612e1b565b50905050827f3a2df04b3034672d2c2b1dad7a1a514a04aa7bca1f226958091c379b472dadbf838360405161268a929190613f73565b60405180910390a2505050565b60066020528060005260406000206000915090508060000154908060010180546126c090614675565b80601f01602080910402602001604051908101604052809291908181526020018280546126ec90614675565b80156127395780601f1061270e57610100808354040283529160200191612739565b820191906000526020600020905b81548152906001019060200180831161271c57829003601f168201915b5050505050908060020160009054906101000a900473ffffffffffffffffffffffffffffffffffffffff16908060020160149054906101000a900460ff16908060020160159054906101000a900463ffffffff16908060020160199054906101000a900460ff16905086565b60046020528060005260406000206000915090508060000154908060010180546127ce90614675565b80601f01602080910402602001604051908101604052809291908181526020018280546127fa90614675565b80156128475780601f1061281c57610100808354040283529160200191612847565b820191906000526020600020905b81548152906001019060200180831161282a57829003601f168201915b5050505050908060020154908060040160009054906101000a900460ff1690806005016040518060800160405290816000820160009054906101000a900473ffffffffffffffffffffffffffffffffffffffff1673ffffffffffffffffffffffffffffffffffffffff1673ffffffffffffffffffffffffffffffffffffffff1681526020016001820160009054906101000a900473ffffffffffffffffffffffffffffffffffffffff1673ffffffffffffffffffffffffffffffffffffffff1673ffffffffffffffffffffffffffffffffffffffff1681526020016002820160009054906101000a900473ffffffffffffffffffffffffffffffffffffffff1673ffffffffffffffffffffffffffffffffffffffff1673ffffffffffffffffffffffffffffffffffffffff1681526020016003820160009054906101000a900473ffffffffffffffffffffffffffffffffffffffff1673ffffffffffffffffffffffffffffffffffffffff1673ffffffffffffffffffffffffffffffffffffffff1681525050905085565b60015481565b60008160ff1660088460ff1663ffffffff16901b60108661ffff1663ffffffff16901b171790509392505050565b60005481565b60056020528060005260406000206000915054906101000a900460ff1681565b6008602052806000526040600020600091509050806000015490806001015490806002018054612a5b90614675565b80601f0160208091040260200160405190810160405280929190818152602001828054612a8790614675565b8015612ad45780601f10612aa957610100808354040283529160200191612ad4565b820191906000526020600020905b815481529060010190602001808311612ab757829003601f168201915b5050505050908060030160009054906101000a900460ff16908060030160019054906101000a900460ff16905085565b6000603c821015612b185760009050612b77565b6042821015612b2a5760019050612b77565b6049821015612b3c5760029050612b77565b6051821015612b4e5760039050612b77565b605a821015612b605760049050612b77565b6064821015612b725760059050612b77565b600690505b919050565b600080600080612b8b85611def565b9250925092506000620151808260ff16612ba5919061448c565b62278d008460ff16612bb7919061448c565b6301e133808661ffff16612bcb919061448c565b612bd591906143d4565b612bdf91906143d4565b905042811115612bf6576000945050505050612c18565b6301e133808142612c0791906144e6565b612c11919061442a565b9450505050505b919050565b6007602052806000526040600020600091509050806000018054612c4090614675565b80601f0160208091040260200160405190810160405280929190818152602001828054612c6c90614675565b8015612cb95780601f10612c8e57610100808354040283529160200191612cb9565b820191906000526020600020905b815481529060010190602001808311612c9c57829003601f168201915b505050505090806001018054612cce90614675565b80601f0160208091040260200160405190810160405280929190818152602001828054612cfa90614675565b8015612d475780601f10612d1c57610100808354040283529160200191612d47565b820191906000526020600020905b815481529060010190602001808311612d2a57829003601f168201915b5050505050905082565b60036020528060005260406000206000915090505481565b6000600d8210158015612d7d5750600e8211155b15612d8b5760009050612df0565b600f8210158015612d9d575060118211155b15612dab5760019050612df0565b60128210158015612dbd575060148211155b15612dcb5760029050612df0565b60158210158015612ddd5750601e8211155b15612deb5760039050612df0565b600490505b919050565b600960009054906101000a900473ffffffffffffffffffffffffffffffffffffffff1681565b828054612e2790614675565b90600052602060002090601f016020900481019282612e495760008555612e90565b82601f10612e6257805160ff1916838001178555612e90565b82800160010185558215612e90579182015b82811115612e8f578251825591602001919060010190612e74565b5b509050612e9d9190612f5e565b5090565b828054828255906000526020600020908101928215612f1a579160200282015b82811115612f195782518260006101000a81548173ffffffffffffffffffffffffffffffffffffffff021916908373ffffffffffffffffffffffffffffffffffffffff16021790555091602001919060010190612ec1565b5b509050612f279190612f5e565b5090565b6040518060600160405280612f3e612f7b565b8152602001612f4b61303d565b8152602001612f58613057565b81525090565b5b80821115612f77576000816000905550600101612f5f565b5090565b6040518060c001604052806000815260200160608152602001600073ffffffffffffffffffffffffffffffffffffffff16815260200160006006811115612feb577f4e487b7100000000000000000000000000000000000000000000000000000000600052602160045260246000fd5b8152602001600063ffffffff16815260200160006001811115613037577f4e487b7100000000000000000000000000000000000000000000000000000000600052602160045260246000fd5b81525090565b604051806040016040528060608152602001606081525090565b6040518060a00160405280600081526020016000815260200160608152602001600060048111156130b1577f4e487b7100000000000000000000000000000000000000000000000000000000600052602160045260246000fd5b8152602001600060068111156130f0577f4e487b7100000000000000000000000000000000000000000000000000000000600052602160045260246000fd5b81525090565b600061310961310484614377565b614346565b90508281526020810184848401111561312157600080fd5b61312c848285614633565b509392505050565b6000813590506131438161486d565b92915050565b60008135905061315881614884565b92915050565b60008135905061316d81614894565b92915050565b600082601f83011261318457600080fd5b81356131948482602086016130f6565b91505092915050565b6000813590506131ac816148a4565b92915050565b6000813590506131c1816148bb565b92915050565b6000813590506131d6816148d2565b92915050565b6000813590506131eb816148e9565b92915050565b60006020828403121561320357600080fd5b600061321184828501613134565b91505092915050565b60008060008060008060c0878903121561323357600080fd5b600087013567ffffffffffffffff81111561324d57600080fd5b61325989828a01613173565b965050602061326a89828a01613134565b955050604061327b89828a016131c7565b945050606061328c89828a0161315e565b935050608061329d89828a016131b2565b92505060a087013567ffffffffffffffff8111156132ba57600080fd5b6132c689828a01613173565b9150509295509295509295565b600080604083850312156132e657600080fd5b600083013567ffffffffffffffff81111561330057600080fd5b61330c85828601613173565b925050602061331d858286016131b2565b9150509250929050565b60008060006060848603121561333c57600080fd5b600061334a8682870161319d565b935050602061335b868287016131dc565b925050604061336c868287016131dc565b9150509250925092565b60006020828403121561338857600080fd5b6000613396848285016131b2565b91505092915050565b600080604083850312156133b257600080fd5b60006133c0858286016131b2565b92505060206133d185828601613134565b9150509250929050565b60008060008060008060008060006101208a8c0312156133fa57600080fd5b60006134088c828d016131b2565b99505060206134198c828d01613134565b985050604061342a8c828d01613134565b975050606061343b8c828d01613134565b965050608061344c8c828d01613134565b95505060a061345d8c828d016131b2565b94505060c061346e8c828d016131b2565b93505060e061347f8c828d016131b2565b9250506101006134918c828d016131b2565b9150509295985092959850929598565b600080604083850312156134b457600080fd5b60006134c2858286016131b2565b92505060206134d385828601613149565b9150509250929050565b6000806000606084860312156134f257600080fd5b6000613500868287016131b2565b935050602084013567ffffffffffffffff81111561351d57600080fd5b61352986828701613173565b925050604084013567ffffffffffffffff81111561354657600080fd5b61355286828701613173565b9150509250925092565b6000806040838503121561356f57600080fd5b600061357d858286016131b2565b925050602061358e858286016131b2565b9150509250929050565b6000602082840312156135aa57600080fd5b60006135b8848285016131c7565b91505092915050565b6135ca8161451a565b82525050565b6135d98161451a565b82525050565b6135e88161452c565b82525050565b6135f7816145d9565b82525050565b613606816145d9565b82525050565b613615816145eb565b82525050565b613624816145eb565b82525050565b613633816145fd565b82525050565b613642816145fd565b82525050565b6136518161460f565b82525050565b6136608161460f565b82525050565b6000613671826143a7565b61367b81856143b2565b935061368b818560208601614642565b6136948161480c565b840191505092915050565b60006136aa826143a7565b6136b481856143c3565b93506136c4818560208601614642565b6136cd8161480c565b840191505092915050565b60006136e56021836143c3565b91507f546869726420706c6163652077696e6e6572206e6f742072656769737465726560008301527f64000000000000000000000000000000000000000000000000000000000000006020830152604082019050919050565b600061374b6011836143c3565b91507f496e76616c6964204a75646f6b612049440000000000000000000000000000006000830152602082019050919050565b600061378b6018836143c3565b91507f4e6577206c6576656c206d7573742062652068696768657200000000000000006000830152602082019050919050565b60006137cb6022836143c3565b91507f466f7572746820706c6163652077696e6e6572206e6f7420726567697374657260008301527f65640000000000000000000000000000000000000000000000000000000000006020830152604082019050919050565b6000613831601e836143c3565b91507f4e6f207061727469636970616e747320696e20636f6d7065746974696f6e00006000830152602082019050919050565b60006138716015836143c3565b91507f4a75646f6b6120646f6573206e6f7420657869737400000000000000000000006000830152602082019050919050565b60006138b16022836143c3565b91507f5365636f6e6420706c6163652077696e6e6572206e6f7420726567697374657260008301527f65640000000000000000000000000000000000000000000000000000000000006020830152604082019050919050565b60006139176022836143c3565b91507f4f6e6c792061646d696e2063616e20706572666f726d2074686973206163746960008301527f6f6e0000000000000000000000000000000000000000000000000000000000006020830152604082019050919050565b600061397d6019836143c3565b91507f4a75646f6b6120616c72656164792072656769737465726564000000000000006000830152602082019050919050565b60006139bd6000836143c3565b9150600082019050919050565b60006139d76016836143c3565b91507f496e76616c69642077616c6c65742061646472657373000000000000000000006000830152602082019050919050565b6000613a176021836143c3565b91507f466972737420706c6163652077696e6e6572206e6f742072656769737465726560008301527f64000000000000000000000000000000000000000000000000000000000000006020830152604082019050919050565b6000613a7d6016836143c3565b91507f4a75646f6b6120646f6573206e6f742065786973742e000000000000000000006000830152602082019050919050565b6000613abd601d836143c3565b91507f436f6d7065746974696f6e20616c726561647920636f6d706c657465640000006000830152602082019050919050565b6000613afd600e836143c3565b91507f4e6f7420617574686f72697a65640000000000000000000000000000000000006000830152602082019050919050565b608082016000820151613b4660008501826135c1565b506020820151613b5960208501826135c1565b506040820151613b6c60408501826135c1565b506060820151613b7f60608501826135c1565b50505050565b60006060830160008301518482036000860152613ba28282613be3565b91505060208301518482036020860152613bbc8282613c6c565b91505060408301518482036040860152613bd68282613cb0565b9150508091505092915050565b600060c083016000830151613bfb6000860182613d35565b5060208301518482036020860152613c138282613666565b9150506040830151613c2860408601826135c1565b506060830151613c3b606086018261360c565b506080830151613c4e6080860182613d62565b5060a0830151613c6160a086018261362a565b508091505092915050565b60006040830160008301518482036000860152613c898282613666565b91505060208301518482036020860152613ca38282613666565b9150508091505092915050565b600060a083016000830151613cc86000860182613d35565b506020830151613cdb6020860182613d35565b5060408301518482036040860152613cf38282613666565b9150506060830151613d0860608601826135ee565b506080830151613d1b6080860182613648565b508091505092915050565b613d2f81614584565b82525050565b613d3e816145b2565b82525050565b613d4d816145b2565b82525050565b613d5c81614621565b82525050565b613d6b816145bc565b82525050565b613d7a816145bc565b82525050565b613d89816145cc565b82525050565b6000602082019050613da460008301846135d0565b92915050565b6000608082019050613dbf60008301876135d0565b613dcc60208301866135d0565b613dd960408301856135d0565b613de660608301846135d0565b95945050505050565b6000602082019050613e0460008301846135df565b92915050565b6000602082019050613e1f60008301846135fd565b92915050565b6000602082019050613e3a600083018461361b565b92915050565b6000606082019050613e55600083018661361b565b613e62602083018561361b565b613e6f6040830184613d44565b949350505050565b6000602082019050613e8c6000830184613657565b92915050565b60006101a0820190508181036000830152613ead818e61369f565b9050613ebc602083018d6135d0565b613ec9604083018c61361b565b613ed6606083018b613d53565b613ee3608083018a613639565b81810360a0830152613ef4816139b0565b905081810360c0830152613f07816139b0565b9050613f1660e0830189613d44565b613f24610100830188613d44565b818103610120830152613f37818761369f565b9050613f476101408301866135fd565b613f55610160830185613657565b613f63610180830184613d44565b9c9b505050505050505050505050565b60006040820190508181036000830152613f8d818561369f565b90508181036020830152613fa1818461369f565b90509392505050565b60006040820190508181036000830152613fc4818561369f565b9050613fd36020830184613d44565b9392505050565b60006020820190508181036000830152613ff3816136d8565b9050919050565b600060208201905081810360008301526140138161373e565b9050919050565b600060208201905081810360008301526140338161377e565b9050919050565b60006020820190508181036000830152614053816137be565b9050919050565b6000602082019050818103600083015261407381613824565b9050919050565b6000602082019050818103600083015261409381613864565b9050919050565b600060208201905081810360008301526140b3816138a4565b9050919050565b600060208201905081810360008301526140d38161390a565b9050919050565b600060208201905081810360008301526140f381613970565b9050919050565b60006020820190508181036000830152614113816139ca565b9050919050565b6000602082019050818103600083015261413381613a0a565b9050919050565b6000602082019050818103600083015261415381613a70565b9050919050565b6000602082019050818103600083015261417381613ab0565b9050919050565b6000602082019050818103600083015261419381613af0565b9050919050565b600060208201905081810360008301526141b48184613b85565b905092915050565b60006060820190506141d16000830186613d26565b6141de6020830185613d80565b6141eb6040830184613d80565b949350505050565b60006020820190506142086000830184613d44565b92915050565b600060c0820190506142236000830189613d44565b8181036020830152614235818861369f565b905061424460408301876135d0565b614251606083018661361b565b61425e6080830185613d71565b61426b60a0830184613639565b979650505050505050565b60006101008201905061428c6000830188613d44565b818103602083015261429e818761369f565b90506142ad6040830186613d44565b6142ba60608301856135df565b6142c76080830184613b30565b9695505050505050565b600060a0820190506142e66000830188613d44565b6142f36020830187613d44565b8181036040830152614305818661369f565b905061431460608301856135fd565b6143216080830184613657565b9695505050505050565b60006020820190506143406000830184613d71565b92915050565b6000604051905081810181811067ffffffffffffffff8211171561436d5761436c6147dd565b5b8060405250919050565b600067ffffffffffffffff821115614392576143916147dd565b5b601f19601f8301169050602081019050919050565b600081519050919050565b600082825260208201905092915050565b600082825260208201905092915050565b60006143df826145b2565b91506143ea836145b2565b9250827fffffffffffffffffffffffffffffffffffffffffffffffffffffffffffffffff0382111561441f5761441e614721565b5b828201905092915050565b6000614435826145b2565b9150614440836145b2565b9250826144505761444f614750565b5b828204905092915050565b6000614466826145bc565b9150614471836145bc565b92508261448157614480614750565b5b828204905092915050565b6000614497826145b2565b91506144a2836145b2565b9250817fffffffffffffffffffffffffffffffffffffffffffffffffffffffffffffffff04831182151516156144db576144da614721565b5b828202905092915050565b60006144f1826145b2565b91506144fc836145b2565b92508282101561450f5761450e614721565b5b828203905092915050565b600061452582614592565b9050919050565b60008115159050919050565b60008190506145468261481d565b919050565b600081905061455982614831565b919050565b600081905061456c82614845565b919050565b600081905061457f82614859565b919050565b600061ffff82169050919050565b600073ffffffffffffffffffffffffffffffffffffffff82169050919050565b6000819050919050565b600063ffffffff82169050919050565b600060ff82169050919050565b60006145e482614538565b9050919050565b60006145f68261454b565b9050919050565b60006146088261455e565b9050919050565b600061461a82614571565b9050919050565b600061462c826145bc565b9050919050565b82818337600083830152505050565b60005b83811015614660578082015181840152602081019050614645565b8381111561466f576000848401525b50505050565b6000600282049050600182168061468d57607f821691505b602082108114156146a1576146a06147ae565b5b50919050565b60006146b2826145b2565b91507fffffffffffffffffffffffffffffffffffffffffffffffffffffffffffffffff8214156146e5576146e4614721565b5b600182019050919050565b60006146fb826145bc565b9150614706836145bc565b92508261471657614715614750565b5b828206905092915050565b7f4e487b7100000000000000000000000000000000000000000000000000000000600052601160045260246000fd5b7f4e487b7100000000000000000000000000000000000000000000000000000000600052601260045260246000fd5b7f4e487b7100000000000000000000000000000000000000000000000000000000600052602160045260246000fd5b7f4e487b7100000000000000000000000000000000000000000000000000000000600052602260045260246000fd5b7f4e487b7100000000000000000000000000000000000000000000000000000000600052604160045260246000fd5b6000601f19601f8301169050919050565b6005811061482e5761482d61477f565b5b50565b600781106148425761484161477f565b5b50565b600281106148565761485561477f565b5b50565b6007811061486a5761486961477f565b5b50565b6148768161451a565b811461488157600080fd5b50565b6007811061489157600080fd5b50565b600281106148a157600080fd5b50565b6148ad81614584565b81146148b857600080fd5b50565b6148c4816145b2565b81146148cf57600080fd5b50565b6148db816145bc565b81146148e657600080fd5b50565b6148f2816145cc565b81146148fd57600080fd5b5056fea2646970667358221220cad638f06f31f3901f1a388a5afb16a575bb4d6daf635707aa8eb86fe7d886f464736f6c63430008000033",
  "immutableReferences": {},
  "source": "// SPDX-License-Identifier: MIT\r\npragma solidity ^0.8.0;\r\n\r\ncontract JudoSystem {\r\n    enum BeltLevel { White, Yellow, Orange, Green, Blue, Brown, Black }\r\n    enum Gender { Male, Female }\r\n    enum AgeCategory { Juveniles, Cadets, Juniors, Seniors, Veterans }\r\n    enum WeightCategory { Under60, Under66, Under73, Under81, Under90, Under100, Over100 }\r\n\r\n    struct JudokaBasic {\r\n        uint256 id;\r\n        string name;\r\n        address walletAddress;\r\n        BeltLevel beltLevel;\r\n        uint32 dateOfBirth;\r\n        Gender gender;\r\n    }\r\n\r\n    struct JudokaContact {\r\n        string email;\r\n        string phoneNumber;\r\n    }\r\n\r\n    struct JudokaPhysical {\r\n        uint256 age;\r\n        uint256 weight;\r\n        string club;\r\n        AgeCategory ageCategory;\r\n        WeightCategory weightCategory;\r\n    }\r\n\r\n    struct FullJudokaInfo {\r\n        JudokaBasic basic;\r\n        JudokaContact contact;\r\n        JudokaPhysical physical;\r\n    }\r\n\r\n    struct CompetitionResult {\r\n        address firstPlace;\r\n        address secondPlace;\r\n        address thirdPlace;\r\n        address fourthPlace;\r\n    }\r\n\r\n    struct Competition {\r\n        uint256 id;\r\n        string name;\r\n        uint256 date;\r\n        address[] participants;\r\n        bool completed;\r\n        CompetitionResult results;\r\n    }\r\n\r\n    struct BeltLevelChange {\r\n        BeltLevel oldBeltLevel;\r\n        BeltLevel newBeltLevel;\r\n        uint256 timestamp;\r\n    }\r\n\r\n    uint256 public judokaCount;\r\n    uint256 public competitionCount;\r\n    mapping(address => uint256) public judokaIds;\r\n    mapping(uint256 => uint256) public judokaPoints;\r\n    mapping(uint256 => Competition) public competitions;\r\n    mapping(address => bool) public blackBeltAdmins;\r\n    mapping(uint256 => JudokaBasic) public judokasBasic;\r\n    mapping(uint256 => JudokaContact) public judokasContact;\r\n    mapping(uint256 => JudokaPhysical) public judokasPhysical;\r\n\r\n    address public admin;\r\n\r\n    event JudokaRegistered(uint256 indexed id, string name, address walletAddress, BeltLevel beltLevel, uint256 dateOfBirth, Gender gender, string email, string phoneNumber, uint256 age, uint256 weight, string club, AgeCategory ageCategory, WeightCategory weightCategory, uint256 timestamp);\r\n    event BeltLevelUpdated(uint256 indexed id, BeltLevel oldBeltLevel, BeltLevel newBeltLevel, uint256 timestamp);\r\n    event CompetitionCreated(uint256 indexed id, string name, uint256 date);\r\n    event ParticipantAdded(uint256 indexed competitionId, address participant);\r\n    event CompetitionResultRecorded(uint256 indexed competitionId, address firstPlace, address secondPlace, address thirdPlace, address fourthPlace);\r\n    event JudokaContactUpdated(uint256 indexed id, string email, string phoneNumber);\r\n    \r\n    constructor() {\r\n        admin = msg.sender;\r\n        blackBeltAdmins[msg.sender] = true;\r\n    }\r\n\r\n    modifier onlyAdmin() {\r\n        require(isAdmin(msg.sender), \"Only admin can perform this action\");\r\n        _;\r\n    }\r\n\r\n    function isAdmin(address _address) public view returns (bool) {\r\n    return _address == admin || blackBeltAdmins[_address];\r\n    }\r\n\r\n    // Utility functions for date packing and unpacking\r\n    function packDate(uint16 year, uint8 month, uint8 day) public pure returns (uint32) {\r\n        return (uint32(year) << 16) | (uint32(month) << 8) | uint32(day);\r\n    }\r\n\r\n    function unpackDate(uint32 packedDate) public pure returns (uint16 year, uint8 month, uint8 day) {\r\n        year = uint16(packedDate / 10000);\r\n        month = uint8((packedDate / 100) % 100);\r\n        day = uint8(packedDate % 100);\r\n    }\r\n\r\n\r\n    function getAgeCategory(uint256 _age) public pure returns (AgeCategory) {\r\n        if (_age >= 13 && _age <= 14) {\r\n            return AgeCategory.Juveniles;\r\n        } else if (_age >= 15 && _age <= 17) {\r\n            return AgeCategory.Cadets;\r\n        } else if (_age >= 18 && _age <= 20) {\r\n            return AgeCategory.Juniors;\r\n        } else if (_age >= 21 && _age <= 30) {\r\n            return AgeCategory.Seniors;\r\n        } else {\r\n            return AgeCategory.Veterans;\r\n        }\r\n    }\r\n\r\n    function getWeightCategory(uint256 _weight) public pure returns (WeightCategory) {\r\n        if (_weight < 60) {\r\n            return WeightCategory.Under60;\r\n        } else if (_weight < 66) {\r\n            return WeightCategory.Under66;\r\n        } else if (_weight < 73) {\r\n            return WeightCategory.Under73;\r\n        } else if (_weight < 81) {\r\n            return WeightCategory.Under81;\r\n        } else if (_weight < 90) {\r\n            return WeightCategory.Under90;\r\n        } else if (_weight < 100) {\r\n            return WeightCategory.Under100;\r\n        } else {\r\n            return WeightCategory.Over100;\r\n        }\r\n    }\r\n\r\n    function calculateAge(uint32 _dateOfBirth) public view returns (uint256) {\r\n        (uint16 year, uint8 month, uint8 day) = unpackDate(_dateOfBirth);\r\n        uint256 dobInSeconds = uint256(year) * 365 days + uint256(month) * 30 days + uint256(day) * 1 days;\r\n        if (dobInSeconds > block.timestamp) {\r\n            return 0;\r\n        }\r\n        return (block.timestamp - dobInSeconds) / 365 days;\r\n    }\r\n\r\nfunction registerJudoka(\r\n    string memory _name, \r\n    address _walletAddress, \r\n    uint32 _dateOfBirth, // Ensure this is uint32 as per your date packing\r\n    Gender _gender,\r\n    uint256 _weight,\r\n    string memory _club\r\n) public {\r\n    require(_walletAddress != address(0), \"Invalid wallet address\");\r\n    require(judokaIds[_walletAddress] == 0, \"Judoka already registered\");\r\n\r\n    uint256 age = calculateAge(_dateOfBirth);\r\n    AgeCategory ageCategory = getAgeCategory(age);\r\n    WeightCategory weightCategory = getWeightCategory(_weight);\r\n\r\n    judokaCount++;\r\n\r\n    judokasBasic[judokaCount] = JudokaBasic({\r\n        id: judokaCount,\r\n        name: _name,\r\n        walletAddress: _walletAddress,\r\n        beltLevel: BeltLevel.White,\r\n        dateOfBirth: _dateOfBirth, // Assuming this is correctly formatted as uint32\r\n        gender: _gender\r\n    });\r\n\r\n    judokasContact[judokaCount] = JudokaContact({\r\n        email: '',\r\n        phoneNumber: ''\r\n    });\r\n\r\n    judokasPhysical[judokaCount] = JudokaPhysical({\r\n        age: age,\r\n        weight: _weight,\r\n        club: _club,\r\n        ageCategory: ageCategory,\r\n        weightCategory: weightCategory\r\n    });\r\n\r\n    judokaIds[_walletAddress] = judokaCount;\r\n\r\n    emit JudokaRegistered(\r\n        judokaCount, \r\n        _name, \r\n        _walletAddress, \r\n        BeltLevel.White, \r\n        _dateOfBirth, \r\n        _gender, \r\n        '',  // email placeholder\r\n        '',  // phone placeholder\r\n        age, \r\n        _weight, \r\n        _club, \r\n        ageCategory, \r\n        weightCategory,\r\n        block.timestamp  // Missing timestamp added\r\n    );\r\n}\r\n\r\n\r\nfunction getJudokaDOB(uint256 _id) public view returns (uint16 year, uint8 month, uint8 day) {\r\n        (year, month, day) = unpackDate(judokasBasic[_id].dateOfBirth);\r\n    }\r\n\r\nfunction updateJudokaContactDetails(\r\n    uint256 _id,\r\n    string memory _email,\r\n    string memory _phoneNumber\r\n) public {\r\n    require(_id > 0 && _id <= judokaCount, \"Judoka does not exist\");\r\n    require(msg.sender == judokasBasic[_id].walletAddress || isAdmin(msg.sender), \"Not authorized\");\r\n\r\n    judokasContact[_id] = JudokaContact({\r\n        email: _email,\r\n        phoneNumber: _phoneNumber\r\n    });\r\n\r\n    emit JudokaContactUpdated(_id, _email, _phoneNumber);\r\n}\r\n\r\n\r\n\r\n\r\n    function getJudokaInfo(uint256 _id) public view returns (FullJudokaInfo memory) {\r\n        require(_id > 0 && _id <= judokaCount, \"Judoka does not exist.\");\r\n        return FullJudokaInfo({\r\n            basic: judokasBasic[_id],\r\n            contact: judokasContact[_id],\r\n            physical: judokasPhysical[_id]\r\n        });\r\n    }\r\n\r\n    function getBeltLevel(uint256 _id) public view returns (BeltLevel) {\r\n        require(_id > 0 && _id <= judokaCount, \"Judoka does not exist.\");\r\n        return judokasBasic[_id].beltLevel;\r\n    }\r\n\r\n    function promoteJudoka(uint256 _id, BeltLevel _newBeltLevel) public onlyAdmin {\r\n        require(_id > 0 && _id <= judokaCount, \"Judoka does not exist.\");\r\n        require(_newBeltLevel > judokasBasic[_id].beltLevel, \"New level must be higher\");\r\n\r\n        BeltLevel oldBeltLevel = judokasBasic[_id].beltLevel;\r\n        judokasBasic[_id].beltLevel = _newBeltLevel;\r\n\r\n        if (_newBeltLevel == BeltLevel.Black) {\r\n            blackBeltAdmins[judokasBasic[_id].walletAddress] = true;\r\n        }\r\n\r\n        emit BeltLevelUpdated(_id, oldBeltLevel, _newBeltLevel, block.timestamp);\r\n    }\r\n\r\n    function isBlackBelt(address _address) public view returns (bool) {\r\n        return judokasBasic[judokaIds[_address]].beltLevel == BeltLevel.Black;\r\n    }\r\n\r\n    function isAuthorized(uint256 _id, address _sender) public view returns (bool) {\r\n        return _sender == judokasBasic[_id].walletAddress || _sender == admin;\r\n    }\r\n\r\n    function updateJudokaPoints(uint256 _id, uint256 _points) public onlyAdmin {\r\n        require(_id > 0 && _id <= judokaCount, \"Invalid Judoka ID\");\r\n        judokaPoints[_id] += _points;\r\n    }\r\n\r\n    function createCompetition(\r\n        string memory _name, \r\n        uint256 _date\r\n    ) public onlyAdmin {\r\n        CompetitionResult memory defaultResults = CompetitionResult({\r\n            firstPlace: address(0),\r\n            secondPlace: address(0),\r\n            thirdPlace: address(0),\r\n            fourthPlace: address(0)\r\n        });\r\n\r\n        competitionCount++;\r\n        competitions[competitionCount] = Competition({\r\n            id: competitionCount,\r\n            name: _name,\r\n            date: _date,\r\n            participants: new address[](0)  ,\r\n            completed: false,\r\n            results: defaultResults\r\n        });\r\n\r\n        emit CompetitionCreated(competitionCount, _name, _date);\r\n    }\r\n\r\n    function addParticipant(uint256 _competitionId, address _participant) public onlyAdmin {\r\n        require(!competitions[_competitionId].completed, \"Competition already completed\");\r\n        competitions[_competitionId].participants.push(_participant);\r\n        emit ParticipantAdded(_competitionId, _participant);\r\n    }\r\n\r\n    function recordCompetitionResult(\r\n        uint256 _competitionId, \r\n        address _firstPlace, \r\n        address _secondPlace, \r\n        address _thirdPlace, \r\n        address _fourthPlace,\r\n        uint256 _firstPlacePoints,\r\n        uint256 _secondPlacePoints,\r\n        uint256 _thirdPlacePoints,\r\n        uint256 _fourthPlacePoints\r\n    ) public onlyAdmin {\r\n        require(!competitions[_competitionId].completed, \"Competition already completed\");\r\n        require(competitions[_competitionId].participants.length > 0, \"No participants in competition\");\r\n\r\n        require(judokaIds[_firstPlace] != 0, \"First place winner not registered\");\r\n        require(judokaIds[_secondPlace] != 0, \"Second place winner not registered\");\r\n        require(judokaIds[_thirdPlace] != 0, \"Third place winner not registered\");\r\n        require(judokaIds[_fourthPlace] != 0, \"Fourth place winner not registered\");\r\n\r\n        competitions[_competitionId].completed = true;\r\n        competitions[_competitionId].results = CompetitionResult({\r\n            firstPlace: _firstPlace,\r\n            secondPlace: _secondPlace,\r\n            thirdPlace: _thirdPlace,\r\n            fourthPlace: _fourthPlace\r\n        });\r\n\r\n        if (_firstPlacePoints > 0) {\r\n            updateJudokaPoints(judokaIds[_firstPlace], _firstPlacePoints);\r\n        }\r\n        if (_secondPlacePoints > 0) {\r\n            updateJudokaPoints(judokaIds[_secondPlace], _secondPlacePoints);\r\n        }\r\n        if (_thirdPlacePoints > 0) {\r\n            updateJudokaPoints(judokaIds[_thirdPlace], _thirdPlacePoints);\r\n        }\r\n        if (_fourthPlacePoints > 0) {\r\n            updateJudokaPoints(judokaIds[_fourthPlace], _fourthPlacePoints);\r\n        }\r\n\r\n        emit CompetitionResultRecorded(_competitionId, _firstPlace, _secondPlace, _thirdPlace, _fourthPlace);\r\n    }\r\n}\r\n",
  "sourcePath": "C:\\Users\\marti\\Documents\\projects\\judo-dapp\\contracts\\JudoSystem.sol",
  "compiler": {
    "name": "solc",
    "version": "0.8.0+commit.c7dfd78e.Emscripten.clang"
  },
  "schemaVersion": "3.4.16",
  "updatedAt": "2024-04-15T13:59:33.530Z",
  "networkType": "ethereum",
  "devdoc": {
    "kind": "dev",
    "methods": {},
    "version": 1
  },
  "userdoc": {
    "kind": "user",
    "methods": {},
    "version": 1
  }
}