{
  "contractName": "JudoBeltStorage",
  "abi": [
    {
      "inputs": [],
      "stateMutability": "nonpayable",
      "type": "constructor"
    },
    {
      "anonymous": false,
      "inputs": [
        {
          "indexed": true,
          "internalType": "uint256",
          "name": "id",
          "type": "uint256"
        },
        {
          "indexed": false,
          "internalType": "enum JudoBeltStorage.BeltLevel",
          "name": "newBeltLevel",
          "type": "uint8"
        }
      ],
      "name": "BeltLevelUpdated",
      "type": "event"
    },
    {
      "anonymous": false,
      "inputs": [
        {
          "indexed": true,
          "internalType": "uint256",
          "name": "id",
          "type": "uint256"
        },
        {
          "indexed": false,
          "internalType": "string",
          "name": "name",
          "type": "string"
        },
        {
          "indexed": false,
          "internalType": "address",
          "name": "walletAddress",
          "type": "address"
        },
        {
          "indexed": false,
          "internalType": "enum JudoBeltStorage.BeltLevel",
          "name": "beltLevel",
          "type": "uint8"
        }
      ],
      "name": "JudokaRegistered",
      "type": "event"
    },
    {
      "inputs": [],
      "name": "admin",
      "outputs": [
        {
          "internalType": "address",
          "name": "",
          "type": "address"
        }
      ],
      "stateMutability": "view",
      "type": "function",
      "constant": true
    },
    {
      "inputs": [],
      "name": "judokaCount",
      "outputs": [
        {
          "internalType": "uint256",
          "name": "",
          "type": "uint256"
        }
      ],
      "stateMutability": "view",
      "type": "function",
      "constant": true
    },
    {
      "inputs": [
        {
          "internalType": "address",
          "name": "",
          "type": "address"
        }
      ],
      "name": "judokaIds",
      "outputs": [
        {
          "internalType": "uint256",
          "name": "",
          "type": "uint256"
        }
      ],
      "stateMutability": "view",
      "type": "function",
      "constant": true
    },
    {
      "inputs": [
        {
          "internalType": "uint256",
          "name": "",
          "type": "uint256"
        }
      ],
      "name": "judokas",
      "outputs": [
        {
          "internalType": "uint256",
          "name": "id",
          "type": "uint256"
        },
        {
          "internalType": "string",
          "name": "name",
          "type": "string"
        },
        {
          "internalType": "address",
          "name": "walletAddress",
          "type": "address"
        },
        {
          "internalType": "enum JudoBeltStorage.BeltLevel",
          "name": "beltLevel",
          "type": "uint8"
        }
      ],
      "stateMutability": "view",
      "type": "function",
      "constant": true
    },
    {
      "inputs": [],
      "name": "registrationContract",
      "outputs": [
        {
          "internalType": "address",
          "name": "",
          "type": "address"
        }
      ],
      "stateMutability": "view",
      "type": "function",
      "constant": true
    },
    {
      "inputs": [
        {
          "internalType": "address",
          "name": "_registrationContract",
          "type": "address"
        }
      ],
      "name": "setRegistrationContract",
      "outputs": [],
      "stateMutability": "nonpayable",
      "type": "function"
    },
    {
      "inputs": [
        {
          "internalType": "string",
          "name": "_name",
          "type": "string"
        },
        {
          "internalType": "address",
          "name": "_walletAddress",
          "type": "address"
        }
      ],
      "name": "addJudoka",
      "outputs": [],
      "stateMutability": "nonpayable",
      "type": "function"
    },
    {
      "inputs": [
        {
          "internalType": "uint256",
          "name": "_id",
          "type": "uint256"
        }
      ],
      "name": "getJudoka",
      "outputs": [
        {
          "components": [
            {
              "internalType": "uint256",
              "name": "id",
              "type": "uint256"
            },
            {
              "internalType": "string",
              "name": "name",
              "type": "string"
            },
            {
              "internalType": "address",
              "name": "walletAddress",
              "type": "address"
            },
            {
              "internalType": "enum JudoBeltStorage.BeltLevel",
              "name": "beltLevel",
              "type": "uint8"
            }
          ],
          "internalType": "struct JudoBeltStorage.Judoka",
          "name": "",
          "type": "tuple"
        }
      ],
      "stateMutability": "view",
      "type": "function",
      "constant": true
    },
    {
      "inputs": [
        {
          "internalType": "uint256",
          "name": "_id",
          "type": "uint256"
        },
        {
          "internalType": "enum JudoBeltStorage.BeltLevel",
          "name": "_beltLevel",
          "type": "uint8"
        }
      ],
      "name": "setBeltLevel",
      "outputs": [],
      "stateMutability": "nonpayable",
      "type": "function"
    }
  ],
  "bytecode": "0x608060405234801561001057600080fd5b5033600360006101000a81548173ffffffffffffffffffffffffffffffffffffffff021916908373ffffffffffffffffffffffffffffffffffffffff160217905550611412806100616000396000f3fe608060405234801561001057600080fd5b50600436106100935760003560e01c8063bcc5702111610066578063bcc5702114610132578063cab96b701461014e578063ce3824b21461016c578063d3db03cc1461019f578063f851a440146101bb57610093565b80631e522c3e146100985780633ab9f6d8146100b657806393184239146100e6578063ad0c06ae14610116575b600080fd5b6100a06101d9565b6040516100ad9190610f94565b60405180910390f35b6100d060048036038101906100cb9190610c5d565b6101ff565b6040516100dd91906110aa565b60405180910390f35b61010060048036038101906100fb9190610cda565b610217565b60405161010d9190611088565b60405180910390f35b610130600480360381019061012b9190610d03565b61040e565b005b61014c60048036038101906101479190610c86565b6105cb565b005b6101566108b8565b60405161016391906110aa565b60405180910390f35b61018660048036038101906101819190610cda565b6108be565b60405161019694939291906110c5565b60405180910390f35b6101b960048036038101906101b49190610c5d565b6109a3565b005b6101c3610a77565b6040516101d09190610f94565b60405180910390f35b600460009054906101000a900473ffffffffffffffffffffffffffffffffffffffff1681565b60026020528060005260406000206000915090505481565b61021f610a9d565b60008211801561023157506000548211155b610270576040517f08c379a000000000000000000000000000000000000000000000000000000000815260040161026790611068565b60405180910390fd5b60016000838152602001908152602001600020604051806080016040529081600082015481526020016001820180546102a890611242565b80601f01602080910402602001604051908101604052809291908181526020018280546102d490611242565b80156103215780601f106102f657610100808354040283529160200191610321565b820191906000526020600020905b81548152906001019060200180831161030457829003601f168201915b505050505081526020016002820160009054906101000a900473ffffffffffffffffffffffffffffffffffffffff1673ffffffffffffffffffffffffffffffffffffffff1673ffffffffffffffffffffffffffffffffffffffff1681526020016002820160149054906101000a900460ff1660068111156103cb577f4e487b7100000000000000000000000000000000000000000000000000000000600052602160045260246000fd5b6006811115610403577f4e487b7100000000000000000000000000000000000000000000000000000000600052602160045260246000fd5b815250509050919050565b736bd300ecfc394dd230f81b5d4e0d003416dcbadf73ffffffffffffffffffffffffffffffffffffffff163373ffffffffffffffffffffffffffffffffffffffff16148061049b57507301555eee2732c708bb8d628e44366ff0bb19cf3373ffffffffffffffffffffffffffffffffffffffff163373ffffffffffffffffffffffffffffffffffffffff16145b6104da576040517f08c379a00000000000000000000000000000000000000000000000000000000081526004016104d190611008565b60405180910390fd5b6000821180156104ec57506000548211155b61052b576040517f08c379a000000000000000000000000000000000000000000000000000000000815260040161052290611068565b60405180910390fd5b806001600084815260200190815260200160002060020160146101000a81548160ff0219169083600681111561058a577f4e487b7100000000000000000000000000000000000000000000000000000000600052602160045260246000fd5b0217905550817f27ea931272f731cd09006c3599956a7b38be986b07aff1ed24fbd60e1ab4ff99826040516105bf9190610faf565b60405180910390a25050565b600360009054906101000a900473ffffffffffffffffffffffffffffffffffffffff1673ffffffffffffffffffffffffffffffffffffffff163373ffffffffffffffffffffffffffffffffffffffff161461065b576040517f08c379a000000000000000000000000000000000000000000000000000000000815260040161065290611028565b60405180910390fd5b600073ffffffffffffffffffffffffffffffffffffffff168173ffffffffffffffffffffffffffffffffffffffff1614156106cb576040517f08c379a00000000000000000000000000000000000000000000000000000000081526004016106c290611048565b60405180910390fd5b6000808154809291906106dd90611274565b9190505550604051806080016040528060005481526020018381526020018273ffffffffffffffffffffffffffffffffffffffff16815260200160006006811115610751577f4e487b7100000000000000000000000000000000000000000000000000000000600052602160045260246000fd5b815250600160008054815260200190815260200160002060008201518160000155602082015181600101908051906020019061078e929190610b13565b5060408201518160020160006101000a81548173ffffffffffffffffffffffffffffffffffffffff021916908373ffffffffffffffffffffffffffffffffffffffff16021790555060608201518160020160146101000a81548160ff02191690836006811115610827577f4e487b7100000000000000000000000000000000000000000000000000000000600052602160045260246000fd5b0217905550905050600054600260008373ffffffffffffffffffffffffffffffffffffffff1673ffffffffffffffffffffffffffffffffffffffff168152602001908152602001600020819055506000547f027ac653ce0c6c0daf3073682ad41b63e111ca61aeba1d624e52ac8bf2764767838360006040516108ac93929190610fca565b60405180910390a25050565b60005481565b60016020528060005260406000206000915090508060000154908060010180546108e790611242565b80601f016020809104026020016040519081016040528092919081815260200182805461091390611242565b80156109605780601f1061093557610100808354040283529160200191610960565b820191906000526020600020905b81548152906001019060200180831161094357829003601f168201915b5050505050908060020160009054906101000a900473ffffffffffffffffffffffffffffffffffffffff16908060020160149054906101000a900460ff16905084565b600360009054906101000a900473ffffffffffffffffffffffffffffffffffffffff1673ffffffffffffffffffffffffffffffffffffffff163373ffffffffffffffffffffffffffffffffffffffff1614610a33576040517f08c379a0000000000000000000000000000000000000000000000000000000008152600401610a2a90611028565b60405180910390fd5b80600460006101000a81548173ffffffffffffffffffffffffffffffffffffffff021916908373ffffffffffffffffffffffffffffffffffffffff16021790555050565b600360009054906101000a900473ffffffffffffffffffffffffffffffffffffffff1681565b60405180608001604052806000815260200160608152602001600073ffffffffffffffffffffffffffffffffffffffff16815260200160006006811115610b0d577f4e487b7100000000000000000000000000000000000000000000000000000000600052602160045260246000fd5b81525090565b828054610b1f90611242565b90600052602060002090601f016020900481019282610b415760008555610b88565b82601f10610b5a57805160ff1916838001178555610b88565b82800160010185558215610b88579182015b82811115610b87578251825591602001919060010190610b6c565b5b509050610b959190610b99565b5090565b5b80821115610bb2576000816000905550600101610b9a565b5090565b6000610bc9610bc484611142565b611111565b905082815260208101848484011115610be157600080fd5b610bec848285611200565b509392505050565b600081359050610c038161139e565b92915050565b600081359050610c18816113b5565b92915050565b600082601f830112610c2f57600080fd5b8135610c3f848260208601610bb6565b91505092915050565b600081359050610c57816113c5565b92915050565b600060208284031215610c6f57600080fd5b6000610c7d84828501610bf4565b91505092915050565b60008060408385031215610c9957600080fd5b600083013567ffffffffffffffff811115610cb357600080fd5b610cbf85828601610c1e565b9250506020610cd085828601610bf4565b9150509250929050565b600060208284031215610cec57600080fd5b6000610cfa84828501610c48565b91505092915050565b60008060408385031215610d1657600080fd5b6000610d2485828601610c48565b9250506020610d3585828601610c09565b9150509250929050565b610d488161119f565b82525050565b610d578161119f565b82525050565b610d66816111ee565b82525050565b610d75816111ee565b82525050565b6000610d8682611172565b610d90818561117d565b9350610da081856020860161120f565b610da981611379565b840191505092915050565b6000610dbf82611172565b610dc9818561118e565b9350610dd981856020860161120f565b610de281611379565b840191505092915050565b6000610dfa60108361118e565b91507f4e6f74206120626c61636b2062656c74000000000000000000000000000000006000830152602082019050919050565b6000610e3a60228361118e565b91507f4f6e6c792061646d696e2063616e20706572666f726d2074686973206163746960008301527f6f6e0000000000000000000000000000000000000000000000000000000000006020830152604082019050919050565b6000610ea060168361118e565b91507f496e76616c69642077616c6c65742061646472657373000000000000000000006000830152602082019050919050565b6000610ee060168361118e565b91507f4a75646f6b6120646f6573206e6f742065786973742e000000000000000000006000830152602082019050919050565b6000608083016000830151610f2b6000860182610f76565b5060208301518482036020860152610f438282610d7b565b9150506040830151610f586040860182610d3f565b506060830151610f6b6060860182610d5d565b508091505092915050565b610f7f816111e4565b82525050565b610f8e816111e4565b82525050565b6000602082019050610fa96000830184610d4e565b92915050565b6000602082019050610fc46000830184610d6c565b92915050565b60006060820190508181036000830152610fe48186610db4565b9050610ff36020830185610d4e565b6110006040830184610d6c565b949350505050565b6000602082019050818103600083015261102181610ded565b9050919050565b6000602082019050818103600083015261104181610e2d565b9050919050565b6000602082019050818103600083015261106181610e93565b9050919050565b6000602082019050818103600083015261108181610ed3565b9050919050565b600060208201905081810360008301526110a28184610f13565b905092915050565b60006020820190506110bf6000830184610f85565b92915050565b60006080820190506110da6000830187610f85565b81810360208301526110ec8186610db4565b90506110fb6040830185610d4e565b6111086060830184610d6c565b95945050505050565b6000604051905081810181811067ffffffffffffffff821117156111385761113761134a565b5b8060405250919050565b600067ffffffffffffffff82111561115d5761115c61134a565b5b601f19601f8301169050602081019050919050565b600081519050919050565b600082825260208201905092915050565b600082825260208201905092915050565b60006111aa826111c4565b9050919050565b60008190506111bf8261138a565b919050565b600073ffffffffffffffffffffffffffffffffffffffff82169050919050565b6000819050919050565b60006111f9826111b1565b9050919050565b82818337600083830152505050565b60005b8381101561122d578082015181840152602081019050611212565b8381111561123c576000848401525b50505050565b6000600282049050600182168061125a57607f821691505b6020821081141561126e5761126d61131b565b5b50919050565b600061127f826111e4565b91507fffffffffffffffffffffffffffffffffffffffffffffffffffffffffffffffff8214156112b2576112b16112bd565b5b600182019050919050565b7f4e487b7100000000000000000000000000000000000000000000000000000000600052601160045260246000fd5b7f4e487b7100000000000000000000000000000000000000000000000000000000600052602160045260246000fd5b7f4e487b7100000000000000000000000000000000000000000000000000000000600052602260045260246000fd5b7f4e487b7100000000000000000000000000000000000000000000000000000000600052604160045260246000fd5b6000601f19601f8301169050919050565b6007811061139b5761139a6112ec565b5b50565b6113a78161119f565b81146113b257600080fd5b50565b600781106113c257600080fd5b50565b6113ce816111e4565b81146113d957600080fd5b5056fea2646970667358221220f4f14b6bd3937ad4c6043f6dcdd5db928e2e3e79d8e6e9aa7b0259cba8edb91164736f6c63430008000033",
  "immutableReferences": {},
  "source": "// SPDX-License-Identifier: MIT\r\npragma solidity ^0.8.0;\r\n\r\ncontract JudoBeltStorage {\r\n    enum BeltLevel { White, Yellow, Orange, Green, Blue, Brown, Black }\r\n\r\n    struct Judoka {\r\n        uint256 id;\r\n        string name;\r\n        address walletAddress;\r\n        BeltLevel beltLevel;\r\n    }\r\n\r\n    uint256 public judokaCount;\r\n    mapping(uint256 => Judoka) public judokas;\r\n    mapping(address => uint256) public judokaIds;\r\n    address public admin;\r\n    address public registrationContract;\r\n\r\n    address constant blackBelt1 = 0x6bD300EcFc394Dd230f81B5D4e0D003416dcBAdF; // Replace with actual address\r\n    address constant blackBelt2 = 0x01555EEE2732C708BB8D628E44366Ff0Bb19CF33; // Replace with actual address\r\n\r\nevent JudokaRegistered(uint256 indexed id, string name, address walletAddress, BeltLevel beltLevel);\r\nevent BeltLevelUpdated(uint256 indexed id, BeltLevel newBeltLevel);\r\n\r\nconstructor() {\r\n    admin = msg.sender;\r\n}\r\n\r\nmodifier onlyAdmin() {\r\n    require(msg.sender == admin, \"Only admin can perform this action\");\r\n    _;\r\n}\r\n\r\nmodifier onlyBlackBelts() {\r\n    require(msg.sender == blackBelt1 || msg.sender == blackBelt2, \"Not a black belt\");\r\n    _;\r\n}\r\n\r\nfunction setRegistrationContract(address _registrationContract) public onlyAdmin {\r\n    registrationContract = _registrationContract;\r\n}\r\n\r\nfunction addJudoka(string memory _name, address _walletAddress) public onlyAdmin {\r\n    require(_walletAddress != address(0), \"Invalid wallet address\");\r\n    judokaCount++;\r\n    judokas[judokaCount] = Judoka(judokaCount, _name, _walletAddress, BeltLevel.White);\r\n    judokaIds[_walletAddress] = judokaCount;\r\n    emit JudokaRegistered(judokaCount, _name, _walletAddress, BeltLevel.White);\r\n}\r\n\r\nfunction getJudoka(uint256 _id) public view returns (Judoka memory) {\r\n    require(_id > 0 && _id <= judokaCount, \"Judoka does not exist.\");\r\n    return judokas[_id];\r\n}\r\n\r\nfunction setBeltLevel(uint256 _id, BeltLevel _beltLevel) public onlyBlackBelts {\r\n    require(_id > 0 && _id <= judokaCount, \"Judoka does not exist.\");\r\n    judokas[_id].beltLevel = _beltLevel;\r\n    emit BeltLevelUpdated(_id, _beltLevel);\r\n}\r\n}\r\n",
  "sourcePath": "C:\\Users\\marti\\Documents\\projects\\judo-dapp\\contracts\\JudoBeltStorage.sol",
  "compiler": {
    "name": "solc",
    "version": "0.8.0+commit.c7dfd78e.Emscripten.clang"
  },
  "schemaVersion": "3.4.16",
  "updatedAt": "2024-01-16T11:10:19.072Z",
  "networkType": "ethereum",
  "devdoc": {
    "kind": "dev",
    "methods": {},
    "version": 1
  },
  "userdoc": {
    "kind": "user",
    "methods": {},
    "version": 1
  }
}