{
  "contractName": "JudoBeltSystem",
  "abi": [
    {
      "inputs": [],
      "stateMutability": "nonpayable",
      "type": "constructor"
    },
    {
      "anonymous": false,
      "inputs": [
        {
          "indexed": true,
          "internalType": "uint256",
          "name": "id",
          "type": "uint256"
        },
        {
          "indexed": false,
          "internalType": "enum JudoBeltSystem.BeltLevel",
          "name": "oldBeltLevel",
          "type": "uint8"
        },
        {
          "indexed": false,
          "internalType": "enum JudoBeltSystem.BeltLevel",
          "name": "newBeltLevel",
          "type": "uint8"
        },
        {
          "indexed": false,
          "internalType": "uint256",
          "name": "timestamp",
          "type": "uint256"
        }
      ],
      "name": "BeltLevelUpdated",
      "type": "event"
    },
    {
      "anonymous": false,
      "inputs": [
        {
          "indexed": true,
          "internalType": "uint256",
          "name": "id",
          "type": "uint256"
        },
        {
          "indexed": false,
          "internalType": "string",
          "name": "name",
          "type": "string"
        },
        {
          "indexed": false,
          "internalType": "address",
          "name": "walletAddress",
          "type": "address"
        },
        {
          "indexed": false,
          "internalType": "enum JudoBeltSystem.BeltLevel",
          "name": "beltLevel",
          "type": "uint8"
        },
        {
          "indexed": false,
          "internalType": "uint256",
          "name": "timestamp",
          "type": "uint256"
        }
      ],
      "name": "JudokaRegistered",
      "type": "event"
    },
    {
      "inputs": [],
      "name": "admin",
      "outputs": [
        {
          "internalType": "address",
          "name": "",
          "type": "address"
        }
      ],
      "stateMutability": "view",
      "type": "function",
      "constant": true
    },
    {
      "inputs": [],
      "name": "judokaCount",
      "outputs": [
        {
          "internalType": "uint256",
          "name": "",
          "type": "uint256"
        }
      ],
      "stateMutability": "view",
      "type": "function",
      "constant": true
    },
    {
      "inputs": [
        {
          "internalType": "address",
          "name": "",
          "type": "address"
        }
      ],
      "name": "judokaIds",
      "outputs": [
        {
          "internalType": "uint256",
          "name": "",
          "type": "uint256"
        }
      ],
      "stateMutability": "view",
      "type": "function",
      "constant": true
    },
    {
      "inputs": [
        {
          "internalType": "uint256",
          "name": "",
          "type": "uint256"
        }
      ],
      "name": "judokas",
      "outputs": [
        {
          "internalType": "uint256",
          "name": "id",
          "type": "uint256"
        },
        {
          "internalType": "string",
          "name": "name",
          "type": "string"
        },
        {
          "internalType": "address",
          "name": "walletAddress",
          "type": "address"
        },
        {
          "internalType": "enum JudoBeltSystem.BeltLevel",
          "name": "beltLevel",
          "type": "uint8"
        }
      ],
      "stateMutability": "view",
      "type": "function",
      "constant": true
    },
    {
      "inputs": [
        {
          "internalType": "string",
          "name": "_name",
          "type": "string"
        },
        {
          "internalType": "address",
          "name": "_walletAddress",
          "type": "address"
        }
      ],
      "name": "registerBlackBelt",
      "outputs": [],
      "stateMutability": "nonpayable",
      "type": "function"
    },
    {
      "inputs": [
        {
          "internalType": "string",
          "name": "_name",
          "type": "string"
        },
        {
          "internalType": "address",
          "name": "_walletAddress",
          "type": "address"
        }
      ],
      "name": "registerJudoka",
      "outputs": [],
      "stateMutability": "nonpayable",
      "type": "function"
    },
    {
      "inputs": [
        {
          "internalType": "uint256",
          "name": "_id",
          "type": "uint256"
        }
      ],
      "name": "getBeltLevel",
      "outputs": [
        {
          "internalType": "enum JudoBeltSystem.BeltLevel",
          "name": "",
          "type": "uint8"
        }
      ],
      "stateMutability": "view",
      "type": "function",
      "constant": true
    },
    {
      "inputs": [
        {
          "internalType": "uint256",
          "name": "_id",
          "type": "uint256"
        },
        {
          "internalType": "enum JudoBeltSystem.BeltLevel",
          "name": "_newBeltLevel",
          "type": "uint8"
        }
      ],
      "name": "promoteJudoka",
      "outputs": [],
      "stateMutability": "nonpayable",
      "type": "function"
    },
    {
      "inputs": [
        {
          "internalType": "address",
          "name": "_address",
          "type": "address"
        }
      ],
      "name": "isBlackBelt",
      "outputs": [
        {
          "internalType": "bool",
          "name": "",
          "type": "bool"
        }
      ],
      "stateMutability": "view",
      "type": "function",
      "constant": true
    }
  ],
  "bytecode": "0x608060405234801561001057600080fd5b5033600360006101000a81548173ffffffffffffffffffffffffffffffffffffffff021916908373ffffffffffffffffffffffffffffffffffffffff1602179055506115b7806100616000396000f3fe608060405234801561001057600080fd5b50600436106100935760003560e01c80632eedc465116100665780632eedc465146101305780633ab9f6d81461014c578063cab96b701461017c578063ce3824b21461019a578063f851a440146101cd57610093565b806310c1224c14610098578063179dafc5146100c85780631ef31992146100e457806322b9dd9014610114575b600080fd5b6100b260048036038101906100ad9190610dc3565b6101eb565b6040516100bf91906110db565b60405180910390f35b6100e260048036038101906100dd9190610dec565b6102c9565b005b6100fe60048036038101906100f99190610e40565b6105b7565b60405161010b91906110f6565b60405180910390f35b61012e60048036038101906101299190610e69565b610634565b005b61014a60048036038101906101459190610dec565b61086f565b005b61016660048036038101906101619190610dc3565b610b50565b6040516101739190611254565b60405180910390f35b610184610b68565b6040516101919190611254565b60405180910390f35b6101b460048036038101906101af9190610e40565b610b6e565b6040516101c4949392919061126f565b60405180910390f35b6101d5610c53565b6040516101e291906110c0565b60405180910390f35b6000600680811115610226577f4e487b7100000000000000000000000000000000000000000000000000000000600052602160045260246000fd5b60016000600260008673ffffffffffffffffffffffffffffffffffffffff1673ffffffffffffffffffffffffffffffffffffffff16815260200190815260200160002054815260200190815260200160002060020160149054906101000a900460ff1660068111156102c1577f4e487b7100000000000000000000000000000000000000000000000000000000600052602160045260246000fd5b149050919050565b600360009054906101000a900473ffffffffffffffffffffffffffffffffffffffff1673ffffffffffffffffffffffffffffffffffffffff163373ffffffffffffffffffffffffffffffffffffffff1614610359576040517f08c379a0000000000000000000000000000000000000000000000000000000008152600401610350906111b4565b60405180910390fd5b600073ffffffffffffffffffffffffffffffffffffffff168173ffffffffffffffffffffffffffffffffffffffff1614156103c9576040517f08c379a00000000000000000000000000000000000000000000000000000000081526004016103c090611214565b60405180910390fd5b6000808154809291906103db90611419565b9190505550604051806080016040528060005481526020018381526020018273ffffffffffffffffffffffffffffffffffffffff16815260200160068081111561044e577f4e487b7100000000000000000000000000000000000000000000000000000000600052602160045260246000fd5b815250600160008054815260200190815260200160002060008201518160000155602082015181600101908051906020019061048b929190610c79565b5060408201518160020160006101000a81548173ffffffffffffffffffffffffffffffffffffffff021916908373ffffffffffffffffffffffffffffffffffffffff16021790555060608201518160020160146101000a81548160ff02191690836006811115610524577f4e487b7100000000000000000000000000000000000000000000000000000000600052602160045260246000fd5b0217905550905050600054600260008373ffffffffffffffffffffffffffffffffffffffff1673ffffffffffffffffffffffffffffffffffffffff168152602001908152602001600020819055506000547fad8abb44c77ae2ff8499b7cd2ca73eb2a4a10d2b63d125fdac22b44bb91ed8af83836006426040516105ab9493929190611148565b60405180910390a25050565b600080821180156105ca57506000548211155b610609576040517f08c379a000000000000000000000000000000000000000000000000000000000815260040161060090611234565b60405180910390fd5b6001600083815260200190815260200160002060020160149054906101000a900460ff169050919050565b61063d336101eb565b61067c576040517f08c379a0000000000000000000000000000000000000000000000000000000008152600401610673906111d4565b60405180910390fd5b60008211801561068e57506000548211155b6106cd576040517f08c379a00000000000000000000000000000000000000000000000000000000081526004016106c490611234565b60405180910390fd5b6001600083815260200190815260200160002060020160149054906101000a900460ff166006811115610729577f4e487b7100000000000000000000000000000000000000000000000000000000600052602160045260246000fd5b816006811115610762577f4e487b7100000000000000000000000000000000000000000000000000000000600052602160045260246000fd5b116107a2576040517f08c379a000000000000000000000000000000000000000000000000000000000815260040161079990611194565b60405180910390fd5b60006001600084815260200190815260200160002060020160149054906101000a900460ff169050816001600085815260200190815260200160002060020160146101000a81548160ff02191690836006811115610829577f4e487b7100000000000000000000000000000000000000000000000000000000600052602160045260246000fd5b0217905550827f01ae96fe1baf9d2d284e6a11b7ab2a76e1c8b047b807650660b4370d50462f2382844260405161086293929190611111565b60405180910390a2505050565b600073ffffffffffffffffffffffffffffffffffffffff168173ffffffffffffffffffffffffffffffffffffffff1614156108df576040517f08c379a00000000000000000000000000000000000000000000000000000000081526004016108d690611214565b60405180910390fd5b6000600260008373ffffffffffffffffffffffffffffffffffffffff1673ffffffffffffffffffffffffffffffffffffffff1681526020019081526020016000205414610961576040517f08c379a0000000000000000000000000000000000000000000000000000000008152600401610958906111f4565b60405180910390fd5b60008081548092919061097390611419565b9190505550604051806080016040528060005481526020018381526020018273ffffffffffffffffffffffffffffffffffffffff168152602001600060068111156109e7577f4e487b7100000000000000000000000000000000000000000000000000000000600052602160045260246000fd5b8152506001600080548152602001908152602001600020600082015181600001556020820151816001019080519060200190610a24929190610c79565b5060408201518160020160006101000a81548173ffffffffffffffffffffffffffffffffffffffff021916908373ffffffffffffffffffffffffffffffffffffffff16021790555060608201518160020160146101000a81548160ff02191690836006811115610abd577f4e487b7100000000000000000000000000000000000000000000000000000000600052602160045260246000fd5b0217905550905050600054600260008373ffffffffffffffffffffffffffffffffffffffff1673ffffffffffffffffffffffffffffffffffffffff168152602001908152602001600020819055506000547fad8abb44c77ae2ff8499b7cd2ca73eb2a4a10d2b63d125fdac22b44bb91ed8af8383600042604051610b449493929190611148565b60405180910390a25050565b60026020528060005260406000206000915090505481565b60005481565b6001602052806000526040600020600091509050806000015490806001018054610b97906113e7565b80601f0160208091040260200160405190810160405280929190818152602001828054610bc3906113e7565b8015610c105780601f10610be557610100808354040283529160200191610c10565b820191906000526020600020905b815481529060010190602001808311610bf357829003601f168201915b5050505050908060020160009054906101000a900473ffffffffffffffffffffffffffffffffffffffff16908060020160149054906101000a900460ff16905084565b600360009054906101000a900473ffffffffffffffffffffffffffffffffffffffff1681565b828054610c85906113e7565b90600052602060002090601f016020900481019282610ca75760008555610cee565b82601f10610cc057805160ff1916838001178555610cee565b82800160010185558215610cee579182015b82811115610ced578251825591602001919060010190610cd2565b5b509050610cfb9190610cff565b5090565b5b80821115610d18576000816000905550600101610d00565b5090565b6000610d2f610d2a846112ec565b6112bb565b905082815260208101848484011115610d4757600080fd5b610d528482856113a5565b509392505050565b600081359050610d6981611543565b92915050565b600081359050610d7e8161155a565b92915050565b600082601f830112610d9557600080fd5b8135610da5848260208601610d1c565b91505092915050565b600081359050610dbd8161156a565b92915050565b600060208284031215610dd557600080fd5b6000610de384828501610d5a565b91505092915050565b60008060408385031215610dff57600080fd5b600083013567ffffffffffffffff811115610e1957600080fd5b610e2585828601610d84565b9250506020610e3685828601610d5a565b9150509250929050565b600060208284031215610e5257600080fd5b6000610e6084828501610dae565b91505092915050565b60008060408385031215610e7c57600080fd5b6000610e8a85828601610dae565b9250506020610e9b85828601610d6f565b9150509250929050565b610eae81611338565b82525050565b610ebd8161134a565b82525050565b610ecc81611393565b82525050565b6000610edd8261131c565b610ee78185611327565b9350610ef78185602086016113b4565b610f008161151e565b840191505092915050565b6000610f18601883611327565b91507f4e6577206c6576656c206d7573742062652068696768657200000000000000006000830152602082019050919050565b6000610f58601e83611327565b91507f4f6e6c792061646d696e2063616e2061646420626c61636b2062656c747300006000830152602082019050919050565b6000610f98602483611327565b91507f4f6e6c7920626c61636b2062656c74732063616e2070726f6d6f7465206a756460008301527f6f6b6173000000000000000000000000000000000000000000000000000000006020830152604082019050919050565b6000610ffe601983611327565b91507f4a75646f6b6120616c72656164792072656769737465726564000000000000006000830152602082019050919050565b600061103e601683611327565b91507f496e76616c69642077616c6c65742061646472657373000000000000000000006000830152602082019050919050565b600061107e601683611327565b91507f4a75646f6b6120646f6573206e6f742065786973742e000000000000000000006000830152602082019050919050565b6110ba81611389565b82525050565b60006020820190506110d56000830184610ea5565b92915050565b60006020820190506110f06000830184610eb4565b92915050565b600060208201905061110b6000830184610ec3565b92915050565b60006060820190506111266000830186610ec3565b6111336020830185610ec3565b61114060408301846110b1565b949350505050565b600060808201905081810360008301526111628187610ed2565b90506111716020830186610ea5565b61117e6040830185610ec3565b61118b60608301846110b1565b95945050505050565b600060208201905081810360008301526111ad81610f0b565b9050919050565b600060208201905081810360008301526111cd81610f4b565b9050919050565b600060208201905081810360008301526111ed81610f8b565b9050919050565b6000602082019050818103600083015261120d81610ff1565b9050919050565b6000602082019050818103600083015261122d81611031565b9050919050565b6000602082019050818103600083015261124d81611071565b9050919050565b600060208201905061126960008301846110b1565b92915050565b600060808201905061128460008301876110b1565b81810360208301526112968186610ed2565b90506112a56040830185610ea5565b6112b26060830184610ec3565b95945050505050565b6000604051905081810181811067ffffffffffffffff821117156112e2576112e16114ef565b5b8060405250919050565b600067ffffffffffffffff821115611307576113066114ef565b5b601f19601f8301169050602081019050919050565b600081519050919050565b600082825260208201905092915050565b600061134382611369565b9050919050565b60008115159050919050565b60008190506113648261152f565b919050565b600073ffffffffffffffffffffffffffffffffffffffff82169050919050565b6000819050919050565b600061139e82611356565b9050919050565b82818337600083830152505050565b60005b838110156113d25780820151818401526020810190506113b7565b838111156113e1576000848401525b50505050565b600060028204905060018216806113ff57607f821691505b60208210811415611413576114126114c0565b5b50919050565b600061142482611389565b91507fffffffffffffffffffffffffffffffffffffffffffffffffffffffffffffffff82141561145757611456611462565b5b600182019050919050565b7f4e487b7100000000000000000000000000000000000000000000000000000000600052601160045260246000fd5b7f4e487b7100000000000000000000000000000000000000000000000000000000600052602160045260246000fd5b7f4e487b7100000000000000000000000000000000000000000000000000000000600052602260045260246000fd5b7f4e487b7100000000000000000000000000000000000000000000000000000000600052604160045260246000fd5b6000601f19601f8301169050919050565b600781106115405761153f611491565b5b50565b61154c81611338565b811461155757600080fd5b50565b6007811061156757600080fd5b50565b61157381611389565b811461157e57600080fd5b5056fea2646970667358221220720b826c8adfd2fb055d3fe5cd7092e9b3bb7a105ee621c5d9cd86a4a378724f64736f6c63430008000033",
  "immutableReferences": {},
  "source": "// SPDX-License-Identifier: MIT\r\npragma solidity ^0.8.0;\r\n\r\ncontract JudoBeltSystem {\r\n    enum BeltLevel { White, Yellow, Orange, Green, Blue, Brown, Black }\r\n\r\n    struct Judoka {\r\n        uint256 id;\r\n        string name;\r\n        address walletAddress;\r\n        BeltLevel beltLevel;\r\n    }\r\n\r\n    uint256 public judokaCount;\r\n    mapping(uint256 => Judoka) public judokas;\r\n    mapping(address => uint256) public judokaIds;\r\n    address public admin;\r\n\r\n    // Updated event definitions with timestamps\r\n    event JudokaRegistered(uint256 indexed id, string name, address walletAddress, BeltLevel beltLevel, uint256 timestamp);\r\n    event BeltLevelUpdated(uint256 indexed id, BeltLevel oldBeltLevel, BeltLevel newBeltLevel, uint256 timestamp);\r\n\r\n    constructor() {\r\n        admin = msg.sender;\r\n    }\r\n\r\n    function registerBlackBelt(string memory _name, address _walletAddress) public {\r\n        require(msg.sender == admin, \"Only admin can add black belts\");\r\n        require(_walletAddress != address(0), \"Invalid wallet address\");\r\n        judokaCount++;\r\n        judokas[judokaCount] = Judoka(judokaCount, _name, _walletAddress, BeltLevel.Black);\r\n        judokaIds[_walletAddress] = judokaCount;\r\n        emit JudokaRegistered(judokaCount, _name, _walletAddress, BeltLevel.Black, block.timestamp);\r\n    }\r\n\r\n    function registerJudoka(string memory _name, address _walletAddress) public {\r\n        require(_walletAddress != address(0), \"Invalid wallet address\");\r\n        require(judokaIds[_walletAddress] == 0, \"Judoka already registered\");\r\n        judokaCount++;\r\n        judokas[judokaCount] = Judoka(judokaCount, _name, _walletAddress, BeltLevel.White);\r\n        judokaIds[_walletAddress] = judokaCount;\r\n        emit JudokaRegistered(judokaCount, _name, _walletAddress, BeltLevel.White, block.timestamp);\r\n    }\r\n\r\n    function getBeltLevel(uint256 _id) public view returns (BeltLevel) {\r\n        require(_id > 0 && _id <= judokaCount, \"Judoka does not exist.\");\r\n        return judokas[_id].beltLevel;\r\n    }\r\n\r\n    function promoteJudoka(uint256 _id, BeltLevel _newBeltLevel) public {\r\n        require(isBlackBelt(msg.sender), \"Only black belts can promote judokas\");\r\n        require(_id > 0 && _id <= judokaCount, \"Judoka does not exist.\");\r\n        require(_newBeltLevel > judokas[_id].beltLevel, \"New level must be higher\");\r\n\r\n        BeltLevel oldBeltLevel = judokas[_id].beltLevel;\r\n        judokas[_id].beltLevel = _newBeltLevel;\r\n\r\n        emit BeltLevelUpdated(_id, oldBeltLevel, _newBeltLevel, block.timestamp);\r\n    }\r\n\r\n    function isBlackBelt(address _address) public view returns(bool) {\r\n        return judokas[judokaIds[_address]].beltLevel == BeltLevel.Black;\r\n    }\r\n}\r\n",
  "sourcePath": "C:\\Users\\marti\\Documents\\projects\\judo-dapp\\contracts\\JudoBeltSystem.sol",
  "compiler": {
    "name": "solc",
    "version": "0.8.0+commit.c7dfd78e.Emscripten.clang"
  },
  "schemaVersion": "3.4.16",
  "updatedAt": "2024-01-19T08:59:18.550Z",
  "networkType": "ethereum",
  "devdoc": {
    "kind": "dev",
    "methods": {},
    "version": 1
  },
  "userdoc": {
    "kind": "user",
    "methods": {},
    "version": 1
  }
}