{
  "contractName": "JudoBeltStorage",
  "abi": [
    {
      "inputs": [],
      "stateMutability": "nonpayable",
      "type": "constructor"
    },
    {
      "inputs": [],
      "name": "admin",
      "outputs": [
        {
          "internalType": "address",
          "name": "",
          "type": "address"
        }
      ],
      "stateMutability": "view",
      "type": "function",
      "constant": true
    },
    {
      "inputs": [],
      "name": "beltPromotionAddress",
      "outputs": [
        {
          "internalType": "address",
          "name": "",
          "type": "address"
        }
      ],
      "stateMutability": "view",
      "type": "function",
      "constant": true
    },
    {
      "inputs": [
        {
          "internalType": "address",
          "name": "",
          "type": "address"
        }
      ],
      "name": "judokaBelts",
      "outputs": [
        {
          "internalType": "enum JudoBeltStorage.BeltLevel",
          "name": "",
          "type": "uint8"
        }
      ],
      "stateMutability": "view",
      "type": "function",
      "constant": true
    },
    {
      "inputs": [],
      "name": "userRegistrationAddress",
      "outputs": [
        {
          "internalType": "address",
          "name": "",
          "type": "address"
        }
      ],
      "stateMutability": "view",
      "type": "function",
      "constant": true
    },
    {
      "inputs": [
        {
          "internalType": "address",
          "name": "_userRegistrationAddress",
          "type": "address"
        },
        {
          "internalType": "address",
          "name": "_beltPromotionAddress",
          "type": "address"
        }
      ],
      "name": "setContractAddresses",
      "outputs": [],
      "stateMutability": "nonpayable",
      "type": "function"
    },
    {
      "inputs": [
        {
          "internalType": "address",
          "name": "judoka",
          "type": "address"
        },
        {
          "internalType": "enum JudoBeltStorage.BeltLevel",
          "name": "belt",
          "type": "uint8"
        },
        {
          "internalType": "address",
          "name": "caller",
          "type": "address"
        }
      ],
      "name": "setBeltLevel",
      "outputs": [],
      "stateMutability": "nonpayable",
      "type": "function"
    },
    {
      "inputs": [
        {
          "internalType": "address",
          "name": "judoka",
          "type": "address"
        }
      ],
      "name": "getBeltLevel",
      "outputs": [
        {
          "internalType": "enum JudoBeltStorage.BeltLevel",
          "name": "",
          "type": "uint8"
        }
      ],
      "stateMutability": "view",
      "type": "function",
      "constant": true
    }
  ],
  "bytecode": "0x608060405234801561001057600080fd5b5033600160006101000a81548173ffffffffffffffffffffffffffffffffffffffff021916908373ffffffffffffffffffffffffffffffffffffffff1602179055506006600080736bd300ecfc394dd230f81b5d4e0d003416dcbadf73ffffffffffffffffffffffffffffffffffffffff1673ffffffffffffffffffffffffffffffffffffffff16815260200190815260200160002060006101000a81548160ff021916908360068111156100ee577f4e487b7100000000000000000000000000000000000000000000000000000000600052602160045260246000fd5b021790555060066000807301555eee2732c708bb8d628e44366ff0bb19cf3373ffffffffffffffffffffffffffffffffffffffff1673ffffffffffffffffffffffffffffffffffffffff16815260200190815260200160002060006101000a81548160ff0219169083600681111561018f577f4e487b7100000000000000000000000000000000000000000000000000000000600052602160045260246000fd5b0217905550610a0b806101a36000396000f3fe608060405234801561001057600080fd5b506004361061007d5760003560e01c8063919bfdc51161005b578063919bfdc5146100ee578063cd931e401461010a578063e00e271314610126578063f851a440146101565761007d565b80630a0b6ce7146100825780634557c484146100b2578063514b2f6d146100d0575b600080fd5b61009c60048036038101906100979190610669565b610174565b6040516100a99190610888565b60405180910390f35b6100ba610194565b6040516100c7919061086d565b60405180910390f35b6100d86101ba565b6040516100e5919061086d565b60405180910390f35b610108600480360381019061010391906106ce565b6101e0565b005b610124600480360381019061011f9190610692565b6104ae565b005b610140600480360381019061013b9190610669565b6105c4565b60405161014d9190610888565b60405180910390f35b61015e610619565b60405161016b919061086d565b60405180910390f35b60006020528060005260406000206000915054906101000a900460ff1681565b600360009054906101000a900473ffffffffffffffffffffffffffffffffffffffff1681565b600260009054906101000a900473ffffffffffffffffffffffffffffffffffffffff1681565b600260009054906101000a900473ffffffffffffffffffffffffffffffffffffffff1673ffffffffffffffffffffffffffffffffffffffff163373ffffffffffffffffffffffffffffffffffffffff1614806102895750600360009054906101000a900473ffffffffffffffffffffffffffffffffffffffff1673ffffffffffffffffffffffffffffffffffffffff163373ffffffffffffffffffffffffffffffffffffffff16145b6102c8576040517f08c379a00000000000000000000000000000000000000000000000000000000081526004016102bf906108a3565b60405180910390fd5b600160009054906101000a900473ffffffffffffffffffffffffffffffffffffffff1673ffffffffffffffffffffffffffffffffffffffff168173ffffffffffffffffffffffffffffffffffffffff1614806103de5750600680811115610358577f4e487b7100000000000000000000000000000000000000000000000000000000600052602160045260246000fd5b6000808373ffffffffffffffffffffffffffffffffffffffff1673ffffffffffffffffffffffffffffffffffffffff16815260200190815260200160002060009054906101000a900460ff1660068111156103dc577f4e487b7100000000000000000000000000000000000000000000000000000000600052602160045260246000fd5b145b61041d576040517f08c379a0000000000000000000000000000000000000000000000000000000008152600401610414906108e3565b60405180910390fd5b816000808573ffffffffffffffffffffffffffffffffffffffff1673ffffffffffffffffffffffffffffffffffffffff16815260200190815260200160002060006101000a81548160ff021916908360068111156104a4577f4e487b7100000000000000000000000000000000000000000000000000000000600052602160045260246000fd5b0217905550505050565b600160009054906101000a900473ffffffffffffffffffffffffffffffffffffffff1673ffffffffffffffffffffffffffffffffffffffff163373ffffffffffffffffffffffffffffffffffffffff161461053e576040517f08c379a0000000000000000000000000000000000000000000000000000000008152600401610535906108c3565b60405180910390fd5b81600260006101000a81548173ffffffffffffffffffffffffffffffffffffffff021916908373ffffffffffffffffffffffffffffffffffffffff16021790555080600360006101000a81548173ffffffffffffffffffffffffffffffffffffffff021916908373ffffffffffffffffffffffffffffffffffffffff1602179055505050565b60008060008373ffffffffffffffffffffffffffffffffffffffff1673ffffffffffffffffffffffffffffffffffffffff16815260200190815260200160002060009054906101000a900460ff169050919050565b600160009054906101000a900473ffffffffffffffffffffffffffffffffffffffff1681565b60008135905061064e816109ae565b92915050565b600081359050610663816109c5565b92915050565b60006020828403121561067b57600080fd5b60006106898482850161063f565b91505092915050565b600080604083850312156106a557600080fd5b60006106b38582860161063f565b92505060206106c48582860161063f565b9150509250929050565b6000806000606084860312156106e357600080fd5b60006106f18682870161063f565b935050602061070286828701610654565b92505060406107138682870161063f565b9150509250925092565b61072681610914565b82525050565b61073581610959565b82525050565b6000610748602e83610903565b91507f4f6e6c7920737065636966696320636f6e7472616374732063616e2063616c6c60008301527f20746869732066756e6374696f6e0000000000000000000000000000000000006020830152604082019050919050565b60006107ae602283610903565b91507f4f6e6c792061646d696e2063616e20706572666f726d2074686973206163746960008301527f6f6e0000000000000000000000000000000000000000000000000000000000006020830152604082019050919050565b6000610814603083610903565b91507f4f6e6c792061646d696e206f7220626c61636b2062656c74732063616e206d6f60008301527f646966792062656c74206c6576656c73000000000000000000000000000000006020830152604082019050919050565b6000602082019050610882600083018461071d565b92915050565b600060208201905061089d600083018461072c565b92915050565b600060208201905081810360008301526108bc8161073b565b9050919050565b600060208201905081810360008301526108dc816107a1565b9050919050565b600060208201905081810360008301526108fc81610807565b9050919050565b600082825260208201905092915050565b600061091f82610939565b9050919050565b60008190506109348261099a565b919050565b600073ffffffffffffffffffffffffffffffffffffffff82169050919050565b600061096482610926565b9050919050565b7f4e487b7100000000000000000000000000000000000000000000000000000000600052602160045260246000fd5b600781106109ab576109aa61096b565b5b50565b6109b781610914565b81146109c257600080fd5b50565b600781106109d257600080fd5b5056fea2646970667358221220598fdf643a940268c922dafa0a4e96e655cbb4b65e3a832ed5521bdb3e9d486864736f6c63430008000033",
  "immutableReferences": {},
  "source": "// SPDX-License-Identifier: MIT\r\npragma solidity ^0.8.0;\r\n\r\ncontract JudoBeltStorage {\r\n    enum BeltLevel { White, Yellow, Orange, Green, Blue, Brown, Black }\r\n    mapping(address => BeltLevel) public judokaBelts;\r\n\r\n    address public admin;\r\n    address constant blackBelt1 = 0x6bD300EcFc394Dd230f81B5D4e0D003416dcBAdF;\r\n    address constant blackBelt2 = 0x01555EEE2732C708BB8D628E44366Ff0Bb19CF33;\r\n\r\n    // Addresses of allowed contracts\r\n    address public userRegistrationAddress;\r\n    address public beltPromotionAddress;\r\n\r\n    modifier onlyAdmin() {\r\n        require(msg.sender == admin, \"Only admin can perform this action\");\r\n        _;\r\n    }\r\n\r\n    constructor() {\r\n        admin = msg.sender;\r\n        judokaBelts[blackBelt1] = BeltLevel.Black;\r\n        judokaBelts[blackBelt2] = BeltLevel.Black;\r\n    }\r\n\r\n    function setContractAddresses(address _userRegistrationAddress, address _beltPromotionAddress) external onlyAdmin {\r\n        userRegistrationAddress = _userRegistrationAddress;\r\n        beltPromotionAddress = _beltPromotionAddress;\r\n    }\r\n\r\n    function setBeltLevel(address judoka, BeltLevel belt, address caller) public {\r\n        require(\r\n            msg.sender == userRegistrationAddress || msg.sender == beltPromotionAddress,\r\n            \"Only specific contracts can call this function\"\r\n        );\r\n        require(\r\n            caller == admin || judokaBelts[caller] == BeltLevel.Black,\r\n            \"Only admin or black belts can modify belt levels\"\r\n        );\r\n        judokaBelts[judoka] = belt;\r\n    }\r\n\r\n    function getBeltLevel(address judoka) external view returns (BeltLevel) {\r\n        return judokaBelts[judoka];\r\n    }\r\n}\r\n",
  "sourcePath": "C:\\Users\\marti\\Documents\\projects\\judo-dapp\\contracts\\JudoBeltStorage.sol",
  "compiler": {
    "name": "solc",
    "version": "0.8.0+commit.c7dfd78e.Emscripten.clang"
  },
  "schemaVersion": "3.4.16",
  "updatedAt": "2024-01-10T16:54:15.288Z",
  "networkType": "ethereum",
  "devdoc": {
    "kind": "dev",
    "methods": {},
    "version": 1
  },
  "userdoc": {
    "kind": "user",
    "methods": {},
    "version": 1
  }
}