{
  "contractName": "JudoUserRegistration",
  "abi": [
    {
      "inputs": [
        {
          "internalType": "address",
          "name": "_storageAddress",
          "type": "address"
        }
      ],
      "stateMutability": "nonpayable",
      "type": "constructor"
    },
    {
      "inputs": [
        {
          "internalType": "address",
          "name": "userAddress",
          "type": "address"
        },
        {
          "internalType": "enum JudoBeltStorage.BeltLevel",
          "name": "belt",
          "type": "uint8"
        }
      ],
      "name": "registerUser",
      "outputs": [],
      "stateMutability": "nonpayable",
      "type": "function"
    }
  ],
  "bytecode": "0x608060405234801561001057600080fd5b506040516105d93803806105d98339818101604052810190610032919061008d565b806000806101000a81548173ffffffffffffffffffffffffffffffffffffffff021916908373ffffffffffffffffffffffffffffffffffffffff160217905550506100ff565b600081519050610087816100e8565b92915050565b60006020828403121561009f57600080fd5b60006100ad84828501610078565b91505092915050565b60006100c1826100c8565b9050919050565b600073ffffffffffffffffffffffffffffffffffffffff82169050919050565b6100f1816100b6565b81146100fc57600080fd5b50565b6104cb8061010e6000396000f3fe608060405234801561001057600080fd5b506004361061002b5760003560e01c80639e9fa09714610030575b600080fd5b61004a60048036038101906100459190610276565b61004c565b005b600680811115610085577f4e487b7100000000000000000000000000000000000000000000000000000000600052602160045260246000fd5b60008054906101000a900473ffffffffffffffffffffffffffffffffffffffff1673ffffffffffffffffffffffffffffffffffffffff1663e00e2713336040518263ffffffff1660e01b81526004016100de919061035f565b60206040518083038186803b1580156100f657600080fd5b505afa15801561010a573d6000803e3d6000fd5b505050506040513d601f19601f8201168201806040525081019061012e91906102b2565b6006811115610166577f4e487b7100000000000000000000000000000000000000000000000000000000600052602160045260246000fd5b146101a6576040517f08c379a000000000000000000000000000000000000000000000000000000000815260040161019d906103a3565b60405180910390fd5b60008054906101000a900473ffffffffffffffffffffffffffffffffffffffff1673ffffffffffffffffffffffffffffffffffffffff1663d53f325083836040518363ffffffff1660e01b815260040161020192919061037a565b600060405180830381600087803b15801561021b57600080fd5b505af115801561022f573d6000803e3d6000fd5b505050505050565b6000813590506102468161046e565b92915050565b60008135905061025b81610485565b92915050565b60008151905061027081610485565b92915050565b6000806040838503121561028957600080fd5b600061029785828601610237565b92505060206102a88582860161024c565b9150509250929050565b6000602082840312156102c457600080fd5b60006102d284828501610261565b91505092915050565b6102e4816103d4565b82525050565b6102f381610419565b82525050565b60006103066023836103c3565b91507f4f6e6c7920626c61636b2062656c74732063616e20726567697374657220757360008301527f65727300000000000000000000000000000000000000000000000000000000006020830152604082019050919050565b600060208201905061037460008301846102db565b92915050565b600060408201905061038f60008301856102db565b61039c60208301846102ea565b9392505050565b600060208201905081810360008301526103bc816102f9565b9050919050565b600082825260208201905092915050565b60006103df826103f9565b9050919050565b60008190506103f48261045a565b919050565b600073ffffffffffffffffffffffffffffffffffffffff82169050919050565b6000610424826103e6565b9050919050565b7f4e487b7100000000000000000000000000000000000000000000000000000000600052602160045260246000fd5b6007811061046b5761046a61042b565b5b50565b610477816103d4565b811461048257600080fd5b50565b6007811061049257600080fd5b5056fea2646970667358221220d85508ff506cfa8637c2b106de2a888f52a56eb76f3287a5795f438201a0e71364736f6c63430008000033",
  "immutableReferences": {},
  "source": "// SPDX-License-Identifier: MIT\r\npragma solidity ^0.8.0;\r\n\r\nimport \"./JudoBeltStorage.sol\";\r\n\r\ncontract JudoUserRegistration {\r\n    JudoBeltStorage private storageContract;\r\n\r\n    constructor(address _storageAddress) {\r\n        storageContract = JudoBeltStorage(_storageAddress);\r\n    }\r\n\r\n    function registerUser(address userAddress, JudoBeltStorage.BeltLevel belt) public {\r\n        require(storageContract.getBeltLevel(msg.sender) == JudoBeltStorage.BeltLevel.Black, \"Only black belts can register users\");\r\n        storageContract.setBeltLevel(userAddress, belt);\r\n    }\r\n}\r\n",
  "sourcePath": "C:\\Users\\marti\\Documents\\projects\\judo-dapp\\contracts\\JudoUserRegistration.sol",
  "compiler": {
    "name": "solc",
    "version": "0.8.0+commit.c7dfd78e.Emscripten.clang"
  },
  "schemaVersion": "3.4.16",
  "updatedAt": "2024-01-08T14:21:14.062Z",
  "networkType": "ethereum",
  "devdoc": {
    "kind": "dev",
    "methods": {},
    "version": 1
  },
  "userdoc": {
    "kind": "user",
    "methods": {},
    "version": 1
  }
}